{
  "contractName": "Bridge",
  "abi": [
    {
      "inputs": [
        {
          "internalType": "uint8",
          "name": "chainID",
          "type": "uint8"
        },
        {
          "internalType": "address[]",
          "name": "initialRelayers",
          "type": "address[]"
        },
        {
          "internalType": "uint256",
          "name": "initialRelayerThreshold",
          "type": "uint256"
        },
        {
          "internalType": "uint256",
          "name": "fee",
          "type": "uint256"
        },
        {
          "internalType": "uint256",
          "name": "expiry",
          "type": "uint256"
        }
      ],
      "stateMutability": "nonpayable",
      "type": "constructor"
    },
    {
      "anonymous": false,
      "inputs": [
        {
          "indexed": true,
          "internalType": "uint8",
          "name": "destinationChainID",
          "type": "uint8"
        },
        {
          "indexed": true,
          "internalType": "bytes32",
          "name": "resourceID",
          "type": "bytes32"
        },
        {
          "indexed": true,
          "internalType": "uint64",
          "name": "depositNonce",
          "type": "uint64"
        }
      ],
      "name": "Deposit",
      "type": "event"
    },
    {
      "anonymous": false,
      "inputs": [
        {
          "indexed": false,
          "internalType": "address",
          "name": "account",
          "type": "address"
        }
      ],
      "name": "Paused",
      "type": "event"
    },
    {
      "anonymous": false,
      "inputs": [
        {
          "indexed": true,
          "internalType": "uint8",
          "name": "originChainID",
          "type": "uint8"
        },
        {
          "indexed": true,
          "internalType": "uint64",
          "name": "depositNonce",
          "type": "uint64"
        },
        {
          "indexed": true,
          "internalType": "enum Bridge.ProposalStatus",
          "name": "status",
          "type": "uint8"
        },
        {
          "indexed": false,
          "internalType": "bytes32",
          "name": "resourceID",
          "type": "bytes32"
        },
        {
          "indexed": false,
          "internalType": "bytes32",
          "name": "dataHash",
          "type": "bytes32"
        }
      ],
      "name": "ProposalEvent",
      "type": "event"
    },
    {
      "anonymous": false,
      "inputs": [
        {
          "indexed": true,
          "internalType": "uint8",
          "name": "originChainID",
          "type": "uint8"
        },
        {
          "indexed": true,
          "internalType": "uint64",
          "name": "depositNonce",
          "type": "uint64"
        },
        {
          "indexed": true,
          "internalType": "enum Bridge.ProposalStatus",
          "name": "status",
          "type": "uint8"
        },
        {
          "indexed": false,
          "internalType": "bytes32",
          "name": "resourceID",
          "type": "bytes32"
        }
      ],
      "name": "ProposalVote",
      "type": "event"
    },
    {
      "anonymous": false,
      "inputs": [
        {
          "indexed": true,
          "internalType": "address",
          "name": "relayer",
          "type": "address"
        }
      ],
      "name": "RelayerAdded",
      "type": "event"
    },
    {
      "anonymous": false,
      "inputs": [
        {
          "indexed": true,
          "internalType": "address",
          "name": "relayer",
          "type": "address"
        }
      ],
      "name": "RelayerRemoved",
      "type": "event"
    },
    {
      "anonymous": false,
      "inputs": [
        {
          "indexed": true,
          "internalType": "uint256",
          "name": "newThreshold",
          "type": "uint256"
        }
      ],
      "name": "RelayerThresholdChanged",
      "type": "event"
    },
    {
      "anonymous": false,
      "inputs": [
        {
          "indexed": true,
          "internalType": "bytes32",
          "name": "role",
          "type": "bytes32"
        },
        {
          "indexed": true,
          "internalType": "address",
          "name": "account",
          "type": "address"
        },
        {
          "indexed": true,
          "internalType": "address",
          "name": "sender",
          "type": "address"
        }
      ],
      "name": "RoleGranted",
      "type": "event"
    },
    {
      "anonymous": false,
      "inputs": [
        {
          "indexed": true,
          "internalType": "bytes32",
          "name": "role",
          "type": "bytes32"
        },
        {
          "indexed": true,
          "internalType": "address",
          "name": "account",
          "type": "address"
        },
        {
          "indexed": true,
          "internalType": "address",
          "name": "sender",
          "type": "address"
        }
      ],
      "name": "RoleRevoked",
      "type": "event"
    },
    {
      "anonymous": false,
      "inputs": [
        {
          "indexed": false,
          "internalType": "address",
          "name": "account",
          "type": "address"
        }
      ],
      "name": "Unpaused",
      "type": "event"
    },
    {
      "inputs": [],
      "name": "DEFAULT_ADMIN_ROLE",
      "outputs": [
        {
          "internalType": "bytes32",
          "name": "",
          "type": "bytes32"
        }
      ],
      "stateMutability": "view",
      "type": "function"
    },
    {
      "inputs": [],
      "name": "RELAYER_ROLE",
      "outputs": [
        {
          "internalType": "bytes32",
          "name": "",
          "type": "bytes32"
        }
      ],
      "stateMutability": "view",
      "type": "function"
    },
    {
      "inputs": [],
      "name": "_chainID",
      "outputs": [
        {
          "internalType": "uint8",
          "name": "",
          "type": "uint8"
        }
      ],
      "stateMutability": "view",
      "type": "function"
    },
    {
      "inputs": [
        {
          "internalType": "uint8",
          "name": "",
          "type": "uint8"
        }
      ],
      "name": "_depositCounts",
      "outputs": [
        {
          "internalType": "uint64",
          "name": "",
          "type": "uint64"
        }
      ],
      "stateMutability": "view",
      "type": "function"
    },
    {
      "inputs": [
        {
          "internalType": "uint64",
          "name": "",
          "type": "uint64"
        },
        {
          "internalType": "uint8",
          "name": "",
          "type": "uint8"
        }
      ],
      "name": "_depositRecords",
      "outputs": [
        {
          "internalType": "bytes",
          "name": "",
          "type": "bytes"
        }
      ],
      "stateMutability": "view",
      "type": "function"
    },
    {
      "inputs": [],
      "name": "_expiry",
      "outputs": [
        {
          "internalType": "uint256",
          "name": "",
          "type": "uint256"
        }
      ],
      "stateMutability": "view",
      "type": "function"
    },
    {
      "inputs": [],
      "name": "_fee",
      "outputs": [
        {
          "internalType": "uint256",
          "name": "",
          "type": "uint256"
        }
      ],
      "stateMutability": "view",
      "type": "function"
    },
    {
      "inputs": [
        {
          "internalType": "uint72",
          "name": "",
          "type": "uint72"
        },
        {
          "internalType": "bytes32",
          "name": "",
          "type": "bytes32"
        },
        {
          "internalType": "address",
          "name": "",
          "type": "address"
        }
      ],
      "name": "_hasVotedOnProposal",
      "outputs": [
        {
          "internalType": "bool",
          "name": "",
          "type": "bool"
        }
      ],
      "stateMutability": "view",
      "type": "function"
    },
    {
      "inputs": [
        {
          "internalType": "uint72",
          "name": "",
          "type": "uint72"
        },
        {
          "internalType": "bytes32",
          "name": "",
          "type": "bytes32"
        }
      ],
      "name": "_proposals",
      "outputs": [
        {
          "internalType": "bytes32",
          "name": "_resourceID",
          "type": "bytes32"
        },
        {
          "internalType": "bytes32",
          "name": "_dataHash",
          "type": "bytes32"
        },
        {
          "internalType": "enum Bridge.ProposalStatus",
          "name": "_status",
          "type": "uint8"
        },
        {
          "internalType": "uint256",
          "name": "_proposedBlock",
          "type": "uint256"
        }
      ],
      "stateMutability": "view",
      "type": "function"
    },
    {
      "inputs": [],
      "name": "_relayerThreshold",
      "outputs": [
        {
          "internalType": "uint256",
          "name": "",
          "type": "uint256"
        }
      ],
      "stateMutability": "view",
      "type": "function"
    },
    {
      "inputs": [
        {
          "internalType": "bytes32",
          "name": "",
          "type": "bytes32"
        }
      ],
      "name": "_resourceIDToHandlerAddress",
      "outputs": [
        {
          "internalType": "address",
          "name": "",
          "type": "address"
        }
      ],
      "stateMutability": "view",
      "type": "function"
    },
    {
      "inputs": [],
      "name": "_totalProposals",
      "outputs": [
        {
          "internalType": "uint256",
          "name": "",
          "type": "uint256"
        }
      ],
      "stateMutability": "view",
      "type": "function"
    },
    {
      "inputs": [],
      "name": "_totalRelayers",
      "outputs": [
        {
          "internalType": "uint256",
          "name": "",
          "type": "uint256"
        }
      ],
      "stateMutability": "view",
      "type": "function"
    },
    {
      "inputs": [],
      "name": "columbusRelayer",
      "outputs": [
        {
          "internalType": "address",
          "name": "",
          "type": "address"
        }
      ],
      "stateMutability": "view",
      "type": "function"
    },
    {
      "inputs": [
        {
          "internalType": "bytes32",
          "name": "role",
          "type": "bytes32"
        }
      ],
      "name": "getRoleAdmin",
      "outputs": [
        {
          "internalType": "bytes32",
          "name": "",
          "type": "bytes32"
        }
      ],
      "stateMutability": "view",
      "type": "function"
    },
    {
      "inputs": [
        {
          "internalType": "bytes32",
          "name": "role",
          "type": "bytes32"
        },
        {
          "internalType": "uint256",
          "name": "index",
          "type": "uint256"
        }
      ],
      "name": "getRoleMember",
      "outputs": [
        {
          "internalType": "address",
          "name": "",
          "type": "address"
        }
      ],
      "stateMutability": "view",
      "type": "function"
    },
    {
      "inputs": [
        {
          "internalType": "bytes32",
          "name": "role",
          "type": "bytes32"
        }
      ],
      "name": "getRoleMemberCount",
      "outputs": [
        {
          "internalType": "uint256",
          "name": "",
          "type": "uint256"
        }
      ],
      "stateMutability": "view",
      "type": "function"
    },
    {
      "inputs": [
        {
          "internalType": "bytes32",
          "name": "role",
          "type": "bytes32"
        },
        {
          "internalType": "address",
          "name": "account",
          "type": "address"
        }
      ],
      "name": "grantRole",
      "outputs": [],
      "stateMutability": "nonpayable",
      "type": "function"
    },
    {
      "inputs": [
        {
          "internalType": "bytes32",
          "name": "role",
          "type": "bytes32"
        },
        {
          "internalType": "address",
          "name": "account",
          "type": "address"
        }
      ],
      "name": "hasRole",
      "outputs": [
        {
          "internalType": "bool",
          "name": "",
          "type": "bool"
        }
      ],
      "stateMutability": "view",
      "type": "function"
    },
    {
      "inputs": [],
      "name": "paused",
      "outputs": [
        {
          "internalType": "bool",
          "name": "",
          "type": "bool"
        }
      ],
      "stateMutability": "view",
      "type": "function"
    },
    {
      "inputs": [
        {
          "internalType": "bytes32",
          "name": "role",
          "type": "bytes32"
        },
        {
          "internalType": "address",
          "name": "account",
          "type": "address"
        }
      ],
      "name": "renounceRole",
      "outputs": [],
      "stateMutability": "nonpayable",
      "type": "function"
    },
    {
      "inputs": [
        {
          "internalType": "bytes32",
          "name": "role",
          "type": "bytes32"
        },
        {
          "internalType": "address",
          "name": "account",
          "type": "address"
        }
      ],
      "name": "revokeRole",
      "outputs": [],
      "stateMutability": "nonpayable",
      "type": "function"
    },
    {
      "inputs": [
        {
          "internalType": "address",
          "name": "relayer",
          "type": "address"
        }
      ],
      "name": "isRelayer",
      "outputs": [
        {
          "internalType": "bool",
          "name": "",
          "type": "bool"
        }
      ],
      "stateMutability": "view",
      "type": "function"
    },
    {
      "inputs": [
        {
          "internalType": "address",
          "name": "_columbusRelayer",
          "type": "address"
        }
      ],
      "name": "adminAddColumbusRelayer",
      "outputs": [],
      "stateMutability": "nonpayable",
      "type": "function"
    },
    {
      "inputs": [
        {
          "internalType": "address",
          "name": "newAdmin",
          "type": "address"
        }
      ],
      "name": "renounceAdmin",
      "outputs": [],
      "stateMutability": "nonpayable",
      "type": "function"
    },
    {
      "inputs": [],
      "name": "adminPauseTransfers",
      "outputs": [],
      "stateMutability": "nonpayable",
      "type": "function"
    },
    {
      "inputs": [],
      "name": "adminUnpauseTransfers",
      "outputs": [],
      "stateMutability": "nonpayable",
      "type": "function"
    },
    {
      "inputs": [
        {
          "internalType": "uint256",
          "name": "newThreshold",
          "type": "uint256"
        }
      ],
      "name": "adminChangeRelayerThreshold",
      "outputs": [],
      "stateMutability": "nonpayable",
      "type": "function"
    },
    {
      "inputs": [
        {
          "internalType": "address",
          "name": "relayerAddress",
          "type": "address"
        }
      ],
      "name": "adminAddRelayer",
      "outputs": [],
      "stateMutability": "nonpayable",
      "type": "function"
    },
    {
      "inputs": [
        {
          "internalType": "address",
          "name": "relayerAddress",
          "type": "address"
        }
      ],
      "name": "adminRemoveRelayer",
      "outputs": [],
      "stateMutability": "nonpayable",
      "type": "function"
    },
    {
      "inputs": [
        {
          "internalType": "address",
          "name": "handlerAddress",
          "type": "address"
        },
        {
          "internalType": "bytes32",
          "name": "resourceID",
          "type": "bytes32"
        },
        {
          "internalType": "address",
          "name": "tokenAddress",
          "type": "address"
        }
      ],
      "name": "adminSetResource",
      "outputs": [],
      "stateMutability": "nonpayable",
      "type": "function"
    },
    {
      "inputs": [
        {
          "internalType": "address",
          "name": "handlerAddress",
          "type": "address"
        },
        {
          "internalType": "bytes32",
          "name": "resourceID",
          "type": "bytes32"
        },
        {
          "internalType": "address",
          "name": "contractAddress",
          "type": "address"
        },
        {
          "internalType": "bytes4",
          "name": "depositFunctionSig",
          "type": "bytes4"
        },
        {
          "internalType": "bytes4",
          "name": "executeFunctionSig",
          "type": "bytes4"
        }
      ],
      "name": "adminSetGenericResource",
      "outputs": [],
      "stateMutability": "nonpayable",
      "type": "function"
    },
    {
      "inputs": [
        {
          "internalType": "address",
          "name": "handlerAddress",
          "type": "address"
        },
        {
          "internalType": "address",
          "name": "tokenAddress",
          "type": "address"
        }
      ],
      "name": "adminSetBurnable",
      "outputs": [],
      "stateMutability": "nonpayable",
      "type": "function"
    },
    {
      "inputs": [
        {
          "internalType": "uint8",
          "name": "originChainID",
          "type": "uint8"
        },
        {
          "internalType": "uint64",
          "name": "depositNonce",
          "type": "uint64"
        },
        {
          "internalType": "bytes32",
          "name": "dataHash",
          "type": "bytes32"
        }
      ],
      "name": "getProposal",
      "outputs": [
        {
          "components": [
            {
              "internalType": "bytes32",
              "name": "_resourceID",
              "type": "bytes32"
            },
            {
              "internalType": "bytes32",
              "name": "_dataHash",
              "type": "bytes32"
            },
            {
              "internalType": "address[]",
              "name": "_yesVotes",
              "type": "address[]"
            },
            {
              "internalType": "address[]",
              "name": "_noVotes",
              "type": "address[]"
            },
            {
              "internalType": "enum Bridge.ProposalStatus",
              "name": "_status",
              "type": "uint8"
            },
            {
              "internalType": "uint256",
              "name": "_proposedBlock",
              "type": "uint256"
            }
          ],
          "internalType": "struct Bridge.Proposal",
          "name": "",
          "type": "tuple"
        }
      ],
      "stateMutability": "view",
      "type": "function"
    },
    {
      "inputs": [
        {
          "internalType": "uint256",
          "name": "newFee",
          "type": "uint256"
        }
      ],
      "name": "adminChangeFee",
      "outputs": [],
      "stateMutability": "nonpayable",
      "type": "function"
    },
    {
      "inputs": [
        {
          "internalType": "address",
          "name": "handlerAddress",
          "type": "address"
        },
        {
          "internalType": "address",
          "name": "tokenAddress",
          "type": "address"
        },
        {
          "internalType": "address",
          "name": "recipient",
          "type": "address"
        },
        {
          "internalType": "uint256",
          "name": "amountOrTokenID",
          "type": "uint256"
        }
      ],
      "name": "adminWithdraw",
      "outputs": [],
      "stateMutability": "nonpayable",
      "type": "function"
    },
    {
      "inputs": [
        {
          "internalType": "uint8",
          "name": "destinationChainID",
          "type": "uint8"
        },
        {
          "internalType": "bytes32",
          "name": "resourceID",
          "type": "bytes32"
        },
        {
          "internalType": "bytes",
          "name": "data",
          "type": "bytes"
        }
      ],
      "name": "deposit",
      "outputs": [],
      "stateMutability": "payable",
      "type": "function"
    },
    {
      "inputs": [
        {
          "internalType": "uint8",
          "name": "chainID",
          "type": "uint8"
        },
        {
          "internalType": "uint64",
          "name": "depositNonce",
          "type": "uint64"
        },
        {
          "internalType": "bytes32",
          "name": "resourceID",
          "type": "bytes32"
        },
        {
          "internalType": "bytes32",
          "name": "dataHash",
          "type": "bytes32"
        }
      ],
      "name": "voteProposal",
      "outputs": [],
      "stateMutability": "nonpayable",
      "type": "function"
    },
    {
      "inputs": [
        {
          "internalType": "uint8",
          "name": "chainID",
          "type": "uint8"
        },
        {
          "internalType": "uint64",
          "name": "depositNonce",
          "type": "uint64"
        },
        {
          "internalType": "bytes32",
          "name": "dataHash",
          "type": "bytes32"
        }
      ],
      "name": "cancelProposal",
      "outputs": [],
      "stateMutability": "nonpayable",
      "type": "function"
    },
    {
      "inputs": [
        {
          "internalType": "uint8",
          "name": "chainID",
          "type": "uint8"
        },
        {
          "internalType": "uint64",
          "name": "depositNonce",
          "type": "uint64"
        },
        {
          "internalType": "bytes",
          "name": "data",
          "type": "bytes"
        },
        {
          "internalType": "bytes32",
          "name": "resourceID",
          "type": "bytes32"
        }
      ],
      "name": "executeProposal",
      "outputs": [],
      "stateMutability": "nonpayable",
      "type": "function"
    },
    {
      "inputs": [
        {
          "internalType": "address payable[]",
          "name": "addrs",
          "type": "address[]"
        },
        {
          "internalType": "uint256[]",
          "name": "amounts",
          "type": "uint256[]"
        }
      ],
      "name": "transferFunds",
      "outputs": [],
      "stateMutability": "nonpayable",
      "type": "function"
    }
  ],
  "bytecode": "0x60806040523480156200001157600080fd5b5060405162004f7b38038062004f7b8339818101604052810190620000379190620004bc565b60008060006101000a81548160ff02191690831515021790555084600260006101000a81548160ff021916908360ff160217905550826003819055508160068190555080600781905550620000966000801b336200013460201b60201c565b620000c0604051620000a89062000601565b60405180910390206000801b6200014a60201b60201c565b60005b8451811015620001285762000108604051620000df9062000601565b6040518091039020868381518110620000f457fe5b60200260200101516200016960201b60201c565b6004600081548092919060010191905055508080600101915050620000c3565b50505050505062000746565b620001468282620001f860201b60201c565b5050565b8060016000848152602001908152602001600020600201819055505050565b620001a06001600084815260200190815260200160002060020154620001946200029c60201b60201c565b620002a460201b60201c565b620001e2576040517f08c379a0000000000000000000000000000000000000000000000000000000008152600401620001d99062000618565b60405180910390fd5b620001f48282620001f860201b60201c565b5050565b620002278160016000858152602001908152602001600020600001620002dd60201b620029c71790919060201c565b1562000298576200023d6200029c60201b60201c565b73ffffffffffffffffffffffffffffffffffffffff168173ffffffffffffffffffffffffffffffffffffffff16837f2f8788117e7eff1d82e926ec794901d17c78024a50270940304540a733656f0d60405160405180910390a45b5050565b600033905090565b6000620002d582600160008681526020019081526020016000206000016200031560201b620028cc1790919060201c565b905092915050565b60006200030d836000018373ffffffffffffffffffffffffffffffffffffffff1660001b6200034d60201b60201c565b905092915050565b600062000345836000018373ffffffffffffffffffffffffffffffffffffffff1660001b620003c760201b60201c565b905092915050565b6000620003618383620003c760201b60201c565b620003bc578260000182908060018154018082558091505060019003906000526020600020016000909190919091505582600001805490508360010160008481526020019081526020016000208190555060019050620003c1565b600090505b92915050565b600080836001016000848152602001908152602001600020541415905092915050565b600081519050620003fb81620006f8565b92915050565b600082601f8301126200041357600080fd5b81516200042a620004248262000668565b6200063a565b915081818352602084019350602081019050838560208402820111156200045057600080fd5b60005b83811015620004845781620004698882620003ea565b84526020840193506020830192505060018101905062000453565b5050505092915050565b6000815190506200049f8162000712565b92915050565b600081519050620004b6816200072c565b92915050565b600080600080600060a08688031215620004d557600080fd5b6000620004e588828901620004a5565b955050602086015167ffffffffffffffff8111156200050357600080fd5b620005118882890162000401565b945050604062000524888289016200048e565b935050606062000537888289016200048e565b92505060806200054a888289016200048e565b9150509295509295909350565b600062000566602f8362000691565b91507f416363657373436f6e74726f6c3a2073656e646572206d75737420626520616e60008301527f2061646d696e20746f206772616e7400000000000000000000000000000000006020830152604082019050919050565b6000620005ce600c83620006a2565b91507f52454c415945525f524f4c4500000000000000000000000000000000000000006000830152600c82019050919050565b60006200060e82620005bf565b9150819050919050565b60006020820190508181036000830152620006338162000557565b9050919050565b6000604051905081810181811067ffffffffffffffff821117156200065e57600080fd5b8060405250919050565b600067ffffffffffffffff8211156200068057600080fd5b602082029050602081019050919050565b600082825260208201905092915050565b600081905092915050565b6000620006ba82620006c1565b9050919050565b600073ffffffffffffffffffffffffffffffffffffffff82169050919050565b6000819050919050565b600060ff82169050919050565b6200070381620006ad565b81146200070f57600080fd5b50565b6200071d81620006e1565b81146200072957600080fd5b50565b6200073781620006eb565b81146200074357600080fd5b50565b61482580620007566000396000f3fe6080604052600436106102465760003560e01c806384db809f11610139578063beab7131116100b6578063cdb0f73a1161007a578063cdb0f73a146108b6578063d547741f146108df578063d7a9cd7914610908578063e8437ee714610933578063ebfb3a0b1461095c578063ffaac0eb1461098757610246565b8063beab7131146107cf578063c5b37c22146107fa578063c5ec897014610825578063ca15c87314610850578063cb10f2151461088d57610246565b8063926d7d7f116100fd578063926d7d7f146106e85780639d5773e0146107135780639d82dd631461073e578063a217fddf14610767578063a9cf69fa1461079257610246565b806384db809f146105df5780638c0c26311461061c5780639010d07c1461064557806391c404ac1461068257806391d14854146106ab57610246565b80634b0b919d116101c75780635e1fab0f1161018b5780635e1fab0f1461050e578063780cf004146105375780637febe63f14610560578063802aabe81461059d57806380ae1c28146105c857610246565b80634b0b919d146104005780634e0560051461043d5780635059871914610466578063541d5548146104a65780635c975abb146104e357610246565b8063319a82201161020e578063319a82201461031f57806336568abe146103485780633ee7094a146103715780634454b20d146103ae5780634603ae38146103d757610246565b806305e2ca171461024b57806317f03ce5146102675780631ff013f114610290578063248a9ca3146102b95780632f2ff15d146102f6575b600080fd5b61026560048036038101906102609190613395565b61099e565b005b34801561027357600080fd5b5061028e60048036038101906102899190613401565b610c8b565b005b34801561029c57600080fd5b506102b760048036038101906102b29190613450565b610e38565b005b3480156102c557600080fd5b506102e060048036038101906102db91906131db565b6115b9565b6040516102ed9190613fc2565b60405180910390f35b34801561030257600080fd5b5061031d60048036038101906103189190613204565b6115d9565b005b34801561032b57600080fd5b5061034660048036038101906103419190612faf565b61164d565b005b34801561035457600080fd5b5061036f600480360381019061036a9190613204565b611699565b005b34801561037d57600080fd5b50610398600480360381019061039391906132a5565b61171c565b6040516103a59190614147565b60405180910390f35b3480156103ba57600080fd5b506103d560048036038101906103d091906134b3565b6117d9565b005b3480156103e357600080fd5b506103fe60048036038101906103f99190613166565b611b1a565b005b34801561040c57600080fd5b506104276004803603810190610422919061336c565b611bc0565b60405161043491906144c8565b60405180910390f35b34801561044957600080fd5b50610464600480360381019061045f919061327c565b611be7565b005b34801561047257600080fd5b5061048d600480360381019061048891906132e1565b611c26565b60405161049d9493929190614074565b60405180910390f35b3480156104b257600080fd5b506104cd60048036038101906104c89190612faf565b611c70565b6040516104da9190613fa7565b60405180910390f35b3480156104ef57600080fd5b506104f8611c96565b6040516105059190613fa7565b60405180910390f35b34801561051a57600080fd5b5061053560048036038101906105309190612faf565b611cac565b005b34801561054357600080fd5b5061055e6004803603810190610559919061303d565b611cd1565b005b34801561056c57600080fd5b506105876004803603810190610582919061331d565b611d54565b6040516105949190613fa7565b60405180910390f35b3480156105a957600080fd5b506105b2611d90565b6040516105bf91906144ad565b60405180910390f35b3480156105d457600080fd5b506105dd611d96565b005b3480156105eb57600080fd5b50610606600480360381019061060191906131db565b611da8565b6040516106139190613f3a565b60405180910390f35b34801561062857600080fd5b50610643600480360381019061063e9190613001565b611ddb565b005b34801561065157600080fd5b5061066c60048036038101906106679190613240565b611e58565b6040516106799190613f3a565b60405180910390f35b34801561068e57600080fd5b506106a960048036038101906106a4919061327c565b611e8a565b005b3480156106b757600080fd5b506106d260048036038101906106cd9190613204565b611ee1565b6040516106df9190613fa7565b60405180910390f35b3480156106f457600080fd5b506106fd611f13565b60405161070a9190613fc2565b60405180910390f35b34801561071f57600080fd5b50610728611f2a565b60405161073591906144ad565b60405180910390f35b34801561074a57600080fd5b5061076560048036038101906107609190612faf565b611f30565b005b34801561077357600080fd5b5061077c61200a565b6040516107899190613fc2565b60405180910390f35b34801561079e57600080fd5b506107b960048036038101906107b49190613401565b612011565b6040516107c6919061448b565b60405180910390f35b3480156107db57600080fd5b506107e46121f2565b6040516107f191906144e3565b60405180910390f35b34801561080657600080fd5b5061080f612205565b60405161081c91906144ad565b60405180910390f35b34801561083157600080fd5b5061083a61220b565b60405161084791906144ad565b60405180910390f35b34801561085c57600080fd5b50610877600480360381019061087291906131db565b612211565b60405161088491906144ad565b60405180910390f35b34801561089957600080fd5b506108b460048036038101906108af91906130a0565b612238565b005b3480156108c257600080fd5b506108dd60048036038101906108d89190612faf565b61230a565b005b3480156108eb57600080fd5b5061090660048036038101906109019190613204565b6123e4565b005b34801561091457600080fd5b5061091d612458565b60405161092a91906144ad565b60405180910390f35b34801561093f57600080fd5b5061095a600480360381019061095591906130ef565b61245e565b005b34801561096857600080fd5b50610971612536565b60405161097e9190613f3a565b60405180910390f35b34801561099357600080fd5b5061099c61255c565b005b3373ffffffffffffffffffffffffffffffffffffffff16600860009054906101000a900473ffffffffffffffffffffffffffffffffffffffff1673ffffffffffffffffffffffffffffffffffffffff1614610a2e576040517f08c379a0000000000000000000000000000000000000000000000000000000008152600401610a259061438b565b60405180910390fd5b610a3661256e565b6006543414610a7a576040517f08c379a0000000000000000000000000000000000000000000000000000000008152600401610a719061428b565b60405180910390fd5b6000600a600085815260200190815260200160002060009054906101000a900473ffffffffffffffffffffffffffffffffffffffff169050600073ffffffffffffffffffffffffffffffffffffffff168173ffffffffffffffffffffffffffffffffffffffff161415610b22576040517f08c379a0000000000000000000000000000000000000000000000000000000008152600401610b19906142eb565b60405180910390fd5b6000600960008760ff1660ff168152602001908152602001600020600081819054906101000a900467ffffffffffffffff1660010191906101000a81548167ffffffffffffffff021916908367ffffffffffffffff160217905590508383600b60008467ffffffffffffffff1667ffffffffffffffff16815260200190815260200160002060008960ff1660ff1681526020019081526020016000209190610bcb929190612c70565b5060008290508073ffffffffffffffffffffffffffffffffffffffff166338995da9878985338a8a6040518763ffffffff1660e01b8152600401610c14969594939291906140eb565b600060405180830381600087803b158015610c2e57600080fd5b505af1158015610c42573d6000803e3d6000fd5b505050508167ffffffffffffffff16868860ff167fdbb69440df8433824a026ef190652f29929eb64b4d1d5d2a69be8afe3e6eaed860405160405180910390a450505050505050565b610c936125bf565b60008360ff1660088467ffffffffffffffff1668ffffffffffffffffff16901b1790506000600c60008368ffffffffffffffffff1668ffffffffffffffffff16815260200190815260200160002060008481526020019081526020016000209050600480811115610d0057fe5b8160040160009054906101000a900460ff166004811115610d1d57fe5b1415610d5e576040517f08c379a0000000000000000000000000000000000000000000000000000000008152600401610d55906142cb565b60405180910390fd5b600754610d6f438360050154612631565b11610daf576040517f08c379a0000000000000000000000000000000000000000000000000000000008152600401610da69061432b565b60405180910390fd5b60048160040160006101000a81548160ff02191690836004811115610dd057fe5b0217905550600480811115610de157fe5b8467ffffffffffffffff168660ff167f803c5a12f6bde629cea32e63d4b92d1b560816a6fb72e939d3c89e1cab65041784600001548560010154604051610e2992919061404b565b60405180910390a45050505050565b610e4061267b565b610e4861256e565b60008460ff1660088567ffffffffffffffff1668ffffffffffffffffff16901b1790506000600c60008368ffffffffffffffffff1668ffffffffffffffffff16815260200190815260200160002060008481526020019081526020016000209050600073ffffffffffffffffffffffffffffffffffffffff16600a600086815260200190815260200160002060009054906101000a900473ffffffffffffffffffffffffffffffffffffffff1673ffffffffffffffffffffffffffffffffffffffff161415610f4c576040517f08c379a0000000000000000000000000000000000000000000000000000000008152600401610f439061444b565b60405180910390fd5b60018160040160009054906101000a900460ff166004811115610f6b57fe5b1115610fac576040517f08c379a0000000000000000000000000000000000000000000000000000000008152600401610fa3906143ab565b60405180910390fd5b600d60008368ffffffffffffffffff1668ffffffffffffffffff168152602001908152602001600020600084815260200190815260200160002060003373ffffffffffffffffffffffffffffffffffffffff1673ffffffffffffffffffffffffffffffffffffffff16815260200190815260200160002060009054906101000a900460ff1615611071576040517f08c379a00000000000000000000000000000000000000000000000000000000081526004016110689061422b565b60405180910390fd5b60008160040160009054906101000a900460ff16600481111561109057fe5b14156112b057600560008154600101919050819055506040518060c0016040528085815260200184815260200160016040519080825280602002602001820160405280156110ed5781602001602082028036833780820191505090505b50815260200160006040519080825280602002602001820160405280156111235781602001602082028036833780820191505090505b5081526020016001600481111561113657fe5b815260200143815250600c60008468ffffffffffffffffff1668ffffffffffffffffff1681526020019081526020016000206000858152602001908152602001600020600082015181600001556020820151816001015560408201518160020190805190602001906111a9929190612cf0565b5060608201518160030190805190602001906111c6929190612cf0565b5060808201518160040160006101000a81548160ff021916908360048111156111eb57fe5b021790555060a08201518160050155905050338160020160008154811061120e57fe5b9060005260206000200160006101000a81548173ffffffffffffffffffffffffffffffffffffffff021916908373ffffffffffffffffffffffffffffffffffffffff1602179055506001600481111561126357fe5b8567ffffffffffffffff168760ff167f803c5a12f6bde629cea32e63d4b92d1b560816a6fb72e939d3c89e1cab65041787876040516112a392919061404b565b60405180910390a46113f3565b6007546112c1438360050154612631565b11156113465760048160040160006101000a81548160ff021916908360048111156112e857fe5b02179055506004808111156112f957fe5b8567ffffffffffffffff168760ff167f803c5a12f6bde629cea32e63d4b92d1b560816a6fb72e939d3c89e1cab650417878760405161133992919061404b565b60405180910390a46113f2565b8060010154831461138c576040517f08c379a00000000000000000000000000000000000000000000000000000000081526004016113839061442b565b60405180910390fd5b80600201339080600181540180825580915050600190039060005260206000200160009091909190916101000a81548173ffffffffffffffffffffffffffffffffffffffff021916908373ffffffffffffffffffffffffffffffffffffffff1602179055505b5b6004808111156113ff57fe5b8160040160009054906101000a900460ff16600481111561141c57fe5b146115b1576001600d60008468ffffffffffffffffff1668ffffffffffffffffff168152602001908152602001600020600085815260200190815260200160002060003373ffffffffffffffffffffffffffffffffffffffff1673ffffffffffffffffffffffffffffffffffffffff16815260200190815260200160002060006101000a81548160ff0219169083151502179055508060040160009054906101000a900460ff1660048111156114ce57fe5b8567ffffffffffffffff168760ff167f25f8daaa4635a7729927ba3f5b3d59cc3320aca7c32c9db4e7ca7b95743436408760405161150c9190613fc2565b60405180910390a4600160035411158061152f5750600354816002018054905010155b156115b05760028160040160006101000a81548160ff0219169083600481111561155557fe5b02179055506002600481111561156757fe5b8567ffffffffffffffff168760ff167f803c5a12f6bde629cea32e63d4b92d1b560816a6fb72e939d3c89e1cab65041787876040516115a792919061404b565b60405180910390a45b5b505050505050565b600060016000838152602001908152602001600020600201549050919050565b61160060016000848152602001908152602001600020600201546115fb6126d9565b611ee1565b61163f576040517f08c379a00000000000000000000000000000000000000000000000000000000081526004016116369061420b565b60405180910390fd5b61164982826126e1565b5050565b611655612775565b80600860006101000a81548173ffffffffffffffffffffffffffffffffffffffff021916908373ffffffffffffffffffffffffffffffffffffffff16021790555050565b6116a16126d9565b73ffffffffffffffffffffffffffffffffffffffff168173ffffffffffffffffffffffffffffffffffffffff161461170e576040517f08c379a00000000000000000000000000000000000000000000000000000000081526004016117059061446b565b60405180910390fd5b61171882826127c3565b5050565b600b602052816000526040600020602052806000526040600020600091509150508054600181600116156101000203166002900480601f0160208091040260200160405190810160405280929190818152602001828054600181600116156101000203166002900480156117d15780601f106117a6576101008083540402835291602001916117d1565b820191906000526020600020905b8154815290600101906020018083116117b457829003601f168201915b505050505081565b6117e161267b565b6117e961256e565b6000600a600083815260200190815260200160002060009054906101000a900473ffffffffffffffffffffffffffffffffffffffff16905060008660ff1660088767ffffffffffffffff1668ffffffffffffffffff16901b179050600082868660405160200161185b93929190613efb565b6040516020818303038152906040528051906020012090506000600c60008468ffffffffffffffffff1668ffffffffffffffffff16815260200190815260200160002060008381526020019081526020016000209050600060048111156118be57fe5b8160040160009054906101000a900460ff1660048111156118db57fe5b141561191c576040517f08c379a0000000000000000000000000000000000000000000000000000000008152600401611913906141ab565b60405180910390fd5b6002600481111561192957fe5b8160040160009054906101000a900460ff16600481111561194657fe5b14611986576040517f08c379a000000000000000000000000000000000000000000000000000000000815260040161197d9061418b565b60405180910390fd5b806001015482146119cc576040517f08c379a00000000000000000000000000000000000000000000000000000000081526004016119c3906142ab565b60405180910390fd5b60038160040160006101000a81548160ff021916908360048111156119ed57fe5b02179055506000600a60008360000154815260200190815260200160002060009054906101000a900473ffffffffffffffffffffffffffffffffffffffff1690508073ffffffffffffffffffffffffffffffffffffffff1663e248cff283600001548a8a6040518463ffffffff1660e01b8152600401611a6f939291906140b9565b600060405180830381600087803b158015611a8957600080fd5b505af1158015611a9d573d6000803e3d6000fd5b505050508160040160009054906101000a900460ff166004811115611abe57fe5b8967ffffffffffffffff168b60ff167f803c5a12f6bde629cea32e63d4b92d1b560816a6fb72e939d3c89e1cab65041785600001548660010154604051611b0692919061404b565b60405180910390a450505050505050505050565b611b22612775565b60008090505b84849050811015611bb957848482818110611b3f57fe5b9050602002016020810190611b549190612fd8565b73ffffffffffffffffffffffffffffffffffffffff166108fc848484818110611b7957fe5b905060200201359081150290604051600060405180830381858888f19350505050158015611bab573d6000803e3d6000fd5b508080600101915050611b28565b5050505050565b60096020528060005260406000206000915054906101000a900467ffffffffffffffff1681565b611bef612775565b80600381905550807fa20d6b84cd798a24038be305eff8a45ca82ef54a2aa2082005d8e14c0a4746c860405160405180910390a250565b600c602052816000526040600020602052806000526040600020600091509150508060000154908060010154908060040160009054906101000a900460ff16908060050154905084565b6000611c8f604051611c8190613f25565b604051809103902083611ee1565b9050919050565b60008060009054906101000a900460ff16905090565b611cb4612775565b611cc16000801b826115d9565b611cce6000801b33611699565b50565b611cd9612775565b60008490508073ffffffffffffffffffffffffffffffffffffffff1663d9caed128585856040518463ffffffff1660e01b8152600401611d1b93929190613f70565b600060405180830381600087803b158015611d3557600080fd5b505af1158015611d49573d6000803e3d6000fd5b505050505050505050565b600d602052826000526040600020602052816000526040600020602052806000526040600020600092509250509054906101000a900460ff1681565b60045481565b611d9e612775565b611da6612857565b565b600a6020528060005260406000206000915054906101000a900473ffffffffffffffffffffffffffffffffffffffff1681565b611de3612775565b60008290508073ffffffffffffffffffffffffffffffffffffffff166307b7ed99836040518263ffffffff1660e01b8152600401611e219190613f3a565b600060405180830381600087803b158015611e3b57600080fd5b505af1158015611e4f573d6000803e3d6000fd5b50505050505050565b6000611e8282600160008681526020019081526020016000206000016128b290919063ffffffff16565b905092915050565b611e92612775565b806006541415611ed7576040517f08c379a0000000000000000000000000000000000000000000000000000000008152600401611ece9061440b565b60405180910390fd5b8060068190555050565b6000611f0b82600160008681526020019081526020016000206000016128cc90919063ffffffff16565b905092915050565b604051611f1f90613f25565b604051809103902081565b60055481565b611f38612775565b611f55604051611f4790613f25565b604051809103902082611ee1565b611f94576040517f08c379a0000000000000000000000000000000000000000000000000000000008152600401611f8b9061426b565b60405180910390fd5b611fb1604051611fa390613f25565b6040518091039020826123e4565b8073ffffffffffffffffffffffffffffffffffffffff167f10e1f7ce9fd7d1b90a66d13a2ab3cb8dd7f29f3f8d520b143b063ccfbab6906b60405160405180910390a26004600081548092919060019003919050555050565b6000801b81565b612019612d7a565b60008460ff1660088567ffffffffffffffff1668ffffffffffffffffff16901b179050600c60008268ffffffffffffffffff1668ffffffffffffffffff16815260200190815260200160002060008481526020019081526020016000206040518060c001604052908160008201548152602001600182015481526020016002820180548060200260200160405190810160405280929190818152602001828054801561211a57602002820191906000526020600020905b8160009054906101000a900473ffffffffffffffffffffffffffffffffffffffff1673ffffffffffffffffffffffffffffffffffffffff16815260200190600101908083116120d0575b50505050508152602001600382018054806020026020016040519081016040528092919081815260200182805480156121a857602002820191906000526020600020905b8160009054906101000a900473ffffffffffffffffffffffffffffffffffffffff1673ffffffffffffffffffffffffffffffffffffffff168152602001906001019080831161215e575b505050505081526020016004820160009054906101000a900460ff1660048111156121cf57fe5b60048111156121da57fe5b81526020016005820154815250509150509392505050565b600260009054906101000a900460ff1681565b60065481565b60075481565b6000612231600160008481526020019081526020016000206000016128fc565b9050919050565b612240612775565b82600a600084815260200190815260200160002060006101000a81548173ffffffffffffffffffffffffffffffffffffffff021916908373ffffffffffffffffffffffffffffffffffffffff16021790555060008390508073ffffffffffffffffffffffffffffffffffffffff1663b8fa373684846040518363ffffffff1660e01b81526004016122d2929190613fdd565b600060405180830381600087803b1580156122ec57600080fd5b505af1158015612300573d6000803e3d6000fd5b5050505050505050565b612312612775565b61232f60405161232190613f25565b604051809103902082611ee1565b1561236f576040517f08c379a00000000000000000000000000000000000000000000000000000000081526004016123669061436b565b60405180910390fd5b61238c60405161237e90613f25565b6040518091039020826115d9565b8073ffffffffffffffffffffffffffffffffffffffff167f03580ee9f53a62b7cb409a2cb56f9be87747dd15017afc5cef6eef321e4fb2c560405160405180910390a260046000815480929190600101919050555050565b61240b60016000848152602001908152602001600020600201546124066126d9565b611ee1565b61244a576040517f08c379a00000000000000000000000000000000000000000000000000000000081526004016124419061430b565b60405180910390fd5b61245482826127c3565b5050565b60035481565b612466612775565b84600a600086815260200190815260200160002060006101000a81548173ffffffffffffffffffffffffffffffffffffffff021916908373ffffffffffffffffffffffffffffffffffffffff16021790555060008590508073ffffffffffffffffffffffffffffffffffffffff1663bba8185a868686866040518563ffffffff1660e01b81526004016124fc9493929190614006565b600060405180830381600087803b15801561251657600080fd5b505af115801561252a573d6000803e3d6000fd5b50505050505050505050565b600860009054906101000a900473ffffffffffffffffffffffffffffffffffffffff1681565b612564612775565b61256c612911565b565b6000809054906101000a900460ff16156125bd576040517f08c379a00000000000000000000000000000000000000000000000000000000081526004016125b49061434b565b60405180910390fd5b565b6125cc6000801b33611ee1565b806125f057506125ef6040516125e190613f25565b604051809103902033611ee1565b5b61262f576040517f08c379a0000000000000000000000000000000000000000000000000000000008152600401612626906141eb565b60405180910390fd5b565b600061267383836040518060400160405280601e81526020017f536166654d6174683a207375627472616374696f6e206f766572666c6f77000081525061296c565b905092915050565b61269860405161268a90613f25565b604051809103902033611ee1565b6126d7576040517f08c379a00000000000000000000000000000000000000000000000000000000081526004016126ce906143cb565b60405180910390fd5b565b600033905090565b61270981600160008581526020019081526020016000206000016129c790919063ffffffff16565b15612771576127166126d9565b73ffffffffffffffffffffffffffffffffffffffff168173ffffffffffffffffffffffffffffffffffffffff16837f2f8788117e7eff1d82e926ec794901d17c78024a50270940304540a733656f0d60405160405180910390a45b5050565b6127826000801b33611ee1565b6127c1576040517f08c379a00000000000000000000000000000000000000000000000000000000081526004016127b8906143eb565b60405180910390fd5b565b6127eb81600160008581526020019081526020016000206000016129f790919063ffffffff16565b15612853576127f86126d9565b73ffffffffffffffffffffffffffffffffffffffff168173ffffffffffffffffffffffffffffffffffffffff16837ff6391f5c32d9c69d2a47ea670b442974b53935d1edc7fd64eb21e047a839171b60405160405180910390a45b5050565b61285f61256e565b60016000806101000a81548160ff0219169083151502179055507f62e78cea01bee320cd4e420270b5ea74000d11b0c9f74754ebdbfc544b05a258336040516128a89190613f55565b60405180910390a1565b60006128c18360000183612a27565b60001c905092915050565b60006128f4836000018373ffffffffffffffffffffffffffffffffffffffff1660001b612a94565b905092915050565b600061290a82600001612ab7565b9050919050565b612919612ac8565b60008060006101000a81548160ff0219169083151502179055507f5db9ee0a495bf2e6ff9c91a7834c1ba4fdd244a5e8aa4e537bd38aeae4b073aa336040516129629190613f55565b60405180910390a1565b60008383111582906129b4576040517f08c379a00000000000000000000000000000000000000000000000000000000081526004016129ab9190614169565b60405180910390fd5b5060008385039050809150509392505050565b60006129ef836000018373ffffffffffffffffffffffffffffffffffffffff1660001b612b18565b905092915050565b6000612a1f836000018373ffffffffffffffffffffffffffffffffffffffff1660001b612b88565b905092915050565b600081836000018054905011612a72576040517f08c379a0000000000000000000000000000000000000000000000000000000008152600401612a69906141cb565b60405180910390fd5b826000018281548110612a8157fe5b9060005260206000200154905092915050565b600080836001016000848152602001908152602001600020541415905092915050565b600081600001805490509050919050565b6000809054906101000a900460ff16612b16576040517f08c379a0000000000000000000000000000000000000000000000000000000008152600401612b0d9061424b565b60405180910390fd5b565b6000612b248383612a94565b612b7d578260000182908060018154018082558091505060019003906000526020600020016000909190919091505582600001805490508360010160008481526020019081526020016000208190555060019050612b82565b600090505b92915050565b60008083600101600084815260200190815260200160002054905060008114612c645760006001820390506000600186600001805490500390506000866000018281548110612bd357fe5b9060005260206000200154905080876000018481548110612bf057fe5b9060005260206000200181905550600183018760010160008381526020019081526020016000208190555086600001805480612c2857fe5b60019003818190600052602060002001600090559055866001016000878152602001908152602001600020600090556001945050505050612c6a565b60009150505b92915050565b828054600181600116156101000203166002900490600052602060002090601f016020900481019282601f10612cb157803560ff1916838001178555612cdf565b82800160010185558215612cdf579182015b82811115612cde578235825591602001919060010190612cc3565b5b509050612cec9190612dc1565b5090565b828054828255906000526020600020908101928215612d69579160200282015b82811115612d685782518260006101000a81548173ffffffffffffffffffffffffffffffffffffffff021916908373ffffffffffffffffffffffffffffffffffffffff16021790555091602001919060010190612d10565b5b509050612d769190612de6565b5090565b6040518060c001604052806000801916815260200160008019168152602001606081526020016060815260200160006004811115612db457fe5b8152602001600081525090565b612de391905b80821115612ddf576000816000905550600101612dc7565b5090565b90565b612e2691905b80821115612e2257600081816101000a81549073ffffffffffffffffffffffffffffffffffffffff021916905550600101612dec565b5090565b90565b600081359050612e3881614737565b92915050565b600081359050612e4d8161474e565b92915050565b60008083601f840112612e6557600080fd5b8235905067ffffffffffffffff811115612e7e57600080fd5b602083019150836020820283011115612e9657600080fd5b9250929050565b60008083601f840112612eaf57600080fd5b8235905067ffffffffffffffff811115612ec857600080fd5b602083019150836020820283011115612ee057600080fd5b9250929050565b600081359050612ef681614765565b92915050565b600081359050612f0b8161477c565b92915050565b60008083601f840112612f2357600080fd5b8235905067ffffffffffffffff811115612f3c57600080fd5b602083019150836001820283011115612f5457600080fd5b9250929050565b600081359050612f6a81614793565b92915050565b600081359050612f7f816147aa565b92915050565b600081359050612f94816147c1565b92915050565b600081359050612fa9816147d8565b92915050565b600060208284031215612fc157600080fd5b6000612fcf84828501612e29565b91505092915050565b600060208284031215612fea57600080fd5b6000612ff884828501612e3e565b91505092915050565b6000806040838503121561301457600080fd5b600061302285828601612e29565b925050602061303385828601612e29565b9150509250929050565b6000806000806080858703121561305357600080fd5b600061306187828801612e29565b945050602061307287828801612e29565b935050604061308387828801612e29565b925050606061309487828801612f5b565b91505092959194509250565b6000806000606084860312156130b557600080fd5b60006130c386828701612e29565b93505060206130d486828701612ee7565b92505060406130e586828701612e29565b9150509250925092565b600080600080600060a0868803121561310757600080fd5b600061311588828901612e29565b955050602061312688828901612ee7565b945050604061313788828901612e29565b935050606061314888828901612efc565b925050608061315988828901612efc565b9150509295509295909350565b6000806000806040858703121561317c57600080fd5b600085013567ffffffffffffffff81111561319657600080fd5b6131a287828801612e53565b9450945050602085013567ffffffffffffffff8111156131c157600080fd5b6131cd87828801612e9d565b925092505092959194509250565b6000602082840312156131ed57600080fd5b60006131fb84828501612ee7565b91505092915050565b6000806040838503121561321757600080fd5b600061322585828601612ee7565b925050602061323685828601612e29565b9150509250929050565b6000806040838503121561325357600080fd5b600061326185828601612ee7565b925050602061327285828601612f5b565b9150509250929050565b60006020828403121561328e57600080fd5b600061329c84828501612f5b565b91505092915050565b600080604083850312156132b857600080fd5b60006132c685828601612f70565b92505060206132d785828601612f9a565b9150509250929050565b600080604083850312156132f457600080fd5b600061330285828601612f85565b925050602061331385828601612ee7565b9150509250929050565b60008060006060848603121561333257600080fd5b600061334086828701612f85565b935050602061335186828701612ee7565b925050604061336286828701612e29565b9150509250925092565b60006020828403121561337e57600080fd5b600061338c84828501612f9a565b91505092915050565b600080600080606085870312156133ab57600080fd5b60006133b987828801612f9a565b94505060206133ca87828801612ee7565b935050604085013567ffffffffffffffff8111156133e757600080fd5b6133f387828801612f11565b925092505092959194509250565b60008060006060848603121561341657600080fd5b600061342486828701612f9a565b935050602061343586828701612f70565b925050604061344686828701612ee7565b9150509250925092565b6000806000806080858703121561346657600080fd5b600061347487828801612f9a565b945050602061348587828801612f70565b935050604061349687828801612ee7565b92505060606134a787828801612ee7565b91505092959194509250565b6000806000806000608086880312156134cb57600080fd5b60006134d988828901612f9a565b95505060206134ea88828901612f70565b945050604086013567ffffffffffffffff81111561350757600080fd5b61351388828901612f11565b9350935050606061352688828901612ee7565b9150509295509295909350565b600061353f838361355a565b60208301905092915050565b6135548161465e565b82525050565b61356381614585565b82525050565b61357281614585565b82525050565b61358961358482614585565b6146e8565b82525050565b600061359a8261450e565b6135a4818561453c565b93506135af836144fe565b8060005b838110156135e05781516135c78882613533565b97506135d28361452f565b9250506001810190506135b3565b5085935050505092915050565b6135f6816145a9565b82525050565b613605816145b5565b82525050565b613614816145b5565b82525050565b613623816145bf565b82525050565b6000613635838561454d565b93506136428385846146a6565b61364b8361470c565b840190509392505050565b6000613662838561455e565b935061366f8385846146a6565b82840190509392505050565b600061368682614519565b613690818561454d565b93506136a08185602086016146b5565b6136a98161470c565b840191505092915050565b6136bd81614670565b82525050565b6136cc81614670565b82525050565b60006136dd82614524565b6136e78185614569565b93506136f78185602086016146b5565b6137008161470c565b840191505092915050565b6000613718601c83614569565b91507f70726f706f73616c20616c7265616479207472616e73666572726564000000006000830152602082019050919050565b6000613758601683614569565b91507f70726f706f73616c206973206e6f7420616374697665000000000000000000006000830152602082019050919050565b6000613798602283614569565b91507f456e756d657261626c655365743a20696e646578206f7574206f6620626f756e60008301527f64730000000000000000000000000000000000000000000000000000000000006020830152604082019050919050565b60006137fe601e83614569565b91507f73656e646572206973206e6f742072656c61796572206f722061646d696e00006000830152602082019050919050565b600061383e602f83614569565b91507f416363657373436f6e74726f6c3a2073656e646572206d75737420626520616e60008301527f2061646d696e20746f206772616e7400000000000000000000000000000000006020830152604082019050919050565b60006138a4601583614569565b91507f72656c6179657220616c726561647920766f74656400000000000000000000006000830152602082019050919050565b60006138e4601483614569565b91507f5061757361626c653a206e6f74207061757365640000000000000000000000006000830152602082019050919050565b6000613924601f83614569565b91507f6164647220646f65736e277420686176652072656c6179657220726f6c6521006000830152602082019050919050565b6000613964601683614569565b91507f496e636f72726563742066656520737570706c696564000000000000000000006000830152602082019050919050565b60006139a4601b83614569565b91507f6461746120646f65736e2774206d6174636820646174616861736800000000006000830152602082019050919050565b60006139e4601a83614569565b91507f50726f706f73616c20616c72656164792063616e63656c6c65640000000000006000830152602082019050919050565b6000613a24602083614569565b91507f7265736f757263654944206e6f74206d617070656420746f2068616e646c65726000830152602082019050919050565b6000613a64603083614569565b91507f416363657373436f6e74726f6c3a2073656e646572206d75737420626520616e60008301527f2061646d696e20746f207265766f6b65000000000000000000000000000000006020830152604082019050919050565b6000613aca602083614569565b91507f50726f706f73616c206e6f7420617420657870697279207468726573686f6c646000830152602082019050919050565b6000613b0a601083614569565b91507f5061757361626c653a20706175736564000000000000000000000000000000006000830152602082019050919050565b6000613b4a601e83614569565b91507f6164647220616c7265616479206861732072656c6179657220726f6c652100006000830152602082019050919050565b6000613b8a603e83614569565b91507f6f6e6c7920636f6c756d62757352656c6179657220636f6e747261637420697360008301527f20616c6c6f77656420746f2063616c6c20746869732066756e6374696f6e00006020830152604082019050919050565b6000613bf0602a83614569565b91507f70726f706f73616c20616c7265616479207061737365642f657865637574656460008301527f2f63616e63656c6c6564000000000000000000000000000000000000000000006020830152604082019050919050565b6000613c56602083614569565b91507f73656e64657220646f65736e277420686176652072656c6179657220726f6c656000830152602082019050919050565b6000613c96601e83614569565b91507f73656e64657220646f65736e277420686176652061646d696e20726f6c6500006000830152602082019050919050565b6000613cd6601f83614569565b91507f43757272656e742066656520697320657175616c20746f206e657720666565006000830152602082019050919050565b6000613d16600c8361457a565b91507f52454c415945525f524f4c4500000000000000000000000000000000000000006000830152600c82019050919050565b6000613d56601183614569565b91507f6461746168617368206d69736d617463680000000000000000000000000000006000830152602082019050919050565b6000613d96601983614569565b91507f6e6f2068616e646c657220666f72207265736f757263654944000000000000006000830152602082019050919050565b6000613dd6602f83614569565b91507f416363657373436f6e74726f6c3a2063616e206f6e6c792072656e6f756e636560008301527f20726f6c657320666f722073656c6600000000000000000000000000000000006020830152604082019050919050565b600060c083016000830151613e4760008601826135fc565b506020830151613e5a60208601826135fc565b5060408301518482036040860152613e72828261358f565b91505060608301518482036060860152613e8c828261358f565b9150506080830151613ea160808601826136b4565b5060a0830151613eb460a0860182613ebf565b508091505092915050565b613ec88161461e565b82525050565b613ed78161461e565b82525050565b613ee681614628565b82525050565b613ef581614651565b82525050565b6000613f078286613578565b601482019150613f18828486613656565b9150819050949350505050565b6000613f3082613d09565b9150819050919050565b6000602082019050613f4f6000830184613569565b92915050565b6000602082019050613f6a600083018461354b565b92915050565b6000606082019050613f856000830186613569565b613f926020830185613569565b613f9f6040830184613ece565b949350505050565b6000602082019050613fbc60008301846135ed565b92915050565b6000602082019050613fd7600083018461360b565b92915050565b6000604082019050613ff2600083018561360b565b613fff6020830184613569565b9392505050565b600060808201905061401b600083018761360b565b6140286020830186613569565b614035604083018561361a565b614042606083018461361a565b95945050505050565b6000604082019050614060600083018561360b565b61406d602083018461360b565b9392505050565b6000608082019050614089600083018761360b565b614096602083018661360b565b6140a360408301856136c3565b6140b06060830184613ece565b95945050505050565b60006040820190506140ce600083018661360b565b81810360208301526140e1818486613629565b9050949350505050565b600060a082019050614100600083018961360b565b61410d6020830188613eec565b61411a6040830187613edd565b614127606083018661354b565b818103608083015261413a818486613629565b9050979650505050505050565b60006020820190508181036000830152614161818461367b565b905092915050565b6000602082019050818103600083015261418381846136d2565b905092915050565b600060208201905081810360008301526141a48161370b565b9050919050565b600060208201905081810360008301526141c48161374b565b9050919050565b600060208201905081810360008301526141e48161378b565b9050919050565b60006020820190508181036000830152614204816137f1565b9050919050565b6000602082019050818103600083015261422481613831565b9050919050565b6000602082019050818103600083015261424481613897565b9050919050565b60006020820190508181036000830152614264816138d7565b9050919050565b6000602082019050818103600083015261428481613917565b9050919050565b600060208201905081810360008301526142a481613957565b9050919050565b600060208201905081810360008301526142c481613997565b9050919050565b600060208201905081810360008301526142e4816139d7565b9050919050565b6000602082019050818103600083015261430481613a17565b9050919050565b6000602082019050818103600083015261432481613a57565b9050919050565b6000602082019050818103600083015261434481613abd565b9050919050565b6000602082019050818103600083015261436481613afd565b9050919050565b6000602082019050818103600083015261438481613b3d565b9050919050565b600060208201905081810360008301526143a481613b7d565b9050919050565b600060208201905081810360008301526143c481613be3565b9050919050565b600060208201905081810360008301526143e481613c49565b9050919050565b6000602082019050818103600083015261440481613c89565b9050919050565b6000602082019050818103600083015261442481613cc9565b9050919050565b6000602082019050818103600083015261444481613d49565b9050919050565b6000602082019050818103600083015261446481613d89565b9050919050565b6000602082019050818103600083015261448481613dc9565b9050919050565b600060208201905081810360008301526144a58184613e2f565b905092915050565b60006020820190506144c26000830184613ece565b92915050565b60006020820190506144dd6000830184613edd565b92915050565b60006020820190506144f86000830184613eec565b92915050565b6000819050602082019050919050565b600081519050919050565b600081519050919050565b600081519050919050565b6000602082019050919050565b600082825260208201905092915050565b600082825260208201905092915050565b600081905092915050565b600082825260208201905092915050565b600081905092915050565b6000614590826145fe565b9050919050565b60006145a2826145fe565b9050919050565b60008115159050919050565b6000819050919050565b60007fffffffff0000000000000000000000000000000000000000000000000000000082169050919050565b60008190506145f98261472a565b919050565b600073ffffffffffffffffffffffffffffffffffffffff82169050919050565b6000819050919050565b600067ffffffffffffffff82169050919050565b600068ffffffffffffffffff82169050919050565b600060ff82169050919050565b600061466982614682565b9050919050565b600061467b826145eb565b9050919050565b600061468d82614694565b9050919050565b600061469f826145fe565b9050919050565b82818337600083830152505050565b60005b838110156146d35780820151818401526020810190506146b8565b838111156146e2576000848401525b50505050565b60006146f3826146fa565b9050919050565b60006147058261471d565b9050919050565b6000601f19601f8301169050919050565b60008160601b9050919050565b6005811061473457fe5b50565b61474081614585565b811461474b57600080fd5b50565b61475781614597565b811461476257600080fd5b50565b61476e816145b5565b811461477957600080fd5b50565b614785816145bf565b811461479057600080fd5b50565b61479c8161461e565b81146147a757600080fd5b50565b6147b381614628565b81146147be57600080fd5b50565b6147ca8161463c565b81146147d557600080fd5b50565b6147e181614651565b81146147ec57600080fd5b5056fea264697066735822122071b6f338f151a133388fe47bf89c79bbbe644fefdaeea0a2618a447bd353ae7764736f6c63430006040033",
  "source": "pragma solidity 0.6.4;\npragma experimental ABIEncoderV2;\n\nimport \"@openzeppelin/contracts/access/AccessControl.sol\";\nimport \"./utils/Pausable.sol\";\nimport \"./utils/SafeMath.sol\";\nimport \"./interfaces/IDepositExecute.sol\";\nimport \"./interfaces/IBridge.sol\";\nimport \"./interfaces/IERCHandler.sol\";\nimport \"./interfaces/IGenericHandler.sol\";\n\n/**\n    @title Facilitates deposits, creation and votiing of deposit proposals, and deposit executions.\n    @author ChainSafe Systems.\n */\ncontract Bridge is Pausable, AccessControl, SafeMath {\n\n    uint8   public _chainID;\n    uint256 public _relayerThreshold;\n    uint256 public _totalRelayers;\n    uint256 public _totalProposals;\n    uint256 public _fee;\n    uint256 public _expiry;\n    address public columbusRelayer;\n    enum Vote {No, Yes}\n\n    enum ProposalStatus {Inactive, Active, Passed, Executed, Cancelled}\n\n    struct Proposal {\n        bytes32 _resourceID;\n        bytes32 _dataHash;\n        address[] _yesVotes;\n        address[] _noVotes;\n        ProposalStatus _status;\n        uint256 _proposedBlock;\n    }\n\n    // destinationChainID => number of deposits\n    mapping(uint8 => uint64) public _depositCounts;\n    // resourceID => handler address\n    mapping(bytes32 => address) public _resourceIDToHandlerAddress;\n    // depositNonce => destinationChainID => bytes\n    mapping(uint64 => mapping(uint8 => bytes)) public _depositRecords;\n    // destinationChainID + depositNonce => dataHash => Proposal\n    mapping(uint72 => mapping(bytes32 => Proposal)) public _proposals;\n    // destinationChainID + depositNonce => dataHash => relayerAddress => bool\n    mapping(uint72 => mapping(bytes32 => mapping(address => bool))) public _hasVotedOnProposal;\n\n    event RelayerThresholdChanged(uint indexed newThreshold);\n    event RelayerAdded(address indexed relayer);\n    event RelayerRemoved(address indexed relayer);\n    event Deposit(\n        uint8   indexed destinationChainID,\n        bytes32 indexed resourceID,\n        uint64  indexed depositNonce\n    );\n    event ProposalEvent(\n        uint8           indexed originChainID,\n        uint64          indexed depositNonce,\n        ProposalStatus  indexed status,\n        bytes32 resourceID,\n        bytes32 dataHash\n    );\n\n    event ProposalVote(\n        uint8   indexed originChainID,\n        uint64  indexed depositNonce,\n        ProposalStatus indexed status,\n        bytes32 resourceID\n    );\n\n    bytes32 public constant RELAYER_ROLE = keccak256(\"RELAYER_ROLE\");\n\n    modifier onlyAdmin() {\n        _onlyAdmin();\n        _;\n    }\n\n    modifier onlyAdminOrRelayer() {\n        _onlyAdminOrRelayer();\n        _;\n    }\n\n    modifier onlyRelayers() {\n        _onlyRelayers();\n        _;\n    }\n\n    function _onlyAdminOrRelayer() private {\n        require(hasRole(DEFAULT_ADMIN_ROLE, msg.sender) || hasRole(RELAYER_ROLE, msg.sender),\n            \"sender is not relayer or admin\");\n    }\n\n    function _onlyAdmin() private {\n        require(hasRole(DEFAULT_ADMIN_ROLE, msg.sender), \"sender doesn't have admin role\");\n    }\n\n    function _onlyRelayers() private {\n        require(hasRole(RELAYER_ROLE, msg.sender), \"sender doesn't have relayer role\");\n    }\n\n    modifier onlyColumbusRelayer() {\n        require(columbusRelayer == msg.sender, \"only columbusRelayer contract is allowed to call this function\");\n        _;\n    }\n    /**\n        @notice Initializes Bridge, creates and grants {msg.sender} the admin role,\n        creates and grants {initialRelayers} the relayer role.\n        @param chainID ID of chain the Bridge contract exists on.\n        @param initialRelayers Addresses that should be initially granted the relayer role.\n        @param initialRelayerThreshold Number of votes needed for a deposit proposal to be considered passed.\n     */\n    constructor (uint8 chainID, address[] memory initialRelayers, uint initialRelayerThreshold, uint256 fee, uint256 expiry) public {\n        _chainID = chainID;\n        _relayerThreshold = initialRelayerThreshold;\n        _fee = fee;\n        _expiry = expiry;\n\n        _setupRole(DEFAULT_ADMIN_ROLE, msg.sender);\n        _setRoleAdmin(RELAYER_ROLE, DEFAULT_ADMIN_ROLE);\n\n        for (uint i; i < initialRelayers.length; i++) {\n            grantRole(RELAYER_ROLE, initialRelayers[i]);\n            _totalRelayers++;\n        }\n\n    }\n\n    /**\n        @notice Returns true if {relayer} has the relayer role.\n        @param relayer Address to check.\n     */\n    function isRelayer(address relayer) external view returns (bool) {\n        return hasRole(RELAYER_ROLE, relayer);\n    }\n\n    function adminAddColumbusRelayer(address _columbusRelayer) external onlyAdmin {\n        columbusRelayer = _columbusRelayer;\n    }\n    /**\n        @notice Removes admin role from {msg.sender} and grants it to {newAdmin}.\n        @notice Only callable by an address that currently has the admin role.\n        @param newAdmin Address that admin role will be granted to.\n     */\n    function renounceAdmin(address newAdmin) external onlyAdmin {\n        grantRole(DEFAULT_ADMIN_ROLE, newAdmin);\n        renounceRole(DEFAULT_ADMIN_ROLE, msg.sender);\n    }\n\n    /**\n        @notice Pauses deposits, proposal creation and voting, and deposit executions.\n        @notice Only callable by an address that currently has the admin role.\n     */\n    function adminPauseTransfers() external onlyAdmin {\n        _pause();\n    }\n\n    /**\n        @notice Unpauses deposits, proposal creation and voting, and deposit executions.\n        @notice Only callable by an address that currently has the admin role.\n     */\n    function adminUnpauseTransfers() external onlyAdmin {\n        _unpause();\n    }\n\n    /**\n        @notice Modifies the number of votes required for a proposal to be considered passed.\n        @notice Only callable by an address that currently has the admin role.\n        @param newThreshold Value {_relayerThreshold} will be changed to.\n        @notice Emits {RelayerThresholdChanged} event.\n     */\n    function adminChangeRelayerThreshold(uint newThreshold) external onlyAdmin {\n        _relayerThreshold = newThreshold;\n        emit RelayerThresholdChanged(newThreshold);\n    }\n\n    /**\n        @notice Grants {relayerAddress} the relayer role and increases {_totalRelayer} count.\n        @notice Only callable by an address that currently has the admin role.\n        @param relayerAddress Address of relayer to be added.\n        @notice Emits {RelayerAdded} event.\n     */\n    function adminAddRelayer(address relayerAddress) external onlyAdmin {\n        require(!hasRole(RELAYER_ROLE, relayerAddress), \"addr already has relayer role!\");\n        grantRole(RELAYER_ROLE, relayerAddress);\n        emit RelayerAdded(relayerAddress);\n        _totalRelayers++;\n    }\n\n    /**\n        @notice Removes relayer role for {relayerAddress} and decreases {_totalRelayer} count.\n        @notice Only callable by an address that currently has the admin role.\n        @param relayerAddress Address of relayer to be removed.\n        @notice Emits {RelayerRemoved} event.\n     */\n    function adminRemoveRelayer(address relayerAddress) external onlyAdmin {\n        require(hasRole(RELAYER_ROLE, relayerAddress), \"addr doesn't have relayer role!\");\n        revokeRole(RELAYER_ROLE, relayerAddress);\n        emit RelayerRemoved(relayerAddress);\n        _totalRelayers--;\n    }\n\n    /**\n        @notice Sets a new resource for handler contracts that use the IERCHandler interface,\n        and maps the {handlerAddress} to {resourceID} in {_resourceIDToHandlerAddress}.\n        @notice Only callable by an address that currently has the admin role.\n        @param handlerAddress Address of handler resource will be set for.\n        @param resourceID ResourceID to be used when making deposits.\n        @param tokenAddress Address of contract to be called when a deposit is made and a deposited is executed.\n     */\n    function adminSetResource(address handlerAddress, bytes32 resourceID, address tokenAddress) external onlyAdmin {\n        _resourceIDToHandlerAddress[resourceID] = handlerAddress;\n        IERCHandler handler = IERCHandler(handlerAddress);\n        handler.setResource(resourceID, tokenAddress);\n    }\n\n    /**\n        @notice Sets a new resource for handler contracts that use the IGenericHandler interface,\n        and maps the {handlerAddress} to {resourceID} in {_resourceIDToHandlerAddress}.\n        @notice Only callable by an address that currently has the admin role.\n        @param handlerAddress Address of handler resource will be set for.\n        @param resourceID ResourceID to be used when making deposits.\n        @param contractAddress Address of contract to be called when a deposit is made and a deposited is executed.\n     */\n    function adminSetGenericResource(\n        address handlerAddress,\n        bytes32 resourceID,\n        address contractAddress,\n        bytes4 depositFunctionSig,\n        bytes4 executeFunctionSig\n    ) external onlyAdmin {\n        _resourceIDToHandlerAddress[resourceID] = handlerAddress;\n        IGenericHandler handler = IGenericHandler(handlerAddress);\n        handler.setResource(resourceID, contractAddress, depositFunctionSig, executeFunctionSig);\n    }\n\n    /**\n        @notice Sets a resource as burnable for handler contracts that use the IERCHandler interface.\n        @notice Only callable by an address that currently has the admin role.\n        @param handlerAddress Address of handler resource will be set for.\n        @param tokenAddress Address of contract to be called when a deposit is made and a deposited is executed.\n     */\n    function adminSetBurnable(address handlerAddress, address tokenAddress) external onlyAdmin {\n        IERCHandler handler = IERCHandler(handlerAddress);\n        handler.setBurnable(tokenAddress);\n    }\n\n    /**\n        @notice Returns a proposal.\n        @param originChainID Chain ID deposit originated from.\n        @param depositNonce ID of proposal generated by proposal's origin Bridge contract.\n        @param dataHash Hash of data to be provided when deposit proposal is executed.\n        @return Proposal which consists of:\n        - _dataHash Hash of data to be provided when deposit proposal is executed.\n        - _yesVotes Number of votes in favor of proposal.\n        - _noVotes Number of votes against proposal.\n        - _status Current status of proposal.\n     */\n    function getProposal(uint8 originChainID, uint64 depositNonce, bytes32 dataHash) external view returns (Proposal memory) {\n        uint72 nonceAndID = (uint72(depositNonce) << 8) | uint72(originChainID);\n        return _proposals[nonceAndID][dataHash];\n    }\n\n    /**\n        @notice Changes deposit fee.\n        @notice Only callable by admin.\n        @param newFee Value {_fee} will be updated to.\n     */\n    function adminChangeFee(uint newFee) external onlyAdmin {\n        require(_fee != newFee, \"Current fee is equal to new fee\");\n        _fee = newFee;\n    }\n\n    /**\n        @notice Used to manually withdraw funds from ERC safes.\n        @param handlerAddress Address of handler to withdraw from.\n        @param tokenAddress Address of token to withdraw.\n        @param recipient Address to withdraw tokens to.\n        @param amountOrTokenID Either the amount of ERC20 tokens or the ERC721 token ID to withdraw.\n     */\n    function adminWithdraw(\n        address handlerAddress,\n        address tokenAddress,\n        address recipient,\n        uint256 amountOrTokenID\n    ) external onlyAdmin {\n        IERCHandler handler = IERCHandler(handlerAddress);\n        handler.withdraw(tokenAddress, recipient, amountOrTokenID);\n    }\n\n    /**\n        @notice Initiates a transfer using a specified handler contract.\n        @notice Only callable when Bridge is not paused.\n        @param destinationChainID ID of chain deposit will be bridged to.\n        @param resourceID ResourceID used to find address of handler to be used for deposit.\n        @param data Additional data to be passed to specified handler.\n        @notice Emits {Deposit} event.\n     */\n    function deposit(uint8 destinationChainID, bytes32 resourceID, bytes calldata data) external payable onlyColumbusRelayer whenNotPaused {\n        require(msg.value == _fee, \"Incorrect fee supplied\");\n\n        address handler = _resourceIDToHandlerAddress[resourceID];\n        require(handler != address(0), \"resourceID not mapped to handler\");\n\n        uint64 depositNonce = ++_depositCounts[destinationChainID];\n        _depositRecords[depositNonce][destinationChainID] = data;\n\n        IDepositExecute depositHandler = IDepositExecute(handler);\n        depositHandler.deposit(resourceID, destinationChainID, depositNonce, msg.sender, data);\n\n        emit Deposit(destinationChainID, resourceID, depositNonce);\n    }\n\n    /**\n        @notice When called, {msg.sender} will be marked as voting in favor of proposal.\n        @notice Only callable by relayers when Bridge is not paused.\n        @param chainID ID of chain deposit originated from.\n        @param depositNonce ID of deposited generated by origin Bridge contract.\n        @param dataHash Hash of data provided when deposit was made.\n        @notice Proposal must not have already been passed or executed.\n        @notice {msg.sender} must not have already voted on proposal.\n        @notice Emits {ProposalEvent} event with status indicating the proposal status.\n        @notice Emits {ProposalVote} event.\n     */\n    //0x1ff013f1\n    function voteProposal(uint8 chainID, uint64 depositNonce, bytes32 resourceID, bytes32 dataHash) external onlyRelayers whenNotPaused {\n\n        uint72 nonceAndID = (uint72(depositNonce) << 8) | uint72(chainID);\n        Proposal storage proposal = _proposals[nonceAndID][dataHash];\n\n        require(_resourceIDToHandlerAddress[resourceID] != address(0), \"no handler for resourceID\");\n        require(uint(proposal._status) <= 1, \"proposal already passed/executed/cancelled\");\n        require(!_hasVotedOnProposal[nonceAndID][dataHash][msg.sender], \"relayer already voted\");\n\n        if (uint(proposal._status) == 0) {\n            ++_totalProposals;\n            _proposals[nonceAndID][dataHash] = Proposal({\n            _resourceID : resourceID,\n            _dataHash : dataHash,\n            _yesVotes : new address[](1),\n            _noVotes : new address[](0),\n            _status : ProposalStatus.Active,\n            _proposedBlock : block.number\n            });\n\n            proposal._yesVotes[0] = msg.sender;\n            emit ProposalEvent(chainID, depositNonce, ProposalStatus.Active, resourceID, dataHash);\n        } else {\n            if (sub(block.number, proposal._proposedBlock) > _expiry) {\n                // if the number of blocks that has passed since this proposal was\n                // submitted exceeds the expiry threshold set, cancel the proposal\n                proposal._status = ProposalStatus.Cancelled;\n                emit ProposalEvent(chainID, depositNonce, ProposalStatus.Cancelled, resourceID, dataHash);\n            } else {\n                require(dataHash == proposal._dataHash, \"datahash mismatch\");\n                proposal._yesVotes.push(msg.sender);\n\n\n            }\n\n        }\n        if (proposal._status != ProposalStatus.Cancelled) {\n            _hasVotedOnProposal[nonceAndID][dataHash][msg.sender] = true;\n            emit ProposalVote(chainID, depositNonce, proposal._status, resourceID);\n\n            // If _depositThreshold is set to 1, then auto finalize\n            // or if _relayerThreshold has been exceeded\n            if (_relayerThreshold <= 1 || proposal._yesVotes.length >= _relayerThreshold) {\n                proposal._status = ProposalStatus.Passed;\n\n                emit ProposalEvent(chainID, depositNonce, ProposalStatus.Passed, resourceID, dataHash);\n            }\n        }\n\n    }\n\n    /**\n        @notice Executes a deposit proposal that is considered passed using a specified handler contract.\n        @notice Only callable by relayers when Bridge is not paused.\n        @param chainID ID of chain deposit originated from.\n        @param depositNonce ID of deposited generated by origin Bridge contract.\n        @param dataHash Hash of data originally provided when deposit was made.\n        @notice Proposal must be past expiry threshold.\n        @notice Emits {ProposalEvent} event with status {Cancelled}.\n     */\n    function cancelProposal(uint8 chainID, uint64 depositNonce, bytes32 dataHash) public onlyAdminOrRelayer {\n        uint72 nonceAndID = (uint72(depositNonce) << 8) | uint72(chainID);\n        Proposal storage proposal = _proposals[nonceAndID][dataHash];\n\n        require(proposal._status != ProposalStatus.Cancelled, \"Proposal already cancelled\");\n        require(sub(block.number, proposal._proposedBlock) > _expiry, \"Proposal not at expiry threshold\");\n\n        proposal._status = ProposalStatus.Cancelled;\n        emit ProposalEvent(chainID, depositNonce, ProposalStatus.Cancelled, proposal._resourceID, proposal._dataHash);\n\n    }\n\n    /**\n        @notice Executes a deposit proposal that is considered passed using a specified handler contract.\n        @notice Only callable by relayers when Bridge is not paused.\n        @param chainID ID of chain deposit originated from.\n        @param resourceID ResourceID to be used when making deposits.\n        @param depositNonce ID of deposited generated by origin Bridge contract.\n        @param data Data originally provided when deposit was made.\n        @notice Proposal must have Passed status.\n        @notice Hash of {data} must equal proposal's {dataHash}.\n        @notice Emits {ProposalEvent} event with status {Executed}.\n     */\n    //0x4454b20d\n    function executeProposal(uint8 chainID, uint64 depositNonce, bytes calldata data, bytes32 resourceID) external onlyRelayers whenNotPaused {\n        address handler = _resourceIDToHandlerAddress[resourceID];\n        uint72 nonceAndID = (uint72(depositNonce) << 8) | uint72(chainID);\n        bytes32 dataHash = keccak256(abi.encodePacked(handler, data));\n        Proposal storage proposal = _proposals[nonceAndID][dataHash];\n\n        require(proposal._status != ProposalStatus.Inactive, \"proposal is not active\");\n        require(proposal._status == ProposalStatus.Passed, \"proposal already transferred\");\n        require(dataHash == proposal._dataHash, \"data doesn't match datahash\");\n\n        proposal._status = ProposalStatus.Executed;\n\n        IDepositExecute depositHandler = IDepositExecute(_resourceIDToHandlerAddress[proposal._resourceID]);\n        depositHandler.executeProposal(proposal._resourceID, data);\n\n        emit ProposalEvent(chainID, depositNonce, proposal._status, proposal._resourceID, proposal._dataHash);\n    }\n\n    /**\n        @notice Transfers eth in the contract to the specified addresses. The parameters addrs and amounts are mapped 1-1.\n        This means that the address at index 0 for addrs will receive the amount (in WEI) from amounts at index 0.\n        @param addrs Array of addresses to transfer {amounts} to.\n        @param amounts Array of amonuts to transfer to {addrs}.\n     */\n    function transferFunds(address payable[] calldata addrs, uint[] calldata amounts) external onlyAdmin {\n        for (uint i = 0; i < addrs.length; i++) {\n            addrs[i].transfer(amounts[i]);\n        }\n    }\n\n}\n",
  "sourcePath": "/home/platform/chainbridge-solidity/contracts/Bridge.sol",
  "compiler": {
    "name": "solc",
    "version": "0.6.4+commit.1dca32f3.Emscripten.clang"
  },
  "schemaVersion": "3.1.0",
  "updatedAt": "2022-04-16T15:38:42.443Z",
  "devdoc": {
    "author": "ChainSafe Systems.",
    "methods": {
      "adminAddRelayer(address)": {
        "params": {
          "relayerAddress": "Address of relayer to be added."
        }
      },
      "adminChangeFee(uint256)": {
        "params": {
          "newFee": "Value {_fee} will be updated to."
        }
      },
      "adminChangeRelayerThreshold(uint256)": {
        "params": {
          "newThreshold": "Value {_relayerThreshold} will be changed to."
        }
      },
      "adminRemoveRelayer(address)": {
        "params": {
          "relayerAddress": "Address of relayer to be removed."
        }
      },
      "adminSetBurnable(address,address)": {
        "params": {
          "handlerAddress": "Address of handler resource will be set for.",
          "tokenAddress": "Address of contract to be called when a deposit is made and a deposited is executed."
        }
      },
      "adminSetGenericResource(address,bytes32,address,bytes4,bytes4)": {
        "params": {
          "contractAddress": "Address of contract to be called when a deposit is made and a deposited is executed.",
          "handlerAddress": "Address of handler resource will be set for.",
          "resourceID": "ResourceID to be used when making deposits."
        }
      },
      "adminSetResource(address,bytes32,address)": {
        "params": {
          "handlerAddress": "Address of handler resource will be set for.",
          "resourceID": "ResourceID to be used when making deposits.",
          "tokenAddress": "Address of contract to be called when a deposit is made and a deposited is executed."
        }
      },
      "adminWithdraw(address,address,address,uint256)": {
        "params": {
          "amountOrTokenID": "Either the amount of ERC20 tokens or the ERC721 token ID to withdraw.",
          "handlerAddress": "Address of handler to withdraw from.",
          "recipient": "Address to withdraw tokens to.",
          "tokenAddress": "Address of token to withdraw."
        }
      },
      "cancelProposal(uint8,uint64,bytes32)": {
        "params": {
          "chainID": "ID of chain deposit originated from.",
          "dataHash": "Hash of data originally provided when deposit was made.",
          "depositNonce": "ID of deposited generated by origin Bridge contract."
        }
      },
      "constructor": {
        "params": {
          "chainID": "ID of chain the Bridge contract exists on.",
          "initialRelayerThreshold": "Number of votes needed for a deposit proposal to be considered passed.",
          "initialRelayers": "Addresses that should be initially granted the relayer role."
        }
      },
      "deposit(uint8,bytes32,bytes)": {
        "params": {
          "data": "Additional data to be passed to specified handler.",
          "destinationChainID": "ID of chain deposit will be bridged to.",
          "resourceID": "ResourceID used to find address of handler to be used for deposit."
        }
      },
      "executeProposal(uint8,uint64,bytes,bytes32)": {
        "params": {
          "chainID": "ID of chain deposit originated from.",
          "data": "Data originally provided when deposit was made.",
          "depositNonce": "ID of deposited generated by origin Bridge contract.",
          "resourceID": "ResourceID to be used when making deposits."
        }
      },
      "getProposal(uint8,uint64,bytes32)": {
        "params": {
          "dataHash": "Hash of data to be provided when deposit proposal is executed.",
          "depositNonce": "ID of proposal generated by proposal's origin Bridge contract.",
          "originChainID": "Chain ID deposit originated from."
        },
        "returns": {
          "_0": "Proposal which consists of: - _dataHash Hash of data to be provided when deposit proposal is executed. - _yesVotes Number of votes in favor of proposal. - _noVotes Number of votes against proposal. - _status Current status of proposal."
        }
      },
      "getRoleAdmin(bytes32)": {
        "details": "Returns the admin role that controls `role`. See {grantRole} and {revokeRole}.     * To change a role's admin, use {_setRoleAdmin}."
      },
      "getRoleMember(bytes32,uint256)": {
        "details": "Returns one of the accounts that have `role`. `index` must be a value between 0 and {getRoleMemberCount}, non-inclusive.     * Role bearers are not sorted in any particular way, and their ordering may change at any point.     * WARNING: When using {getRoleMember} and {getRoleMemberCount}, make sure you perform all queries on the same block. See the following https://forum.openzeppelin.com/t/iterating-over-elements-on-enumerableset-in-openzeppelin-contracts/2296[forum post] for more information."
      },
      "getRoleMemberCount(bytes32)": {
        "details": "Returns the number of accounts that have `role`. Can be used together with {getRoleMember} to enumerate all bearers of a role."
      },
      "grantRole(bytes32,address)": {
        "details": "Grants `role` to `account`.     * If `account` had not been already granted `role`, emits a {RoleGranted} event.     * Requirements:     * - the caller must have ``role``'s admin role."
      },
      "hasRole(bytes32,address)": {
        "details": "Returns `true` if `account` has been granted `role`."
      },
      "isRelayer(address)": {
        "params": {
          "relayer": "Address to check."
        }
      },
      "paused()": {
        "details": "Returns true if the contract is paused, and false otherwise."
      },
      "renounceAdmin(address)": {
        "params": {
          "newAdmin": "Address that admin role will be granted to."
        }
      },
      "renounceRole(bytes32,address)": {
        "details": "Revokes `role` from the calling account.     * Roles are often managed via {grantRole} and {revokeRole}: this function's purpose is to provide a mechanism for accounts to lose their privileges if they are compromised (such as when a trusted device is misplaced).     * If the calling account had been granted `role`, emits a {RoleRevoked} event.     * Requirements:     * - the caller must be `account`."
      },
      "revokeRole(bytes32,address)": {
        "details": "Revokes `role` from `account`.     * If `account` had been granted `role`, emits a {RoleRevoked} event.     * Requirements:     * - the caller must have ``role``'s admin role."
      },
      "transferFunds(address[],uint256[])": {
        "params": {
          "addrs": "Array of addresses to transfer {amounts} to.",
          "amounts": "Array of amonuts to transfer to {addrs}."
        }
      },
      "voteProposal(uint8,uint64,bytes32,bytes32)": {
        "params": {
          "chainID": "ID of chain deposit originated from.",
          "dataHash": "Hash of data provided when deposit was made.",
          "depositNonce": "ID of deposited generated by origin Bridge contract."
        }
      }
    },
    "title": "Facilitates deposits, creation and votiing of deposit proposals, and deposit executions."
  },
  "userdoc": {
    "methods": {
      "adminAddRelayer(address)": {
        "notice": "Grants {relayerAddress} the relayer role and increases {_totalRelayer} count.Only callable by an address that currently has the admin role.Emits {RelayerAdded} event."
      },
      "adminChangeFee(uint256)": {
        "notice": "Changes deposit fee.Only callable by admin."
      },
      "adminChangeRelayerThreshold(uint256)": {
        "notice": "Modifies the number of votes required for a proposal to be considered passed.Only callable by an address that currently has the admin role.Emits {RelayerThresholdChanged} event."
      },
      "adminPauseTransfers()": {
        "notice": "Pauses deposits, proposal creation and voting, and deposit executions.Only callable by an address that currently has the admin role."
      },
      "adminRemoveRelayer(address)": {
        "notice": "Removes relayer role for {relayerAddress} and decreases {_totalRelayer} count.Only callable by an address that currently has the admin role.Emits {RelayerRemoved} event."
      },
      "adminSetBurnable(address,address)": {
        "notice": "Sets a resource as burnable for handler contracts that use the IERCHandler interface.Only callable by an address that currently has the admin role."
      },
      "adminSetGenericResource(address,bytes32,address,bytes4,bytes4)": {
        "notice": "Sets a new resource for handler contracts that use the IGenericHandler interface, and maps the {handlerAddress} to {resourceID} in {_resourceIDToHandlerAddress}.Only callable by an address that currently has the admin role."
      },
      "adminSetResource(address,bytes32,address)": {
        "notice": "Sets a new resource for handler contracts that use the IERCHandler interface, and maps the {handlerAddress} to {resourceID} in {_resourceIDToHandlerAddress}.Only callable by an address that currently has the admin role."
      },
      "adminUnpauseTransfers()": {
        "notice": "Unpauses deposits, proposal creation and voting, and deposit executions.Only callable by an address that currently has the admin role."
      },
      "adminWithdraw(address,address,address,uint256)": {
        "notice": "Used to manually withdraw funds from ERC safes."
      },
      "cancelProposal(uint8,uint64,bytes32)": {
        "notice": "Executes a deposit proposal that is considered passed using a specified handler contract.Only callable by relayers when Bridge is not paused.Proposal must be past expiry threshold.Emits {ProposalEvent} event with status {Cancelled}."
      },
      "constructor": "Initializes Bridge, creates and grants {msg.sender} the admin role, creates and grants {initialRelayers} the relayer role.",
      "deposit(uint8,bytes32,bytes)": {
        "notice": "Initiates a transfer using a specified handler contract.Only callable when Bridge is not paused.Emits {Deposit} event."
      },
      "executeProposal(uint8,uint64,bytes,bytes32)": {
        "notice": "Executes a deposit proposal that is considered passed using a specified handler contract.Only callable by relayers when Bridge is not paused.Proposal must have Passed status.Hash of {data} must equal proposal's {dataHash}.Emits {ProposalEvent} event with status {Executed}."
      },
      "getProposal(uint8,uint64,bytes32)": {
        "notice": "Returns a proposal."
      },
      "isRelayer(address)": {
        "notice": "Returns true if {relayer} has the relayer role."
      },
      "renounceAdmin(address)": {
        "notice": "Removes admin role from {msg.sender} and grants it to {newAdmin}.Only callable by an address that currently has the admin role."
      },
      "transferFunds(address[],uint256[])": {
        "notice": "Transfers eth in the contract to the specified addresses. The parameters addrs and amounts are mapped 1-1. This means that the address at index 0 for addrs will receive the amount (in WEI) from amounts at index 0."
      },
      "voteProposal(uint8,uint64,bytes32,bytes32)": {
        "notice": "When called, {msg.sender} will be marked as voting in favor of proposal.Only callable by relayers when Bridge is not paused.Proposal must not have already been passed or executed.{msg.sender} must not have already voted on proposal.Emits {ProposalEvent} event with status indicating the proposal status.Emits {ProposalVote} event."
      }
    }
  }
}