{
  "_format": "hh-sol-artifact-1",
  "contractName": "MasterChef",
  "sourceName": "contracts/ColumbusFarm.sol",
  "abi": [
    {
      "inputs": [
        {
          "internalType": "contract ColumbusToken",
          "name": "_col",
          "type": "address"
        },
        {
          "internalType": "uint256",
          "name": "_colPerSecond",
          "type": "uint256"
        },
        {
          "internalType": "uint256",
          "name": "_startTime",
          "type": "uint256"
        },
        {
          "internalType": "uint256",
          "name": "_endTime",
          "type": "uint256"
        }
      ],
      "stateMutability": "nonpayable",
      "type": "constructor"
    },
    {
      "anonymous": false,
      "inputs": [
        {
          "indexed": true,
          "internalType": "address",
          "name": "user",
          "type": "address"
        },
        {
          "indexed": true,
          "internalType": "uint256",
          "name": "pid",
          "type": "uint256"
        },
        {
          "indexed": false,
          "internalType": "uint256",
          "name": "amount",
          "type": "uint256"
        }
      ],
      "name": "Deposit",
      "type": "event"
    },
    {
      "anonymous": false,
      "inputs": [
        {
          "indexed": true,
          "internalType": "address",
          "name": "user",
          "type": "address"
        },
        {
          "indexed": true,
          "internalType": "uint256",
          "name": "pid",
          "type": "uint256"
        },
        {
          "indexed": false,
          "internalType": "uint256",
          "name": "amount",
          "type": "uint256"
        }
      ],
      "name": "EmergencyWithdraw",
      "type": "event"
    },
    {
      "anonymous": false,
      "inputs": [
        {
          "indexed": true,
          "internalType": "address",
          "name": "previousOwner",
          "type": "address"
        },
        {
          "indexed": true,
          "internalType": "address",
          "name": "newOwner",
          "type": "address"
        }
      ],
      "name": "OwnershipTransferred",
      "type": "event"
    },
    {
      "anonymous": false,
      "inputs": [
        {
          "indexed": true,
          "internalType": "address",
          "name": "user",
          "type": "address"
        },
        {
          "indexed": true,
          "internalType": "uint256",
          "name": "pid",
          "type": "uint256"
        },
        {
          "indexed": false,
          "internalType": "uint256",
          "name": "amount",
          "type": "uint256"
        }
      ],
      "name": "Withdraw",
      "type": "event"
    },
    {
      "inputs": [],
      "name": "MaxAllocPoint",
      "outputs": [
        {
          "internalType": "uint256",
          "name": "",
          "type": "uint256"
        }
      ],
      "stateMutability": "view",
      "type": "function"
    },
    {
      "inputs": [
        {
          "internalType": "uint256",
          "name": "_allocPoint",
          "type": "uint256"
        },
        {
          "internalType": "contract IERC20",
          "name": "_lpToken",
          "type": "address"
        }
      ],
      "name": "add",
      "outputs": [],
      "stateMutability": "nonpayable",
      "type": "function"
    },
    {
      "inputs": [
        {
          "internalType": "uint256",
          "name": "_pid",
          "type": "uint256"
        }
      ],
      "name": "claim",
      "outputs": [],
      "stateMutability": "nonpayable",
      "type": "function"
    },
    {
      "inputs": [],
      "name": "claimAll",
      "outputs": [],
      "stateMutability": "nonpayable",
      "type": "function"
    },
    {
      "inputs": [],
      "name": "col",
      "outputs": [
        {
          "internalType": "contract ColumbusToken",
          "name": "",
          "type": "address"
        }
      ],
      "stateMutability": "view",
      "type": "function"
    },
    {
      "inputs": [],
      "name": "colPerSecond",
      "outputs": [
        {
          "internalType": "uint256",
          "name": "",
          "type": "uint256"
        }
      ],
      "stateMutability": "view",
      "type": "function"
    },
    {
      "inputs": [
        {
          "internalType": "uint256",
          "name": "_pid",
          "type": "uint256"
        },
        {
          "internalType": "uint256",
          "name": "_amount",
          "type": "uint256"
        }
      ],
      "name": "deposit",
      "outputs": [],
      "stateMutability": "nonpayable",
      "type": "function"
    },
    {
      "inputs": [
        {
          "internalType": "uint256",
          "name": "_pid",
          "type": "uint256"
        }
      ],
      "name": "emergencyWithdraw",
      "outputs": [],
      "stateMutability": "nonpayable",
      "type": "function"
    },
    {
      "inputs": [],
      "name": "endTime",
      "outputs": [
        {
          "internalType": "uint256",
          "name": "",
          "type": "uint256"
        }
      ],
      "stateMutability": "view",
      "type": "function"
    },
    {
      "inputs": [
        {
          "internalType": "uint256",
          "name": "_from",
          "type": "uint256"
        },
        {
          "internalType": "uint256",
          "name": "_to",
          "type": "uint256"
        }
      ],
      "name": "getMultiplier",
      "outputs": [
        {
          "internalType": "uint256",
          "name": "",
          "type": "uint256"
        }
      ],
      "stateMutability": "view",
      "type": "function"
    },
    {
      "inputs": [],
      "name": "massUpdatePools",
      "outputs": [],
      "stateMutability": "nonpayable",
      "type": "function"
    },
    {
      "inputs": [],
      "name": "owner",
      "outputs": [
        {
          "internalType": "address",
          "name": "",
          "type": "address"
        }
      ],
      "stateMutability": "view",
      "type": "function"
    },
    {
      "inputs": [
        {
          "internalType": "uint256",
          "name": "_pid",
          "type": "uint256"
        },
        {
          "internalType": "address",
          "name": "_user",
          "type": "address"
        }
      ],
      "name": "pendingCOL",
      "outputs": [
        {
          "internalType": "uint256",
          "name": "",
          "type": "uint256"
        }
      ],
      "stateMutability": "view",
      "type": "function"
    },
    {
      "inputs": [
        {
          "internalType": "uint256",
          "name": "",
          "type": "uint256"
        }
      ],
      "name": "poolInfo",
      "outputs": [
        {
          "internalType": "contract IERC20",
          "name": "lpToken",
          "type": "address"
        },
        {
          "internalType": "uint256",
          "name": "allocPoint",
          "type": "uint256"
        },
        {
          "internalType": "uint256",
          "name": "lastRewardTime",
          "type": "uint256"
        },
        {
          "internalType": "uint256",
          "name": "accCOLPerShare",
          "type": "uint256"
        }
      ],
      "stateMutability": "view",
      "type": "function"
    },
    {
      "inputs": [],
      "name": "poolLength",
      "outputs": [
        {
          "internalType": "uint256",
          "name": "",
          "type": "uint256"
        }
      ],
      "stateMutability": "view",
      "type": "function"
    },
    {
      "inputs": [],
      "name": "renounceOwnership",
      "outputs": [],
      "stateMutability": "nonpayable",
      "type": "function"
    },
    {
      "inputs": [
        {
          "internalType": "uint256",
          "name": "_pid",
          "type": "uint256"
        },
        {
          "internalType": "uint256",
          "name": "_allocPoint",
          "type": "uint256"
        }
      ],
      "name": "set",
      "outputs": [],
      "stateMutability": "nonpayable",
      "type": "function"
    },
    {
      "inputs": [],
      "name": "startTime",
      "outputs": [
        {
          "internalType": "uint256",
          "name": "",
          "type": "uint256"
        }
      ],
      "stateMutability": "view",
      "type": "function"
    },
    {
      "inputs": [],
      "name": "totalAllocPoint",
      "outputs": [
        {
          "internalType": "uint256",
          "name": "",
          "type": "uint256"
        }
      ],
      "stateMutability": "view",
      "type": "function"
    },
    {
      "inputs": [
        {
          "internalType": "address",
          "name": "newOwner",
          "type": "address"
        }
      ],
      "name": "transferOwnership",
      "outputs": [],
      "stateMutability": "nonpayable",
      "type": "function"
    },
    {
      "inputs": [
        {
          "internalType": "uint256",
          "name": "_pid",
          "type": "uint256"
        }
      ],
      "name": "updatePool",
      "outputs": [],
      "stateMutability": "nonpayable",
      "type": "function"
    },
    {
      "inputs": [
        {
          "internalType": "uint256",
          "name": "",
          "type": "uint256"
        },
        {
          "internalType": "address",
          "name": "",
          "type": "address"
        }
      ],
      "name": "userInfo",
      "outputs": [
        {
          "internalType": "uint256",
          "name": "amount",
          "type": "uint256"
        },
        {
          "internalType": "uint256",
          "name": "rewardDebt",
          "type": "uint256"
        }
      ],
      "stateMutability": "view",
      "type": "function"
    },
    {
      "inputs": [
        {
          "internalType": "uint256",
          "name": "_pid",
          "type": "uint256"
        },
        {
          "internalType": "uint256",
          "name": "_amount",
          "type": "uint256"
        }
      ],
      "name": "withdraw",
      "outputs": [],
      "stateMutability": "nonpayable",
      "type": "function"
    }
  ],
  "bytecode": "0x60e0604052600060045534801561001557600080fd5b5060405162001b4638038062001b46833981016040819052610036916100c1565b61003f33610071565b600180546001600160a01b0319166001600160a01b03959095169490941790935560809190915260a05260c05261010c565b600080546001600160a01b038381166001600160a01b0319831681178455604051919092169283917f8be0079c531659141344cd1fd0a4f28419497f9722a3daafe3b4186f6b6457e09190a35050565b600080600080608085870312156100d757600080fd5b84516001600160a01b03811681146100ee57600080fd5b60208601516040870151606090970151919890975090945092505050565b60805160a05160c0516119c4620001826000396000818161021c01528181610cec01528181610d1e0152610d590152600081816102c6015281816105f20152818161061901528181610c7201528181610c990152610cc301526000818161025601528181610a4a015261105801526119c46000f3fe608060405234801561001057600080fd5b506004361061018d5760003560e01c8063630b5ba1116100e3578063a78695b01161008c578063f02b97e311610066578063f02b97e314610395578063f2fde38b146103a8578063f4b83c4c146103bb57600080fd5b8063a78695b014610367578063d1058e591461037a578063e2bbb1581461038257600080fd5b80638da5cb5b116100bd5780638da5cb5b146102e85780638dbb1e3a1461030d57806393f1a40b1461032057600080fd5b8063630b5ba1146102b1578063715018a6146102b957806378e97925146102c157600080fd5b80633197cbb611610145578063441a3e701161011f578063441a3e701461027857806351eb05a61461028b5780635312ea8e1461029e57600080fd5b80633197cbb614610217578063379607f51461023e5780633e181d041461025157600080fd5b806317caf6f11161017657806317caf6f1146101e65780631ab06ee5146101ef5780632b8bbbe81461020457600080fd5b8063081e3eda146101925780631526fe27146101a9575b600080fd5b6002545b6040519081526020015b60405180910390f35b6101bc6101b7366004611784565b6103c4565b604080516001600160a01b03909516855260208501939093529183015260608201526080016101a0565b61019660045481565b6102026101fd36600461179d565b610408565b005b6102026102123660046117d4565b610531565b6101967f000000000000000000000000000000000000000000000000000000000000000081565b61020261024c366004611784565b610758565b6101967f000000000000000000000000000000000000000000000000000000000000000081565b61020261028636600461179d565b610810565b610202610299366004611784565b610971565b6102026102ac366004611784565b610b3b565b610202610bdd565b610202610c08565b6101967f000000000000000000000000000000000000000000000000000000000000000081565b6000546001600160a01b03165b6040516001600160a01b0390911681526020016101a0565b61019661031b36600461179d565b610c6e565b61035261032e3660046117d4565b60036020908152600092835260408084209091529082529020805460019091015482565b604080519283526020830191909152016101a0565b6001546102f5906001600160a01b031681565b610202610d84565b61020261039036600461179d565b610e5f565b6101966103a33660046117d4565b610f5f565b6102026103b6366004611804565b6110dd565b610196610fa081565b600281815481106103d457600080fd5b600091825260209091206004909102018054600182015460028301546003909301546001600160a01b039092169350919084565b6000546001600160a01b031633146104675760405162461bcd60e51b815260206004820181905260248201527f4f776e61626c653a2063616c6c6572206973206e6f7420746865206f776e657260448201526064015b60405180910390fd5b610fa08111156104b95760405162461bcd60e51b815260206004820152601c60248201527f6164643a20746f6f206d616e7920616c6c6f6320706f696e7473212100000000604482015260640161045e565b6104c1610bdd565b80600283815481106104d5576104d5611821565b9060005260206000209060040201600101546004546104f4919061184d565b6104fe9190611864565b600481905550806002838154811061051857610518611821565b9060005260206000209060040201600101819055505050565b6000546001600160a01b0316331461058b5760405162461bcd60e51b815260206004820181905260248201527f4f776e61626c653a2063616c6c6572206973206e6f7420746865206f776e6572604482015260640161045e565b610fa08211156105dd5760405162461bcd60e51b815260206004820152601c60248201527f6164643a20746f6f206d616e7920616c6c6f6320706f696e7473212100000000604482015260640161045e565b6105e6816111bf565b6105ee610bdd565b60007f0000000000000000000000000000000000000000000000000000000000000000421161063d577f000000000000000000000000000000000000000000000000000000000000000061063f565b425b60045490915061064f9084611269565b6004908155604080516080810182526001600160a01b03948516815260208101958652908101928352600060608201818152600280546001810182559252915192027f405787fa12a823e0f2b7631cc41b3ba8828b3321ca811111fa75cd3aa3bb5ace81018054939095167fffffffffffffffffffffffff00000000000000000000000000000000000000009093169290921790935592517f405787fa12a823e0f2b7631cc41b3ba8828b3321ca811111fa75cd3aa3bb5acf840155517f405787fa12a823e0f2b7631cc41b3ba8828b3321ca811111fa75cd3aa3bb5ad0830155517f405787fa12a823e0f2b7631cc41b3ba8828b3321ca811111fa75cd3aa3bb5ad190910155565b60006002828154811061076d5761076d611821565b6000918252602080832085845260038252604080852033865290925292208054600490920290920192506107a057600080fd5b6107a983610971565b60006107d564e8d4a510006107cf8560030154856000015461127c90919063ffffffff16565b90611288565b905060006107f083600101548361129490919063ffffffff16565b60018401839055905080156108095761080933826112a0565b5050505050565b60006002838154811061082557610825611821565b60009182526020808320868452600382526040808520338652909252922080546004909202909201925083111561089e5760405162461bcd60e51b815260206004820152601260248201527f77697468647261773a206e6f7420676f6f640000000000000000000000000000604482015260640161045e565b6108a784610971565b60006108db82600101546108d564e8d4a510006107cf8760030154876000015461127c90919063ffffffff16565b90611294565b82549091506108ea9085611294565b80835560038401546109079164e8d4a51000916107cf919061127c565b6001830155801561091c5761091c33826112a0565b8254610932906001600160a01b031633866113ce565b604051848152859033907ff279e6a1f5e320cca91135676d9cb6e44ca8a08c0b88342bcdb1144f6511b568906020015b60405180910390a35050505050565b60006002828154811061098657610986611821565b90600052602060002090600402019050806002015442116109a5575050565b80546040516370a0823160e01b81523060048201526000916001600160a01b0316906370a0823190602401602060405180830381865afa1580156109ed573d6000803e3d6000fd5b505050506040513d601f19601f82011682018060405250810190610a11919061187c565b905080610a2357504260029091015550565b6000610a33836002015442610c6e565b90506000610a7e6004546107cf8660010154610a787f00000000000000000000000000000000000000000000000000000000000000008761127c90919063ffffffff16565b9061127c565b6001546040517f40c10f19000000000000000000000000000000000000000000000000000000008152306004820152602481018390529192506001600160a01b0316906340c10f1990604401600060405180830381600087803b158015610ae457600080fd5b505af1158015610af8573d6000803e3d6000fd5b50505050610b26610b1b846107cf64e8d4a510008561127c90919063ffffffff16565b600386015490611269565b60038501555050426002909201919091555050565b600060028281548110610b5057610b50611821565b600091825260208083208584526003825260408085203380875293528420805485825560018201959095556004909302018054909450919291610ba0916001600160a01b039190911690836113ce565b604051818152849033907fbb757047c2b5f3974fe26b7c10f732e7bce710b0952a71082702781e62ae05959060200160405180910390a350505050565b60025460005b81811015610c0457610bf481610971565b610bfd81611895565b9050610be3565b5050565b6000546001600160a01b03163314610c625760405162461bcd60e51b815260206004820181905260248201527f4f776e61626c653a2063616c6c6572206973206e6f7420746865206f776e6572604482015260640161045e565b610c6c600061145e565b565b60007f00000000000000000000000000000000000000000000000000000000000000008311610cbd577f0000000000000000000000000000000000000000000000000000000000000000610cbf565b825b92507f0000000000000000000000000000000000000000000000000000000000000000821080610d0f57507f00000000000000000000000000000000000000000000000000000000000000008310155b15610d1c57506000610d7e565b7f00000000000000000000000000000000000000000000000000000000000000008211610d5457610d4d8284611294565b9050610d7e565b610d4d7f000000000000000000000000000000000000000000000000000000000000000084611294565b92915050565b600254600080808080805b86811015610e465760008181526003602090815260408083203384529091529020805490945015610e365760028181548110610dcd57610dcd611821565b90600052602060002090600402019250610de681610971565b60038301548454610e019164e8d4a51000916107cf9161127c565b9550610e1a84600101548761129490919063ffffffff16565b6001850187905594508415610e3657610e338583611864565b91505b610e3f81611895565b9050610d8f565b508015610e5757610e5733826112a0565b505050505050565b600060028381548110610e7457610e74611821565b60009182526020808320868452600382526040808520338652909252922060049091029091019150610ea584610971565b6000610ed382600101546108d564e8d4a510006107cf8760030154876000015461127c90919063ffffffff16565b8254909150610ee29085611269565b8083556003840154610eff9164e8d4a51000916107cf919061127c565b60018301558015610f1457610f1433826112a0565b8254610f2b906001600160a01b03163330876114c6565b604051848152859033907f90890809c654f11d6e72a28fa60149770a0d11ec6c92319d6ceb2bb0a4ea1a1590602001610962565b60008060028481548110610f7557610f75611821565b60009182526020808320878452600380835260408086206001600160a01b038a811688529452808620600495860290930191820154825491516370a0823160e01b8152309681019690965291965091949093909291909116906370a0823190602401602060405180830381865afa158015610ff4573d6000803e3d6000fd5b505050506040513d601f19601f82011682018060405250810190611018919061187c565b905083600201544211801561102c57508015155b156110aa576000611041856002015442610c6e565b905060006110866004546107cf8860010154610a787f00000000000000000000000000000000000000000000000000000000000000008761127c90919063ffffffff16565b90506110a561109e846107cf8464e8d4a5100061127c565b8590611269565b935050505b6110d283600101546108d564e8d4a510006107cf86886000015461127c90919063ffffffff16565b979650505050505050565b6000546001600160a01b031633146111375760405162461bcd60e51b815260206004820181905260248201527f4f776e61626c653a2063616c6c6572206973206e6f7420746865206f776e6572604482015260640161045e565b6001600160a01b0381166111b35760405162461bcd60e51b815260206004820152602660248201527f4f776e61626c653a206e6577206f776e657220697320746865207a65726f206160448201527f6464726573730000000000000000000000000000000000000000000000000000606482015260840161045e565b6111bc8161145e565b50565b60025460005b8181101561126457826001600160a01b0316600282815481106111ea576111ea611821565b60009182526020909120600490910201546001600160a01b031614156112525760405162461bcd60e51b815260206004820152601c60248201527f6164643a20706f6f6c20616c7265616479206578697374732121212100000000604482015260640161045e565b8061125c81611895565b9150506111c5565b505050565b60006112758284611864565b9392505050565b600061127582846118b0565b600061127582846118cf565b6000611275828461184d565b6001546040516370a0823160e01b81523060048201526000916001600160a01b0316906370a0823190602401602060405180830381865afa1580156112e9573d6000803e3d6000fd5b505050506040513d601f19601f8201168201806040525081019061130d919061187c565b9050808211156113955760015460405163a9059cbb60e01b81526001600160a01b038581166004830152602482018490529091169063a9059cbb906044015b6020604051808303816000875af115801561136b573d6000803e3d6000fd5b505050506040513d601f19601f8201168201806040525081019061138f91906118f1565b50505050565b60015460405163a9059cbb60e01b81526001600160a01b038581166004830152602482018590529091169063a9059cbb9060440161134c565b6040516001600160a01b03831660248201526044810182905261126490849063a9059cbb60e01b906064015b60408051601f198184030181529190526020810180517bffffffffffffffffffffffffffffffffffffffffffffffffffffffff167fffffffff0000000000000000000000000000000000000000000000000000000090931692909217909152611517565b600080546001600160a01b038381167fffffffffffffffffffffffff0000000000000000000000000000000000000000831681178455604051919092169283917f8be0079c531659141344cd1fd0a4f28419497f9722a3daafe3b4186f6b6457e09190a35050565b6040516001600160a01b038085166024830152831660448201526064810182905261138f9085907f23b872dd00000000000000000000000000000000000000000000000000000000906084016113fa565b600061156c826040518060400160405280602081526020017f5361666545524332303a206c6f772d6c6576656c2063616c6c206661696c6564815250856001600160a01b03166115fc9092919063ffffffff16565b805190915015611264578080602001905181019061158a91906118f1565b6112645760405162461bcd60e51b815260206004820152602a60248201527f5361666545524332303a204552433230206f7065726174696f6e20646964206e60448201527f6f74207375636365656400000000000000000000000000000000000000000000606482015260840161045e565b606061160b8484600085611613565b949350505050565b60608247101561168b5760405162461bcd60e51b815260206004820152602660248201527f416464726573733a20696e73756666696369656e742062616c616e636520666f60448201527f722063616c6c0000000000000000000000000000000000000000000000000000606482015260840161045e565b6001600160a01b0385163b6116e25760405162461bcd60e51b815260206004820152601d60248201527f416464726573733a2063616c6c20746f206e6f6e2d636f6e7472616374000000604482015260640161045e565b600080866001600160a01b031685876040516116fe919061193f565b60006040518083038185875af1925050503d806000811461173b576040519150601f19603f3d011682016040523d82523d6000602084013e611740565b606091505b50915091506110d28282866060831561175a575081611275565b82511561176a5782518084602001fd5b8160405162461bcd60e51b815260040161045e919061195b565b60006020828403121561179657600080fd5b5035919050565b600080604083850312156117b057600080fd5b50508035926020909101359150565b6001600160a01b03811681146111bc57600080fd5b600080604083850312156117e757600080fd5b8235915060208301356117f9816117bf565b809150509250929050565b60006020828403121561181657600080fd5b8135611275816117bf565b634e487b7160e01b600052603260045260246000fd5b634e487b7160e01b600052601160045260246000fd5b60008282101561185f5761185f611837565b500390565b6000821982111561187757611877611837565b500190565b60006020828403121561188e57600080fd5b5051919050565b60006000198214156118a9576118a9611837565b5060010190565b60008160001904831182151516156118ca576118ca611837565b500290565b6000826118ec57634e487b7160e01b600052601260045260246000fd5b500490565b60006020828403121561190357600080fd5b8151801515811461127557600080fd5b60005b8381101561192e578181015183820152602001611916565b8381111561138f5750506000910152565b60008251611951818460208701611913565b9190910192915050565b602081526000825180602084015261197a816040850160208701611913565b601f01601f1916919091016040019291505056fea2646970667358221220cfbc22014635be9398df6e98a90adec0d96abe00e309b8f2f83db7749ec056b364736f6c634300080a0033",
  "linkReferences": {},
  "deployedLinkReferences": {}
}