{
  "_format": "hh-sol-artifact-1",
  "contractName": "ColumDeck",
  "sourceName": "contracts/ColumbusDeck.sol",
  "abi": [
    {
      "inputs": [
        {
          "internalType": "address",
          "name": "_genericHandlerAddress",
          "type": "address"
        }
      ],
      "stateMutability": "nonpayable",
      "type": "constructor"
    },
    {
      "anonymous": false,
      "inputs": [
        {
          "indexed": true,
          "internalType": "address",
          "name": "sender",
          "type": "address"
        },
        {
          "indexed": true,
          "internalType": "address",
          "name": "token",
          "type": "address"
        },
        {
          "indexed": true,
          "internalType": "uint256",
          "name": "amount",
          "type": "uint256"
        }
      ],
      "name": "LockToken",
      "type": "event"
    },
    {
      "anonymous": false,
      "inputs": [
        {
          "indexed": true,
          "internalType": "address",
          "name": "to",
          "type": "address"
        },
        {
          "indexed": true,
          "internalType": "address",
          "name": "token",
          "type": "address"
        },
        {
          "indexed": true,
          "internalType": "uint256",
          "name": "amount",
          "type": "uint256"
        }
      ],
      "name": "ReleaseToken",
      "type": "event"
    },
    {
      "inputs": [],
      "name": "genericHandlerAddress",
      "outputs": [
        {
          "internalType": "address",
          "name": "",
          "type": "address"
        }
      ],
      "stateMutability": "view",
      "type": "function"
    },
    {
      "inputs": [
        {
          "internalType": "bytes",
          "name": "data",
          "type": "bytes"
        }
      ],
      "name": "lockToken",
      "outputs": [],
      "stateMutability": "nonpayable",
      "type": "function"
    },
    {
      "inputs": [
        {
          "internalType": "bytes",
          "name": "data",
          "type": "bytes"
        }
      ],
      "name": "releaseToken",
      "outputs": [],
      "stateMutability": "nonpayable",
      "type": "function"
    }
  ],
  "bytecode": "0x608060405234801561001057600080fd5b506040516107bd3803806107bd83398101604081905261002f91610054565b600080546001600160a01b0319166001600160a01b0392909216919091179055610084565b60006020828403121561006657600080fd5b81516001600160a01b038116811461007d57600080fd5b9392505050565b61072a806100936000396000f3fe608060405234801561001057600080fd5b50600436106100415760003560e01c806324b7dd361461004657806328402380146100755780639d7814e91461008a575b600080fd5b600054610059906001600160a01b031681565b6040516001600160a01b03909116815260200160405180910390f35b6100886100833660046104e4565b61009d565b005b6100886100983660046104e4565b61014a565b6000546001600160a01b031633146100d05760405162461bcd60e51b81526004016100c790610555565b60405180910390fd5b600080806100e0848601866105c6565b5092955090935091508390506101016001600160a01b0382168430856101e9565b81846001600160a01b0316846001600160a01b03167fac03d6ce4d071dbe5b32b03d1eae86af528a330cb6fd2e4df3ecc0ba80d6fdb560405160405180910390a4505050505050565b6000546001600160a01b031633146101745760405162461bcd60e51b81526004016100c790610555565b600080806101848486018661061b565b91945092509050826101a06001600160a01b038216848461025a565b81846001600160a01b0316846001600160a01b03167f20cbd31ea73417c84e5a126fe5342104655bd0e8cba0bedfa4b6ffdd2efa93ab60405160405180910390a4505050505050565b6040516001600160a01b03808516602483015283166044820152606481018290526102549085906323b872dd60e01b906084015b60408051601f198184030181529190526020810180516001600160e01b03166001600160e01b03199093169290921790915261028f565b50505050565b6040516001600160a01b03831660248201526044810182905261028a90849063a9059cbb60e01b9060640161021d565b505050565b60006102e4826040518060400160405280602081526020017f5361666545524332303a206c6f772d6c6576656c2063616c6c206661696c6564815250856001600160a01b03166103619092919063ffffffff16565b80519091501561028a57808060200190518101906103029190610657565b61028a5760405162461bcd60e51b815260206004820152602a60248201527f5361666545524332303a204552433230206f7065726174696f6e20646964206e6044820152691bdd081cdd58d8d9595960b21b60648201526084016100c7565b6060610370848460008561037a565b90505b9392505050565b6060824710156103db5760405162461bcd60e51b815260206004820152602660248201527f416464726573733a20696e73756666696369656e742062616c616e636520666f6044820152651c8818d85b1b60d21b60648201526084016100c7565b6001600160a01b0385163b6104325760405162461bcd60e51b815260206004820152601d60248201527f416464726573733a2063616c6c20746f206e6f6e2d636f6e747261637400000060448201526064016100c7565b600080866001600160a01b0316858760405161044e91906106a5565b60006040518083038185875af1925050503d806000811461048b576040519150601f19603f3d011682016040523d82523d6000602084013e610490565b606091505b50915091506104a08282866104ab565b979650505050505050565b606083156104ba575081610373565b8251156104ca5782518084602001fd5b8160405162461bcd60e51b81526004016100c791906106c1565b600080602083850312156104f757600080fd5b82356001600160401b038082111561050e57600080fd5b818501915085601f83011261052257600080fd5b81358181111561053157600080fd5b86602082850101111561054357600080fd5b60209290920196919550909350505050565b60208082526035908201527f6f6e6c792047656e657269632048616e646c657220697320616c6c6f776564206040820152743a379031b0b636103a3434b990333ab731ba34b7b760591b606082015260800190565b80356001600160a01b03811681146105c157600080fd5b919050565b600080600080600060a086880312156105de57600080fd5b6105e7866105aa565b94506105f5602087016105aa565b93506040860135925061060a606087016105aa565b949793965091946080013592915050565b60008060006060848603121561063057600080fd5b610639846105aa565b9250610647602085016105aa565b9150604084013590509250925092565b60006020828403121561066957600080fd5b8151801515811461037357600080fd5b60005b8381101561069457818101518382015260200161067c565b838111156102545750506000910152565b600082516106b7818460208701610679565b9190910192915050565b60208152600082518060208401526106e0816040850160208701610679565b601f01601f1916919091016040019291505056fea2646970667358221220a19916a0e40a3058d92bfd5ee97496d1b6812026b139948f1f384c9e728009ae64736f6c634300080b0033",
  "linkReferences": {},
  "deployedLinkReferences": {}
}