{
  "_format": "hh-sol-artifact-1",
  "contractName": "ColumbusDeck",
  "sourceName": "contracts/ColumbusDeck.sol",
  "abi": [
    {
      "inputs": [
        {
          "internalType": "address",
          "name": "_genericHandlerAddress",
          "type": "address"
        },
        {
          "internalType": "address",
          "name": "_columbusAssetAddress",
          "type": "address"
        }
      ],
      "stateMutability": "nonpayable",
      "type": "constructor"
    },
    {
      "anonymous": false,
      "inputs": [
        {
          "indexed": true,
          "internalType": "address",
          "name": "sender",
          "type": "address"
        },
        {
          "indexed": true,
          "internalType": "address",
          "name": "token",
          "type": "address"
        },
        {
          "indexed": false,
          "internalType": "uint256",
          "name": "amount",
          "type": "uint256"
        }
      ],
      "name": "Deposit",
      "type": "event"
    },
    {
      "anonymous": false,
      "inputs": [
        {
          "indexed": true,
          "internalType": "address",
          "name": "previousOwner",
          "type": "address"
        },
        {
          "indexed": true,
          "internalType": "address",
          "name": "newOwner",
          "type": "address"
        }
      ],
      "name": "OwnershipTransferred",
      "type": "event"
    },
    {
      "anonymous": false,
      "inputs": [
        {
          "indexed": true,
          "internalType": "address",
          "name": "to",
          "type": "address"
        },
        {
          "indexed": true,
          "internalType": "address",
          "name": "token",
          "type": "address"
        },
        {
          "indexed": false,
          "internalType": "uint256",
          "name": "amount",
          "type": "uint256"
        }
      ],
      "name": "Withdraw",
      "type": "event"
    },
    {
      "inputs": [
        {
          "internalType": "address",
          "name": "handler",
          "type": "address"
        }
      ],
      "name": "adminColumbusAssetAddress",
      "outputs": [],
      "stateMutability": "nonpayable",
      "type": "function"
    },
    {
      "inputs": [
        {
          "internalType": "address",
          "name": "handler",
          "type": "address"
        }
      ],
      "name": "adminSetGenericHandler",
      "outputs": [],
      "stateMutability": "nonpayable",
      "type": "function"
    },
    {
      "inputs": [],
      "name": "columbusAssetAddress",
      "outputs": [
        {
          "internalType": "address",
          "name": "",
          "type": "address"
        }
      ],
      "stateMutability": "view",
      "type": "function"
    },
    {
      "inputs": [
        {
          "internalType": "bytes",
          "name": "data",
          "type": "bytes"
        }
      ],
      "name": "deposit",
      "outputs": [],
      "stateMutability": "nonpayable",
      "type": "function"
    },
    {
      "inputs": [],
      "name": "genericHandlerAddress",
      "outputs": [
        {
          "internalType": "address",
          "name": "",
          "type": "address"
        }
      ],
      "stateMutability": "view",
      "type": "function"
    },
    {
      "inputs": [],
      "name": "owner",
      "outputs": [
        {
          "internalType": "address",
          "name": "",
          "type": "address"
        }
      ],
      "stateMutability": "view",
      "type": "function"
    },
    {
      "inputs": [],
      "name": "renounceOwnership",
      "outputs": [],
      "stateMutability": "nonpayable",
      "type": "function"
    },
    {
      "inputs": [
        {
          "internalType": "address",
          "name": "newOwner",
          "type": "address"
        }
      ],
      "name": "transferOwnership",
      "outputs": [],
      "stateMutability": "nonpayable",
      "type": "function"
    },
    {
      "inputs": [
        {
          "internalType": "bytes",
          "name": "data",
          "type": "bytes"
        }
      ],
      "name": "withdraw",
      "outputs": [],
      "stateMutability": "nonpayable",
      "type": "function"
    }
  ],
  "bytecode": "0x60806040523480156200001157600080fd5b506040516200199e3803806200199e8339818101604052810190620000379190620001c4565b620000576200004b620000e160201b60201c565b620000e960201b60201c565b81600160006101000a81548173ffffffffffffffffffffffffffffffffffffffff021916908373ffffffffffffffffffffffffffffffffffffffff16021790555080600260006101000a81548173ffffffffffffffffffffffffffffffffffffffff021916908373ffffffffffffffffffffffffffffffffffffffff160217905550505062000253565b600033905090565b60008060009054906101000a900473ffffffffffffffffffffffffffffffffffffffff169050816000806101000a81548173ffffffffffffffffffffffffffffffffffffffff021916908373ffffffffffffffffffffffffffffffffffffffff1602179055508173ffffffffffffffffffffffffffffffffffffffff168173ffffffffffffffffffffffffffffffffffffffff167f8be0079c531659141344cd1fd0a4f28419497f9722a3daafe3b4186f6b6457e060405160405180910390a35050565b600081519050620001be8162000239565b92915050565b60008060408385031215620001d857600080fd5b6000620001e885828601620001ad565b9250506020620001fb85828601620001ad565b9150509250929050565b6000620002128262000219565b9050919050565b600073ffffffffffffffffffffffffffffffffffffffff82169050919050565b620002448162000205565b81146200025057600080fd5b50565b61173b80620002636000396000f3fe608060405234801561001057600080fd5b50600436106100935760003560e01c80634eaf56b4116100665780634eaf56b41461010a578063715018a6146101285780638da5cb5b1461013257806398b1e06a14610150578063f2fde38b1461016c57610093565b80630968f264146100985780630f184f3e146100b45780631bfc836f146100d057806324b7dd36146100ec575b600080fd5b6100b260048036038101906100ad919061104a565b610188565b005b6100ce60048036038101906100c99190610fcf565b61042d565b005b6100ea60048036038101906100e59190610fcf565b6104ed565b005b6100f46105ad565b60405161010191906112b2565b60405180910390f35b6101126105d3565b60405161011f91906112b2565b60405180910390f35b6101306105f9565b005b61013a610681565b60405161014791906112b2565b60405180910390f35b61016a6004803603810190610165919061104a565b6106aa565b005b61018660048036038101906101819190610fcf565b6109b7565b005b3373ffffffffffffffffffffffffffffffffffffffff16600160009054906101000a900473ffffffffffffffffffffffffffffffffffffffff1673ffffffffffffffffffffffffffffffffffffffff1614610218576040517f08c379a000000000000000000000000000000000000000000000000000000000815260040161020f9061138f565b60405180910390fd5b6000806000848481019061022c919061108f565b9250925092506000600260009054906101000a900473ffffffffffffffffffffffffffffffffffffffff16905060008173ffffffffffffffffffffffffffffffffffffffff1663bf18193d866040518263ffffffff1660e01b8152600401610294919061140f565b60206040518083038186803b1580156102ac57600080fd5b505afa1580156102c0573d6000803e3d6000fd5b505050506040513d601f19601f820116820180604052508101906102e49190610ff8565b905060008273ffffffffffffffffffffffffffffffffffffffff1663f4491fba876040518263ffffffff1660e01b8152600401610321919061140f565b60206040518083038186803b15801561033957600080fd5b505afa15801561034d573d6000803e3d6000fd5b505050506040513d601f19601f820116820180604052508101906103719190611021565b905080156103f15760008290508073ffffffffffffffffffffffffffffffffffffffff166340c10f1987876040518363ffffffff1660e01b81526004016103b9929190611304565b600060405180830381600087803b1580156103d357600080fd5b505af11580156103e7573d6000803e3d6000fd5b5050505050610423565b600082905061042186868373ffffffffffffffffffffffffffffffffffffffff16610aaf9092919063ffffffff16565b505b5050505050505050565b610435610b35565b73ffffffffffffffffffffffffffffffffffffffff16610453610681565b73ffffffffffffffffffffffffffffffffffffffff16146104a9576040517f08c379a00000000000000000000000000000000000000000000000000000000081526004016104a0906113af565b60405180910390fd5b80600260006101000a81548173ffffffffffffffffffffffffffffffffffffffff021916908373ffffffffffffffffffffffffffffffffffffffff16021790555050565b6104f5610b35565b73ffffffffffffffffffffffffffffffffffffffff16610513610681565b73ffffffffffffffffffffffffffffffffffffffff1614610569576040517f08c379a0000000000000000000000000000000000000000000000000000000008152600401610560906113af565b60405180910390fd5b80600160006101000a81548173ffffffffffffffffffffffffffffffffffffffff021916908373ffffffffffffffffffffffffffffffffffffffff16021790555050565b600160009054906101000a900473ffffffffffffffffffffffffffffffffffffffff1681565b600260009054906101000a900473ffffffffffffffffffffffffffffffffffffffff1681565b610601610b35565b73ffffffffffffffffffffffffffffffffffffffff1661061f610681565b73ffffffffffffffffffffffffffffffffffffffff1614610675576040517f08c379a000000000000000000000000000000000000000000000000000000000815260040161066c906113af565b60405180910390fd5b61067f6000610b3d565b565b60008060009054906101000a900473ffffffffffffffffffffffffffffffffffffffff16905090565b3373ffffffffffffffffffffffffffffffffffffffff16600160009054906101000a900473ffffffffffffffffffffffffffffffffffffffff1673ffffffffffffffffffffffffffffffffffffffff161461073a576040517f08c379a00000000000000000000000000000000000000000000000000000000081526004016107319061138f565b60405180910390fd5b6000806000848481019061074e91906110de565b509250925092506000600260009054906101000a900473ffffffffffffffffffffffffffffffffffffffff16905060008173ffffffffffffffffffffffffffffffffffffffff1663bf18193d866040518263ffffffff1660e01b81526004016107b7919061140f565b60206040518083038186803b1580156107cf57600080fd5b505afa1580156107e3573d6000803e3d6000fd5b505050506040513d601f19601f820116820180604052508101906108079190610ff8565b905060008273ffffffffffffffffffffffffffffffffffffffff1663f4491fba876040518263ffffffff1660e01b8152600401610844919061140f565b60206040518083038186803b15801561085c57600080fd5b505afa158015610870573d6000803e3d6000fd5b505050506040513d601f19601f820116820180604052508101906108949190611021565b905080156109145760008290508073ffffffffffffffffffffffffffffffffffffffff166379cc679086886040518363ffffffff1660e01b81526004016108dc929190611304565b600060405180830381600087803b1580156108f657600080fd5b505af115801561090a573d6000803e3d6000fd5b5050505050610948565b60008290506109468530888473ffffffffffffffffffffffffffffffffffffffff16610c01909392919063ffffffff16565b505b8173ffffffffffffffffffffffffffffffffffffffff168473ffffffffffffffffffffffffffffffffffffffff167f5548c837ab068cf56a2c2479df0882a4922fd203edb7517321831d95078c5f62876040516109a5919061140f565b60405180910390a35050505050505050565b6109bf610b35565b73ffffffffffffffffffffffffffffffffffffffff166109dd610681565b73ffffffffffffffffffffffffffffffffffffffff1614610a33576040517f08c379a0000000000000000000000000000000000000000000000000000000008152600401610a2a906113af565b60405180910390fd5b600073ffffffffffffffffffffffffffffffffffffffff168173ffffffffffffffffffffffffffffffffffffffff161415610aa3576040517f08c379a0000000000000000000000000000000000000000000000000000000008152600401610a9a9061134f565b60405180910390fd5b610aac81610b3d565b50565b610b308363a9059cbb60e01b8484604051602401610ace929190611304565b604051602081830303815290604052907bffffffffffffffffffffffffffffffffffffffffffffffffffffffff19166020820180517bffffffffffffffffffffffffffffffffffffffffffffffffffffffff8381831617835250505050610c8a565b505050565b600033905090565b60008060009054906101000a900473ffffffffffffffffffffffffffffffffffffffff169050816000806101000a81548173ffffffffffffffffffffffffffffffffffffffff021916908373ffffffffffffffffffffffffffffffffffffffff1602179055508173ffffffffffffffffffffffffffffffffffffffff168173ffffffffffffffffffffffffffffffffffffffff167f8be0079c531659141344cd1fd0a4f28419497f9722a3daafe3b4186f6b6457e060405160405180910390a35050565b610c84846323b872dd60e01b858585604051602401610c22939291906112cd565b604051602081830303815290604052907bffffffffffffffffffffffffffffffffffffffffffffffffffffffff19166020820180517bffffffffffffffffffffffffffffffffffffffffffffffffffffffff8381831617835250505050610c8a565b50505050565b6000610cec826040518060400160405280602081526020017f5361666545524332303a206c6f772d6c6576656c2063616c6c206661696c65648152508573ffffffffffffffffffffffffffffffffffffffff16610d519092919063ffffffff16565b9050600081511115610d4c5780806020019051810190610d0c9190611021565b610d4b576040517f08c379a0000000000000000000000000000000000000000000000000000000008152600401610d42906113ef565b60405180910390fd5b5b505050565b6060610d608484600085610d69565b90509392505050565b606082471015610dae576040517f08c379a0000000000000000000000000000000000000000000000000000000008152600401610da59061136f565b60405180910390fd5b610db785610e7d565b610df6576040517f08c379a0000000000000000000000000000000000000000000000000000000008152600401610ded906113cf565b60405180910390fd5b6000808673ffffffffffffffffffffffffffffffffffffffff168587604051610e1f919061129b565b60006040518083038185875af1925050503d8060008114610e5c576040519150601f19603f3d011682016040523d82523d6000602084013e610e61565b606091505b5091509150610e71828286610ea0565b92505050949350505050565b6000808273ffffffffffffffffffffffffffffffffffffffff163b119050919050565b60608315610eb057829050610f00565b600083511115610ec35782518084602001fd5b816040517f08c379a0000000000000000000000000000000000000000000000000000000008152600401610ef7919061132d565b60405180910390fd5b9392505050565b600081359050610f1681611692565b92915050565b600081519050610f2b81611692565b92915050565b600081359050610f40816116a9565b92915050565b600081519050610f55816116c0565b92915050565b600081359050610f6a816116d7565b92915050565b60008083601f840112610f8257600080fd5b8235905067ffffffffffffffff811115610f9b57600080fd5b602083019150836001820283011115610fb357600080fd5b9250929050565b600081359050610fc9816116ee565b92915050565b600060208284031215610fe157600080fd5b6000610fef84828501610f07565b91505092915050565b60006020828403121561100a57600080fd5b600061101884828501610f1c565b91505092915050565b60006020828403121561103357600080fd5b600061104184828501610f46565b91505092915050565b6000806020838503121561105d57600080fd5b600083013567ffffffffffffffff81111561107757600080fd5b61108385828601610f70565b92509250509250929050565b6000806000606084860312156110a457600080fd5b60006110b286828701610fba565b93505060206110c386828701610f31565b92505060406110d486828701610fba565b9150509250925092565b600080600080608085870312156110f457600080fd5b600061110287828801610fba565b945050602061111387828801610fba565b935050604061112487828801610f31565b925050606061113587828801610f5b565b91505092959194509250565b61114a8161145c565b82525050565b600061115b8261142a565b6111658185611440565b93506111758185602086016114c0565b80840191505092915050565b600061118c82611435565b611196818561144b565b93506111a68185602086016114c0565b6111af816114f3565b840191505092915050565b60006111c760268361144b565b91506111d282611504565b604082019050919050565b60006111ea60268361144b565b91506111f582611553565b604082019050919050565b600061120d60358361144b565b9150611218826115a2565b604082019050919050565b600061123060208361144b565b915061123b826115f1565b602082019050919050565b6000611253601d8361144b565b915061125e8261161a565b602082019050919050565b6000611276602a8361144b565b915061128182611643565b604082019050919050565b611295816114b6565b82525050565b60006112a78284611150565b915081905092915050565b60006020820190506112c76000830184611141565b92915050565b60006060820190506112e26000830186611141565b6112ef6020830185611141565b6112fc604083018461128c565b949350505050565b60006040820190506113196000830185611141565b611326602083018461128c565b9392505050565b600060208201905081810360008301526113478184611181565b905092915050565b60006020820190508181036000830152611368816111ba565b9050919050565b60006020820190508181036000830152611388816111dd565b9050919050565b600060208201905081810360008301526113a881611200565b9050919050565b600060208201905081810360008301526113c881611223565b9050919050565b600060208201905081810360008301526113e881611246565b9050919050565b6000602082019050818103600083015261140881611269565b9050919050565b6000602082019050611424600083018461128c565b92915050565b600081519050919050565b600081519050919050565b600081905092915050565b600082825260208201905092915050565b600061146782611496565b9050919050565b600061147982611496565b9050919050565b60008115159050919050565b6000819050919050565b600073ffffffffffffffffffffffffffffffffffffffff82169050919050565b6000819050919050565b60005b838110156114de5780820151818401526020810190506114c3565b838111156114ed576000848401525b50505050565b6000601f19601f8301169050919050565b7f4f776e61626c653a206e6577206f776e657220697320746865207a65726f206160008201527f6464726573730000000000000000000000000000000000000000000000000000602082015250565b7f416464726573733a20696e73756666696369656e742062616c616e636520666f60008201527f722063616c6c0000000000000000000000000000000000000000000000000000602082015250565b7f6f6e6c792047656e657269632048616e646c657220697320616c6c6f7765642060008201527f746f2063616c6c20746869732066756e6374696f6e0000000000000000000000602082015250565b7f4f776e61626c653a2063616c6c6572206973206e6f7420746865206f776e6572600082015250565b7f416464726573733a2063616c6c20746f206e6f6e2d636f6e7472616374000000600082015250565b7f5361666545524332303a204552433230206f7065726174696f6e20646964206e60008201527f6f74207375636365656400000000000000000000000000000000000000000000602082015250565b61169b8161145c565b81146116a657600080fd5b50565b6116b28161146e565b81146116bd57600080fd5b50565b6116c981611480565b81146116d457600080fd5b50565b6116e08161148c565b81146116eb57600080fd5b50565b6116f7816114b6565b811461170257600080fd5b5056fea2646970667358221220ae1e51dcdbc16d734e0706372bc8a59b9057078376579bcc5614260183e15a7064736f6c63430008040033",
  "linkReferences": {},
  "deployedLinkReferences": {}
}