{
  "_format": "hh-sol-artifact-1",
  "contractName": "ColumbusSimBridge",
  "sourceName": "contracts/ColumbusSimBridge.sol",
  "abi": [
    {
      "inputs": [
        {
          "internalType": "address",
          "name": "_prismBridgeAddress",
          "type": "address"
        }
      ],
      "stateMutability": "nonpayable",
      "type": "constructor"
    },
    {
      "anonymous": false,
      "inputs": [
        {
          "indexed": true,
          "internalType": "address",
          "name": "previousOwner",
          "type": "address"
        },
        {
          "indexed": true,
          "internalType": "address",
          "name": "newOwner",
          "type": "address"
        }
      ],
      "name": "OwnershipTransferred",
      "type": "event"
    },
    {
      "inputs": [
        {
          "internalType": "address",
          "name": "addr",
          "type": "address"
        }
      ],
      "name": "adminSetPrismBridgeAddress",
      "outputs": [],
      "stateMutability": "nonpayable",
      "type": "function"
    },
    {
      "inputs": [
        {
          "internalType": "bytes32",
          "name": "addr",
          "type": "bytes32"
        }
      ],
      "name": "depositFRA",
      "outputs": [],
      "stateMutability": "payable",
      "type": "function"
    },
    {
      "inputs": [
        {
          "internalType": "address",
          "name": "_frc20",
          "type": "address"
        },
        {
          "internalType": "bytes32",
          "name": "_to",
          "type": "bytes32"
        },
        {
          "internalType": "uint256",
          "name": "amount",
          "type": "uint256"
        }
      ],
      "name": "depositFRC20",
      "outputs": [],
      "stateMutability": "payable",
      "type": "function"
    },
    {
      "inputs": [],
      "name": "owner",
      "outputs": [
        {
          "internalType": "address",
          "name": "",
          "type": "address"
        }
      ],
      "stateMutability": "view",
      "type": "function"
    },
    {
      "inputs": [],
      "name": "prismBridgeAddress",
      "outputs": [
        {
          "internalType": "address",
          "name": "",
          "type": "address"
        }
      ],
      "stateMutability": "view",
      "type": "function"
    },
    {
      "inputs": [],
      "name": "renounceOwnership",
      "outputs": [],
      "stateMutability": "nonpayable",
      "type": "function"
    },
    {
      "inputs": [
        {
          "internalType": "address",
          "name": "newOwner",
          "type": "address"
        }
      ],
      "name": "transferOwnership",
      "outputs": [],
      "stateMutability": "nonpayable",
      "type": "function"
    }
  ],
  "bytecode": "0x608060405234801561001057600080fd5b50604051610d9b380380610d9b83398181016040528101906100329190610176565b61004e61004361009560201b60201c565b61009d60201b60201c565b80600160006101000a81548173ffffffffffffffffffffffffffffffffffffffff021916908373ffffffffffffffffffffffffffffffffffffffff160217905550506101e8565b600033905090565b60008060009054906101000a900473ffffffffffffffffffffffffffffffffffffffff169050816000806101000a81548173ffffffffffffffffffffffffffffffffffffffff021916908373ffffffffffffffffffffffffffffffffffffffff1602179055508173ffffffffffffffffffffffffffffffffffffffff168173ffffffffffffffffffffffffffffffffffffffff167f8be0079c531659141344cd1fd0a4f28419497f9722a3daafe3b4186f6b6457e060405160405180910390a35050565b600081519050610170816101d1565b92915050565b60006020828403121561018857600080fd5b600061019684828501610161565b91505092915050565b60006101aa826101b1565b9050919050565b600073ffffffffffffffffffffffffffffffffffffffff82169050919050565b6101da8161019f565b81146101e557600080fd5b50565b610ba4806101f76000396000f3fe6080604052600436106100705760003560e01c8063de93811c1161004e578063de93811c146100e0578063e6f2706d146100fc578063f2fde38b14610118578063f92f12011461014157610070565b8063715018a6146100755780638da5cb5b1461008c578063c16216ea146100b7575b600080fd5b34801561008157600080fd5b5061008a61016c565b005b34801561009857600080fd5b506100a16101f4565b6040516100ae919061094a565b60405180910390f35b3480156100c357600080fd5b506100de60048036038101906100d99190610836565b61021d565b005b6100fa60048036038101906100f591906108ae565b6102dd565b005b6101166004803603810190610111919061085f565b610475565b005b34801561012457600080fd5b5061013f600480360381019061013a9190610836565b61060d565b005b34801561014d57600080fd5b50610156610705565b604051610163919061094a565b60405180910390f35b61017461072b565b73ffffffffffffffffffffffffffffffffffffffff166101926101f4565b73ffffffffffffffffffffffffffffffffffffffff16146101e8576040517f08c379a00000000000000000000000000000000000000000000000000000000081526004016101df906109d7565b60405180910390fd5b6101f26000610733565b565b60008060009054906101000a900473ffffffffffffffffffffffffffffffffffffffff16905090565b61022561072b565b73ffffffffffffffffffffffffffffffffffffffff166102436101f4565b73ffffffffffffffffffffffffffffffffffffffff1614610299576040517f08c379a0000000000000000000000000000000000000000000000000000000008152600401610290906109d7565b60405180910390fd5b80600160006101000a81548173ffffffffffffffffffffffffffffffffffffffff021916908373ffffffffffffffffffffffffffffffffffffffff16021790555050565b6000670429d069189e0000346102f39190610a08565b90506000600160009054906101000a900473ffffffffffffffffffffffffffffffffffffffff1690508073ffffffffffffffffffffffffffffffffffffffff1663de93811c83856040518363ffffffff1660e01b8152600401610356919061099c565b6000604051808303818588803b15801561036f57600080fd5b505af1158015610383573d6000803e3d6000fd5b50505050508073ffffffffffffffffffffffffffffffffffffffff1663de93811c6702c68af0bb140000856040518363ffffffff1660e01b81526004016103ca919061099c565b6000604051808303818588803b1580156103e357600080fd5b505af11580156103f7573d6000803e3d6000fd5b50505050508073ffffffffffffffffffffffffffffffffffffffff1663de93811c67016345785d8a0000856040518363ffffffff1660e01b815260040161043e919061099c565b6000604051808303818588803b15801561045757600080fd5b505af115801561046b573d6000803e3d6000fd5b5050505050505050565b670429d069189e0000341461048957600080fd5b6000600160009054906101000a900473ffffffffffffffffffffffffffffffffffffffff1690508073ffffffffffffffffffffffffffffffffffffffff1663e6f2706d8585856040518463ffffffff1660e01b81526004016104ed93929190610965565b600060405180830381600087803b15801561050757600080fd5b505af115801561051b573d6000803e3d6000fd5b505050508073ffffffffffffffffffffffffffffffffffffffff1663de93811c6702c68af0bb140000856040518363ffffffff1660e01b8152600401610561919061099c565b6000604051808303818588803b15801561057a57600080fd5b505af115801561058e573d6000803e3d6000fd5b50505050508073ffffffffffffffffffffffffffffffffffffffff1663de93811c67016345785d8a0000856040518363ffffffff1660e01b81526004016105d5919061099c565b6000604051808303818588803b1580156105ee57600080fd5b505af1158015610602573d6000803e3d6000fd5b505050505050505050565b61061561072b565b73ffffffffffffffffffffffffffffffffffffffff166106336101f4565b73ffffffffffffffffffffffffffffffffffffffff1614610689576040517f08c379a0000000000000000000000000000000000000000000000000000000008152600401610680906109d7565b60405180910390fd5b600073ffffffffffffffffffffffffffffffffffffffff168173ffffffffffffffffffffffffffffffffffffffff1614156106f9576040517f08c379a00000000000000000000000000000000000000000000000000000000081526004016106f0906109b7565b60405180910390fd5b61070281610733565b50565b600160009054906101000a900473ffffffffffffffffffffffffffffffffffffffff1681565b600033905090565b60008060009054906101000a900473ffffffffffffffffffffffffffffffffffffffff169050816000806101000a81548173ffffffffffffffffffffffffffffffffffffffff021916908373ffffffffffffffffffffffffffffffffffffffff1602179055508173ffffffffffffffffffffffffffffffffffffffff168173ffffffffffffffffffffffffffffffffffffffff167f8be0079c531659141344cd1fd0a4f28419497f9722a3daafe3b4186f6b6457e060405160405180910390a35050565b60008135905061080681610b29565b92915050565b60008135905061081b81610b40565b92915050565b60008135905061083081610b57565b92915050565b60006020828403121561084857600080fd5b6000610856848285016107f7565b91505092915050565b60008060006060848603121561087457600080fd5b6000610882868287016107f7565b93505060206108938682870161080c565b92505060406108a486828701610821565b9150509250925092565b6000602082840312156108c057600080fd5b60006108ce8482850161080c565b91505092915050565b6108e081610a3c565b82525050565b6108ef81610a4e565b82525050565b60006109026026836109f7565b915061090d82610ab1565b604082019050919050565b60006109256020836109f7565b915061093082610b00565b602082019050919050565b61094481610a78565b82525050565b600060208201905061095f60008301846108d7565b92915050565b600060608201905061097a60008301866108d7565b61098760208301856108e6565b610994604083018461093b565b949350505050565b60006020820190506109b160008301846108e6565b92915050565b600060208201905081810360008301526109d0816108f5565b9050919050565b600060208201905081810360008301526109f081610918565b9050919050565b600082825260208201905092915050565b6000610a1382610a78565b9150610a1e83610a78565b925082821015610a3157610a30610a82565b5b828203905092915050565b6000610a4782610a58565b9050919050565b6000819050919050565b600073ffffffffffffffffffffffffffffffffffffffff82169050919050565b6000819050919050565b7f4e487b7100000000000000000000000000000000000000000000000000000000600052601160045260246000fd5b7f4f776e61626c653a206e6577206f776e657220697320746865207a65726f206160008201527f6464726573730000000000000000000000000000000000000000000000000000602082015250565b7f4f776e61626c653a2063616c6c6572206973206e6f7420746865206f776e6572600082015250565b610b3281610a3c565b8114610b3d57600080fd5b50565b610b4981610a4e565b8114610b5457600080fd5b50565b610b6081610a78565b8114610b6b57600080fd5b5056fea2646970667358221220a312d7d9907e14c36fcba3334f8fd40408c4b4b8507124a155749c48fc0c244b64736f6c63430008040033",
  "linkReferences": {},
  "deployedLinkReferences": {}
}