{
  "_format": "hh-sol-artifact-1",
  "contractName": "ColumbusAsset",
  "sourceName": "contracts/ColumbusAsset.sol",
  "abi": [
    {
      "anonymous": false,
      "inputs": [
        {
          "indexed": true,
          "internalType": "address",
          "name": "previousOwner",
          "type": "address"
        },
        {
          "indexed": true,
          "internalType": "address",
          "name": "newOwner",
          "type": "address"
        }
      ],
      "name": "OwnershipTransferred",
      "type": "event"
    },
    {
      "inputs": [
        {
          "internalType": "uint256",
          "name": "tokenId",
          "type": "uint256"
        },
        {
          "internalType": "address",
          "name": "erc20",
          "type": "address"
        },
        {
          "internalType": "bool",
          "name": "isBurn",
          "type": "bool"
        }
      ],
      "name": "adminSetTokenId",
      "outputs": [],
      "stateMutability": "nonpayable",
      "type": "function"
    },
    {
      "inputs": [
        {
          "internalType": "uint256",
          "name": "asset",
          "type": "uint256"
        }
      ],
      "name": "getTokenAddressByTokenId",
      "outputs": [
        {
          "internalType": "address",
          "name": "",
          "type": "address"
        }
      ],
      "stateMutability": "view",
      "type": "function"
    },
    {
      "inputs": [
        {
          "internalType": "uint256",
          "name": "id",
          "type": "uint256"
        }
      ],
      "name": "isBurnToken",
      "outputs": [
        {
          "internalType": "bool",
          "name": "",
          "type": "bool"
        }
      ],
      "stateMutability": "view",
      "type": "function"
    },
    {
      "inputs": [],
      "name": "owner",
      "outputs": [
        {
          "internalType": "address",
          "name": "",
          "type": "address"
        }
      ],
      "stateMutability": "view",
      "type": "function"
    },
    {
      "inputs": [],
      "name": "renounceOwnership",
      "outputs": [],
      "stateMutability": "nonpayable",
      "type": "function"
    },
    {
      "inputs": [
        {
          "internalType": "uint256",
          "name": "",
          "type": "uint256"
        }
      ],
      "name": "tokenAddress",
      "outputs": [
        {
          "internalType": "address",
          "name": "token",
          "type": "address"
        },
        {
          "internalType": "bool",
          "name": "isBurn",
          "type": "bool"
        }
      ],
      "stateMutability": "view",
      "type": "function"
    },
    {
      "inputs": [
        {
          "internalType": "address",
          "name": "newOwner",
          "type": "address"
        }
      ],
      "name": "transferOwnership",
      "outputs": [],
      "stateMutability": "nonpayable",
      "type": "function"
    }
  ],
  "bytecode": "0x608060405234801561001057600080fd5b5061002d61002261003260201b60201c565b61003a60201b60201c565b6100fe565b600033905090565b60008060009054906101000a900473ffffffffffffffffffffffffffffffffffffffff169050816000806101000a81548173ffffffffffffffffffffffffffffffffffffffff021916908373ffffffffffffffffffffffffffffffffffffffff1602179055508173ffffffffffffffffffffffffffffffffffffffff168173ffffffffffffffffffffffffffffffffffffffff167f8be0079c531659141344cd1fd0a4f28419497f9722a3daafe3b4186f6b6457e060405160405180910390a35050565b6109068061010d6000396000f3fe608060405234801561001057600080fd5b506004361061007d5760003560e01c80639e6b26ba1161005b5780639e6b26ba146100c6578063bf18193d146100f7578063f2fde38b14610127578063f4491fba146101435761007d565b80633e6b382414610082578063715018a61461009e5780638da5cb5b146100a8575b600080fd5b61009c60048036038101906100979190610668565b610173565b005b6100a66102a4565b005b6100b061032c565b6040516100bd919061071b565b60405180910390f35b6100e060048036038101906100db919061063f565b610355565b6040516100ee929190610736565b60405180910390f35b610111600480360381019061010c919061063f565b6103a6565b60405161011e919061071b565b60405180910390f35b610141600480360381019061013c9190610616565b6103e6565b005b61015d6004803603810190610158919061063f565b6104de565b60405161016a919061075f565b60405180910390f35b61017b61050b565b73ffffffffffffffffffffffffffffffffffffffff1661019961032c565b73ffffffffffffffffffffffffffffffffffffffff16146101ef576040517f08c379a00000000000000000000000000000000000000000000000000000000081526004016101e69061079a565b60405180910390fd5b600060405180604001604052808473ffffffffffffffffffffffffffffffffffffffff1681526020018315158152509050806001600086815260200190815260200160002060008201518160000160006101000a81548173ffffffffffffffffffffffffffffffffffffffff021916908373ffffffffffffffffffffffffffffffffffffffff16021790555060208201518160000160146101000a81548160ff02191690831515021790555090505050505050565b6102ac61050b565b73ffffffffffffffffffffffffffffffffffffffff166102ca61032c565b73ffffffffffffffffffffffffffffffffffffffff1614610320576040517f08c379a00000000000000000000000000000000000000000000000000000000081526004016103179061079a565b60405180910390fd5b61032a6000610513565b565b60008060009054906101000a900473ffffffffffffffffffffffffffffffffffffffff16905090565b60016020528060005260406000206000915090508060000160009054906101000a900473ffffffffffffffffffffffffffffffffffffffff16908060000160149054906101000a900460ff16905082565b60006001600083815260200190815260200160002060000160009054906101000a900473ffffffffffffffffffffffffffffffffffffffff169050919050565b6103ee61050b565b73ffffffffffffffffffffffffffffffffffffffff1661040c61032c565b73ffffffffffffffffffffffffffffffffffffffff1614610462576040517f08c379a00000000000000000000000000000000000000000000000000000000081526004016104599061079a565b60405180910390fd5b600073ffffffffffffffffffffffffffffffffffffffff168173ffffffffffffffffffffffffffffffffffffffff1614156104d2576040517f08c379a00000000000000000000000000000000000000000000000000000000081526004016104c99061077a565b60405180910390fd5b6104db81610513565b50565b60006001600083815260200190815260200160002060000160149054906101000a900460ff169050919050565b600033905090565b60008060009054906101000a900473ffffffffffffffffffffffffffffffffffffffff169050816000806101000a81548173ffffffffffffffffffffffffffffffffffffffff021916908373ffffffffffffffffffffffffffffffffffffffff1602179055508173ffffffffffffffffffffffffffffffffffffffff168173ffffffffffffffffffffffffffffffffffffffff167f8be0079c531659141344cd1fd0a4f28419497f9722a3daafe3b4186f6b6457e060405160405180910390a35050565b6000813590506105e68161088b565b92915050565b6000813590506105fb816108a2565b92915050565b600081359050610610816108b9565b92915050565b60006020828403121561062857600080fd5b6000610636848285016105d7565b91505092915050565b60006020828403121561065157600080fd5b600061065f84828501610601565b91505092915050565b60008060006060848603121561067d57600080fd5b600061068b86828701610601565b935050602061069c868287016105d7565b92505060406106ad868287016105ec565b9150509250925092565b6106c0816107cb565b82525050565b6106cf816107dd565b82525050565b60006106e26026836107ba565b91506106ed82610813565b604082019050919050565b60006107056020836107ba565b915061071082610862565b602082019050919050565b600060208201905061073060008301846106b7565b92915050565b600060408201905061074b60008301856106b7565b61075860208301846106c6565b9392505050565b600060208201905061077460008301846106c6565b92915050565b60006020820190508181036000830152610793816106d5565b9050919050565b600060208201905081810360008301526107b3816106f8565b9050919050565b600082825260208201905092915050565b60006107d6826107e9565b9050919050565b60008115159050919050565b600073ffffffffffffffffffffffffffffffffffffffff82169050919050565b6000819050919050565b7f4f776e61626c653a206e6577206f776e657220697320746865207a65726f206160008201527f6464726573730000000000000000000000000000000000000000000000000000602082015250565b7f4f776e61626c653a2063616c6c6572206973206e6f7420746865206f776e6572600082015250565b610894816107cb565b811461089f57600080fd5b50565b6108ab816107dd565b81146108b657600080fd5b50565b6108c281610809565b81146108cd57600080fd5b5056fea2646970667358221220b664be93d6a6847c86a8a93fd917b48e036564eefcb35fb9640b6acbd033af9164736f6c63430008040033",
  "linkReferences": {},
  "deployedLinkReferences": {}
}