{
  "_format": "hh-sol-artifact-1",
  "contractName": "ColumbusRelayer",
  "sourceName": "contracts/ColumbusRelayer.sol",
  "abi": [
    {
      "inputs": [
        {
          "internalType": "address",
          "name": "_genericHandlerAddress",
          "type": "address"
        },
        {
          "internalType": "address",
          "name": "_prismxxAddress",
          "type": "address"
        },
        {
          "internalType": "address",
          "name": "_columbusWrapTokensAddress",
          "type": "address"
        },
        {
          "internalType": "bytes32",
          "name": "_genericHandlerResourceId",
          "type": "bytes32"
        },
        {
          "internalType": "address",
          "name": "_bridgeAddress",
          "type": "address"
        }
      ],
      "stateMutability": "nonpayable",
      "type": "constructor"
    },
    {
      "anonymous": false,
      "inputs": [
        {
          "indexed": true,
          "internalType": "uint256",
          "name": "tokenId",
          "type": "uint256"
        },
        {
          "indexed": true,
          "internalType": "bytes32",
          "name": "to",
          "type": "bytes32"
        },
        {
          "indexed": true,
          "internalType": "uint256",
          "name": "amount",
          "type": "uint256"
        }
      ],
      "name": "DepositFromOtherChain",
      "type": "event"
    },
    {
      "anonymous": false,
      "inputs": [
        {
          "indexed": true,
          "internalType": "address",
          "name": "previousOwner",
          "type": "address"
        },
        {
          "indexed": true,
          "internalType": "address",
          "name": "newOwner",
          "type": "address"
        }
      ],
      "name": "OwnershipTransferred",
      "type": "event"
    },
    {
      "inputs": [
        {
          "internalType": "address",
          "name": "addr",
          "type": "address"
        }
      ],
      "name": "adminSetBridgeAddress",
      "outputs": [],
      "stateMutability": "nonpayable",
      "type": "function"
    },
    {
      "inputs": [
        {
          "internalType": "address",
          "name": "addr",
          "type": "address"
        }
      ],
      "name": "adminSetColumbusWrapTokensAddress",
      "outputs": [],
      "stateMutability": "nonpayable",
      "type": "function"
    },
    {
      "inputs": [
        {
          "internalType": "address",
          "name": "handler",
          "type": "address"
        }
      ],
      "name": "adminSetGenericHandler",
      "outputs": [],
      "stateMutability": "nonpayable",
      "type": "function"
    },
    {
      "inputs": [
        {
          "internalType": "bytes32",
          "name": "resourceId",
          "type": "bytes32"
        }
      ],
      "name": "adminSetGenericHandlerResourceId",
      "outputs": [],
      "stateMutability": "nonpayable",
      "type": "function"
    },
    {
      "inputs": [
        {
          "internalType": "address",
          "name": "addr",
          "type": "address"
        }
      ],
      "name": "adminSetPrismAddress",
      "outputs": [],
      "stateMutability": "nonpayable",
      "type": "function"
    },
    {
      "inputs": [],
      "name": "bridgeAddress",
      "outputs": [
        {
          "internalType": "address",
          "name": "",
          "type": "address"
        }
      ],
      "stateMutability": "view",
      "type": "function"
    },
    {
      "inputs": [],
      "name": "columbusWrapTokensAddress",
      "outputs": [
        {
          "internalType": "address",
          "name": "",
          "type": "address"
        }
      ],
      "stateMutability": "view",
      "type": "function"
    },
    {
      "inputs": [
        {
          "internalType": "bytes",
          "name": "data",
          "type": "bytes"
        }
      ],
      "name": "depositFromOtherChain",
      "outputs": [],
      "stateMutability": "nonpayable",
      "type": "function"
    },
    {
      "inputs": [],
      "name": "genericHandlerAddress",
      "outputs": [
        {
          "internalType": "address",
          "name": "",
          "type": "address"
        }
      ],
      "stateMutability": "view",
      "type": "function"
    },
    {
      "inputs": [],
      "name": "genericHandlerResourceId",
      "outputs": [
        {
          "internalType": "bytes32",
          "name": "",
          "type": "bytes32"
        }
      ],
      "stateMutability": "view",
      "type": "function"
    },
    {
      "inputs": [],
      "name": "owner",
      "outputs": [
        {
          "internalType": "address",
          "name": "",
          "type": "address"
        }
      ],
      "stateMutability": "view",
      "type": "function"
    },
    {
      "inputs": [],
      "name": "prismxxAddress",
      "outputs": [
        {
          "internalType": "address",
          "name": "",
          "type": "address"
        }
      ],
      "stateMutability": "view",
      "type": "function"
    },
    {
      "inputs": [],
      "name": "renounceOwnership",
      "outputs": [],
      "stateMutability": "nonpayable",
      "type": "function"
    },
    {
      "inputs": [
        {
          "internalType": "address",
          "name": "newOwner",
          "type": "address"
        }
      ],
      "name": "transferOwnership",
      "outputs": [],
      "stateMutability": "nonpayable",
      "type": "function"
    },
    {
      "inputs": [
        {
          "internalType": "bytes",
          "name": "data",
          "type": "bytes"
        }
      ],
      "name": "withdrawERC20",
      "outputs": [],
      "stateMutability": "nonpayable",
      "type": "function"
    },
    {
      "inputs": [
        {
          "internalType": "bytes",
          "name": "data",
          "type": "bytes"
        }
      ],
      "name": "withdrawFRA",
      "outputs": [],
      "stateMutability": "payable",
      "type": "function"
    },
    {
      "inputs": [
        {
          "internalType": "bytes",
          "name": "data",
          "type": "bytes"
        }
      ],
      "name": "withdrawToOtherChainCallback",
      "outputs": [],
      "stateMutability": "nonpayable",
      "type": "function"
    }
  ],
  "bytecode": "0x60806040523480156200001157600080fd5b50604051620025ef380380620025ef833981810160405281019062000037919062000267565b620000576200004b6200016d60201b60201c565b6200017560201b60201c565b84600160006101000a81548173ffffffffffffffffffffffffffffffffffffffff021916908373ffffffffffffffffffffffffffffffffffffffff16021790555083600260006101000a81548173ffffffffffffffffffffffffffffffffffffffff021916908373ffffffffffffffffffffffffffffffffffffffff16021790555082600360006101000a81548173ffffffffffffffffffffffffffffffffffffffff021916908373ffffffffffffffffffffffffffffffffffffffff1602179055508160048190555080600560006101000a81548173ffffffffffffffffffffffffffffffffffffffff021916908373ffffffffffffffffffffffffffffffffffffffff16021790555050505050506200035b565b600033905090565b60008060009054906101000a900473ffffffffffffffffffffffffffffffffffffffff169050816000806101000a81548173ffffffffffffffffffffffffffffffffffffffff021916908373ffffffffffffffffffffffffffffffffffffffff1602179055508173ffffffffffffffffffffffffffffffffffffffff168173ffffffffffffffffffffffffffffffffffffffff167f8be0079c531659141344cd1fd0a4f28419497f9722a3daafe3b4186f6b6457e060405160405180910390a35050565b6000815190506200024a8162000327565b92915050565b600081519050620002618162000341565b92915050565b600080600080600060a086880312156200028057600080fd5b6000620002908882890162000239565b9550506020620002a38882890162000239565b9450506040620002b68882890162000239565b9350506060620002c98882890162000250565b9250506080620002dc8882890162000239565b9150509295509295909350565b6000620002f68262000307565b9050919050565b6000819050919050565b600073ffffffffffffffffffffffffffffffffffffffff82169050919050565b6200033281620002e9565b81146200033e57600080fd5b50565b6200034c81620002fd565b81146200035857600080fd5b50565b612284806200036b6000396000f3fe6080604052600436106100fe5760003560e01c8063a3c573eb11610095578063da7a163411610064578063da7a1634146102d8578063e2fde4e514610303578063efa863601461032c578063f2fde38b14610355578063f519b72b1461037e576100fe565b8063a3c573eb1461023f578063b7db97da1461026a578063b9addb1b14610293578063d64cbefc146102af576100fe565b806324b7dd36116100d157806324b7dd36146101a957806342ddca35146101d4578063715018a6146101fd5780638da5cb5b14610214576100fe565b8063035d32c914610103578063065505cb1461012c578063141fba3e146101555780631bfc836f14610180575b600080fd5b34801561010f57600080fd5b5061012a60048036038101906101259190611896565b6103a9565b005b34801561013857600080fd5b50610153600480360381019061014e919061193a565b610469565b005b34801561016157600080fd5b5061016a6108c6565b6040516101779190611c6d565b60405180910390f35b34801561018c57600080fd5b506101a760048036038101906101a29190611896565b6108ec565b005b3480156101b557600080fd5b506101be6109ac565b6040516101cb9190611c6d565b60405180910390f35b3480156101e057600080fd5b506101fb60048036038101906101f6919061193a565b6109d2565b005b34801561020957600080fd5b50610212610cd9565b005b34801561022057600080fd5b50610229610d61565b6040516102369190611c6d565b60405180910390f35b34801561024b57600080fd5b50610254610d8a565b6040516102619190611c6d565b60405180910390f35b34801561027657600080fd5b50610291600480360381019061028c9190611896565b610db0565b005b6102ad60048036038101906102a8919061193a565b610e70565b005b3480156102bb57600080fd5b506102d660048036038101906102d19190611896565b61105a565b005b3480156102e457600080fd5b506102ed61111a565b6040516102fa9190611c6d565b60405180910390f35b34801561030f57600080fd5b5061032a6004803603810190610325919061193a565b611140565b005b34801561033857600080fd5b50610353600480360381019061034e9190611911565b61146d565b005b34801561036157600080fd5b5061037c60048036038101906103779190611896565b6114f3565b005b34801561038a57600080fd5b506103936115eb565b6040516103a09190611ce8565b60405180910390f35b6103b16115f1565b73ffffffffffffffffffffffffffffffffffffffff166103cf610d61565b73ffffffffffffffffffffffffffffffffffffffff1614610425576040517f08c379a000000000000000000000000000000000000000000000000000000000815260040161041c90611dc3565b60405180910390fd5b80600360006101000a81548173ffffffffffffffffffffffffffffffffffffffff021916908373ffffffffffffffffffffffffffffffffffffffff16021790555050565b3373ffffffffffffffffffffffffffffffffffffffff16600160009054906101000a900473ffffffffffffffffffffffffffffffffffffffff1673ffffffffffffffffffffffffffffffffffffffff16146104f9576040517f08c379a00000000000000000000000000000000000000000000000000000000081526004016104f090611de3565b60405180910390fd5b6000806000848481019061050d91906119f7565b935093505092506000600360009054906101000a900473ffffffffffffffffffffffffffffffffffffffff16905060008173ffffffffffffffffffffffffffffffffffffffff1663bf18193d866040518263ffffffff1660e01b81526004016105769190611e23565b60206040518083038186803b15801561058e57600080fd5b505afa1580156105a2573d6000803e3d6000fd5b505050506040513d601f19601f820116820180604052508101906105c691906118bf565b905060008273ffffffffffffffffffffffffffffffffffffffff1663885e25c4876040518263ffffffff1660e01b81526004016106039190611e23565b60206040518083038186803b15801561061b57600080fd5b505afa15801561062f573d6000803e3d6000fd5b505050506040513d601f19601f8201168201806040525081019061065391906118e8565b90506000600260009054906101000a900473ffffffffffffffffffffffffffffffffffffffff16905081156106f3578073ffffffffffffffffffffffffffffffffffffffff1663de93811c87876040518363ffffffff1660e01b81526004016106bc9190611ce8565b6000604051808303818588803b1580156106d557600080fd5b505af11580156106e9573d6000803e3d6000fd5b505050505061088c565b60008390508073ffffffffffffffffffffffffffffffffffffffff166340c10f1930896040518363ffffffff1660e01b8152600401610733929190611cbf565b600060405180830381600087803b15801561074d57600080fd5b505af1158015610761573d6000803e3d6000fd5b5050505060008490508073ffffffffffffffffffffffffffffffffffffffff1663095ea7b3600260009054906101000a900473ffffffffffffffffffffffffffffffffffffffff168a6040518363ffffffff1660e01b81526004016107c7929190611cbf565b602060405180830381600087803b1580156107e157600080fd5b505af11580156107f5573d6000803e3d6000fd5b505050506040513d601f19601f8201168201806040525081019061081991906118e8565b508273ffffffffffffffffffffffffffffffffffffffff1663e6f2706d86898b6040518463ffffffff1660e01b815260040161085793929190611c88565b600060405180830381600087803b15801561087157600080fd5b505af1158015610885573d6000803e3d6000fd5b5050505050505b8585887f2d0dc4fc116a694adff5363c43df22d61bca4c60ee7624834e2ad6dd28d0ce9260405160405180910390a4505050505050505050565b600360009054906101000a900473ffffffffffffffffffffffffffffffffffffffff1681565b6108f46115f1565b73ffffffffffffffffffffffffffffffffffffffff16610912610d61565b73ffffffffffffffffffffffffffffffffffffffff1614610968576040517f08c379a000000000000000000000000000000000000000000000000000000000815260040161095f90611dc3565b60405180910390fd5b80600160006101000a81548173ffffffffffffffffffffffffffffffffffffffff021916908373ffffffffffffffffffffffffffffffffffffffff16021790555050565b600160009054906101000a900473ffffffffffffffffffffffffffffffffffffffff1681565b3373ffffffffffffffffffffffffffffffffffffffff16600260009054906101000a900473ffffffffffffffffffffffffffffffffffffffff1673ffffffffffffffffffffffffffffffffffffffff1614610a62576040517f08c379a0000000000000000000000000000000000000000000000000000000008152600401610a5990611d83565b60405180910390fd5b6000808383810190610a749190611a5a565b9350509250506000600360009054906101000a900473ffffffffffffffffffffffffffffffffffffffff1690508073ffffffffffffffffffffffffffffffffffffffff1663885e25c4846040518263ffffffff1660e01b8152600401610ada9190611e23565b60206040518083038186803b158015610af257600080fd5b505afa158015610b06573d6000803e3d6000fd5b505050506040513d601f19601f82011682018060405250810190610b2a91906118e8565b15610b6a576040517f08c379a0000000000000000000000000000000000000000000000000000000008152600401610b6190611d23565b60405180910390fd5b60008173ffffffffffffffffffffffffffffffffffffffff1663bf18193d856040518263ffffffff1660e01b8152600401610ba59190611e23565b60206040518083038186803b158015610bbd57600080fd5b505afa158015610bd1573d6000803e3d6000fd5b505050506040513d601f19601f82011682018060405250810190610bf591906118bf565b90506000819050838173ffffffffffffffffffffffffffffffffffffffff166370a08231306040518263ffffffff1660e01b8152600401610c369190611c6d565b60206040518083038186803b158015610c4e57600080fd5b505afa158015610c62573d6000803e3d6000fd5b505050506040513d601f19601f82011682018060405250810190610c86919061197f565b14610cc6576040517f08c379a0000000000000000000000000000000000000000000000000000000008152600401610cbd90611da3565b60405180910390fd5b610cd087876115f9565b50505050505050565b610ce16115f1565b73ffffffffffffffffffffffffffffffffffffffff16610cff610d61565b73ffffffffffffffffffffffffffffffffffffffff1614610d55576040517f08c379a0000000000000000000000000000000000000000000000000000000008152600401610d4c90611dc3565b60405180910390fd5b610d5f60006116e0565b565b60008060009054906101000a900473ffffffffffffffffffffffffffffffffffffffff16905090565b600560009054906101000a900473ffffffffffffffffffffffffffffffffffffffff1681565b610db86115f1565b73ffffffffffffffffffffffffffffffffffffffff16610dd6610d61565b73ffffffffffffffffffffffffffffffffffffffff1614610e2c576040517f08c379a0000000000000000000000000000000000000000000000000000000008152600401610e2390611dc3565b60405180910390fd5b80600560006101000a81548173ffffffffffffffffffffffffffffffffffffffff021916908373ffffffffffffffffffffffffffffffffffffffff16021790555050565b3373ffffffffffffffffffffffffffffffffffffffff16600260009054906101000a900473ffffffffffffffffffffffffffffffffffffffff1673ffffffffffffffffffffffffffffffffffffffff1614610f00576040517f08c379a0000000000000000000000000000000000000000000000000000000008152600401610ef790611d83565b60405180910390fd5b6000808383810190610f129190611a5a565b935050925050348114610f5a576040517f08c379a0000000000000000000000000000000000000000000000000000000008152600401610f5190611d03565b60405180910390fd5b6000600360009054906101000a900473ffffffffffffffffffffffffffffffffffffffff1690508073ffffffffffffffffffffffffffffffffffffffff1663885e25c4846040518263ffffffff1660e01b8152600401610fba9190611e23565b60206040518083038186803b158015610fd257600080fd5b505afa158015610fe6573d6000803e3d6000fd5b505050506040513d601f19601f8201168201806040525081019061100a91906118e8565b611049576040517f08c379a000000000000000000000000000000000000000000000000000000000815260040161104090611e03565b60405180910390fd5b61105385856115f9565b5050505050565b6110626115f1565b73ffffffffffffffffffffffffffffffffffffffff16611080610d61565b73ffffffffffffffffffffffffffffffffffffffff16146110d6576040517f08c379a00000000000000000000000000000000000000000000000000000000081526004016110cd90611dc3565b60405180910390fd5b80600260006101000a81548173ffffffffffffffffffffffffffffffffffffffff021916908373ffffffffffffffffffffffffffffffffffffffff16021790555050565b600260009054906101000a900473ffffffffffffffffffffffffffffffffffffffff1681565b3373ffffffffffffffffffffffffffffffffffffffff16600160009054906101000a900473ffffffffffffffffffffffffffffffffffffffff1673ffffffffffffffffffffffffffffffffffffffff16146111d0576040517f08c379a00000000000000000000000000000000000000000000000000000000081526004016111c790611de3565b60405180910390fd5b60008083838101906111e291906119a8565b92505091506000600360009054906101000a900473ffffffffffffffffffffffffffffffffffffffff1690508073ffffffffffffffffffffffffffffffffffffffff1663885e25c4846040518263ffffffff1660e01b81526004016112479190611e23565b60206040518083038186803b15801561125f57600080fd5b505afa158015611273573d6000803e3d6000fd5b505050506040513d601f19601f8201168201806040525081019061129791906118e8565b6114665760008173ffffffffffffffffffffffffffffffffffffffff1663bf18193d856040518263ffffffff1660e01b81526004016112d69190611e23565b60206040518083038186803b1580156112ee57600080fd5b505afa158015611302573d6000803e3d6000fd5b505050506040513d601f19601f8201168201806040525081019061132691906118bf565b905060008190508073ffffffffffffffffffffffffffffffffffffffff166342966c68856040518263ffffffff1660e01b81526004016113669190611e23565b600060405180830381600087803b15801561138057600080fd5b505af1158015611394573d6000803e3d6000fd5b5050505060008173ffffffffffffffffffffffffffffffffffffffff166370a08231306040518263ffffffff1660e01b81526004016113d39190611c6d565b60206040518083038186803b1580156113eb57600080fd5b505afa1580156113ff573d6000803e3d6000fd5b505050506040513d601f19601f82011682018060405250810190611423919061197f565b14611463576040517f08c379a000000000000000000000000000000000000000000000000000000000815260040161145a90611d43565b60405180910390fd5b50505b5050505050565b6114756115f1565b73ffffffffffffffffffffffffffffffffffffffff16611493610d61565b73ffffffffffffffffffffffffffffffffffffffff16146114e9576040517f08c379a00000000000000000000000000000000000000000000000000000000081526004016114e090611dc3565b60405180910390fd5b8060048190555050565b6114fb6115f1565b73ffffffffffffffffffffffffffffffffffffffff16611519610d61565b73ffffffffffffffffffffffffffffffffffffffff161461156f576040517f08c379a000000000000000000000000000000000000000000000000000000000815260040161156690611dc3565b60405180910390fd5b600073ffffffffffffffffffffffffffffffffffffffff168173ffffffffffffffffffffffffffffffffffffffff1614156115df576040517f08c379a00000000000000000000000000000000000000000000000000000000081526004016115d690611d63565b60405180910390fd5b6115e8816116e0565b50565b60045481565b600033905090565b600080600080858581019061160e9190611a5a565b93509350935093506000600560009054906101000a900473ffffffffffffffffffffffffffffffffffffffff169050600084848460405160200161165493929190611e3e565b60405160208183030381529060405290508173ffffffffffffffffffffffffffffffffffffffff166305e2ca1787600454846040518463ffffffff1660e01b81526004016116a493929190611e75565b600060405180830381600087803b1580156116be57600080fd5b505af11580156116d2573d6000803e3d6000fd5b505050505050505050505050565b60008060009054906101000a900473ffffffffffffffffffffffffffffffffffffffff169050816000806101000a81548173ffffffffffffffffffffffffffffffffffffffff021916908373ffffffffffffffffffffffffffffffffffffffff1602179055508173ffffffffffffffffffffffffffffffffffffffff168173ffffffffffffffffffffffffffffffffffffffff167f8be0079c531659141344cd1fd0a4f28419497f9722a3daafe3b4186f6b6457e060405160405180910390a35050565b6000813590506117b3816121c4565b92915050565b6000815190506117c8816121c4565b92915050565b6000813590506117dd816121db565b92915050565b6000815190506117f2816121f2565b92915050565b60008135905061180781612209565b92915050565b60008083601f84011261181f57600080fd5b8235905067ffffffffffffffff81111561183857600080fd5b60208301915083600182028301111561185057600080fd5b9250929050565b60008135905061186681612220565b92915050565b60008151905061187b81612220565b92915050565b60008135905061189081612237565b92915050565b6000602082840312156118a857600080fd5b60006118b6848285016117a4565b91505092915050565b6000602082840312156118d157600080fd5b60006118df848285016117b9565b91505092915050565b6000602082840312156118fa57600080fd5b6000611908848285016117e3565b91505092915050565b60006020828403121561192357600080fd5b6000611931848285016117f8565b91505092915050565b6000806020838503121561194d57600080fd5b600083013567ffffffffffffffff81111561196757600080fd5b6119738582860161180d565b92509250509250929050565b60006020828403121561199157600080fd5b600061199f8482850161186c565b91505092915050565b6000806000606084860312156119bd57600080fd5b60006119cb86828701611857565b93505060206119dc868287016117ce565b92505060406119ed86828701611857565b9150509250925092565b60008060008060808587031215611a0d57600080fd5b6000611a1b87828801611857565b9450506020611a2c878288016117ce565b9350506040611a3d87828801611857565b9250506060611a4e878288016117f8565b91505092959194509250565b60008060008060808587031215611a7057600080fd5b6000611a7e87828801611881565b9450506020611a8f87828801611857565b9350506040611aa0878288016117ce565b9250506060611ab187828801611857565b91505092959194509250565b611ac681611ee0565b82525050565b611ad581611f10565b82525050565b6000611ae682611eb3565b611af08185611ebe565b9350611b00818560208601611f51565b611b0981611f84565b840191505092915050565b6000611b21602383611ecf565b9150611b2c82611f95565b604082019050919050565b6000611b44601783611ecf565b9150611b4f82611fe4565b602082019050919050565b6000611b67601283611ecf565b9150611b728261200d565b602082019050919050565b6000611b8a602683611ecf565b9150611b9582612036565b604082019050919050565b6000611bad603c83611ecf565b9150611bb882612085565b604082019050919050565b6000611bd0602a83611ecf565b9150611bdb826120d4565b604082019050919050565b6000611bf3602083611ecf565b9150611bfe82612123565b602082019050919050565b6000611c16603e83611ecf565b9150611c218261214c565b604082019050919050565b6000611c39601383611ecf565b9150611c448261219b565b602082019050919050565b611c5881611f3a565b82525050565b611c6781611f44565b82525050565b6000602082019050611c826000830184611abd565b92915050565b6000606082019050611c9d6000830186611abd565b611caa6020830185611acc565b611cb76040830184611c4f565b949350505050565b6000604082019050611cd46000830185611abd565b611ce16020830184611c4f565b9392505050565b6000602082019050611cfd6000830184611acc565b92915050565b60006020820190508181036000830152611d1c81611b14565b9050919050565b60006020820190508181036000830152611d3c81611b37565b9050919050565b60006020820190508181036000830152611d5c81611b5a565b9050919050565b60006020820190508181036000830152611d7c81611b7d565b9050919050565b60006020820190508181036000830152611d9c81611ba0565b9050919050565b60006020820190508181036000830152611dbc81611bc3565b9050919050565b60006020820190508181036000830152611ddc81611be6565b9050919050565b60006020820190508181036000830152611dfc81611c09565b9050919050565b60006020820190508181036000830152611e1c81611c2c565b9050919050565b6000602082019050611e386000830184611c4f565b92915050565b6000606082019050611e536000830186611c4f565b611e606020830185611abd565b611e6d6040830184611c4f565b949350505050565b6000606082019050611e8a6000830186611c5e565b611e976020830185611acc565b8181036040830152611ea98184611adb565b9050949350505050565b600081519050919050565b600082825260208201905092915050565b600082825260208201905092915050565b6000611eeb82611f1a565b9050919050565b6000611efd82611f1a565b9050919050565b60008115159050919050565b6000819050919050565b600073ffffffffffffffffffffffffffffffffffffffff82169050919050565b6000819050919050565b600060ff82169050919050565b60005b83811015611f6f578082015181840152602081019050611f54565b83811115611f7e576000848401525b50505050565b6000601f19601f8301169050919050565b7f4d75737420726563656976652073616d652076616c75652066726f6d2070726960008201527f736d2e0000000000000000000000000000000000000000000000000000000000602082015250565b7f546f6b656e4964206d757374206e6f7420626520465241000000000000000000600082015250565b7f52656c6179657220756e62616c616e63652e0000000000000000000000000000600082015250565b7f4f776e61626c653a206e6577206f776e657220697320746865207a65726f206160008201527f6464726573730000000000000000000000000000000000000000000000000000602082015250565b7f6f6e6c7920507269736d58584c656467657220636f6e7472616374206973206160008201527f6c6c6f77656420746f2063616c6c20746869732066756e6374696f6e00000000602082015250565b7f436f6c756d62757352656c61796572206d75737420686176652073616d65207460008201527f6f6b656e2076616c756500000000000000000000000000000000000000000000602082015250565b7f4f776e61626c653a2063616c6c6572206973206e6f7420746865206f776e6572600082015250565b7f6f6e6c792047656e657269632048616e646c657220636f6e747261637420697360008201527f20616c6c6f77656420746f2063616c6c20746869732066756e6374696f6e0000602082015250565b7f546f6b656e4964206d7573742062652046524100000000000000000000000000600082015250565b6121cd81611ee0565b81146121d857600080fd5b50565b6121e481611ef2565b81146121ef57600080fd5b50565b6121fb81611f04565b811461220657600080fd5b50565b61221281611f10565b811461221d57600080fd5b50565b61222981611f3a565b811461223457600080fd5b50565b61224081611f44565b811461224b57600080fd5b5056fea2646970667358221220a79ef6efde17db902c89ad719d2e447a6e0c033ee21377fc295f5e97bbc0a2f464736f6c63430008040033",
  "linkReferences": {},
  "deployedLinkReferences": {}
}