{
  "_format": "hh-sol-artifact-1",
  "contractName": "MasterChef",
  "sourceName": "contracts/ColumbusFarm.sol",
  "abi": [
    {
      "inputs": [
        {
          "internalType": "contract YESToken",
          "name": "_yes",
          "type": "address"
        },
        {
          "internalType": "uint256",
          "name": "_yesPerSecond",
          "type": "uint256"
        },
        {
          "internalType": "uint256",
          "name": "_startTime",
          "type": "uint256"
        },
        {
          "internalType": "uint256",
          "name": "_endTime",
          "type": "uint256"
        }
      ],
      "stateMutability": "nonpayable",
      "type": "constructor"
    },
    {
      "anonymous": false,
      "inputs": [
        {
          "indexed": true,
          "internalType": "address",
          "name": "user",
          "type": "address"
        },
        {
          "indexed": true,
          "internalType": "uint256",
          "name": "pid",
          "type": "uint256"
        },
        {
          "indexed": false,
          "internalType": "uint256",
          "name": "amount",
          "type": "uint256"
        }
      ],
      "name": "Deposit",
      "type": "event"
    },
    {
      "anonymous": false,
      "inputs": [
        {
          "indexed": true,
          "internalType": "address",
          "name": "user",
          "type": "address"
        },
        {
          "indexed": true,
          "internalType": "uint256",
          "name": "pid",
          "type": "uint256"
        },
        {
          "indexed": false,
          "internalType": "uint256",
          "name": "amount",
          "type": "uint256"
        }
      ],
      "name": "EmergencyWithdraw",
      "type": "event"
    },
    {
      "anonymous": false,
      "inputs": [
        {
          "indexed": true,
          "internalType": "address",
          "name": "previousOwner",
          "type": "address"
        },
        {
          "indexed": true,
          "internalType": "address",
          "name": "newOwner",
          "type": "address"
        }
      ],
      "name": "OwnershipTransferred",
      "type": "event"
    },
    {
      "anonymous": false,
      "inputs": [
        {
          "indexed": true,
          "internalType": "bytes32",
          "name": "role",
          "type": "bytes32"
        },
        {
          "indexed": true,
          "internalType": "bytes32",
          "name": "previousAdminRole",
          "type": "bytes32"
        },
        {
          "indexed": true,
          "internalType": "bytes32",
          "name": "newAdminRole",
          "type": "bytes32"
        }
      ],
      "name": "RoleAdminChanged",
      "type": "event"
    },
    {
      "anonymous": false,
      "inputs": [
        {
          "indexed": true,
          "internalType": "bytes32",
          "name": "role",
          "type": "bytes32"
        },
        {
          "indexed": true,
          "internalType": "address",
          "name": "account",
          "type": "address"
        },
        {
          "indexed": true,
          "internalType": "address",
          "name": "sender",
          "type": "address"
        }
      ],
      "name": "RoleGranted",
      "type": "event"
    },
    {
      "anonymous": false,
      "inputs": [
        {
          "indexed": true,
          "internalType": "bytes32",
          "name": "role",
          "type": "bytes32"
        },
        {
          "indexed": true,
          "internalType": "address",
          "name": "account",
          "type": "address"
        },
        {
          "indexed": true,
          "internalType": "address",
          "name": "sender",
          "type": "address"
        }
      ],
      "name": "RoleRevoked",
      "type": "event"
    },
    {
      "anonymous": false,
      "inputs": [
        {
          "indexed": true,
          "internalType": "address",
          "name": "user",
          "type": "address"
        },
        {
          "indexed": true,
          "internalType": "uint256",
          "name": "pid",
          "type": "uint256"
        },
        {
          "indexed": false,
          "internalType": "uint256",
          "name": "amount",
          "type": "uint256"
        }
      ],
      "name": "Withdraw",
      "type": "event"
    },
    {
      "inputs": [],
      "name": "DEFAULT_ADMIN_ROLE",
      "outputs": [
        {
          "internalType": "bytes32",
          "name": "",
          "type": "bytes32"
        }
      ],
      "stateMutability": "view",
      "type": "function"
    },
    {
      "inputs": [],
      "name": "MaxAllocPoint",
      "outputs": [
        {
          "internalType": "uint256",
          "name": "",
          "type": "uint256"
        }
      ],
      "stateMutability": "view",
      "type": "function"
    },
    {
      "inputs": [],
      "name": "SETTER_ROLE",
      "outputs": [
        {
          "internalType": "bytes32",
          "name": "",
          "type": "bytes32"
        }
      ],
      "stateMutability": "view",
      "type": "function"
    },
    {
      "inputs": [
        {
          "internalType": "uint256",
          "name": "_allocPoint",
          "type": "uint256"
        },
        {
          "internalType": "contract IERC20",
          "name": "_lpToken",
          "type": "address"
        }
      ],
      "name": "add",
      "outputs": [],
      "stateMutability": "nonpayable",
      "type": "function"
    },
    {
      "inputs": [
        {
          "internalType": "uint256",
          "name": "_pid",
          "type": "uint256"
        }
      ],
      "name": "claim",
      "outputs": [],
      "stateMutability": "nonpayable",
      "type": "function"
    },
    {
      "inputs": [],
      "name": "claimAll",
      "outputs": [],
      "stateMutability": "nonpayable",
      "type": "function"
    },
    {
      "inputs": [
        {
          "internalType": "uint256",
          "name": "_pid",
          "type": "uint256"
        },
        {
          "internalType": "uint256",
          "name": "_amount",
          "type": "uint256"
        }
      ],
      "name": "deposit",
      "outputs": [],
      "stateMutability": "nonpayable",
      "type": "function"
    },
    {
      "inputs": [
        {
          "internalType": "uint256",
          "name": "_pid",
          "type": "uint256"
        }
      ],
      "name": "emergencyWithdraw",
      "outputs": [],
      "stateMutability": "nonpayable",
      "type": "function"
    },
    {
      "inputs": [],
      "name": "endTime",
      "outputs": [
        {
          "internalType": "uint256",
          "name": "",
          "type": "uint256"
        }
      ],
      "stateMutability": "view",
      "type": "function"
    },
    {
      "inputs": [
        {
          "internalType": "uint256",
          "name": "_from",
          "type": "uint256"
        },
        {
          "internalType": "uint256",
          "name": "_to",
          "type": "uint256"
        }
      ],
      "name": "getMultiplier",
      "outputs": [
        {
          "internalType": "uint256",
          "name": "",
          "type": "uint256"
        }
      ],
      "stateMutability": "view",
      "type": "function"
    },
    {
      "inputs": [
        {
          "internalType": "bytes32",
          "name": "role",
          "type": "bytes32"
        }
      ],
      "name": "getRoleAdmin",
      "outputs": [
        {
          "internalType": "bytes32",
          "name": "",
          "type": "bytes32"
        }
      ],
      "stateMutability": "view",
      "type": "function"
    },
    {
      "inputs": [
        {
          "internalType": "bytes32",
          "name": "role",
          "type": "bytes32"
        },
        {
          "internalType": "address",
          "name": "account",
          "type": "address"
        }
      ],
      "name": "grantRole",
      "outputs": [],
      "stateMutability": "nonpayable",
      "type": "function"
    },
    {
      "inputs": [
        {
          "internalType": "bytes32",
          "name": "role",
          "type": "bytes32"
        },
        {
          "internalType": "address",
          "name": "account",
          "type": "address"
        }
      ],
      "name": "hasRole",
      "outputs": [
        {
          "internalType": "bool",
          "name": "",
          "type": "bool"
        }
      ],
      "stateMutability": "view",
      "type": "function"
    },
    {
      "inputs": [],
      "name": "massUpdatePools",
      "outputs": [],
      "stateMutability": "nonpayable",
      "type": "function"
    },
    {
      "inputs": [],
      "name": "owner",
      "outputs": [
        {
          "internalType": "address",
          "name": "",
          "type": "address"
        }
      ],
      "stateMutability": "view",
      "type": "function"
    },
    {
      "inputs": [
        {
          "internalType": "uint256",
          "name": "_pid",
          "type": "uint256"
        },
        {
          "internalType": "address",
          "name": "_user",
          "type": "address"
        }
      ],
      "name": "pendingYES",
      "outputs": [
        {
          "internalType": "uint256",
          "name": "",
          "type": "uint256"
        }
      ],
      "stateMutability": "view",
      "type": "function"
    },
    {
      "inputs": [
        {
          "internalType": "uint256",
          "name": "",
          "type": "uint256"
        }
      ],
      "name": "poolInfo",
      "outputs": [
        {
          "internalType": "contract IERC20",
          "name": "lpToken",
          "type": "address"
        },
        {
          "internalType": "uint256",
          "name": "allocPoint",
          "type": "uint256"
        },
        {
          "internalType": "uint256",
          "name": "lastRewardTime",
          "type": "uint256"
        },
        {
          "internalType": "uint256",
          "name": "accYESPerShare",
          "type": "uint256"
        }
      ],
      "stateMutability": "view",
      "type": "function"
    },
    {
      "inputs": [],
      "name": "poolLength",
      "outputs": [
        {
          "internalType": "uint256",
          "name": "",
          "type": "uint256"
        }
      ],
      "stateMutability": "view",
      "type": "function"
    },
    {
      "inputs": [],
      "name": "renounceOwnership",
      "outputs": [],
      "stateMutability": "nonpayable",
      "type": "function"
    },
    {
      "inputs": [
        {
          "internalType": "bytes32",
          "name": "role",
          "type": "bytes32"
        },
        {
          "internalType": "address",
          "name": "account",
          "type": "address"
        }
      ],
      "name": "renounceRole",
      "outputs": [],
      "stateMutability": "nonpayable",
      "type": "function"
    },
    {
      "inputs": [
        {
          "internalType": "bytes32",
          "name": "role",
          "type": "bytes32"
        },
        {
          "internalType": "address",
          "name": "account",
          "type": "address"
        }
      ],
      "name": "revokeRole",
      "outputs": [],
      "stateMutability": "nonpayable",
      "type": "function"
    },
    {
      "inputs": [
        {
          "internalType": "uint256",
          "name": "_pid",
          "type": "uint256"
        },
        {
          "internalType": "uint256",
          "name": "_allocPoint",
          "type": "uint256"
        }
      ],
      "name": "set",
      "outputs": [],
      "stateMutability": "nonpayable",
      "type": "function"
    },
    {
      "inputs": [],
      "name": "startTime",
      "outputs": [
        {
          "internalType": "uint256",
          "name": "",
          "type": "uint256"
        }
      ],
      "stateMutability": "view",
      "type": "function"
    },
    {
      "inputs": [
        {
          "internalType": "bytes4",
          "name": "interfaceId",
          "type": "bytes4"
        }
      ],
      "name": "supportsInterface",
      "outputs": [
        {
          "internalType": "bool",
          "name": "",
          "type": "bool"
        }
      ],
      "stateMutability": "view",
      "type": "function"
    },
    {
      "inputs": [],
      "name": "totalAllocPoint",
      "outputs": [
        {
          "internalType": "uint256",
          "name": "",
          "type": "uint256"
        }
      ],
      "stateMutability": "view",
      "type": "function"
    },
    {
      "inputs": [
        {
          "internalType": "address",
          "name": "newOwner",
          "type": "address"
        }
      ],
      "name": "transferOwnership",
      "outputs": [],
      "stateMutability": "nonpayable",
      "type": "function"
    },
    {
      "inputs": [
        {
          "internalType": "uint256",
          "name": "_pid",
          "type": "uint256"
        }
      ],
      "name": "updatePool",
      "outputs": [],
      "stateMutability": "nonpayable",
      "type": "function"
    },
    {
      "inputs": [
        {
          "internalType": "uint256",
          "name": "",
          "type": "uint256"
        },
        {
          "internalType": "address",
          "name": "",
          "type": "address"
        }
      ],
      "name": "userInfo",
      "outputs": [
        {
          "internalType": "uint256",
          "name": "amount",
          "type": "uint256"
        },
        {
          "internalType": "uint256",
          "name": "rewardDebt",
          "type": "uint256"
        }
      ],
      "stateMutability": "view",
      "type": "function"
    },
    {
      "inputs": [
        {
          "internalType": "uint256",
          "name": "_pid",
          "type": "uint256"
        },
        {
          "internalType": "uint256",
          "name": "_amount",
          "type": "uint256"
        }
      ],
      "name": "withdraw",
      "outputs": [],
      "stateMutability": "nonpayable",
      "type": "function"
    },
    {
      "inputs": [],
      "name": "yes",
      "outputs": [
        {
          "internalType": "contract YESToken",
          "name": "",
          "type": "address"
        }
      ],
      "stateMutability": "view",
      "type": "function"
    },
    {
      "inputs": [],
      "name": "yesPerSecond",
      "outputs": [
        {
          "internalType": "uint256",
          "name": "",
          "type": "uint256"
        }
      ],
      "stateMutability": "view",
      "type": "function"
    }
  ],
  "bytecode": "0x60e060405260006005553480156200001657600080fd5b506040516200236b3803806200236b83398101604081905262000039916200016d565b620000443362000085565b600280546001600160a01b0319166001600160a01b038616179055608083905260a082905260c08190526200007b600033620000d5565b50505050620001ba565b600080546001600160a01b038381166001600160a01b0319831681178455604051919092169283917f8be0079c531659141344cd1fd0a4f28419497f9722a3daafe3b4186f6b6457e09190a35050565b620000e18282620000e5565b5050565b60008281526001602090815260408083206001600160a01b038516845290915290205460ff16620000e15760008281526001602081815260408084206001600160a01b0386168086529252808420805460ff19169093179092559051339285917f2f8788117e7eff1d82e926ec794901d17c78024a50270940304540a733656f0d9190a45050565b600080600080608085870312156200018457600080fd5b84516001600160a01b03811681146200019c57600080fd5b60208601516040870151606090970151919890975090945092505050565b60805160a05160c05161213b62000230600039600081816102ce01528181610f9f01528181610fd1015261100c01526000818161038f015281816107f30152818161081a01528181610f2501528181610f4c0152610f760152600081816103b601528181610d040152611126015261213b6000f3fe608060405234801561001057600080fd5b50600436106101e55760003560e01c8063630b5ba11161010f578063a2011b3f116100a2578063d547741f11610071578063d547741f146104c6578063e2bbb158146104d9578063f2fde38b146104ec578063f4b83c4c146104ff57600080fd5b8063a2011b3f1461047c578063a217fddf146104a3578063c4824c64146104ab578063d1058e59146104be57600080fd5b80638da5cb5b116100de5780638da5cb5b146103d85780638dbb1e3a146103e957806391d14854146103fc57806393f1a40b1461043557600080fd5b8063630b5ba11461037a578063715018a61461038257806378e979251461038a57806383188e86146103b157600080fd5b80632f2ff15d11610187578063441a3e7011610156578063441a3e70146103165780634c6c9b781461032957806351eb05a6146103545780635312ea8e1461036757600080fd5b80632f2ff15d146102b65780633197cbb6146102c957806336568abe146102f0578063379607f51461030357600080fd5b806317caf6f1116101c357806317caf6f1146102615780631ab06ee51461026a578063248a9ca31461027f5780632b8bbbe8146102a357600080fd5b806301ffc9a7146101ea578063081e3eda146102125780631526fe2714610224575b600080fd5b6101fd6101f8366004611e0b565b610508565b60405190151581526020015b60405180910390f35b6003545b604051908152602001610209565b610237610232366004611e4d565b6105a1565b604080516001600160a01b0390951685526020850193909352918301526060820152608001610209565b61021660055481565b61027d610278366004611e66565b6105e5565b005b61021661028d366004611e4d565b6000908152600160208190526040909120015490565b61027d6102b1366004611e9d565b610732565b61027d6102c4366004611e9d565b610957565b6102167f000000000000000000000000000000000000000000000000000000000000000081565b61027d6102fe366004611e9d565b610982565b61027d610311366004611e4d565b610a0e565b61027d610324366004611e66565b610ac8565b60025461033c906001600160a01b031681565b6040516001600160a01b039091168152602001610209565b61027d610362366004611e4d565b610c2b565b61027d610375366004611e4d565b610df5565b61027d610e94565b61027d610ebb565b6102167f000000000000000000000000000000000000000000000000000000000000000081565b6102167f000000000000000000000000000000000000000000000000000000000000000081565b6000546001600160a01b031661033c565b6102166103f7366004611e66565b610f21565b6101fd61040a366004611e9d565b60009182526001602090815260408084206001600160a01b0393909316845291905290205460ff1690565b610467610443366004611e9d565b60046020908152600092835260408084209091529082529020805460019091015482565b60408051928352602083019190915201610209565b6102167f61c92169ef077349011ff0b1383c894d86c5f0b41d986366b58a6cf31e93beda81565b610216600081565b6102166104b9366004611e9d565b611031565b61027d6111ab565b61027d6104d4366004611e9d565b611286565b61027d6104e7366004611e66565b6112ac565b61027d6104fa366004611ecd565b6113ac565b610216610fa081565b60007fffffffff0000000000000000000000000000000000000000000000000000000082167f7965db0b00000000000000000000000000000000000000000000000000000000148061059b57507f01ffc9a7000000000000000000000000000000000000000000000000000000007fffffffff000000000000000000000000000000000000000000000000000000008316145b92915050565b600381815481106105b157600080fd5b600091825260209091206004909102018054600182015460028301546003909301546001600160a01b039092169350919084565b3360009081527ffe76f16e85d41e712270e4249494df72ad37bf3e7d7b6c9ea00e00a49c7da045602052604090205460ff166106685760405162461bcd60e51b815260206004820152601660248201527f43616c6c6572206973206e6f742061207365747465720000000000000000000060448201526064015b60405180910390fd5b610fa08111156106ba5760405162461bcd60e51b815260206004820152601c60248201527f6164643a20746f6f206d616e7920616c6c6f6320706f696e7473212100000000604482015260640161065f565b6106c2610e94565b80600383815481106106d6576106d6611eea565b9060005260206000209060040201600101546005546106f59190611f16565b6106ff9190611f2d565b600581905550806003838154811061071957610719611eea565b9060005260206000209060040201600101819055505050565b6000546001600160a01b0316331461078c5760405162461bcd60e51b815260206004820181905260248201527f4f776e61626c653a2063616c6c6572206973206e6f7420746865206f776e6572604482015260640161065f565b610fa08211156107de5760405162461bcd60e51b815260206004820152601c60248201527f6164643a20746f6f206d616e7920616c6c6f6320706f696e7473212100000000604482015260640161065f565b6107e78161148e565b6107ef610e94565b60007f0000000000000000000000000000000000000000000000000000000000000000421161083e577f0000000000000000000000000000000000000000000000000000000000000000610840565b425b6005549091506108509084611533565b600555604080516080810182526001600160a01b0393841681526020810194855290810191825260006060820181815260038054600181018255925291517fc2575a0e9e593c00f959f8c92f12db2869c3395a3b0502d05e2516446f71f85b600490920291820180547fffffffffffffffffffffffff000000000000000000000000000000000000000016919095161790935592517fc2575a0e9e593c00f959f8c92f12db2869c3395a3b0502d05e2516446f71f85c830155517fc2575a0e9e593c00f959f8c92f12db2869c3395a3b0502d05e2516446f71f85d82015590517fc2575a0e9e593c00f959f8c92f12db2869c3395a3b0502d05e2516446f71f85e90910155565b6000828152600160208190526040909120015461097381611546565b61097d8383611550565b505050565b6001600160a01b0381163314610a005760405162461bcd60e51b815260206004820152602f60248201527f416363657373436f6e74726f6c3a2063616e206f6e6c792072656e6f756e636560448201527f20726f6c657320666f722073656c660000000000000000000000000000000000606482015260840161065f565b610a0a82826115d7565b5050565b600060038281548110610a2357610a23611eea565b6000918252602080832085845260048083526040808620338752909352919093208054929091029092019250610a5857600080fd5b610a6183610c2b565b6000610a8d64e8d4a51000610a878560030154856000015461165a90919063ffffffff16565b90611666565b90506000610aa883600101548361167290919063ffffffff16565b6001840183905590508015610ac157610ac1338261167e565b5050505050565b600060038381548110610add57610add611eea565b6000918252602080832086845260048083526040808620338752909352919093208054929091029092019250831115610b585760405162461bcd60e51b815260206004820152601260248201527f77697468647261773a206e6f7420676f6f640000000000000000000000000000604482015260640161065f565b610b6184610c2b565b6000610b958260010154610b8f64e8d4a51000610a878760030154876000015461165a90919063ffffffff16565b90611672565b8254909150610ba49085611672565b8083556003840154610bc19164e8d4a5100091610a87919061165a565b60018301558015610bd657610bd6338261167e565b8254610bec906001600160a01b031633866117ac565b604051848152859033907ff279e6a1f5e320cca91135676d9cb6e44ca8a08c0b88342bcdb1144f6511b568906020015b60405180910390a35050505050565b600060038281548110610c4057610c40611eea565b9060005260206000209060040201905080600201544211610c5f575050565b80546040516370a0823160e01b81523060048201526000916001600160a01b0316906370a0823190602401602060405180830381865afa158015610ca7573d6000803e3d6000fd5b505050506040513d601f19601f82011682018060405250810190610ccb9190611f45565b905080610cdd57504260029091015550565b6000610ced836002015442610f21565b90506000610d38600554610a878660010154610d327f00000000000000000000000000000000000000000000000000000000000000008761165a90919063ffffffff16565b9061165a565b6002546040517f40c10f19000000000000000000000000000000000000000000000000000000008152306004820152602481018390529192506001600160a01b0316906340c10f1990604401600060405180830381600087803b158015610d9e57600080fd5b505af1158015610db2573d6000803e3d6000fd5b50505050610de0610dd584610a8764e8d4a510008561165a90919063ffffffff16565b600386015490611533565b60038501555050426002909201919091555050565b600060038281548110610e0a57610e0a611eea565b60009182526020808320858452600480835260408086203380885294528520805486825560018201969096559302018054909450919291610e57916001600160a01b0390911690836117ac565b604051818152849033907fbb757047c2b5f3974fe26b7c10f732e7bce710b0952a71082702781e62ae05959060200160405180910390a350505050565b60035460005b81811015610a0a57610eab81610c2b565b610eb481611f5e565b9050610e9a565b6000546001600160a01b03163314610f155760405162461bcd60e51b815260206004820181905260248201527f4f776e61626c653a2063616c6c6572206973206e6f7420746865206f776e6572604482015260640161065f565b610f1f600061183c565b565b60007f00000000000000000000000000000000000000000000000000000000000000008311610f70577f0000000000000000000000000000000000000000000000000000000000000000610f72565b825b92507f0000000000000000000000000000000000000000000000000000000000000000821080610fc257507f00000000000000000000000000000000000000000000000000000000000000008310155b15610fcf5750600061059b565b7f00000000000000000000000000000000000000000000000000000000000000008211611007576110008284611672565b905061059b565b6110007f000000000000000000000000000000000000000000000000000000000000000084611672565b6000806003848154811061104757611047611eea565b60009182526020808320878452600480835260408086206001600160a01b038a8116885294528086209482029092016003810154815493516370a0823160e01b8152309381019390935290965093949291909116906370a0823190602401602060405180830381865afa1580156110c2573d6000803e3d6000fd5b505050506040513d601f19601f820116820180604052508101906110e69190611f45565b90508360020154421180156110fa57508015155b1561117857600061110f856002015442610f21565b90506000611154600554610a878860010154610d327f00000000000000000000000000000000000000000000000000000000000000008761165a90919063ffffffff16565b905061117361116c84610a878464e8d4a5100061165a565b8590611533565b935050505b6111a08360010154610b8f64e8d4a51000610a8786886000015461165a90919063ffffffff16565b979650505050505050565b600354600080808080805b8681101561126d576000818152600460209081526040808320338452909152902080549094501561125d57600381815481106111f4576111f4611eea565b9060005260206000209060040201925061120d81610c2b565b600383015484546112289164e8d4a5100091610a879161165a565b955061124184600101548761167290919063ffffffff16565b600185018790559450841561125d5761125a8583611f2d565b91505b61126681611f5e565b90506111b6565b50801561127e5761127e338261167e565b505050505050565b600082815260016020819052604090912001546112a281611546565b61097d83836115d7565b6000600383815481106112c1576112c1611eea565b600091825260208083208684526004808352604080862033875290935291909320910290910191506112f284610c2b565b60006113208260010154610b8f64e8d4a51000610a878760030154876000015461165a90919063ffffffff16565b825490915061132f9085611533565b808355600384015461134c9164e8d4a5100091610a87919061165a565b6001830155801561136157611361338261167e565b8254611378906001600160a01b03163330876118a4565b604051848152859033907f90890809c654f11d6e72a28fa60149770a0d11ec6c92319d6ceb2bb0a4ea1a1590602001610c1c565b6000546001600160a01b031633146114065760405162461bcd60e51b815260206004820181905260248201527f4f776e61626c653a2063616c6c6572206973206e6f7420746865206f776e6572604482015260640161065f565b6001600160a01b0381166114825760405162461bcd60e51b815260206004820152602660248201527f4f776e61626c653a206e6577206f776e657220697320746865207a65726f206160448201527f6464726573730000000000000000000000000000000000000000000000000000606482015260840161065f565b61148b8161183c565b50565b60035460005b8181101561097d57826001600160a01b0316600382815481106114b9576114b9611eea565b60009182526020909120600490910201546001600160a01b031614156115215760405162461bcd60e51b815260206004820152601c60248201527f6164643a20706f6f6c20616c7265616479206578697374732121212100000000604482015260640161065f565b8061152b81611f5e565b915050611494565b600061153f8284611f2d565b9392505050565b61148b81336118f5565b60008281526001602090815260408083206001600160a01b038516845290915290205460ff16610a0a5760008281526001602081815260408084206001600160a01b0386168086529252808420805460ff19169093179092559051339285917f2f8788117e7eff1d82e926ec794901d17c78024a50270940304540a733656f0d9190a45050565b60008281526001602090815260408083206001600160a01b038516845290915290205460ff1615610a0a5760008281526001602090815260408083206001600160a01b0385168085529252808320805460ff1916905551339285917ff6391f5c32d9c69d2a47ea670b442974b53935d1edc7fd64eb21e047a839171b9190a45050565b600061153f8284611f79565b600061153f8284611f98565b600061153f8284611f16565b6002546040516370a0823160e01b81523060048201526000916001600160a01b0316906370a0823190602401602060405180830381865afa1580156116c7573d6000803e3d6000fd5b505050506040513d601f19601f820116820180604052508101906116eb9190611f45565b9050808211156117735760025460405163a9059cbb60e01b81526001600160a01b038581166004830152602482018490529091169063a9059cbb906044015b6020604051808303816000875af1158015611749573d6000803e3d6000fd5b505050506040513d601f19601f8201168201806040525081019061176d9190611fba565b50505050565b60025460405163a9059cbb60e01b81526001600160a01b038581166004830152602482018590529091169063a9059cbb9060440161172a565b6040516001600160a01b03831660248201526044810182905261097d90849063a9059cbb60e01b906064015b60408051601f198184030181529190526020810180517bffffffffffffffffffffffffffffffffffffffffffffffffffffffff167fffffffff0000000000000000000000000000000000000000000000000000000090931692909217909152611975565b600080546001600160a01b038381167fffffffffffffffffffffffff0000000000000000000000000000000000000000831681178455604051919092169283917f8be0079c531659141344cd1fd0a4f28419497f9722a3daafe3b4186f6b6457e09190a35050565b6040516001600160a01b038085166024830152831660448201526064810182905261176d9085907f23b872dd00000000000000000000000000000000000000000000000000000000906084016117d8565b60008281526001602090815260408083206001600160a01b038516845290915290205460ff16610a0a57611933816001600160a01b03166014611a5a565b61193e836020611a5a565b60405160200161194f929190612008565b60408051601f198184030181529082905262461bcd60e51b825261065f91600401612089565b60006119ca826040518060400160405280602081526020017f5361666545524332303a206c6f772d6c6576656c2063616c6c206661696c6564815250856001600160a01b0316611c839092919063ffffffff16565b80519091501561097d57808060200190518101906119e89190611fba565b61097d5760405162461bcd60e51b815260206004820152602a60248201527f5361666545524332303a204552433230206f7065726174696f6e20646964206e60448201527f6f74207375636365656400000000000000000000000000000000000000000000606482015260840161065f565b60606000611a69836002611f79565b611a74906002611f2d565b67ffffffffffffffff811115611a8c57611a8c6120bc565b6040519080825280601f01601f191660200182016040528015611ab6576020820181803683370190505b5090507f300000000000000000000000000000000000000000000000000000000000000081600081518110611aed57611aed611eea565b60200101907effffffffffffffffffffffffffffffffffffffffffffffffffffffffffffff1916908160001a9053507f780000000000000000000000000000000000000000000000000000000000000081600181518110611b5057611b50611eea565b60200101907effffffffffffffffffffffffffffffffffffffffffffffffffffffffffffff1916908160001a9053506000611b8c846002611f79565b611b97906001611f2d565b90505b6001811115611c34577f303132333435363738396162636465660000000000000000000000000000000085600f1660108110611bd857611bd8611eea565b1a60f81b828281518110611bee57611bee611eea565b60200101907effffffffffffffffffffffffffffffffffffffffffffffffffffffffffffff1916908160001a90535060049490941c93611c2d816120d2565b9050611b9a565b50831561153f5760405162461bcd60e51b815260206004820181905260248201527f537472696e67733a20686578206c656e67746820696e73756666696369656e74604482015260640161065f565b6060611c928484600085611c9a565b949350505050565b606082471015611d125760405162461bcd60e51b815260206004820152602660248201527f416464726573733a20696e73756666696369656e742062616c616e636520666f60448201527f722063616c6c0000000000000000000000000000000000000000000000000000606482015260840161065f565b6001600160a01b0385163b611d695760405162461bcd60e51b815260206004820152601d60248201527f416464726573733a2063616c6c20746f206e6f6e2d636f6e7472616374000000604482015260640161065f565b600080866001600160a01b03168587604051611d8591906120e9565b60006040518083038185875af1925050503d8060008114611dc2576040519150601f19603f3d011682016040523d82523d6000602084013e611dc7565b606091505b50915091506111a082828660608315611de157508161153f565b825115611df15782518084602001fd5b8160405162461bcd60e51b815260040161065f9190612089565b600060208284031215611e1d57600080fd5b81357fffffffff000000000000000000000000000000000000000000000000000000008116811461153f57600080fd5b600060208284031215611e5f57600080fd5b5035919050565b60008060408385031215611e7957600080fd5b50508035926020909101359150565b6001600160a01b038116811461148b57600080fd5b60008060408385031215611eb057600080fd5b823591506020830135611ec281611e88565b809150509250929050565b600060208284031215611edf57600080fd5b813561153f81611e88565b634e487b7160e01b600052603260045260246000fd5b634e487b7160e01b600052601160045260246000fd5b600082821015611f2857611f28611f00565b500390565b60008219821115611f4057611f40611f00565b500190565b600060208284031215611f5757600080fd5b5051919050565b6000600019821415611f7257611f72611f00565b5060010190565b6000816000190483118215151615611f9357611f93611f00565b500290565b600082611fb557634e487b7160e01b600052601260045260246000fd5b500490565b600060208284031215611fcc57600080fd5b8151801515811461153f57600080fd5b60005b83811015611ff7578181015183820152602001611fdf565b8381111561176d5750506000910152565b7f416363657373436f6e74726f6c3a206163636f756e7420000000000000000000815260008351612040816017850160208801611fdc565b7f206973206d697373696e6720726f6c6520000000000000000000000000000000601791840191820152835161207d816028840160208801611fdc565b01602801949350505050565b60208152600082518060208401526120a8816040850160208701611fdc565b601f01601f19169190910160400192915050565b634e487b7160e01b600052604160045260246000fd5b6000816120e1576120e1611f00565b506000190190565b600082516120fb818460208701611fdc565b919091019291505056fea26469706673582212204039ad1fa010cf420333dcbfe2e13a3da64e80c8916d93b7d1206a166ea35fd264736f6c634300080a0033",
  "linkReferences": {},
  "deployedLinkReferences": {}
}