{
  "_format": "hh-sol-artifact-1",
  "contractName": "PrismProxy",
  "sourceName": "contracts/PrismProxy.sol",
  "abi": [
    {
      "inputs": [],
      "stateMutability": "nonpayable",
      "type": "constructor"
    },
    {
      "anonymous": false,
      "inputs": [
        {
          "indexed": true,
          "internalType": "address",
          "name": "previousOwner",
          "type": "address"
        },
        {
          "indexed": true,
          "internalType": "address",
          "name": "newOwner",
          "type": "address"
        }
      ],
      "name": "OwnershipTransferred",
      "type": "event"
    },
    {
      "stateMutability": "payable",
      "type": "fallback"
    },
    {
      "inputs": [
        {
          "internalType": "address",
          "name": "_prismBridgeAddress",
          "type": "address"
        }
      ],
      "name": "adminSetPrismBridgeAddress",
      "outputs": [],
      "stateMutability": "nonpayable",
      "type": "function"
    },
    {
      "inputs": [],
      "name": "owner",
      "outputs": [
        {
          "internalType": "address",
          "name": "",
          "type": "address"
        }
      ],
      "stateMutability": "view",
      "type": "function"
    },
    {
      "inputs": [],
      "name": "prismBridgeAddress",
      "outputs": [
        {
          "internalType": "address",
          "name": "",
          "type": "address"
        }
      ],
      "stateMutability": "view",
      "type": "function"
    },
    {
      "inputs": [],
      "name": "renounceOwnership",
      "outputs": [],
      "stateMutability": "nonpayable",
      "type": "function"
    },
    {
      "inputs": [
        {
          "internalType": "address",
          "name": "newOwner",
          "type": "address"
        }
      ],
      "name": "transferOwnership",
      "outputs": [],
      "stateMutability": "nonpayable",
      "type": "function"
    },
    {
      "stateMutability": "payable",
      "type": "receive"
    }
  ],
  "bytecode": "0x608060405234801561001057600080fd5b5061002d6100226100ac60201b60201c565b6100b460201b60201c565b60003060405161003c90610178565b6100469190610194565b604051809103906000f080158015610062573d6000803e3d6000fd5b50905080600160006101000a81548173ffffffffffffffffffffffffffffffffffffffff021916908373ffffffffffffffffffffffffffffffffffffffff160217905550506101e1565b600033905090565b60008060009054906101000a900473ffffffffffffffffffffffffffffffffffffffff169050816000806101000a81548173ffffffffffffffffffffffffffffffffffffffff021916908373ffffffffffffffffffffffffffffffffffffffff1602179055508173ffffffffffffffffffffffffffffffffffffffff168173ffffffffffffffffffffffffffffffffffffffff167f8be0079c531659141344cd1fd0a4f28419497f9722a3daafe3b4186f6b6457e060405160405180910390a35050565b612abf806108d383390190565b61018e816101af565b82525050565b60006020820190506101a96000830184610185565b92915050565b60006101ba826101c1565b9050919050565b600073ffffffffffffffffffffffffffffffffffffffff82169050919050565b6106e3806101f06000396000f3fe60806040526004361061004e5760003560e01c8063715018a6146100675780638da5cb5b1461007e578063c16216ea146100a9578063f2fde38b146100d2578063f92f1201146100fb5761005d565b3661005d5761005b610126565b005b610065610126565b005b34801561007357600080fd5b5061007c610140565b005b34801561008a57600080fd5b506100936101c8565b6040516100a09190610580565b60405180910390f35b3480156100b557600080fd5b506100d060048036038101906100cb9190610502565b6101f1565b005b3480156100de57600080fd5b506100f960048036038101906100f49190610502565b6102b1565b005b34801561010757600080fd5b506101106103a9565b60405161011d9190610580565b60405180910390f35b61012e6103cf565b61013e6101396103d1565b6103fb565b565b610148610421565b73ffffffffffffffffffffffffffffffffffffffff166101666101c8565b73ffffffffffffffffffffffffffffffffffffffff16146101bc576040517f08c379a00000000000000000000000000000000000000000000000000000000081526004016101b3906105bb565b60405180910390fd5b6101c66000610429565b565b60008060009054906101000a900473ffffffffffffffffffffffffffffffffffffffff16905090565b6101f9610421565b73ffffffffffffffffffffffffffffffffffffffff166102176101c8565b73ffffffffffffffffffffffffffffffffffffffff161461026d576040517f08c379a0000000000000000000000000000000000000000000000000000000008152600401610264906105bb565b60405180910390fd5b80600160006101000a81548173ffffffffffffffffffffffffffffffffffffffff021916908373ffffffffffffffffffffffffffffffffffffffff16021790555050565b6102b9610421565b73ffffffffffffffffffffffffffffffffffffffff166102d76101c8565b73ffffffffffffffffffffffffffffffffffffffff161461032d576040517f08c379a0000000000000000000000000000000000000000000000000000000008152600401610324906105bb565b60405180910390fd5b600073ffffffffffffffffffffffffffffffffffffffff168173ffffffffffffffffffffffffffffffffffffffff16141561039d576040517f08c379a00000000000000000000000000000000000000000000000000000000081526004016103949061059b565b60405180910390fd5b6103a681610429565b50565b600160009054906101000a900473ffffffffffffffffffffffffffffffffffffffff1681565b565b6000600160009054906101000a900473ffffffffffffffffffffffffffffffffffffffff16905090565b3660008037600080366000845af43d6000803e806000811461041c573d6000f35b3d6000fd5b600033905090565b60008060009054906101000a900473ffffffffffffffffffffffffffffffffffffffff169050816000806101000a81548173ffffffffffffffffffffffffffffffffffffffff021916908373ffffffffffffffffffffffffffffffffffffffff1602179055508173ffffffffffffffffffffffffffffffffffffffff168173ffffffffffffffffffffffffffffffffffffffff167f8be0079c531659141344cd1fd0a4f28419497f9722a3daafe3b4186f6b6457e060405160405180910390a35050565b6000813590506104fc81610696565b92915050565b60006020828403121561051457600080fd5b6000610522848285016104ed565b91505092915050565b610534816105ec565b82525050565b60006105476026836105db565b91506105528261061e565b604082019050919050565b600061056a6020836105db565b91506105758261066d565b602082019050919050565b6000602082019050610595600083018461052b565b92915050565b600060208201905081810360008301526105b48161053a565b9050919050565b600060208201905081810360008301526105d48161055d565b9050919050565b600082825260208201905092915050565b60006105f7826105fe565b9050919050565b600073ffffffffffffffffffffffffffffffffffffffff82169050919050565b7f4f776e61626c653a206e6577206f776e657220697320746865207a65726f206160008201527f6464726573730000000000000000000000000000000000000000000000000000602082015250565b7f4f776e61626c653a2063616c6c6572206973206e6f7420746865206f776e6572600082015250565b61069f816105ec565b81146106aa57600080fd5b5056fea2646970667358221220e067e7b1fbf0c4c81200b711313c5ad2527280fe7fd11e5dd09b24238d2f8d0e64736f6c63430008040033608060405230600160006101000a81548173ffffffffffffffffffffffffffffffffffffffff021916908373ffffffffffffffffffffffffffffffffffffffff1602179055503480156200005257600080fd5b5060405162002abf38038062002abf8339818101604052810190620000789190620001c3565b620000986200008c620000e060201b60201c565b620000e860201b60201c565b80600260006101000a81548173ffffffffffffffffffffffffffffffffffffffff021916908373ffffffffffffffffffffffffffffffffffffffff160217905550506200023d565b600033905090565b60008060009054906101000a900473ffffffffffffffffffffffffffffffffffffffff169050816000806101000a81548173ffffffffffffffffffffffffffffffffffffffff021916908373ffffffffffffffffffffffffffffffffffffffff1602179055508173ffffffffffffffffffffffffffffffffffffffff168173ffffffffffffffffffffffffffffffffffffffff167f8be0079c531659141344cd1fd0a4f28419497f9722a3daafe3b4186f6b6457e060405160405180910390a35050565b600081519050620001bd8162000223565b92915050565b600060208284031215620001d657600080fd5b6000620001e684828501620001ac565b91505092915050565b6000620001fc8262000203565b9050919050565b600073ffffffffffffffffffffffffffffffffffffffff82169050919050565b6200022e81620001ef565b81146200023a57600080fd5b50565b612872806200024d6000396000f3fe6080604052600436106100e85760003560e01c8063b9322ce11161008a578063f2fde38b11610059578063f2fde38b1461029b578063f8fbccc2146102c4578063fabeb158146102ef578063fdfd5d4c14610318576100e8565b8063b9322ce114610202578063d84e80381461022b578063de93811c14610256578063e6f2706d14610272576100e8565b8063524f3198116100c6578063524f31981461016c578063527799b014610197578063715018a6146101c05780638da5cb5b146101d7576100e8565b8063044edb6f146100ed5780630505dce01461011857806318bc9de614610143575b600080fd5b3480156100f957600080fd5b50610102610357565b60405161010f9190611d43565b60405180910390f35b34801561012457600080fd5b5061012d61037d565b60405161013a9190611d43565b60405180910390f35b34801561014f57600080fd5b5061016a60048036038101906101659190611889565b6103a3565b005b34801561017857600080fd5b506101816104c2565b60405161018e9190611ecd565b60405180910390f35b3480156101a357600080fd5b506101be60048036038101906101b99190611909565b6105e5565b005b3480156101cc57600080fd5b506101d56108ea565b005b3480156101e357600080fd5b506101ec610972565b6040516101f99190611d43565b60405180910390f35b34801561020e57600080fd5b5061022960048036038101906102249190611755565b61099b565b005b34801561023757600080fd5b50610240610a5b565b60405161024d9190611d43565b60405180910390f35b610270600480360381019061026b9190611837565b610a81565b005b34801561027e57600080fd5b50610299600480360381019061029491906117a7565b610b80565b005b3480156102a757600080fd5b506102c260048036038101906102bd9190611755565b610e57565b005b3480156102d057600080fd5b506102d9610f4f565b6040516102e69190611ecd565b60405180910390f35b3480156102fb57600080fd5b5061031660048036038101906103119190611755565b611070565b005b34801561032457600080fd5b5061033f600480360381019061033a919061199b565b611130565b60405161034e93929190611f41565b60405180910390f35b600360009054906101000a900473ffffffffffffffffffffffffffffffffffffffff1681565b600460009054906101000a900473ffffffffffffffffffffffffffffffffffffffff1681565b600073ffffffffffffffffffffffffffffffffffffffff163373ffffffffffffffffffffffffffffffffffffffff1614610412576040517f08c379a000000000000000000000000000000000000000000000000000000000815260040161040990611fba565b60405180910390fd5b61041b8461116a565b156104755761046f8483838080601f016020809104026020016040519081016040528093929190818152602001838380828437600081840152601f19601f820116905080830192505050505050508561118d565b50610480565b61047f84846111bc565b5b7f6d67d0cde55eeae43dc9ea393402b7cf8249a8c18c2ee7f1d62a541f6104be1d8585856040516104b393929190611f0a565b60405180910390a15050505050565b6060600073ffffffffffffffffffffffffffffffffffffffff163373ffffffffffffffffffffffffffffffffffffffff1614610533576040517f08c379a000000000000000000000000000000000000000000000000000000000815260040161052a90611fba565b60405180910390fd5b6000600160009054906101000a900473ffffffffffffffffffffffffffffffffffffffff1690508073ffffffffffffffffffffffffffffffffffffffff1663f8fbccc26040518163ffffffff1660e01b8152600401600060405180830381600087803b1580156105a257600080fd5b505af11580156105b6573d6000803e3d6000fd5b505050506040513d6000823e3d601f19601f820116820180604052508101906105df91906117f6565b91505090565b600073ffffffffffffffffffffffffffffffffffffffff163373ffffffffffffffffffffffffffffffffffffffff1614610654576040517f08c379a000000000000000000000000000000000000000000000000000000000815260040161064b90611fba565b60405180910390fd5b6000600360009054906101000a900473ffffffffffffffffffffffffffffffffffffffff1690506000600460009054906101000a900473ffffffffffffffffffffffffffffffffffffffff16905060008173ffffffffffffffffffffffffffffffffffffffff1663524924798a6040518263ffffffff1660e01b81526004016106dd9190611eef565b60206040518083038186803b1580156106f557600080fd5b505afa158015610709573d6000803e3d6000fd5b505050506040513d601f19601f8201168201806040525081019061072d919061177e565b9050600073ffffffffffffffffffffffffffffffffffffffff168173ffffffffffffffffffffffffffffffffffffffff16141561079f576040517f08c379a00000000000000000000000000000000000000000000000000000000081526004016107969061209a565b60405180910390fd5b60008273ffffffffffffffffffffffffffffffffffffffff16635ddd786a83896040518363ffffffff1660e01b81526004016107dc929190611ea4565b60206040518083038186803b1580156107f457600080fd5b505afa158015610808573d6000803e3d6000fd5b505050506040513d601f19601f8201168201806040525081019061082c91906119c4565b90508373ffffffffffffffffffffffffffffffffffffffff16633d2b0e0d838a848a8a6040518663ffffffff1660e01b815260040161086f959493929190611dda565b600060405180830381600087803b15801561088957600080fd5b505af115801561089d573d6000803e3d6000fd5b505050507f3acb6d2ec29bf57d0f8b428409bebef6fd9fd916ceca8acba8ee2b14844edf4d828a8a846040516108d69493929190611e28565b60405180910390a150505050505050505050565b6108f26112b0565b73ffffffffffffffffffffffffffffffffffffffff16610910610972565b73ffffffffffffffffffffffffffffffffffffffff1614610966576040517f08c379a000000000000000000000000000000000000000000000000000000000815260040161095d9061205a565b60405180910390fd5b61097060006112b8565b565b60008060009054906101000a900473ffffffffffffffffffffffffffffffffffffffff16905090565b6109a36112b0565b73ffffffffffffffffffffffffffffffffffffffff166109c1610972565b73ffffffffffffffffffffffffffffffffffffffff1614610a17576040517f08c379a0000000000000000000000000000000000000000000000000000000008152600401610a0e9061205a565b60405180910390fd5b80600360006101000a81548173ffffffffffffffffffffffffffffffffffffffff021916908373ffffffffffffffffffffffffffffffffffffffff16021790555050565b600260009054906101000a900473ffffffffffffffffffffffffffffffffffffffff1681565b600034905080610a9282600c61137c565b14610ad2576040517f08c379a0000000000000000000000000000000000000000000000000000000008152600401610ac9906120ba565b60405180910390fd5b600060405180606001604052806000801b8152602001848152602001838152509050600581908060018154018082558091505060019003906000526020600020906003020160009091909190915060008201518160000155602082015181600101556040820151816002015550507f0d17de7ac88dca43fadf31da6f1a0170219e3b6e4a4565e43bdf62d8e3ca1beb338484604051610b7393929190611e6d565b60405180910390a1505050565b6000600460009054906101000a900473ffffffffffffffffffffffffffffffffffffffff16905060008173ffffffffffffffffffffffffffffffffffffffff16630cba53ea866040518263ffffffff1660e01b8152600401610be29190611d43565b60206040518083038186803b158015610bfa57600080fd5b505afa158015610c0e573d6000803e3d6000fd5b505050506040513d601f19601f82011682018060405250810190610c329190611860565b90506000801b811415610c7a576040517f08c379a0000000000000000000000000000000000000000000000000000000008152600401610c719061209a565b60405180910390fd5b600033905060008373ffffffffffffffffffffffffffffffffffffffff1663b19fa6ee88876040518363ffffffff1660e01b8152600401610cbc929190611ea4565b60206040518083038186803b158015610cd457600080fd5b505afa158015610ce8573d6000803e3d6000fd5b505050506040513d601f19601f82011682018060405250810190610d0c91906119c4565b905060006040518060600160405280858152602001888152602001838152509050600581908060018154018082558091505060019003906000526020600020906003020160009091909190915060008201518160000155602082015181600101556040820151816002015550506000600360009054906101000a900473ffffffffffffffffffffffffffffffffffffffff1690508073ffffffffffffffffffffffffffffffffffffffff1663025993488a868a6040518463ffffffff1660e01b8152600401610ddd93929190611da3565b600060405180830381600087803b158015610df757600080fd5b505af1158015610e0b573d6000803e3d6000fd5b505050507fc5c9c87ff65b88f4ac2e13898a4e26f85b9f8c9f4921913a704574a38a349e5689858a8a604051610e449493929190611d5e565b60405180910390a1505050505050505050565b610e5f6112b0565b73ffffffffffffffffffffffffffffffffffffffff16610e7d610972565b73ffffffffffffffffffffffffffffffffffffffff1614610ed3576040517f08c379a0000000000000000000000000000000000000000000000000000000008152600401610eca9061205a565b60405180910390fd5b600073ffffffffffffffffffffffffffffffffffffffff168173ffffffffffffffffffffffffffffffffffffffff161415610f43576040517f08c379a0000000000000000000000000000000000000000000000000000000008152600401610f3a90611f9a565b60405180910390fd5b610f4c816112b8565b50565b6060600260009054906101000a900473ffffffffffffffffffffffffffffffffffffffff1673ffffffffffffffffffffffffffffffffffffffff163373ffffffffffffffffffffffffffffffffffffffff1614610fe1576040517f08c379a0000000000000000000000000000000000000000000000000000000008152600401610fd89061203a565b60405180910390fd5b60006005805480602002602001604051908101604052809291908181526020016000905b828210156110555783829060005260206000209060030201604051806060016040529081600082015481526020016001820154815260200160028201548152505081526020019060010190611005565b50505050905060056000611069919061152f565b8091505090565b6110786112b0565b73ffffffffffffffffffffffffffffffffffffffff16611096610972565b73ffffffffffffffffffffffffffffffffffffffff16146110ec576040517f08c379a00000000000000000000000000000000000000000000000000000000081526004016110e39061205a565b60405180910390fd5b80600460006101000a81548173ffffffffffffffffffffffffffffffffffffffff021916908373ffffffffffffffffffffffffffffffffffffffff16021790555050565b6005818154811061114057600080fd5b90600052602060002090600302016000915090508060000154908060010154908060020154905083565b6000808273ffffffffffffffffffffffffffffffffffffffff163b119050919050565b60606111b3848484604051806060016040528060298152602001612814602991396113b4565b90509392505050565b804710156111ff576040517f08c379a00000000000000000000000000000000000000000000000000000000081526004016111f690611ffa565b60405180910390fd5b60008273ffffffffffffffffffffffffffffffffffffffff168260405161122590611d2e565b60006040518083038185875af1925050503d8060008114611262576040519150601f19603f3d011682016040523d82523d6000602084013e611267565b606091505b50509050806112ab576040517f08c379a00000000000000000000000000000000000000000000000000000000081526004016112a290611fda565b60405180910390fd5b505050565b600033905090565b60008060009054906101000a900473ffffffffffffffffffffffffffffffffffffffff169050816000806101000a81548173ffffffffffffffffffffffffffffffffffffffff021916908373ffffffffffffffffffffffffffffffffffffffff1602179055508173ffffffffffffffffffffffffffffffffffffffff168173ffffffffffffffffffffffffffffffffffffffff167f8be0079c531659141344cd1fd0a4f28419497f9722a3daafe3b4186f6b6457e060405160405180910390a35050565b60008082600a61138c919061222b565b90506000818561139c91906121a7565b905081816113aa9190612349565b9250505092915050565b6060824710156113f9576040517f08c379a00000000000000000000000000000000000000000000000000000000081526004016113f09061201a565b60405180910390fd5b6114028561116a565b611441576040517f08c379a00000000000000000000000000000000000000000000000000000000081526004016114389061207a565b60405180910390fd5b6000808673ffffffffffffffffffffffffffffffffffffffff16858760405161146a9190611d17565b60006040518083038185875af1925050503d80600081146114a7576040519150601f19603f3d011682016040523d82523d6000602084013e6114ac565b606091505b50915091506114bc8282866114c8565b92505050949350505050565b606083156114d857829050611528565b6000835111156114eb5782518084602001fd5b816040517f08c379a000000000000000000000000000000000000000000000000000000000815260040161151f9190611f78565b60405180910390fd5b9392505050565b50805460008255600302906000526020600020908101906115509190611553565b50565b5b8082111561157e576000808201600090556001820160009055600282016000905550600301611554565b5090565b6000611595611590846120ff565b6120da565b905080838252602082019050828560608602820111156115b457600080fd5b60005b858110156115e457816115ca88826116cb565b8452602084019350606083019250506001810190506115b7565b5050509392505050565b6000813590506115fd816127b7565b92915050565b600081519050611612816127b7565b92915050565b600081359050611627816127ce565b92915050565b600082601f83011261163e57600080fd5b815161164e848260208601611582565b91505092915050565b600081359050611666816127e5565b92915050565b60008151905061167b816127e5565b92915050565b60008083601f84011261169357600080fd5b8235905067ffffffffffffffff8111156116ac57600080fd5b6020830191508360018202830111156116c457600080fd5b9250929050565b6000606082840312156116dd57600080fd5b6116e760606120da565b905060006116f78482850161166c565b600083015250602061170b8482850161166c565b602083015250604061171f84828501611740565b60408301525092915050565b60008135905061173a816127fc565b92915050565b60008151905061174f816127fc565b92915050565b60006020828403121561176757600080fd5b6000611775848285016115ee565b91505092915050565b60006020828403121561179057600080fd5b600061179e84828501611603565b91505092915050565b6000806000606084860312156117bc57600080fd5b60006117ca868287016115ee565b93505060206117db86828701611657565b92505060406117ec8682870161172b565b9150509250925092565b60006020828403121561180857600080fd5b600082015167ffffffffffffffff81111561182257600080fd5b61182e8482850161162d565b91505092915050565b60006020828403121561184957600080fd5b600061185784828501611657565b91505092915050565b60006020828403121561187257600080fd5b60006118808482850161166c565b91505092915050565b6000806000806000608086880312156118a157600080fd5b60006118af88828901611657565b95505060206118c088828901611618565b94505060406118d18882890161172b565b935050606086013567ffffffffffffffff8111156118ee57600080fd5b6118fa88828901611681565b92509250509295509295909350565b60008060008060008060a0878903121561192257600080fd5b600061193089828a01611657565b965050602061194189828a01611657565b955050604061195289828a016115ee565b945050606061196389828a0161172b565b935050608087013567ffffffffffffffff81111561198057600080fd5b61198c89828a01611681565b92509250509295509295509295565b6000602082840312156119ad57600080fd5b60006119bb8482850161172b565b91505092915050565b6000602082840312156119d657600080fd5b60006119e484828501611740565b91505092915050565b60006119f98383611cb7565b60608301905092915050565b611a0e81612408565b82525050565b611a1d816123a3565b82525050565b6000611a2e8261213b565b611a388185612169565b9350611a438361212b565b8060005b83811015611a74578151611a5b88826119ed565b9750611a668361215c565b925050600181019050611a47565b5085935050505092915050565b611a8a816123c7565b82525050565b611a99816123c7565b82525050565b6000611aab838561217a565b9350611ab883858461243e565b611ac18361253e565b840190509392505050565b6000611ad782612146565b611ae1818561218b565b9350611af181856020860161244d565b80840191505092915050565b6000611b0882612151565b611b128185612196565b9350611b2281856020860161244d565b611b2b8161253e565b840191505092915050565b6000611b43602683612196565b9150611b4e8261255c565b604082019050919050565b6000611b66602283612196565b9150611b71826125ab565b604082019050919050565b6000611b89603a83612196565b9150611b94826125fa565b604082019050919050565b6000611bac601d83612196565b9150611bb782612649565b602082019050919050565b6000611bcf602683612196565b9150611bda82612672565b604082019050919050565b6000611bf2602183612196565b9150611bfd826126c1565b604082019050919050565b6000611c15602083612196565b9150611c2082612710565b602082019050919050565b6000611c3860008361218b565b9150611c4382612739565b600082019050919050565b6000611c5b601d83612196565b9150611c668261273c565b602082019050919050565b6000611c7e601883612196565b9150611c8982612765565b602082019050919050565b6000611ca1601183612196565b9150611cac8261278e565b602082019050919050565b606082016000820151611ccd6000850182611a81565b506020820151611ce06020850182611a81565b506040820151611cf36040850182611cf9565b50505050565b611d02816123f1565b82525050565b611d11816123f1565b82525050565b6000611d238284611acc565b915081905092915050565b6000611d3982611c2b565b9150819050919050565b6000602082019050611d586000830184611a14565b92915050565b6000608082019050611d736000830187611a14565b611d806020830186611a14565b611d8d6040830185611a90565b611d9a6060830184611d08565b95945050505050565b6000606082019050611db86000830186611a14565b611dc56020830185611a14565b611dd26040830184611d08565b949350505050565b6000608082019050611def6000830188611a14565b611dfc6020830187611a14565b611e096040830186611d08565b8181036060830152611e1c818486611a9f565b90509695505050505050565b6000608082019050611e3d6000830187611a14565b611e4a6020830186611a90565b611e576040830185611a14565b611e646060830184611d08565b95945050505050565b6000606082019050611e826000830186611a14565b611e8f6020830185611a90565b611e9c6040830184611d08565b949350505050565b6000604082019050611eb96000830185611a14565b611ec66020830184611d08565b9392505050565b60006020820190508181036000830152611ee78184611a23565b905092915050565b6000602082019050611f046000830184611a90565b92915050565b6000606082019050611f1f6000830186611a90565b611f2c6020830185611a05565b611f396040830184611d08565b949350505050565b6000606082019050611f566000830186611a90565b611f636020830185611a90565b611f706040830184611d08565b949350505050565b60006020820190508181036000830152611f928184611afd565b905092915050565b60006020820190508181036000830152611fb381611b36565b9050919050565b60006020820190508181036000830152611fd381611b59565b9050919050565b60006020820190508181036000830152611ff381611b7c565b9050919050565b6000602082019050818103600083015261201381611b9f565b9050919050565b6000602082019050818103600083015261203381611bc2565b9050919050565b6000602082019050818103600083015261205381611be5565b9050919050565b6000602082019050818103600083015261207381611c08565b9050919050565b6000602082019050818103600083015261209381611c4e565b9050919050565b600060208201905081810360008301526120b381611c71565b9050919050565b600060208201905081810360008301526120d381611c94565b9050919050565b60006120e46120f5565b90506120f08282612480565b919050565b6000604051905090565b600067ffffffffffffffff82111561211a5761211961250f565b5b602082029050602081019050919050565b6000819050602082019050919050565b600081519050919050565b600081519050919050565b600081519050919050565b6000602082019050919050565b600082825260208201905092915050565b600082825260208201905092915050565b600081905092915050565b600082825260208201905092915050565b60006121b2826123f1565b91506121bd836123f1565b9250826121cd576121cc6124e0565b5b828204905092915050565b6000808291508390505b6001851115612222578086048111156121fe576121fd6124b1565b5b600185161561220d5780820291505b808102905061221b8561254f565b94506121e2565b94509492505050565b6000612236826123f1565b9150612241836123fb565b925061226e7fffffffffffffffffffffffffffffffffffffffffffffffffffffffffffffffff8484612276565b905092915050565b6000826122865760019050612342565b816122945760009050612342565b81600181146122aa57600281146122b4576122e3565b6001915050612342565b60ff8411156122c6576122c56124b1565b5b8360020a9150848211156122dd576122dc6124b1565b5b50612342565b5060208310610133831016604e8410600b84101617156123185782820a905083811115612313576123126124b1565b5b612342565b61232584848460016121d8565b9250905081840481111561233c5761233b6124b1565b5b81810290505b9392505050565b6000612354826123f1565b915061235f836123f1565b9250817fffffffffffffffffffffffffffffffffffffffffffffffffffffffffffffffff0483118215151615612398576123976124b1565b5b828202905092915050565b60006123ae826123d1565b9050919050565b60006123c0826123d1565b9050919050565b6000819050919050565b600073ffffffffffffffffffffffffffffffffffffffff82169050919050565b6000819050919050565b600060ff82169050919050565b60006124138261241a565b9050919050565b60006124258261242c565b9050919050565b6000612437826123d1565b9050919050565b82818337600083830152505050565b60005b8381101561246b578082015181840152602081019050612450565b8381111561247a576000848401525b50505050565b6124898261253e565b810181811067ffffffffffffffff821117156124a8576124a761250f565b5b80604052505050565b7f4e487b7100000000000000000000000000000000000000000000000000000000600052601160045260246000fd5b7f4e487b7100000000000000000000000000000000000000000000000000000000600052601260045260246000fd5b7f4e487b7100000000000000000000000000000000000000000000000000000000600052604160045260246000fd5b6000601f19601f8301169050919050565b60008160011c9050919050565b7f4f776e61626c653a206e6577206f776e657220697320746865207a65726f206160008201527f6464726573730000000000000000000000000000000000000000000000000000602082015250565b7f4f6e6c792073797374656d2063616e2063616c6c20746869732066756e63746960008201527f6f6e000000000000000000000000000000000000000000000000000000000000602082015250565b7f416464726573733a20756e61626c6520746f2073656e642076616c75652c207260008201527f6563697069656e74206d61792068617665207265766572746564000000000000602082015250565b7f416464726573733a20696e73756666696369656e742062616c616e6365000000600082015250565b7f416464726573733a20696e73756666696369656e742062616c616e636520666f60008201527f722063616c6c0000000000000000000000000000000000000000000000000000602082015250565b7f4f6e6c792070726f78792063616e2063616c6c20746869732066756e6374696f60008201527f6e00000000000000000000000000000000000000000000000000000000000000602082015250565b7f4f776e61626c653a2063616c6c6572206973206e6f7420746865206f776e6572600082015250565b50565b7f416464726573733a2063616c6c20746f206e6f6e2d636f6e7472616374000000600082015250565b7f41737365742074797065206d7573742072656769737465640000000000000000600082015250565b7f6c6f77203132206d75737420626520302e000000000000000000000000000000600082015250565b6127c0816123a3565b81146127cb57600080fd5b50565b6127d7816123b5565b81146127e257600080fd5b50565b6127ee816123c7565b81146127f957600080fd5b50565b612805816123f1565b811461281057600080fd5b5056fe416464726573733a206c6f772d6c6576656c2063616c6c20776974682076616c7565206661696c6564a2646970667358221220765c058f5f28101456a93f179740f671b39bac25f8783790a34bdee98115c15a64736f6c63430008040033",
  "linkReferences": {},
  "deployedLinkReferences": {}
}