{
  "_format": "hh-sol-artifact-1",
  "contractName": "PrismXXLedger",
  "sourceName": "contracts/examples/PrismXXLedger.sol",
  "abi": [
    {
      "anonymous": false,
      "inputs": [
        {
          "indexed": false,
          "internalType": "uint8",
          "name": "version",
          "type": "uint8"
        }
      ],
      "name": "Initialized",
      "type": "event"
    },
    {
      "anonymous": false,
      "inputs": [
        {
          "indexed": true,
          "internalType": "address",
          "name": "previousOwner",
          "type": "address"
        },
        {
          "indexed": true,
          "internalType": "address",
          "name": "newOwner",
          "type": "address"
        }
      ],
      "name": "OwnershipTransferred",
      "type": "event"
    },
    {
      "inputs": [
        {
          "internalType": "address",
          "name": "_asset",
          "type": "address"
        }
      ],
      "name": "adminSetAsset",
      "outputs": [],
      "stateMutability": "nonpayable",
      "type": "function"
    },
    {
      "inputs": [
        {
          "internalType": "address",
          "name": "_bridge",
          "type": "address"
        }
      ],
      "name": "adminSetBridge",
      "outputs": [],
      "stateMutability": "nonpayable",
      "type": "function"
    },
    {
      "inputs": [],
      "name": "asset",
      "outputs": [
        {
          "internalType": "address",
          "name": "",
          "type": "address"
        }
      ],
      "stateMutability": "view",
      "type": "function"
    },
    {
      "inputs": [],
      "name": "bridge",
      "outputs": [
        {
          "internalType": "address",
          "name": "",
          "type": "address"
        }
      ],
      "stateMutability": "view",
      "type": "function"
    },
    {
      "inputs": [
        {
          "internalType": "address",
          "name": "addr",
          "type": "address"
        }
      ],
      "name": "computeERC20AssetType",
      "outputs": [
        {
          "internalType": "bytes32",
          "name": "",
          "type": "bytes32"
        }
      ],
      "stateMutability": "pure",
      "type": "function"
    },
    {
      "inputs": [
        {
          "internalType": "address",
          "name": "addr",
          "type": "address"
        },
        {
          "internalType": "uint256",
          "name": "tokenId",
          "type": "uint256"
        }
      ],
      "name": "computeNFTAssetType",
      "outputs": [
        {
          "internalType": "bytes32",
          "name": "",
          "type": "bytes32"
        }
      ],
      "stateMutability": "pure",
      "type": "function"
    },
    {
      "inputs": [
        {
          "internalType": "address",
          "name": "_addr",
          "type": "address"
        },
        {
          "internalType": "address",
          "name": "_target",
          "type": "address"
        },
        {
          "internalType": "uint256",
          "name": "_id",
          "type": "uint256"
        },
        {
          "internalType": "uint256",
          "name": "_amount",
          "type": "uint256"
        }
      ],
      "name": "depositFRC1155",
      "outputs": [],
      "stateMutability": "nonpayable",
      "type": "function"
    },
    {
      "inputs": [
        {
          "internalType": "address",
          "name": "_frc20",
          "type": "address"
        },
        {
          "internalType": "address",
          "name": "_target",
          "type": "address"
        },
        {
          "internalType": "uint256",
          "name": "_amount",
          "type": "uint256"
        }
      ],
      "name": "depositFRC20",
      "outputs": [],
      "stateMutability": "nonpayable",
      "type": "function"
    },
    {
      "inputs": [
        {
          "internalType": "address",
          "name": "_frc721",
          "type": "address"
        },
        {
          "internalType": "address",
          "name": "_target",
          "type": "address"
        },
        {
          "internalType": "uint256",
          "name": "tokenId",
          "type": "uint256"
        }
      ],
      "name": "depositFRC721",
      "outputs": [],
      "stateMutability": "nonpayable",
      "type": "function"
    },
    {
      "inputs": [
        {
          "internalType": "address",
          "name": "_bridge",
          "type": "address"
        },
        {
          "internalType": "address",
          "name": "_asset",
          "type": "address"
        }
      ],
      "name": "initialize",
      "outputs": [],
      "stateMutability": "nonpayable",
      "type": "function"
    },
    {
      "inputs": [
        {
          "internalType": "address",
          "name": "",
          "type": "address"
        },
        {
          "internalType": "address",
          "name": "",
          "type": "address"
        },
        {
          "internalType": "uint256[]",
          "name": "",
          "type": "uint256[]"
        },
        {
          "internalType": "uint256[]",
          "name": "",
          "type": "uint256[]"
        },
        {
          "internalType": "bytes",
          "name": "",
          "type": "bytes"
        }
      ],
      "name": "onERC1155BatchReceived",
      "outputs": [
        {
          "internalType": "bytes4",
          "name": "",
          "type": "bytes4"
        }
      ],
      "stateMutability": "nonpayable",
      "type": "function"
    },
    {
      "inputs": [
        {
          "internalType": "address",
          "name": "",
          "type": "address"
        },
        {
          "internalType": "address",
          "name": "",
          "type": "address"
        },
        {
          "internalType": "uint256",
          "name": "",
          "type": "uint256"
        },
        {
          "internalType": "uint256",
          "name": "",
          "type": "uint256"
        },
        {
          "internalType": "bytes",
          "name": "",
          "type": "bytes"
        }
      ],
      "name": "onERC1155Received",
      "outputs": [
        {
          "internalType": "bytes4",
          "name": "",
          "type": "bytes4"
        }
      ],
      "stateMutability": "nonpayable",
      "type": "function"
    },
    {
      "inputs": [
        {
          "internalType": "address",
          "name": "",
          "type": "address"
        },
        {
          "internalType": "address",
          "name": "",
          "type": "address"
        },
        {
          "internalType": "uint256",
          "name": "",
          "type": "uint256"
        },
        {
          "internalType": "bytes",
          "name": "",
          "type": "bytes"
        }
      ],
      "name": "onERC721Received",
      "outputs": [
        {
          "internalType": "bytes4",
          "name": "",
          "type": "bytes4"
        }
      ],
      "stateMutability": "nonpayable",
      "type": "function"
    },
    {
      "inputs": [],
      "name": "owner",
      "outputs": [
        {
          "internalType": "address",
          "name": "",
          "type": "address"
        }
      ],
      "stateMutability": "view",
      "type": "function"
    },
    {
      "inputs": [],
      "name": "renounceOwnership",
      "outputs": [],
      "stateMutability": "nonpayable",
      "type": "function"
    },
    {
      "inputs": [
        {
          "internalType": "bytes4",
          "name": "interfaceId",
          "type": "bytes4"
        }
      ],
      "name": "supportsInterface",
      "outputs": [
        {
          "internalType": "bool",
          "name": "",
          "type": "bool"
        }
      ],
      "stateMutability": "view",
      "type": "function"
    },
    {
      "inputs": [
        {
          "internalType": "address",
          "name": "newOwner",
          "type": "address"
        }
      ],
      "name": "transferOwnership",
      "outputs": [],
      "stateMutability": "nonpayable",
      "type": "function"
    },
    {
      "inputs": [
        {
          "internalType": "address",
          "name": "_addr",
          "type": "address"
        },
        {
          "internalType": "address",
          "name": "_target",
          "type": "address"
        },
        {
          "internalType": "uint256",
          "name": "_id",
          "type": "uint256"
        },
        {
          "internalType": "uint256",
          "name": "_amount",
          "type": "uint256"
        },
        {
          "internalType": "bytes",
          "name": "_data",
          "type": "bytes"
        }
      ],
      "name": "withdrawFRC1155",
      "outputs": [],
      "stateMutability": "nonpayable",
      "type": "function"
    },
    {
      "inputs": [
        {
          "internalType": "address",
          "name": "_frc20",
          "type": "address"
        },
        {
          "internalType": "address",
          "name": "_target",
          "type": "address"
        },
        {
          "internalType": "uint256",
          "name": "_amount",
          "type": "uint256"
        },
        {
          "internalType": "bytes",
          "name": "_data",
          "type": "bytes"
        }
      ],
      "name": "withdrawFRC20",
      "outputs": [],
      "stateMutability": "nonpayable",
      "type": "function"
    },
    {
      "inputs": [
        {
          "internalType": "address",
          "name": "_addr",
          "type": "address"
        },
        {
          "internalType": "address",
          "name": "_target",
          "type": "address"
        },
        {
          "internalType": "uint256",
          "name": "_id",
          "type": "uint256"
        },
        {
          "internalType": "bytes",
          "name": "_data",
          "type": "bytes"
        }
      ],
      "name": "withdrawFRC721",
      "outputs": [],
      "stateMutability": "nonpayable",
      "type": "function"
    }
  ],
  "bytecode": "0x608060405234801561001057600080fd5b50612631806100206000396000f3fe608060405234801561001057600080fd5b506004361061012c5760003560e01c8063554f103b116100ad578063d905b00911610071578063d905b00914610317578063e78cea9214610347578063f23a6e6114610365578063f2fde38b14610395578063fabeb158146103b15761012c565b8063554f103b1461028757806365321187146102a3578063715018a6146102bf5780638da5cb5b146102c9578063bc197c81146102e75761012c565b80631a5a143e116100f45780631a5a143e146101e557806338d52e0f146102015780633d2b0e0d1461021f5780633eb0edcf1461023b578063485cc9551461026b5761012c565b806301ffc9a714610131578063025993481461016157806303b5b1e71461017d578063150b7a021461019957806319a18ca0146101c9575b600080fd5b61014b60048036038101906101469190611c16565b6103cd565b6040516101589190611fdc565b60405180910390f35b61017b600480360381019061017691906118e3565b610447565b005b61019760048036038101906101929190611a2d565b610616565b005b6101b360048036038101906101ae91906119b2565b6106ed565b6040516101c09190612072565b60405180910390f35b6101e360048036038101906101de9190611a90565b610701565b005b6101ff60048036038101906101fa91906117bf565b6107de565b005b61020961082a565b6040516102169190611e5f565b60405180910390f35b61023960048036038101906102349190611932565b610850565b005b610255600480360381019061025091906117bf565b610a7d565b6040516102629190611ff7565b60405180910390f35b610285600480360381019061028091906117e8565b610ab3565b005b6102a1600480360381019061029c91906118e3565b610c7d565b005b6102bd60048036038101906102b89190611932565b610d51565b005b6102c7610e2b565b005b6102d1610e3f565b6040516102de9190611e5f565b60405180910390f35b61030160048036038101906102fc9190611824565b610e69565b60405161030e9190612072565b60405180910390f35b610331600480360381019061032c9190611bb1565b610e7e565b60405161033e9190611ff7565b60405180910390f35b61034f610eb7565b60405161035c9190611e5f565b60405180910390f35b61037f600480360381019061037a9190611b22565b610edd565b60405161038c9190612072565b60405180910390f35b6103af60048036038101906103aa91906117bf565b610ef2565b005b6103cb60048036038101906103c691906117bf565b610f76565b005b60007f4e2312e0000000000000000000000000000000000000000000000000000000007bffffffffffffffffffffffffffffffffffffffffffffffffffffffff1916827bffffffffffffffffffffffffffffffffffffffffffffffffffffffff19161480610440575061043f82610fc2565b5b9050919050565b606560009054906101000a900473ffffffffffffffffffffffffffffffffffffffff1673ffffffffffffffffffffffffffffffffffffffff163373ffffffffffffffffffffffffffffffffffffffff16146104a157600080fd5b6000606660009054906101000a900473ffffffffffffffffffffffffffffffffffffffff16905060006104d385610a7d565b90508173ffffffffffffffffffffffffffffffffffffffff16630404e3c5826040518263ffffffff1660e01b815260040161050e9190611ff7565b60206040518083038186803b15801561052657600080fd5b505afa15801561053a573d6000803e3d6000fd5b505050506040513d601f19601f8201168201806040525081019061055e9190611bed565b156105db5760008590508073ffffffffffffffffffffffffffffffffffffffff166379cc679086866040518363ffffffff1660e01b81526004016105a3929190611fb3565b600060405180830381600087803b1580156105bd57600080fd5b505af11580156105d1573d6000803e3d6000fd5b505050505061060f565b600085905061060d8530868473ffffffffffffffffffffffffffffffffffffffff1661102c909392919063ffffffff16565b505b5050505050565b606560009054906101000a900473ffffffffffffffffffffffffffffffffffffffff1673ffffffffffffffffffffffffffffffffffffffff163373ffffffffffffffffffffffffffffffffffffffff161461067057600080fd5b60008490508073ffffffffffffffffffffffffffffffffffffffff1663f242432a853086866040518563ffffffff1660e01b81526004016106b49493929190611f5b565b600060405180830381600087803b1580156106ce57600080fd5b505af11580156106e2573d6000803e3d6000fd5b505050505050505050565b600063150b7a0260e01b9050949350505050565b606560009054906101000a900473ffffffffffffffffffffffffffffffffffffffff1673ffffffffffffffffffffffffffffffffffffffff163373ffffffffffffffffffffffffffffffffffffffff161461075b57600080fd5b60008690508073ffffffffffffffffffffffffffffffffffffffff1663f242432a3088888888886040518763ffffffff1660e01b81526004016107a396959493929190611eff565b600060405180830381600087803b1580156107bd57600080fd5b505af11580156107d1573d6000803e3d6000fd5b5050505050505050505050565b6107e66110b5565b80606560006101000a81548173ffffffffffffffffffffffffffffffffffffffff021916908373ffffffffffffffffffffffffffffffffffffffff16021790555050565b606660009054906101000a900473ffffffffffffffffffffffffffffffffffffffff1681565b606560009054906101000a900473ffffffffffffffffffffffffffffffffffffffff1673ffffffffffffffffffffffffffffffffffffffff163373ffffffffffffffffffffffffffffffffffffffff16146108aa57600080fd5b6000606660009054906101000a900473ffffffffffffffffffffffffffffffffffffffff16905060006108dc87610a7d565b90508173ffffffffffffffffffffffffffffffffffffffff16630404e3c5826040518263ffffffff1660e01b81526004016109179190611ff7565b60206040518083038186803b15801561092f57600080fd5b505afa158015610943573d6000803e3d6000fd5b505050506040513d601f19601f820116820180604052508101906109679190611bed565b156109e45760008790508073ffffffffffffffffffffffffffffffffffffffff166340c10f1988886040518363ffffffff1660e01b81526004016109ac929190611fb3565b600060405180830381600087803b1580156109c657600080fd5b505af11580156109da573d6000803e3d6000fd5b5050505050610a16565b6000879050610a1487878373ffffffffffffffffffffffffffffffffffffffff166111339092919063ffffffff16565b505b610a1f866111b9565b15610a7457610a728685858080601f016020809104026020016040519081016040528093929190818152602001838380828437600081840152601f19601f820116905080830192505050505050506111dc565b505b50505050505050565b6000607760001b82604051602001610a96929190612012565b604051602081830303815290604052805190602001209050919050565b60008060019054906101000a900460ff16159050808015610ae45750600160008054906101000a900460ff1660ff16105b80610b115750610af330611226565b158015610b105750600160008054906101000a900460ff1660ff16145b5b610b50576040517f08c379a0000000000000000000000000000000000000000000000000000000008152600401610b479061210a565b60405180910390fd5b60016000806101000a81548160ff021916908360ff1602179055508015610b8d576001600060016101000a81548160ff0219169083151502179055505b82606560006101000a81548173ffffffffffffffffffffffffffffffffffffffff021916908373ffffffffffffffffffffffffffffffffffffffff16021790555081606660006101000a81548173ffffffffffffffffffffffffffffffffffffffff021916908373ffffffffffffffffffffffffffffffffffffffff160217905550610c17611249565b610c1f61129a565b8015610c785760008060016101000a81548160ff0219169083151502179055507f7f26b83ff96e1f2b6a682f133852f6798a09c465da95921460cefb38474024986001604051610c6f919061208d565b60405180910390a15b505050565b606560009054906101000a900473ffffffffffffffffffffffffffffffffffffffff1673ffffffffffffffffffffffffffffffffffffffff163373ffffffffffffffffffffffffffffffffffffffff1614610cd757600080fd5b60008390508073ffffffffffffffffffffffffffffffffffffffff166342842e0e8430856040518463ffffffff1660e01b8152600401610d1993929190611e7a565b600060405180830381600087803b158015610d3357600080fd5b505af1158015610d47573d6000803e3d6000fd5b5050505050505050565b606560009054906101000a900473ffffffffffffffffffffffffffffffffffffffff1673ffffffffffffffffffffffffffffffffffffffff163373ffffffffffffffffffffffffffffffffffffffff1614610dab57600080fd5b60008590508073ffffffffffffffffffffffffffffffffffffffff1663b88d4fde30878787876040518663ffffffff1660e01b8152600401610df1959493929190611eb1565b600060405180830381600087803b158015610e0b57600080fd5b505af1158015610e1f573d6000803e3d6000fd5b50505050505050505050565b610e336110b5565b610e3d60006112fb565b565b6000603360009054906101000a900473ffffffffffffffffffffffffffffffffffffffff16905090565b600063bc197c8160e01b905095945050505050565b6000600260001b8383604051602001610e999392919061203b565b60405160208183030381529060405280519060200120905092915050565b606560009054906101000a900473ffffffffffffffffffffffffffffffffffffffff1681565b600063f23a6e6160e01b905095945050505050565b610efa6110b5565b600073ffffffffffffffffffffffffffffffffffffffff168173ffffffffffffffffffffffffffffffffffffffff161415610f6a576040517f08c379a0000000000000000000000000000000000000000000000000000000008152600401610f61906120ca565b60405180910390fd5b610f73816112fb565b50565b610f7e6110b5565b80606660006101000a81548173ffffffffffffffffffffffffffffffffffffffff021916908373ffffffffffffffffffffffffffffffffffffffff16021790555050565b60007f01ffc9a7000000000000000000000000000000000000000000000000000000007bffffffffffffffffffffffffffffffffffffffffffffffffffffffff1916827bffffffffffffffffffffffffffffffffffffffffffffffffffffffff1916149050919050565b6110af846323b872dd60e01b85858560405160240161104d93929190611e7a565b604051602081830303815290604052907bffffffffffffffffffffffffffffffffffffffffffffffffffffffff19166020820180517bffffffffffffffffffffffffffffffffffffffffffffffffffffffff83818316178352505050506113c1565b50505050565b6110bd611488565b73ffffffffffffffffffffffffffffffffffffffff166110db610e3f565b73ffffffffffffffffffffffffffffffffffffffff1614611131576040517f08c379a00000000000000000000000000000000000000000000000000000000081526004016111289061212a565b60405180910390fd5b565b6111b48363a9059cbb60e01b8484604051602401611152929190611fb3565b604051602081830303815290604052907bffffffffffffffffffffffffffffffffffffffffffffffffffffffff19166020820180517bffffffffffffffffffffffffffffffffffffffffffffffffffffffff83818316178352505050506113c1565b505050565b6000808273ffffffffffffffffffffffffffffffffffffffff163b119050919050565b606061121e83836040518060400160405280601e81526020017f416464726573733a206c6f772d6c6576656c2063616c6c206661696c65640000815250611490565b905092915050565b6000808273ffffffffffffffffffffffffffffffffffffffff163b119050919050565b600060019054906101000a900460ff16611298576040517f08c379a000000000000000000000000000000000000000000000000000000000815260040161128f9061216a565b60405180910390fd5b565b600060019054906101000a900460ff166112e9576040517f08c379a00000000000000000000000000000000000000000000000000000000081526004016112e09061216a565b60405180910390fd5b6112f96112f4611488565b6112fb565b565b6000603360009054906101000a900473ffffffffffffffffffffffffffffffffffffffff16905081603360006101000a81548173ffffffffffffffffffffffffffffffffffffffff021916908373ffffffffffffffffffffffffffffffffffffffff1602179055508173ffffffffffffffffffffffffffffffffffffffff168173ffffffffffffffffffffffffffffffffffffffff167f8be0079c531659141344cd1fd0a4f28419497f9722a3daafe3b4186f6b6457e060405160405180910390a35050565b6000611423826040518060400160405280602081526020017f5361666545524332303a206c6f772d6c6576656c2063616c6c206661696c65648152508573ffffffffffffffffffffffffffffffffffffffff166114909092919063ffffffff16565b905060008151111561148357808060200190518101906114439190611bed565b611482576040517f08c379a00000000000000000000000000000000000000000000000000000000081526004016114799061218a565b60405180910390fd5b5b505050565b600033905090565b606061149f84846000856114a8565b90509392505050565b6060824710156114ed576040517f08c379a00000000000000000000000000000000000000000000000000000000081526004016114e4906120ea565b60405180910390fd5b6114f6856111b9565b611535576040517f08c379a000000000000000000000000000000000000000000000000000000000815260040161152c9061214a565b60405180910390fd5b6000808673ffffffffffffffffffffffffffffffffffffffff16858760405161155e9190611e48565b60006040518083038185875af1925050503d806000811461159b576040519150601f19603f3d011682016040523d82523d6000602084013e6115a0565b606091505b50915091506115b08282866115bc565b92505050949350505050565b606083156115cc5782905061161c565b6000835111156115df5782518084602001fd5b816040517f08c379a000000000000000000000000000000000000000000000000000000000815260040161161391906120a8565b60405180910390fd5b9392505050565b6000611636611631846121cf565b6121aa565b9050808382526020820190508285602086028201111561165557600080fd5b60005b85811015611685578161166b88826117aa565b845260208401935060208301925050600181019050611658565b5050509392505050565b60006116a261169d846121fb565b6121aa565b9050828152602081018484840111156116ba57600080fd5b6116c584828561230c565b509392505050565b6000813590506116dc8161259f565b92915050565b600082601f8301126116f357600080fd5b8135611703848260208601611623565b91505092915050565b60008151905061171b816125b6565b92915050565b600081359050611730816125cd565b92915050565b60008083601f84011261174857600080fd5b8235905067ffffffffffffffff81111561176157600080fd5b60208301915083600182028301111561177957600080fd5b9250929050565b600082601f83011261179157600080fd5b81356117a184826020860161168f565b91505092915050565b6000813590506117b9816125e4565b92915050565b6000602082840312156117d157600080fd5b60006117df848285016116cd565b91505092915050565b600080604083850312156117fb57600080fd5b6000611809858286016116cd565b925050602061181a858286016116cd565b9150509250929050565b600080600080600060a0868803121561183c57600080fd5b600061184a888289016116cd565b955050602061185b888289016116cd565b945050604086013567ffffffffffffffff81111561187857600080fd5b611884888289016116e2565b935050606086013567ffffffffffffffff8111156118a157600080fd5b6118ad888289016116e2565b925050608086013567ffffffffffffffff8111156118ca57600080fd5b6118d688828901611780565b9150509295509295909350565b6000806000606084860312156118f857600080fd5b6000611906868287016116cd565b9350506020611917868287016116cd565b9250506040611928868287016117aa565b9150509250925092565b60008060008060006080868803121561194a57600080fd5b6000611958888289016116cd565b9550506020611969888289016116cd565b945050604061197a888289016117aa565b935050606086013567ffffffffffffffff81111561199757600080fd5b6119a388828901611736565b92509250509295509295909350565b600080600080608085870312156119c857600080fd5b60006119d6878288016116cd565b94505060206119e7878288016116cd565b93505060406119f8878288016117aa565b925050606085013567ffffffffffffffff811115611a1557600080fd5b611a2187828801611780565b91505092959194509250565b60008060008060808587031215611a4357600080fd5b6000611a51878288016116cd565b9450506020611a62878288016116cd565b9350506040611a73878288016117aa565b9250506060611a84878288016117aa565b91505092959194509250565b60008060008060008060a08789031215611aa957600080fd5b6000611ab789828a016116cd565b9650506020611ac889828a016116cd565b9550506040611ad989828a016117aa565b9450506060611aea89828a016117aa565b935050608087013567ffffffffffffffff811115611b0757600080fd5b611b1389828a01611736565b92509250509295509295509295565b600080600080600060a08688031215611b3a57600080fd5b6000611b48888289016116cd565b9550506020611b59888289016116cd565b9450506040611b6a888289016117aa565b9350506060611b7b888289016117aa565b925050608086013567ffffffffffffffff811115611b9857600080fd5b611ba488828901611780565b9150509295509295909350565b60008060408385031215611bc457600080fd5b6000611bd2858286016116cd565b9250506020611be3858286016117aa565b9150509250929050565b600060208284031215611bff57600080fd5b6000611c0d8482850161170c565b91505092915050565b600060208284031215611c2857600080fd5b6000611c3684828501611721565b91505092915050565b611c488161226f565b82525050565b611c5781612281565b82525050565b611c668161228d565b82525050565b611c7581612297565b82525050565b6000611c878385612242565b9350611c9483858461230c565b611c9d836123ae565b840190509392505050565b6000611cb38261222c565b611cbd8185612253565b9350611ccd81856020860161231b565b80840191505092915050565b611ce2816122fa565b82525050565b6000611cf382612237565b611cfd818561225e565b9350611d0d81856020860161231b565b611d16816123ae565b840191505092915050565b6000611d2e60268361225e565b9150611d39826123bf565b604082019050919050565b6000611d5160268361225e565b9150611d5c8261240e565b604082019050919050565b6000611d74602e8361225e565b9150611d7f8261245d565b604082019050919050565b6000611d9760208361225e565b9150611da2826124ac565b602082019050919050565b6000611dba600083612242565b9150611dc5826124d5565b600082019050919050565b6000611ddd601d8361225e565b9150611de8826124d8565b602082019050919050565b6000611e00602b8361225e565b9150611e0b82612501565b604082019050919050565b6000611e23602a8361225e565b9150611e2e82612550565b604082019050919050565b611e42816122e3565b82525050565b6000611e548284611ca8565b915081905092915050565b6000602082019050611e746000830184611c3f565b92915050565b6000606082019050611e8f6000830186611c3f565b611e9c6020830185611c3f565b611ea96040830184611e39565b949350505050565b6000608082019050611ec66000830188611c3f565b611ed36020830187611c3f565b611ee06040830186611e39565b8181036060830152611ef3818486611c7b565b90509695505050505050565b600060a082019050611f146000830189611c3f565b611f216020830188611c3f565b611f2e6040830187611e39565b611f3b6060830186611e39565b8181036080830152611f4e818486611c7b565b9050979650505050505050565b600060a082019050611f706000830187611c3f565b611f7d6020830186611c3f565b611f8a6040830185611e39565b611f976060830184611e39565b8181036080830152611fa881611dad565b905095945050505050565b6000604082019050611fc86000830185611c3f565b611fd56020830184611e39565b9392505050565b6000602082019050611ff16000830184611c4e565b92915050565b600060208201905061200c6000830184611c5d565b92915050565b60006040820190506120276000830185611c5d565b6120346020830184611c3f565b9392505050565b60006060820190506120506000830186611c5d565b61205d6020830185611c3f565b61206a6040830184611e39565b949350505050565b60006020820190506120876000830184611c6c565b92915050565b60006020820190506120a26000830184611cd9565b92915050565b600060208201905081810360008301526120c28184611ce8565b905092915050565b600060208201905081810360008301526120e381611d21565b9050919050565b6000602082019050818103600083015261210381611d44565b9050919050565b6000602082019050818103600083015261212381611d67565b9050919050565b6000602082019050818103600083015261214381611d8a565b9050919050565b6000602082019050818103600083015261216381611dd0565b9050919050565b6000602082019050818103600083015261218381611df3565b9050919050565b600060208201905081810360008301526121a381611e16565b9050919050565b60006121b46121c5565b90506121c0828261234e565b919050565b6000604051905090565b600067ffffffffffffffff8211156121ea576121e961237f565b5b602082029050602081019050919050565b600067ffffffffffffffff8211156122165761221561237f565b5b61221f826123ae565b9050602081019050919050565b600081519050919050565b600081519050919050565b600082825260208201905092915050565b600081905092915050565b600082825260208201905092915050565b600061227a826122c3565b9050919050565b60008115159050919050565b6000819050919050565b60007fffffffff0000000000000000000000000000000000000000000000000000000082169050919050565b600073ffffffffffffffffffffffffffffffffffffffff82169050919050565b6000819050919050565b600060ff82169050919050565b6000612305826122ed565b9050919050565b82818337600083830152505050565b60005b8381101561233957808201518184015260208101905061231e565b83811115612348576000848401525b50505050565b612357826123ae565b810181811067ffffffffffffffff821117156123765761237561237f565b5b80604052505050565b7f4e487b7100000000000000000000000000000000000000000000000000000000600052604160045260246000fd5b6000601f19601f8301169050919050565b7f4f776e61626c653a206e6577206f776e657220697320746865207a65726f206160008201527f6464726573730000000000000000000000000000000000000000000000000000602082015250565b7f416464726573733a20696e73756666696369656e742062616c616e636520666f60008201527f722063616c6c0000000000000000000000000000000000000000000000000000602082015250565b7f496e697469616c697a61626c653a20636f6e747261637420697320616c72656160008201527f647920696e697469616c697a6564000000000000000000000000000000000000602082015250565b7f4f776e61626c653a2063616c6c6572206973206e6f7420746865206f776e6572600082015250565b50565b7f416464726573733a2063616c6c20746f206e6f6e2d636f6e7472616374000000600082015250565b7f496e697469616c697a61626c653a20636f6e7472616374206973206e6f74206960008201527f6e697469616c697a696e67000000000000000000000000000000000000000000602082015250565b7f5361666545524332303a204552433230206f7065726174696f6e20646964206e60008201527f6f74207375636365656400000000000000000000000000000000000000000000602082015250565b6125a88161226f565b81146125b357600080fd5b50565b6125bf81612281565b81146125ca57600080fd5b50565b6125d681612297565b81146125e157600080fd5b50565b6125ed816122e3565b81146125f857600080fd5b5056fea26469706673582212201ecbd9208d8617fbfe3fd4fe5a396738810ca75cb0f923b3f6e5682b8f1cd20c64736f6c63430008040033",
  "linkReferences": {},
  "deployedLinkReferences": {}
}