{
  "_format": "hh-sol-artifact-1",
  "contractName": "PrismXXBridge",
  "sourceName": "contracts/PrismXXBridge.sol",
  "abi": [
    {
      "inputs": [
        {
          "internalType": "address",
          "name": "_proxy_contract",
          "type": "address"
        }
      ],
      "stateMutability": "nonpayable",
      "type": "constructor"
    },
    {
      "anonymous": false,
      "inputs": [
        {
          "indexed": false,
          "internalType": "address",
          "name": "_from",
          "type": "address"
        },
        {
          "indexed": false,
          "internalType": "bytes32",
          "name": "_to",
          "type": "bytes32"
        },
        {
          "indexed": false,
          "internalType": "uint256",
          "name": "_amount",
          "type": "uint256"
        }
      ],
      "name": "DepositFRA",
      "type": "event"
    },
    {
      "anonymous": false,
      "inputs": [
        {
          "indexed": false,
          "internalType": "address",
          "name": "_frc20",
          "type": "address"
        },
        {
          "indexed": false,
          "internalType": "address",
          "name": "_from",
          "type": "address"
        },
        {
          "indexed": false,
          "internalType": "bytes32",
          "name": "_to",
          "type": "bytes32"
        },
        {
          "indexed": false,
          "internalType": "uint256",
          "name": "_amount",
          "type": "uint256"
        }
      ],
      "name": "DepositFRC20",
      "type": "event"
    },
    {
      "anonymous": false,
      "inputs": [
        {
          "indexed": true,
          "internalType": "address",
          "name": "previousOwner",
          "type": "address"
        },
        {
          "indexed": true,
          "internalType": "address",
          "name": "newOwner",
          "type": "address"
        }
      ],
      "name": "OwnershipTransferred",
      "type": "event"
    },
    {
      "anonymous": false,
      "inputs": [
        {
          "indexed": false,
          "internalType": "bytes32",
          "name": "_from",
          "type": "bytes32"
        },
        {
          "indexed": false,
          "internalType": "address",
          "name": "_to",
          "type": "address"
        },
        {
          "indexed": false,
          "internalType": "uint256",
          "name": "_amount",
          "type": "uint256"
        }
      ],
      "name": "WithdrawFRA",
      "type": "event"
    },
    {
      "anonymous": false,
      "inputs": [
        {
          "indexed": false,
          "internalType": "address",
          "name": "_frc20",
          "type": "address"
        },
        {
          "indexed": false,
          "internalType": "bytes32",
          "name": "_from",
          "type": "bytes32"
        },
        {
          "indexed": false,
          "internalType": "address",
          "name": "_to",
          "type": "address"
        },
        {
          "indexed": false,
          "internalType": "uint256",
          "name": "_amount",
          "type": "uint256"
        }
      ],
      "name": "WithdrawFRC20",
      "type": "event"
    },
    {
      "inputs": [],
      "name": "_consumeMint",
      "outputs": [
        {
          "components": [
            {
              "internalType": "bytes32",
              "name": "asset",
              "type": "bytes32"
            },
            {
              "internalType": "bytes32",
              "name": "receiver",
              "type": "bytes32"
            },
            {
              "internalType": "uint256",
              "name": "amount",
              "type": "uint256"
            }
          ],
          "internalType": "struct PrismXXBridge.MintOp[]",
          "name": "",
          "type": "tuple[]"
        }
      ],
      "stateMutability": "nonpayable",
      "type": "function"
    },
    {
      "inputs": [
        {
          "internalType": "bytes32",
          "name": "_from",
          "type": "bytes32"
        },
        {
          "internalType": "address payable",
          "name": "_to",
          "type": "address"
        },
        {
          "internalType": "uint256",
          "name": "_value",
          "type": "uint256"
        },
        {
          "internalType": "bytes",
          "name": "_data",
          "type": "bytes"
        }
      ],
      "name": "_withdrawFRA",
      "outputs": [],
      "stateMutability": "nonpayable",
      "type": "function"
    },
    {
      "inputs": [
        {
          "internalType": "bytes32",
          "name": "_asset",
          "type": "bytes32"
        },
        {
          "internalType": "bytes32",
          "name": "_from",
          "type": "bytes32"
        },
        {
          "internalType": "address",
          "name": "_to",
          "type": "address"
        },
        {
          "internalType": "uint256",
          "name": "_value",
          "type": "uint256"
        },
        {
          "internalType": "bytes",
          "name": "_data",
          "type": "bytes"
        }
      ],
      "name": "_withdrawFRC20",
      "outputs": [],
      "stateMutability": "nonpayable",
      "type": "function"
    },
    {
      "inputs": [
        {
          "internalType": "address",
          "name": "_asset_contract",
          "type": "address"
        }
      ],
      "name": "adminSetAsset",
      "outputs": [],
      "stateMutability": "nonpayable",
      "type": "function"
    },
    {
      "inputs": [
        {
          "internalType": "address",
          "name": "_ledger_contract",
          "type": "address"
        }
      ],
      "name": "adminSetLedger",
      "outputs": [],
      "stateMutability": "nonpayable",
      "type": "function"
    },
    {
      "inputs": [],
      "name": "asset_contract",
      "outputs": [
        {
          "internalType": "address",
          "name": "",
          "type": "address"
        }
      ],
      "stateMutability": "view",
      "type": "function"
    },
    {
      "inputs": [],
      "name": "consumeMint",
      "outputs": [
        {
          "components": [
            {
              "internalType": "bytes32",
              "name": "asset",
              "type": "bytes32"
            },
            {
              "internalType": "bytes32",
              "name": "receiver",
              "type": "bytes32"
            },
            {
              "internalType": "uint256",
              "name": "amount",
              "type": "uint256"
            }
          ],
          "internalType": "struct PrismXXBridge.MintOp[]",
          "name": "",
          "type": "tuple[]"
        }
      ],
      "stateMutability": "nonpayable",
      "type": "function"
    },
    {
      "inputs": [
        {
          "internalType": "bytes32",
          "name": "_to",
          "type": "bytes32"
        }
      ],
      "name": "depositFRA",
      "outputs": [],
      "stateMutability": "payable",
      "type": "function"
    },
    {
      "inputs": [
        {
          "internalType": "address",
          "name": "_frc20",
          "type": "address"
        },
        {
          "internalType": "bytes32",
          "name": "_to",
          "type": "bytes32"
        },
        {
          "internalType": "uint256",
          "name": "_value",
          "type": "uint256"
        }
      ],
      "name": "depositFRC20",
      "outputs": [],
      "stateMutability": "nonpayable",
      "type": "function"
    },
    {
      "inputs": [],
      "name": "ledger_contract",
      "outputs": [
        {
          "internalType": "address",
          "name": "",
          "type": "address"
        }
      ],
      "stateMutability": "view",
      "type": "function"
    },
    {
      "inputs": [
        {
          "internalType": "uint256",
          "name": "",
          "type": "uint256"
        }
      ],
      "name": "ops",
      "outputs": [
        {
          "internalType": "bytes32",
          "name": "asset",
          "type": "bytes32"
        },
        {
          "internalType": "bytes32",
          "name": "receiver",
          "type": "bytes32"
        },
        {
          "internalType": "uint256",
          "name": "amount",
          "type": "uint256"
        }
      ],
      "stateMutability": "view",
      "type": "function"
    },
    {
      "inputs": [],
      "name": "owner",
      "outputs": [
        {
          "internalType": "address",
          "name": "",
          "type": "address"
        }
      ],
      "stateMutability": "view",
      "type": "function"
    },
    {
      "inputs": [],
      "name": "proxy_contract",
      "outputs": [
        {
          "internalType": "address",
          "name": "",
          "type": "address"
        }
      ],
      "stateMutability": "view",
      "type": "function"
    },
    {
      "inputs": [],
      "name": "renounceOwnership",
      "outputs": [],
      "stateMutability": "nonpayable",
      "type": "function"
    },
    {
      "inputs": [
        {
          "internalType": "address",
          "name": "newOwner",
          "type": "address"
        }
      ],
      "name": "transferOwnership",
      "outputs": [],
      "stateMutability": "nonpayable",
      "type": "function"
    },
    {
      "inputs": [
        {
          "internalType": "bytes32",
          "name": "_from",
          "type": "bytes32"
        },
        {
          "internalType": "address payable",
          "name": "_to",
          "type": "address"
        },
        {
          "internalType": "uint256",
          "name": "_value",
          "type": "uint256"
        },
        {
          "internalType": "bytes",
          "name": "_data",
          "type": "bytes"
        }
      ],
      "name": "withdrawFRA",
      "outputs": [],
      "stateMutability": "nonpayable",
      "type": "function"
    },
    {
      "inputs": [
        {
          "internalType": "bytes32",
          "name": "_asset",
          "type": "bytes32"
        },
        {
          "internalType": "bytes32",
          "name": "_from",
          "type": "bytes32"
        },
        {
          "internalType": "address",
          "name": "_to",
          "type": "address"
        },
        {
          "internalType": "uint256",
          "name": "_value",
          "type": "uint256"
        },
        {
          "internalType": "bytes",
          "name": "_data",
          "type": "bytes"
        }
      ],
      "name": "withdrawFRC20",
      "outputs": [],
      "stateMutability": "nonpayable",
      "type": "function"
    }
  ],
  "bytecode": "0x608060405230600160006101000a81548173ffffffffffffffffffffffffffffffffffffffff021916908373ffffffffffffffffffffffffffffffffffffffff1602179055503480156200005257600080fd5b5060405162002e4738038062002e478339818101604052810190620000789190620001c3565b620000986200008c620000e060201b60201c565b620000e860201b60201c565b80600260006101000a81548173ffffffffffffffffffffffffffffffffffffffff021916908373ffffffffffffffffffffffffffffffffffffffff160217905550506200023d565b600033905090565b60008060009054906101000a900473ffffffffffffffffffffffffffffffffffffffff169050816000806101000a81548173ffffffffffffffffffffffffffffffffffffffff021916908373ffffffffffffffffffffffffffffffffffffffff1602179055508173ffffffffffffffffffffffffffffffffffffffff168173ffffffffffffffffffffffffffffffffffffffff167f8be0079c531659141344cd1fd0a4f28419497f9722a3daafe3b4186f6b6457e060405160405180910390a35050565b600081519050620001bd8162000223565b92915050565b600060208284031215620001d657600080fd5b6000620001e684828501620001ac565b91505092915050565b6000620001fc8262000203565b9050919050565b600073ffffffffffffffffffffffffffffffffffffffff82169050919050565b6200022e81620001ef565b81146200023a57600080fd5b50565b612bfa806200024d6000396000f3fe6080604052600436106100fe5760003560e01c8063b9322ce111610095578063f2260f7011610064578063f2260f70146102da578063f2fde38b14610303578063f8fbccc21461032c578063fabeb15814610357578063fdfd5d4c14610380576100fe565b8063b9322ce114610241578063d84e80381461026a578063de93811c14610295578063e6f2706d146102b1576100fe565b8063527799b0116100d1578063527799b0146101ad578063715018a6146101d65780637440a616146101ed5780638da5cb5b14610216576100fe565b8063044edb6f146101035780630505dce01461012e57806318bc9de614610159578063524f319814610182575b600080fd5b34801561010f57600080fd5b506101186103bf565b6040516101259190612021565b60405180910390f35b34801561013a57600080fd5b506101436103e5565b6040516101509190612021565b60405180910390f35b34801561016557600080fd5b50610180600480360381019061017b9190611b58565b61040b565b005b34801561018e57600080fd5b5061019761051c565b6040516101a491906121ab565b60405180910390f35b3480156101b957600080fd5b506101d460048036038101906101cf9190611bd8565b61063f565b005b3480156101e257600080fd5b506101eb610753565b005b3480156101f957600080fd5b50610214600480360381019061020f9190611bd8565b6107db565b005b34801561022257600080fd5b5061022b610b01565b6040516102389190612021565b60405180910390f35b34801561024d57600080fd5b5061026860048036038101906102639190611a24565b610b2a565b005b34801561027657600080fd5b5061027f610bea565b60405161028c9190612021565b60405180910390f35b6102af60048036038101906102aa9190611b06565b610c10565b005b3480156102bd57600080fd5b506102d860048036038101906102d39190611a76565b610d0f565b005b3480156102e657600080fd5b5061030160048036038101906102fc9190611b58565b610fe6565b005b34801561030f57600080fd5b5061032a60048036038101906103259190611a24565b611126565b005b34801561033857600080fd5b5061034161121e565b60405161034e91906121ab565b60405180910390f35b34801561036357600080fd5b5061037e60048036038101906103799190611a24565b61133f565b005b34801561038c57600080fd5b506103a760048036038101906103a29190611c6a565b6113ff565b6040516103b6939291906122c9565b60405180910390f35b600360009054906101000a900473ffffffffffffffffffffffffffffffffffffffff1681565b600460009054906101000a900473ffffffffffffffffffffffffffffffffffffffff1681565b600073ffffffffffffffffffffffffffffffffffffffff163373ffffffffffffffffffffffffffffffffffffffff161461047a576040517f08c379a000000000000000000000000000000000000000000000000000000000815260040161047190612342565b60405180910390fd5b6000600160009054906101000a900473ffffffffffffffffffffffffffffffffffffffff1690508073ffffffffffffffffffffffffffffffffffffffff1663f2260f7087878787876040518663ffffffff1660e01b81526004016104e295949392919061221f565b600060405180830381600087803b1580156104fc57600080fd5b505af1158015610510573d6000803e3d6000fd5b50505050505050505050565b6060600073ffffffffffffffffffffffffffffffffffffffff163373ffffffffffffffffffffffffffffffffffffffff161461058d576040517f08c379a000000000000000000000000000000000000000000000000000000000815260040161058490612342565b60405180910390fd5b6000600160009054906101000a900473ffffffffffffffffffffffffffffffffffffffff1690508073ffffffffffffffffffffffffffffffffffffffff1663f8fbccc26040518163ffffffff1660e01b8152600401600060405180830381600087803b1580156105fc57600080fd5b505af1158015610610573d6000803e3d6000fd5b505050506040513d6000823e3d601f19601f820116820180604052508101906106399190611ac5565b91505090565b600073ffffffffffffffffffffffffffffffffffffffff163373ffffffffffffffffffffffffffffffffffffffff16146106ae576040517f08c379a00000000000000000000000000000000000000000000000000000000081526004016106a590612342565b60405180910390fd5b6000600160009054906101000a900473ffffffffffffffffffffffffffffffffffffffff1690508073ffffffffffffffffffffffffffffffffffffffff16637440a6168888888888886040518763ffffffff1660e01b81526004016107189695949392919061226d565b600060405180830381600087803b15801561073257600080fd5b505af1158015610746573d6000803e3d6000fd5b5050505050505050505050565b61075b611439565b73ffffffffffffffffffffffffffffffffffffffff16610779610b01565b73ffffffffffffffffffffffffffffffffffffffff16146107cf576040517f08c379a00000000000000000000000000000000000000000000000000000000081526004016107c6906123e2565b60405180910390fd5b6107d96000611441565b565b600260009054906101000a900473ffffffffffffffffffffffffffffffffffffffff1673ffffffffffffffffffffffffffffffffffffffff163373ffffffffffffffffffffffffffffffffffffffff161461086b576040517f08c379a0000000000000000000000000000000000000000000000000000000008152600401610862906123c2565b60405180910390fd5b6000600360009054906101000a900473ffffffffffffffffffffffffffffffffffffffff1690506000600460009054906101000a900473ffffffffffffffffffffffffffffffffffffffff16905060008173ffffffffffffffffffffffffffffffffffffffff1663524924798a6040518263ffffffff1660e01b81526004016108f491906121cd565b60206040518083038186803b15801561090c57600080fd5b505afa158015610920573d6000803e3d6000fd5b505050506040513d601f19601f820116820180604052508101906109449190611a4d565b9050600073ffffffffffffffffffffffffffffffffffffffff168173ffffffffffffffffffffffffffffffffffffffff1614156109b6576040517f08c379a00000000000000000000000000000000000000000000000000000000081526004016109ad90612422565b60405180910390fd5b60008273ffffffffffffffffffffffffffffffffffffffff16635ddd786a83896040518363ffffffff1660e01b81526004016109f3929190612182565b60206040518083038186803b158015610a0b57600080fd5b505afa158015610a1f573d6000803e3d6000fd5b505050506040513d601f19601f82011682018060405250810190610a439190611c93565b90508373ffffffffffffffffffffffffffffffffffffffff16633d2b0e0d838a848a8a6040518663ffffffff1660e01b8152600401610a869594939291906120b8565b600060405180830381600087803b158015610aa057600080fd5b505af1158015610ab4573d6000803e3d6000fd5b505050507f3acb6d2ec29bf57d0f8b428409bebef6fd9fd916ceca8acba8ee2b14844edf4d828a8a84604051610aed9493929190612106565b60405180910390a150505050505050505050565b60008060009054906101000a900473ffffffffffffffffffffffffffffffffffffffff16905090565b610b32611439565b73ffffffffffffffffffffffffffffffffffffffff16610b50610b01565b73ffffffffffffffffffffffffffffffffffffffff1614610ba6576040517f08c379a0000000000000000000000000000000000000000000000000000000008152600401610b9d906123e2565b60405180910390fd5b80600360006101000a81548173ffffffffffffffffffffffffffffffffffffffff021916908373ffffffffffffffffffffffffffffffffffffffff16021790555050565b600260009054906101000a900473ffffffffffffffffffffffffffffffffffffffff1681565b600034905080610c2182600c611505565b14610c61576040517f08c379a0000000000000000000000000000000000000000000000000000000008152600401610c5890612442565b60405180910390fd5b600060405180606001604052806000801b8152602001848152602001838152509050600581908060018154018082558091505060019003906000526020600020906003020160009091909190915060008201518160000155602082015181600101556040820151816002015550507f0d17de7ac88dca43fadf31da6f1a0170219e3b6e4a4565e43bdf62d8e3ca1beb338484604051610d029392919061214b565b60405180910390a1505050565b6000600460009054906101000a900473ffffffffffffffffffffffffffffffffffffffff16905060008173ffffffffffffffffffffffffffffffffffffffff16630cba53ea866040518263ffffffff1660e01b8152600401610d719190612021565b60206040518083038186803b158015610d8957600080fd5b505afa158015610d9d573d6000803e3d6000fd5b505050506040513d601f19601f82011682018060405250810190610dc19190611b2f565b90506000801b811415610e09576040517f08c379a0000000000000000000000000000000000000000000000000000000008152600401610e0090612422565b60405180910390fd5b600033905060008373ffffffffffffffffffffffffffffffffffffffff1663b19fa6ee88876040518363ffffffff1660e01b8152600401610e4b929190612182565b60206040518083038186803b158015610e6357600080fd5b505afa158015610e77573d6000803e3d6000fd5b505050506040513d601f19601f82011682018060405250810190610e9b9190611c93565b905060006040518060600160405280858152602001888152602001838152509050600581908060018154018082558091505060019003906000526020600020906003020160009091909190915060008201518160000155602082015181600101556040820151816002015550506000600360009054906101000a900473ffffffffffffffffffffffffffffffffffffffff1690508073ffffffffffffffffffffffffffffffffffffffff1663025993488a868a6040518463ffffffff1660e01b8152600401610f6c93929190612081565b600060405180830381600087803b158015610f8657600080fd5b505af1158015610f9a573d6000803e3d6000fd5b505050507fc5c9c87ff65b88f4ac2e13898a4e26f85b9f8c9f4921913a704574a38a349e5689858a8a604051610fd3949392919061203c565b60405180910390a1505050505050505050565b600260009054906101000a900473ffffffffffffffffffffffffffffffffffffffff1673ffffffffffffffffffffffffffffffffffffffff163373ffffffffffffffffffffffffffffffffffffffff1614611076576040517f08c379a000000000000000000000000000000000000000000000000000000000815260040161106d906123c2565b60405180910390fd5b61107f8461153d565b156110d9576110d38483838080601f016020809104026020016040519081016040528093929190818152602001838380828437600081840152601f19601f8201169050808301925050505050505085611560565b506110e4565b6110e3848461158f565b5b7f6d67d0cde55eeae43dc9ea393402b7cf8249a8c18c2ee7f1d62a541f6104be1d858585604051611117939291906121e8565b60405180910390a15050505050565b61112e611439565b73ffffffffffffffffffffffffffffffffffffffff1661114c610b01565b73ffffffffffffffffffffffffffffffffffffffff16146111a2576040517f08c379a0000000000000000000000000000000000000000000000000000000008152600401611199906123e2565b60405180910390fd5b600073ffffffffffffffffffffffffffffffffffffffff168173ffffffffffffffffffffffffffffffffffffffff161415611212576040517f08c379a000000000000000000000000000000000000000000000000000000000815260040161120990612322565b60405180910390fd5b61121b81611441565b50565b6060600260009054906101000a900473ffffffffffffffffffffffffffffffffffffffff1673ffffffffffffffffffffffffffffffffffffffff163373ffffffffffffffffffffffffffffffffffffffff16146112b0576040517f08c379a00000000000000000000000000000000000000000000000000000000081526004016112a7906123c2565b60405180910390fd5b60006005805480602002602001604051908101604052809291908181526020016000905b8282101561132457838290600052602060002090600302016040518060600160405290816000820154815260200160018201548152602001600282015481525050815260200190600101906112d4565b5050505090506005600061133891906117fe565b8091505090565b611347611439565b73ffffffffffffffffffffffffffffffffffffffff16611365610b01565b73ffffffffffffffffffffffffffffffffffffffff16146113bb576040517f08c379a00000000000000000000000000000000000000000000000000000000081526004016113b2906123e2565b60405180910390fd5b80600460006101000a81548173ffffffffffffffffffffffffffffffffffffffff021916908373ffffffffffffffffffffffffffffffffffffffff16021790555050565b6005818154811061140f57600080fd5b90600052602060002090600302016000915090508060000154908060010154908060020154905083565b600033905090565b60008060009054906101000a900473ffffffffffffffffffffffffffffffffffffffff169050816000806101000a81548173ffffffffffffffffffffffffffffffffffffffff021916908373ffffffffffffffffffffffffffffffffffffffff1602179055508173ffffffffffffffffffffffffffffffffffffffff168173ffffffffffffffffffffffffffffffffffffffff167f8be0079c531659141344cd1fd0a4f28419497f9722a3daafe3b4186f6b6457e060405160405180910390a35050565b60008082600a61151591906125b3565b905060008185611525919061252f565b9050818161153391906126d1565b9250505092915050565b6000808273ffffffffffffffffffffffffffffffffffffffff163b119050919050565b6060611586848484604051806060016040528060298152602001612b9c60299139611683565b90509392505050565b804710156115d2576040517f08c379a00000000000000000000000000000000000000000000000000000000081526004016115c990612382565b60405180910390fd5b60008273ffffffffffffffffffffffffffffffffffffffff16826040516115f89061200c565b60006040518083038185875af1925050503d8060008114611635576040519150601f19603f3d011682016040523d82523d6000602084013e61163a565b606091505b505090508061167e576040517f08c379a000000000000000000000000000000000000000000000000000000000815260040161167590612362565b60405180910390fd5b505050565b6060824710156116c8576040517f08c379a00000000000000000000000000000000000000000000000000000000081526004016116bf906123a2565b60405180910390fd5b6116d18561153d565b611710576040517f08c379a000000000000000000000000000000000000000000000000000000000815260040161170790612402565b60405180910390fd5b6000808673ffffffffffffffffffffffffffffffffffffffff1685876040516117399190611ff5565b60006040518083038185875af1925050503d8060008114611776576040519150601f19603f3d011682016040523d82523d6000602084013e61177b565b606091505b509150915061178b828286611797565b92505050949350505050565b606083156117a7578290506117f7565b6000835111156117ba5782518084602001fd5b816040517f08c379a00000000000000000000000000000000000000000000000000000000081526004016117ee9190612300565b60405180910390fd5b9392505050565b508054600082556003029060005260206000209081019061181f9190611822565b50565b5b8082111561184d576000808201600090556001820160009055600282016000905550600301611823565b5090565b600061186461185f84612487565b612462565b9050808382526020820190508285606086028201111561188357600080fd5b60005b858110156118b35781611899888261199a565b845260208401935060608301925050600181019050611886565b5050509392505050565b6000813590506118cc81612b3f565b92915050565b6000815190506118e181612b3f565b92915050565b6000813590506118f681612b56565b92915050565b600082601f83011261190d57600080fd5b815161191d848260208601611851565b91505092915050565b60008135905061193581612b6d565b92915050565b60008151905061194a81612b6d565b92915050565b60008083601f84011261196257600080fd5b8235905067ffffffffffffffff81111561197b57600080fd5b60208301915083600182028301111561199357600080fd5b9250929050565b6000606082840312156119ac57600080fd5b6119b66060612462565b905060006119c68482850161193b565b60008301525060206119da8482850161193b565b60208301525060406119ee84828501611a0f565b60408301525092915050565b600081359050611a0981612b84565b92915050565b600081519050611a1e81612b84565b92915050565b600060208284031215611a3657600080fd5b6000611a44848285016118bd565b91505092915050565b600060208284031215611a5f57600080fd5b6000611a6d848285016118d2565b91505092915050565b600080600060608486031215611a8b57600080fd5b6000611a99868287016118bd565b9350506020611aaa86828701611926565b9250506040611abb868287016119fa565b9150509250925092565b600060208284031215611ad757600080fd5b600082015167ffffffffffffffff811115611af157600080fd5b611afd848285016118fc565b91505092915050565b600060208284031215611b1857600080fd5b6000611b2684828501611926565b91505092915050565b600060208284031215611b4157600080fd5b6000611b4f8482850161193b565b91505092915050565b600080600080600060808688031215611b7057600080fd5b6000611b7e88828901611926565b9550506020611b8f888289016118e7565b9450506040611ba0888289016119fa565b935050606086013567ffffffffffffffff811115611bbd57600080fd5b611bc988828901611950565b92509250509295509295909350565b60008060008060008060a08789031215611bf157600080fd5b6000611bff89828a01611926565b9650506020611c1089828a01611926565b9550506040611c2189828a016118bd565b9450506060611c3289828a016119fa565b935050608087013567ffffffffffffffff811115611c4f57600080fd5b611c5b89828a01611950565b92509250509295509295509295565b600060208284031215611c7c57600080fd5b6000611c8a848285016119fa565b91505092915050565b600060208284031215611ca557600080fd5b6000611cb384828501611a0f565b91505092915050565b6000611cc88383611f95565b60608301905092915050565b611cdd81612790565b82525050565b611cec8161273d565b82525050565b611cfb8161272b565b82525050565b6000611d0c826124c3565b611d1681856124f1565b9350611d21836124b3565b8060005b83811015611d52578151611d398882611cbc565b9750611d44836124e4565b925050600181019050611d25565b5085935050505092915050565b611d688161274f565b82525050565b611d778161274f565b82525050565b6000611d898385612502565b9350611d968385846127c6565b611d9f836128c6565b840190509392505050565b6000611db5826124ce565b611dbf8185612513565b9350611dcf8185602086016127d5565b80840191505092915050565b6000611de6826124d9565b611df0818561251e565b9350611e008185602086016127d5565b611e09816128c6565b840191505092915050565b6000611e2160268361251e565b9150611e2c826128e4565b604082019050919050565b6000611e4460228361251e565b9150611e4f82612933565b604082019050919050565b6000611e67603a8361251e565b9150611e7282612982565b604082019050919050565b6000611e8a601d8361251e565b9150611e95826129d1565b602082019050919050565b6000611ead60268361251e565b9150611eb8826129fa565b604082019050919050565b6000611ed060218361251e565b9150611edb82612a49565b604082019050919050565b6000611ef360208361251e565b9150611efe82612a98565b602082019050919050565b6000611f16600083612513565b9150611f2182612ac1565b600082019050919050565b6000611f39601d8361251e565b9150611f4482612ac4565b602082019050919050565b6000611f5c60188361251e565b9150611f6782612aed565b602082019050919050565b6000611f7f60118361251e565b9150611f8a82612b16565b602082019050919050565b606082016000820151611fab6000850182611d5f565b506020820151611fbe6020850182611d5f565b506040820151611fd16040850182611fd7565b50505050565b611fe081612779565b82525050565b611fef81612779565b82525050565b60006120018284611daa565b915081905092915050565b600061201782611f09565b9150819050919050565b60006020820190506120366000830184611cf2565b92915050565b60006080820190506120516000830187611cf2565b61205e6020830186611cf2565b61206b6040830185611d6e565b6120786060830184611fe6565b95945050505050565b60006060820190506120966000830186611cf2565b6120a36020830185611cf2565b6120b06040830184611fe6565b949350505050565b60006080820190506120cd6000830188611cf2565b6120da6020830187611cf2565b6120e76040830186611fe6565b81810360608301526120fa818486611d7d565b90509695505050505050565b600060808201905061211b6000830187611cf2565b6121286020830186611d6e565b6121356040830185611cf2565b6121426060830184611fe6565b95945050505050565b60006060820190506121606000830186611cf2565b61216d6020830185611d6e565b61217a6040830184611fe6565b949350505050565b60006040820190506121976000830185611cf2565b6121a46020830184611fe6565b9392505050565b600060208201905081810360008301526121c58184611d01565b905092915050565b60006020820190506121e26000830184611d6e565b92915050565b60006060820190506121fd6000830186611d6e565b61220a6020830185611cd4565b6122176040830184611fe6565b949350505050565b60006080820190506122346000830188611d6e565b6122416020830187611ce3565b61224e6040830186611fe6565b8181036060830152612261818486611d7d565b90509695505050505050565b600060a0820190506122826000830189611d6e565b61228f6020830188611d6e565b61229c6040830187611cf2565b6122a96060830186611fe6565b81810360808301526122bc818486611d7d565b9050979650505050505050565b60006060820190506122de6000830186611d6e565b6122eb6020830185611d6e565b6122f86040830184611fe6565b949350505050565b6000602082019050818103600083015261231a8184611ddb565b905092915050565b6000602082019050818103600083015261233b81611e14565b9050919050565b6000602082019050818103600083015261235b81611e37565b9050919050565b6000602082019050818103600083015261237b81611e5a565b9050919050565b6000602082019050818103600083015261239b81611e7d565b9050919050565b600060208201905081810360008301526123bb81611ea0565b9050919050565b600060208201905081810360008301526123db81611ec3565b9050919050565b600060208201905081810360008301526123fb81611ee6565b9050919050565b6000602082019050818103600083015261241b81611f2c565b9050919050565b6000602082019050818103600083015261243b81611f4f565b9050919050565b6000602082019050818103600083015261245b81611f72565b9050919050565b600061246c61247d565b90506124788282612808565b919050565b6000604051905090565b600067ffffffffffffffff8211156124a2576124a1612897565b5b602082029050602081019050919050565b6000819050602082019050919050565b600081519050919050565b600081519050919050565b600081519050919050565b6000602082019050919050565b600082825260208201905092915050565b600082825260208201905092915050565b600081905092915050565b600082825260208201905092915050565b600061253a82612779565b915061254583612779565b92508261255557612554612868565b5b828204905092915050565b6000808291508390505b60018511156125aa5780860481111561258657612585612839565b5b60018516156125955780820291505b80810290506125a3856128d7565b945061256a565b94509492505050565b60006125be82612779565b91506125c983612783565b92506125f67fffffffffffffffffffffffffffffffffffffffffffffffffffffffffffffffff84846125fe565b905092915050565b60008261260e57600190506126ca565b8161261c57600090506126ca565b8160018114612632576002811461263c5761266b565b60019150506126ca565b60ff84111561264e5761264d612839565b5b8360020a91508482111561266557612664612839565b5b506126ca565b5060208310610133831016604e8410600b84101617156126a05782820a90508381111561269b5761269a612839565b5b6126ca565b6126ad8484846001612560565b925090508184048111156126c4576126c3612839565b5b81810290505b9392505050565b60006126dc82612779565b91506126e783612779565b9250817fffffffffffffffffffffffffffffffffffffffffffffffffffffffffffffffff04831182151516156127205761271f612839565b5b828202905092915050565b600061273682612759565b9050919050565b600061274882612759565b9050919050565b6000819050919050565b600073ffffffffffffffffffffffffffffffffffffffff82169050919050565b6000819050919050565b600060ff82169050919050565b600061279b826127a2565b9050919050565b60006127ad826127b4565b9050919050565b60006127bf82612759565b9050919050565b82818337600083830152505050565b60005b838110156127f35780820151818401526020810190506127d8565b83811115612802576000848401525b50505050565b612811826128c6565b810181811067ffffffffffffffff821117156128305761282f612897565b5b80604052505050565b7f4e487b7100000000000000000000000000000000000000000000000000000000600052601160045260246000fd5b7f4e487b7100000000000000000000000000000000000000000000000000000000600052601260045260246000fd5b7f4e487b7100000000000000000000000000000000000000000000000000000000600052604160045260246000fd5b6000601f19601f8301169050919050565b60008160011c9050919050565b7f4f776e61626c653a206e6577206f776e657220697320746865207a65726f206160008201527f6464726573730000000000000000000000000000000000000000000000000000602082015250565b7f4f6e6c792073797374656d2063616e2063616c6c20746869732066756e63746960008201527f6f6e000000000000000000000000000000000000000000000000000000000000602082015250565b7f416464726573733a20756e61626c6520746f2073656e642076616c75652c207260008201527f6563697069656e74206d61792068617665207265766572746564000000000000602082015250565b7f416464726573733a20696e73756666696369656e742062616c616e6365000000600082015250565b7f416464726573733a20696e73756666696369656e742062616c616e636520666f60008201527f722063616c6c0000000000000000000000000000000000000000000000000000602082015250565b7f4f6e6c792070726f78792063616e2063616c6c20746869732066756e6374696f60008201527f6e00000000000000000000000000000000000000000000000000000000000000602082015250565b7f4f776e61626c653a2063616c6c6572206973206e6f7420746865206f776e6572600082015250565b50565b7f416464726573733a2063616c6c20746f206e6f6e2d636f6e7472616374000000600082015250565b7f41737365742074797065206d7573742072656769737465640000000000000000600082015250565b7f6c6f77203132206d75737420626520302e000000000000000000000000000000600082015250565b612b488161272b565b8114612b5357600080fd5b50565b612b5f8161273d565b8114612b6a57600080fd5b50565b612b768161274f565b8114612b8157600080fd5b50565b612b8d81612779565b8114612b9857600080fd5b5056fe416464726573733a206c6f772d6c6576656c2063616c6c20776974682076616c7565206661696c6564a2646970667358221220fa2d010f7c8e5a17aacd58f9cd4e44541c8d432de9b9b33932e65d6951d5d61664736f6c63430008040033",
  "linkReferences": {},
  "deployedLinkReferences": {}
}