{
  "_format": "hh-sol-artifact-1",
  "contractName": "PrismXXLedger",
  "sourceName": "contracts/examples/PrismXXLedger.sol",
  "abi": [
    {
      "anonymous": false,
      "inputs": [
        {
          "indexed": false,
          "internalType": "uint8",
          "name": "version",
          "type": "uint8"
        }
      ],
      "name": "Initialized",
      "type": "event"
    },
    {
      "anonymous": false,
      "inputs": [
        {
          "indexed": true,
          "internalType": "address",
          "name": "previousOwner",
          "type": "address"
        },
        {
          "indexed": true,
          "internalType": "address",
          "name": "newOwner",
          "type": "address"
        }
      ],
      "name": "OwnershipTransferred",
      "type": "event"
    },
    {
      "inputs": [
        {
          "internalType": "address",
          "name": "_asset",
          "type": "address"
        }
      ],
      "name": "adminSetAsset",
      "outputs": [],
      "stateMutability": "nonpayable",
      "type": "function"
    },
    {
      "inputs": [
        {
          "internalType": "address",
          "name": "_bridge",
          "type": "address"
        }
      ],
      "name": "adminSetBridge",
      "outputs": [],
      "stateMutability": "nonpayable",
      "type": "function"
    },
    {
      "inputs": [],
      "name": "asset",
      "outputs": [
        {
          "internalType": "address",
          "name": "",
          "type": "address"
        }
      ],
      "stateMutability": "view",
      "type": "function"
    },
    {
      "inputs": [],
      "name": "bridge",
      "outputs": [
        {
          "internalType": "address",
          "name": "",
          "type": "address"
        }
      ],
      "stateMutability": "view",
      "type": "function"
    },
    {
      "inputs": [
        {
          "internalType": "address",
          "name": "addr",
          "type": "address"
        }
      ],
      "name": "computeERC20AssetType",
      "outputs": [
        {
          "internalType": "bytes32",
          "name": "",
          "type": "bytes32"
        }
      ],
      "stateMutability": "pure",
      "type": "function"
    },
    {
      "inputs": [
        {
          "internalType": "address",
          "name": "addr",
          "type": "address"
        },
        {
          "internalType": "uint256",
          "name": "tokenId",
          "type": "uint256"
        }
      ],
      "name": "computeNFTAssetType",
      "outputs": [
        {
          "internalType": "bytes32",
          "name": "",
          "type": "bytes32"
        }
      ],
      "stateMutability": "pure",
      "type": "function"
    },
    {
      "inputs": [
        {
          "internalType": "address",
          "name": "_addr",
          "type": "address"
        },
        {
          "internalType": "address",
          "name": "_target",
          "type": "address"
        },
        {
          "internalType": "uint256",
          "name": "_id",
          "type": "uint256"
        },
        {
          "internalType": "uint256",
          "name": "_amount",
          "type": "uint256"
        }
      ],
      "name": "depositFRC1155",
      "outputs": [],
      "stateMutability": "nonpayable",
      "type": "function"
    },
    {
      "inputs": [
        {
          "internalType": "address",
          "name": "_frc20",
          "type": "address"
        },
        {
          "internalType": "address",
          "name": "_target",
          "type": "address"
        },
        {
          "internalType": "uint256",
          "name": "_amount",
          "type": "uint256"
        }
      ],
      "name": "depositFRC20",
      "outputs": [],
      "stateMutability": "nonpayable",
      "type": "function"
    },
    {
      "inputs": [
        {
          "internalType": "address",
          "name": "_frc721",
          "type": "address"
        },
        {
          "internalType": "address",
          "name": "_target",
          "type": "address"
        },
        {
          "internalType": "uint256",
          "name": "tokenId",
          "type": "uint256"
        }
      ],
      "name": "depositFRC721",
      "outputs": [],
      "stateMutability": "nonpayable",
      "type": "function"
    },
    {
      "inputs": [
        {
          "internalType": "address",
          "name": "_bridge",
          "type": "address"
        },
        {
          "internalType": "address",
          "name": "_asset",
          "type": "address"
        }
      ],
      "name": "initialize",
      "outputs": [],
      "stateMutability": "nonpayable",
      "type": "function"
    },
    {
      "inputs": [
        {
          "internalType": "address",
          "name": "",
          "type": "address"
        },
        {
          "internalType": "address",
          "name": "",
          "type": "address"
        },
        {
          "internalType": "uint256[]",
          "name": "",
          "type": "uint256[]"
        },
        {
          "internalType": "uint256[]",
          "name": "",
          "type": "uint256[]"
        },
        {
          "internalType": "bytes",
          "name": "",
          "type": "bytes"
        }
      ],
      "name": "onERC1155BatchReceived",
      "outputs": [
        {
          "internalType": "bytes4",
          "name": "",
          "type": "bytes4"
        }
      ],
      "stateMutability": "nonpayable",
      "type": "function"
    },
    {
      "inputs": [
        {
          "internalType": "address",
          "name": "",
          "type": "address"
        },
        {
          "internalType": "address",
          "name": "",
          "type": "address"
        },
        {
          "internalType": "uint256",
          "name": "",
          "type": "uint256"
        },
        {
          "internalType": "uint256",
          "name": "",
          "type": "uint256"
        },
        {
          "internalType": "bytes",
          "name": "",
          "type": "bytes"
        }
      ],
      "name": "onERC1155Received",
      "outputs": [
        {
          "internalType": "bytes4",
          "name": "",
          "type": "bytes4"
        }
      ],
      "stateMutability": "nonpayable",
      "type": "function"
    },
    {
      "inputs": [
        {
          "internalType": "address",
          "name": "",
          "type": "address"
        },
        {
          "internalType": "address",
          "name": "",
          "type": "address"
        },
        {
          "internalType": "uint256",
          "name": "",
          "type": "uint256"
        },
        {
          "internalType": "bytes",
          "name": "",
          "type": "bytes"
        }
      ],
      "name": "onERC721Received",
      "outputs": [
        {
          "internalType": "bytes4",
          "name": "",
          "type": "bytes4"
        }
      ],
      "stateMutability": "nonpayable",
      "type": "function"
    },
    {
      "inputs": [],
      "name": "owner",
      "outputs": [
        {
          "internalType": "address",
          "name": "",
          "type": "address"
        }
      ],
      "stateMutability": "view",
      "type": "function"
    },
    {
      "inputs": [],
      "name": "renounceOwnership",
      "outputs": [],
      "stateMutability": "nonpayable",
      "type": "function"
    },
    {
      "inputs": [
        {
          "internalType": "bytes4",
          "name": "interfaceId",
          "type": "bytes4"
        }
      ],
      "name": "supportsInterface",
      "outputs": [
        {
          "internalType": "bool",
          "name": "",
          "type": "bool"
        }
      ],
      "stateMutability": "view",
      "type": "function"
    },
    {
      "inputs": [
        {
          "internalType": "address",
          "name": "newOwner",
          "type": "address"
        }
      ],
      "name": "transferOwnership",
      "outputs": [],
      "stateMutability": "nonpayable",
      "type": "function"
    },
    {
      "inputs": [
        {
          "internalType": "address",
          "name": "_addr",
          "type": "address"
        },
        {
          "internalType": "address",
          "name": "_target",
          "type": "address"
        },
        {
          "internalType": "uint256",
          "name": "_id",
          "type": "uint256"
        },
        {
          "internalType": "uint256",
          "name": "_amount",
          "type": "uint256"
        },
        {
          "internalType": "bytes",
          "name": "_data",
          "type": "bytes"
        }
      ],
      "name": "withdrawFRC1155",
      "outputs": [],
      "stateMutability": "nonpayable",
      "type": "function"
    },
    {
      "inputs": [
        {
          "internalType": "address",
          "name": "_frc20",
          "type": "address"
        },
        {
          "internalType": "address",
          "name": "_target",
          "type": "address"
        },
        {
          "internalType": "uint256",
          "name": "_amount",
          "type": "uint256"
        },
        {
          "internalType": "bytes",
          "name": "_data",
          "type": "bytes"
        }
      ],
      "name": "withdrawFRC20",
      "outputs": [],
      "stateMutability": "nonpayable",
      "type": "function"
    },
    {
      "inputs": [
        {
          "internalType": "address",
          "name": "_addr",
          "type": "address"
        },
        {
          "internalType": "address",
          "name": "_target",
          "type": "address"
        },
        {
          "internalType": "uint256",
          "name": "_id",
          "type": "uint256"
        },
        {
          "internalType": "bytes",
          "name": "_data",
          "type": "bytes"
        }
      ],
      "name": "withdrawFRC721",
      "outputs": [],
      "stateMutability": "nonpayable",
      "type": "function"
    }
  ],
  "bytecode": "0x608060405234801561001057600080fd5b506124fd806100206000396000f3fe608060405234801561001057600080fd5b506004361061012c5760003560e01c8063554f103b116100ad578063d905b00911610071578063d905b00914610317578063e78cea9214610347578063f23a6e6114610365578063f2fde38b14610395578063fabeb158146103b15761012c565b8063554f103b1461028757806365321187146102a3578063715018a6146102bf5780638da5cb5b146102c9578063bc197c81146102e75761012c565b80631a5a143e116100f45780631a5a143e146101e557806338d52e0f146102015780633d2b0e0d1461021f5780633eb0edcf1461023b578063485cc9551461026b5761012c565b806301ffc9a714610131578063025993481461016157806303b5b1e71461017d578063150b7a021461019957806319a18ca0146101c9575b600080fd5b61014b60048036038101906101469190611b74565b6103cd565b6040516101589190611f17565b60405180910390f35b61017b60048036038101906101769190611841565b610447565b005b6101976004803603810190610192919061198b565b610618565b005b6101b360048036038101906101ae9190611910565b6106f0565b6040516101c09190611fad565b60405180910390f35b6101e360048036038101906101de91906119ee565b610704565b005b6101ff60048036038101906101fa919061171d565b6107e2565b005b61020961082f565b6040516102169190611d9a565b60405180910390f35b61023960048036038101906102349190611890565b610856565b005b6102556004803603810190610250919061171d565b610aba565b6040516102629190611f32565b60405180910390f35b61028560048036038101906102809190611746565b610af0565b005b6102a1600480360381019061029c9190611841565b610cac565b005b6102bd60048036038101906102b89190611890565b610d81565b005b6102c7610e5c565b005b6102d1610e70565b6040516102de9190611d9a565b60405180910390f35b61030160048036038101906102fc9190611782565b610e9a565b60405161030e9190611fad565b60405180910390f35b610331600480360381019061032c9190611b0f565b610eaf565b60405161033e9190611f32565b60405180910390f35b61034f610ee8565b60405161035c9190611d9a565b60405180910390f35b61037f600480360381019061037a9190611a80565b610f0f565b60405161038c9190611fad565b60405180910390f35b6103af60048036038101906103aa919061171d565b610f24565b005b6103cb60048036038101906103c6919061171d565b610fa8565b005b60007f4e2312e0000000000000000000000000000000000000000000000000000000007bffffffffffffffffffffffffffffffffffffffffffffffffffffffff1916827bffffffffffffffffffffffffffffffffffffffffffffffffffffffff19161480610440575061043f82610ff5565b5b9050919050565b61012d60009054906101000a900473ffffffffffffffffffffffffffffffffffffffff1673ffffffffffffffffffffffffffffffffffffffff163373ffffffffffffffffffffffffffffffffffffffff16146104a257600080fd5b600061012e60009054906101000a900473ffffffffffffffffffffffffffffffffffffffff16905060006104d585610aba565b90508173ffffffffffffffffffffffffffffffffffffffff16630404e3c5826040518263ffffffff1660e01b81526004016105109190611f32565b60206040518083038186803b15801561052857600080fd5b505afa15801561053c573d6000803e3d6000fd5b505050506040513d601f19601f820116820180604052508101906105609190611b4b565b156105dd5760008590508073ffffffffffffffffffffffffffffffffffffffff166379cc679086866040518363ffffffff1660e01b81526004016105a5929190611eee565b600060405180830381600087803b1580156105bf57600080fd5b505af11580156105d3573d6000803e3d6000fd5b5050505050610611565b600085905061060f8530868473ffffffffffffffffffffffffffffffffffffffff1661105f909392919063ffffffff16565b505b5050505050565b61012d60009054906101000a900473ffffffffffffffffffffffffffffffffffffffff1673ffffffffffffffffffffffffffffffffffffffff163373ffffffffffffffffffffffffffffffffffffffff161461067357600080fd5b60008490508073ffffffffffffffffffffffffffffffffffffffff1663f242432a853086866040518563ffffffff1660e01b81526004016106b79493929190611e96565b600060405180830381600087803b1580156106d157600080fd5b505af11580156106e5573d6000803e3d6000fd5b505050505050505050565b600063150b7a0260e01b9050949350505050565b61012d60009054906101000a900473ffffffffffffffffffffffffffffffffffffffff1673ffffffffffffffffffffffffffffffffffffffff163373ffffffffffffffffffffffffffffffffffffffff161461075f57600080fd5b60008690508073ffffffffffffffffffffffffffffffffffffffff1663f242432a3088888888886040518763ffffffff1660e01b81526004016107a796959493929190611e3a565b600060405180830381600087803b1580156107c157600080fd5b505af11580156107d5573d6000803e3d6000fd5b5050505050505050505050565b6107ea6110e8565b8061012d60006101000a81548173ffffffffffffffffffffffffffffffffffffffff021916908373ffffffffffffffffffffffffffffffffffffffff16021790555050565b61012e60009054906101000a900473ffffffffffffffffffffffffffffffffffffffff1681565b61012d60009054906101000a900473ffffffffffffffffffffffffffffffffffffffff1673ffffffffffffffffffffffffffffffffffffffff163373ffffffffffffffffffffffffffffffffffffffff16146108b157600080fd5b600061012e60009054906101000a900473ffffffffffffffffffffffffffffffffffffffff16905060006108e487610aba565b90508173ffffffffffffffffffffffffffffffffffffffff16630404e3c5826040518263ffffffff1660e01b815260040161091f9190611f32565b60206040518083038186803b15801561093757600080fd5b505afa15801561094b573d6000803e3d6000fd5b505050506040513d601f19601f8201168201806040525081019061096f9190611b4b565b156109ec5760008790508073ffffffffffffffffffffffffffffffffffffffff166340c10f1988886040518363ffffffff1660e01b81526004016109b4929190611eee565b600060405180830381600087803b1580156109ce57600080fd5b505af11580156109e2573d6000803e3d6000fd5b5050505050610a1e565b6000879050610a1c87878373ffffffffffffffffffffffffffffffffffffffff166111669092919063ffffffff16565b505b610a3d8673ffffffffffffffffffffffffffffffffffffffff166111ec565b15610ab157610aaf84848080601f016020809104026020016040519081016040528093929190818152602001838380828437600081840152601f19601f820116905080830192505050505050508773ffffffffffffffffffffffffffffffffffffffff1661120f90919063ffffffff16565b505b50505050505050565b6000607760001b82604051602001610ad3929190611f4d565b604051602081830303815290604052805190602001209050919050565b60008060019054906101000a900460ff16159050808015610b215750600160008054906101000a900460ff1660ff16105b80610b4e5750610b30306111ec565b158015610b4d5750600160008054906101000a900460ff1660ff16145b5b610b8d576040517f08c379a0000000000000000000000000000000000000000000000000000000008152600401610b8490612045565b60405180910390fd5b60016000806101000a81548160ff021916908360ff1602179055508015610bca576001600060016101000a81548160ff0219169083151502179055505b8261012d60006101000a81548173ffffffffffffffffffffffffffffffffffffffff021916908373ffffffffffffffffffffffffffffffffffffffff1602179055508161012e60006101000a81548173ffffffffffffffffffffffffffffffffffffffff021916908373ffffffffffffffffffffffffffffffffffffffff1602179055508015610ca75760008060016101000a81548160ff0219169083151502179055507f7f26b83ff96e1f2b6a682f133852f6798a09c465da95921460cefb38474024986001604051610c9e9190611fc8565b60405180910390a15b505050565b61012d60009054906101000a900473ffffffffffffffffffffffffffffffffffffffff1673ffffffffffffffffffffffffffffffffffffffff163373ffffffffffffffffffffffffffffffffffffffff1614610d0757600080fd5b60008390508073ffffffffffffffffffffffffffffffffffffffff166342842e0e8430856040518463ffffffff1660e01b8152600401610d4993929190611db5565b600060405180830381600087803b158015610d6357600080fd5b505af1158015610d77573d6000803e3d6000fd5b5050505050505050565b61012d60009054906101000a900473ffffffffffffffffffffffffffffffffffffffff1673ffffffffffffffffffffffffffffffffffffffff163373ffffffffffffffffffffffffffffffffffffffff1614610ddc57600080fd5b60008590508073ffffffffffffffffffffffffffffffffffffffff1663b88d4fde30878787876040518663ffffffff1660e01b8152600401610e22959493929190611dec565b600060405180830381600087803b158015610e3c57600080fd5b505af1158015610e50573d6000803e3d6000fd5b50505050505050505050565b610e646110e8565b610e6e6000611259565b565b6000603360009054906101000a900473ffffffffffffffffffffffffffffffffffffffff16905090565b600063bc197c8160e01b905095945050505050565b6000600260001b8383604051602001610eca93929190611f76565b60405160208183030381529060405280519060200120905092915050565b61012d60009054906101000a900473ffffffffffffffffffffffffffffffffffffffff1681565b600063f23a6e6160e01b905095945050505050565b610f2c6110e8565b600073ffffffffffffffffffffffffffffffffffffffff168173ffffffffffffffffffffffffffffffffffffffff161415610f9c576040517f08c379a0000000000000000000000000000000000000000000000000000000008152600401610f9390612005565b60405180910390fd5b610fa581611259565b50565b610fb06110e8565b8061012e60006101000a81548173ffffffffffffffffffffffffffffffffffffffff021916908373ffffffffffffffffffffffffffffffffffffffff16021790555050565b60007f01ffc9a7000000000000000000000000000000000000000000000000000000007bffffffffffffffffffffffffffffffffffffffffffffffffffffffff1916827bffffffffffffffffffffffffffffffffffffffffffffffffffffffff1916149050919050565b6110e2846323b872dd60e01b85858560405160240161108093929190611db5565b604051602081830303815290604052907bffffffffffffffffffffffffffffffffffffffffffffffffffffffff19166020820180517bffffffffffffffffffffffffffffffffffffffffffffffffffffffff838183161783525050505061131f565b50505050565b6110f06113e6565b73ffffffffffffffffffffffffffffffffffffffff1661110e610e70565b73ffffffffffffffffffffffffffffffffffffffff1614611164576040517f08c379a000000000000000000000000000000000000000000000000000000000815260040161115b90612065565b60405180910390fd5b565b6111e78363a9059cbb60e01b8484604051602401611185929190611eee565b604051602081830303815290604052907bffffffffffffffffffffffffffffffffffffffffffffffffffffffff19166020820180517bffffffffffffffffffffffffffffffffffffffffffffffffffffffff838183161783525050505061131f565b505050565b6000808273ffffffffffffffffffffffffffffffffffffffff163b119050919050565b606061125183836040518060400160405280601e81526020017f416464726573733a206c6f772d6c6576656c2063616c6c206661696c656400008152506113ee565b905092915050565b6000603360009054906101000a900473ffffffffffffffffffffffffffffffffffffffff16905081603360006101000a81548173ffffffffffffffffffffffffffffffffffffffff021916908373ffffffffffffffffffffffffffffffffffffffff1602179055508173ffffffffffffffffffffffffffffffffffffffff168173ffffffffffffffffffffffffffffffffffffffff167f8be0079c531659141344cd1fd0a4f28419497f9722a3daafe3b4186f6b6457e060405160405180910390a35050565b6000611381826040518060400160405280602081526020017f5361666545524332303a206c6f772d6c6576656c2063616c6c206661696c65648152508573ffffffffffffffffffffffffffffffffffffffff166113ee9092919063ffffffff16565b90506000815111156113e157808060200190518101906113a19190611b4b565b6113e0576040517f08c379a00000000000000000000000000000000000000000000000000000000081526004016113d7906120a5565b60405180910390fd5b5b505050565b600033905090565b60606113fd8484600085611406565b90509392505050565b60608247101561144b576040517f08c379a000000000000000000000000000000000000000000000000000000000815260040161144290612025565b60405180910390fd5b611454856111ec565b611493576040517f08c379a000000000000000000000000000000000000000000000000000000000815260040161148a90612085565b60405180910390fd5b6000808673ffffffffffffffffffffffffffffffffffffffff1685876040516114bc9190611d83565b60006040518083038185875af1925050503d80600081146114f9576040519150601f19603f3d011682016040523d82523d6000602084013e6114fe565b606091505b509150915061150e82828661151a565b92505050949350505050565b6060831561152a5782905061157a565b60008351111561153d5782518084602001fd5b816040517f08c379a00000000000000000000000000000000000000000000000000000000081526004016115719190611fe3565b60405180910390fd5b9392505050565b600061159461158f846120ea565b6120c5565b905080838252602082019050828560208602820111156115b357600080fd5b60005b858110156115e357816115c98882611708565b8452602084019350602083019250506001810190506115b6565b5050509392505050565b60006116006115fb84612116565b6120c5565b90508281526020810184848401111561161857600080fd5b611623848285612227565b509392505050565b60008135905061163a8161246b565b92915050565b600082601f83011261165157600080fd5b8135611661848260208601611581565b91505092915050565b60008151905061167981612482565b92915050565b60008135905061168e81612499565b92915050565b60008083601f8401126116a657600080fd5b8235905067ffffffffffffffff8111156116bf57600080fd5b6020830191508360018202830111156116d757600080fd5b9250929050565b600082601f8301126116ef57600080fd5b81356116ff8482602086016115ed565b91505092915050565b600081359050611717816124b0565b92915050565b60006020828403121561172f57600080fd5b600061173d8482850161162b565b91505092915050565b6000806040838503121561175957600080fd5b60006117678582860161162b565b92505060206117788582860161162b565b9150509250929050565b600080600080600060a0868803121561179a57600080fd5b60006117a88882890161162b565b95505060206117b98882890161162b565b945050604086013567ffffffffffffffff8111156117d657600080fd5b6117e288828901611640565b935050606086013567ffffffffffffffff8111156117ff57600080fd5b61180b88828901611640565b925050608086013567ffffffffffffffff81111561182857600080fd5b611834888289016116de565b9150509295509295909350565b60008060006060848603121561185657600080fd5b60006118648682870161162b565b93505060206118758682870161162b565b925050604061188686828701611708565b9150509250925092565b6000806000806000608086880312156118a857600080fd5b60006118b68882890161162b565b95505060206118c78882890161162b565b94505060406118d888828901611708565b935050606086013567ffffffffffffffff8111156118f557600080fd5b61190188828901611694565b92509250509295509295909350565b6000806000806080858703121561192657600080fd5b60006119348782880161162b565b94505060206119458782880161162b565b935050604061195687828801611708565b925050606085013567ffffffffffffffff81111561197357600080fd5b61197f878288016116de565b91505092959194509250565b600080600080608085870312156119a157600080fd5b60006119af8782880161162b565b94505060206119c08782880161162b565b93505060406119d187828801611708565b92505060606119e287828801611708565b91505092959194509250565b60008060008060008060a08789031215611a0757600080fd5b6000611a1589828a0161162b565b9650506020611a2689828a0161162b565b9550506040611a3789828a01611708565b9450506060611a4889828a01611708565b935050608087013567ffffffffffffffff811115611a6557600080fd5b611a7189828a01611694565b92509250509295509295509295565b600080600080600060a08688031215611a9857600080fd5b6000611aa68882890161162b565b9550506020611ab78882890161162b565b9450506040611ac888828901611708565b9350506060611ad988828901611708565b925050608086013567ffffffffffffffff811115611af657600080fd5b611b02888289016116de565b9150509295509295909350565b60008060408385031215611b2257600080fd5b6000611b308582860161162b565b9250506020611b4185828601611708565b9150509250929050565b600060208284031215611b5d57600080fd5b6000611b6b8482850161166a565b91505092915050565b600060208284031215611b8657600080fd5b6000611b948482850161167f565b91505092915050565b611ba68161218a565b82525050565b611bb58161219c565b82525050565b611bc4816121a8565b82525050565b611bd3816121b2565b82525050565b6000611be5838561215d565b9350611bf2838584612227565b611bfb836122c9565b840190509392505050565b6000611c1182612147565b611c1b818561216e565b9350611c2b818560208601612236565b80840191505092915050565b611c4081612215565b82525050565b6000611c5182612152565b611c5b8185612179565b9350611c6b818560208601612236565b611c74816122c9565b840191505092915050565b6000611c8c602683612179565b9150611c97826122da565b604082019050919050565b6000611caf602683612179565b9150611cba82612329565b604082019050919050565b6000611cd2602e83612179565b9150611cdd82612378565b604082019050919050565b6000611cf5602083612179565b9150611d00826123c7565b602082019050919050565b6000611d1860008361215d565b9150611d23826123f0565b600082019050919050565b6000611d3b601d83612179565b9150611d46826123f3565b602082019050919050565b6000611d5e602a83612179565b9150611d698261241c565b604082019050919050565b611d7d816121fe565b82525050565b6000611d8f8284611c06565b915081905092915050565b6000602082019050611daf6000830184611b9d565b92915050565b6000606082019050611dca6000830186611b9d565b611dd76020830185611b9d565b611de46040830184611d74565b949350505050565b6000608082019050611e016000830188611b9d565b611e0e6020830187611b9d565b611e1b6040830186611d74565b8181036060830152611e2e818486611bd9565b90509695505050505050565b600060a082019050611e4f6000830189611b9d565b611e5c6020830188611b9d565b611e696040830187611d74565b611e766060830186611d74565b8181036080830152611e89818486611bd9565b9050979650505050505050565b600060a082019050611eab6000830187611b9d565b611eb86020830186611b9d565b611ec56040830185611d74565b611ed26060830184611d74565b8181036080830152611ee381611d0b565b905095945050505050565b6000604082019050611f036000830185611b9d565b611f106020830184611d74565b9392505050565b6000602082019050611f2c6000830184611bac565b92915050565b6000602082019050611f476000830184611bbb565b92915050565b6000604082019050611f626000830185611bbb565b611f6f6020830184611b9d565b9392505050565b6000606082019050611f8b6000830186611bbb565b611f986020830185611b9d565b611fa56040830184611d74565b949350505050565b6000602082019050611fc26000830184611bca565b92915050565b6000602082019050611fdd6000830184611c37565b92915050565b60006020820190508181036000830152611ffd8184611c46565b905092915050565b6000602082019050818103600083015261201e81611c7f565b9050919050565b6000602082019050818103600083015261203e81611ca2565b9050919050565b6000602082019050818103600083015261205e81611cc5565b9050919050565b6000602082019050818103600083015261207e81611ce8565b9050919050565b6000602082019050818103600083015261209e81611d2e565b9050919050565b600060208201905081810360008301526120be81611d51565b9050919050565b60006120cf6120e0565b90506120db8282612269565b919050565b6000604051905090565b600067ffffffffffffffff8211156121055761210461229a565b5b602082029050602081019050919050565b600067ffffffffffffffff8211156121315761213061229a565b5b61213a826122c9565b9050602081019050919050565b600081519050919050565b600081519050919050565b600082825260208201905092915050565b600081905092915050565b600082825260208201905092915050565b6000612195826121de565b9050919050565b60008115159050919050565b6000819050919050565b60007fffffffff0000000000000000000000000000000000000000000000000000000082169050919050565b600073ffffffffffffffffffffffffffffffffffffffff82169050919050565b6000819050919050565b600060ff82169050919050565b600061222082612208565b9050919050565b82818337600083830152505050565b60005b83811015612254578082015181840152602081019050612239565b83811115612263576000848401525b50505050565b612272826122c9565b810181811067ffffffffffffffff821117156122915761229061229a565b5b80604052505050565b7f4e487b7100000000000000000000000000000000000000000000000000000000600052604160045260246000fd5b6000601f19601f8301169050919050565b7f4f776e61626c653a206e6577206f776e657220697320746865207a65726f206160008201527f6464726573730000000000000000000000000000000000000000000000000000602082015250565b7f416464726573733a20696e73756666696369656e742062616c616e636520666f60008201527f722063616c6c0000000000000000000000000000000000000000000000000000602082015250565b7f496e697469616c697a61626c653a20636f6e747261637420697320616c72656160008201527f647920696e697469616c697a6564000000000000000000000000000000000000602082015250565b7f4f776e61626c653a2063616c6c6572206973206e6f7420746865206f776e6572600082015250565b50565b7f416464726573733a2063616c6c20746f206e6f6e2d636f6e7472616374000000600082015250565b7f5361666545524332303a204552433230206f7065726174696f6e20646964206e60008201527f6f74207375636365656400000000000000000000000000000000000000000000602082015250565b6124748161218a565b811461247f57600080fd5b50565b61248b8161219c565b811461249657600080fd5b50565b6124a2816121b2565b81146124ad57600080fd5b50565b6124b9816121fe565b81146124c457600080fd5b5056fea2646970667358221220ce9f0e59b2230e9f2dbe2e9b7317548ebc6a25ce9b1556454e42a81c1ad62b5264736f6c63430008040033",
  "linkReferences": {},
  "deployedLinkReferences": {}
}