{
  "_format": "hh-sol-artifact-1",
  "contractName": "PrismXXBridge",
  "sourceName": "contracts/PrismXXBridge.sol",
  "abi": [
    {
      "inputs": [
        {
          "internalType": "address",
          "name": "_proxy_contract",
          "type": "address"
        }
      ],
      "stateMutability": "nonpayable",
      "type": "constructor"
    },
    {
      "anonymous": false,
      "inputs": [
        {
          "indexed": false,
          "internalType": "address",
          "name": "_from",
          "type": "address"
        },
        {
          "indexed": false,
          "internalType": "bytes32",
          "name": "_to",
          "type": "bytes32"
        },
        {
          "indexed": false,
          "internalType": "uint256",
          "name": "_amount",
          "type": "uint256"
        }
      ],
      "name": "DepositFRA",
      "type": "event"
    },
    {
      "anonymous": false,
      "inputs": [
        {
          "indexed": false,
          "internalType": "address",
          "name": "_addr",
          "type": "address"
        },
        {
          "indexed": false,
          "internalType": "address",
          "name": "_from",
          "type": "address"
        },
        {
          "indexed": false,
          "internalType": "bytes32",
          "name": "_to",
          "type": "bytes32"
        },
        {
          "indexed": false,
          "internalType": "uint256",
          "name": "_id",
          "type": "uint256"
        },
        {
          "indexed": false,
          "internalType": "uint256",
          "name": "amount",
          "type": "uint256"
        }
      ],
      "name": "DepositFRC1155",
      "type": "event"
    },
    {
      "anonymous": false,
      "inputs": [
        {
          "indexed": false,
          "internalType": "address",
          "name": "_frc20",
          "type": "address"
        },
        {
          "indexed": false,
          "internalType": "address",
          "name": "_from",
          "type": "address"
        },
        {
          "indexed": false,
          "internalType": "bytes32",
          "name": "_to",
          "type": "bytes32"
        },
        {
          "indexed": false,
          "internalType": "uint256",
          "name": "_amount",
          "type": "uint256"
        }
      ],
      "name": "DepositFRC20",
      "type": "event"
    },
    {
      "anonymous": false,
      "inputs": [
        {
          "indexed": false,
          "internalType": "address",
          "name": "_addr",
          "type": "address"
        },
        {
          "indexed": false,
          "internalType": "address",
          "name": "_from",
          "type": "address"
        },
        {
          "indexed": false,
          "internalType": "bytes32",
          "name": "_to",
          "type": "bytes32"
        },
        {
          "indexed": false,
          "internalType": "uint256",
          "name": "_id",
          "type": "uint256"
        }
      ],
      "name": "DepositFRC721",
      "type": "event"
    },
    {
      "anonymous": false,
      "inputs": [
        {
          "indexed": true,
          "internalType": "address",
          "name": "previousOwner",
          "type": "address"
        },
        {
          "indexed": true,
          "internalType": "address",
          "name": "newOwner",
          "type": "address"
        }
      ],
      "name": "OwnershipTransferred",
      "type": "event"
    },
    {
      "anonymous": false,
      "inputs": [
        {
          "indexed": false,
          "internalType": "bytes32",
          "name": "_from",
          "type": "bytes32"
        },
        {
          "indexed": false,
          "internalType": "address",
          "name": "_to",
          "type": "address"
        },
        {
          "indexed": false,
          "internalType": "uint256",
          "name": "_amount",
          "type": "uint256"
        }
      ],
      "name": "WithdrawFRA",
      "type": "event"
    },
    {
      "anonymous": false,
      "inputs": [
        {
          "indexed": false,
          "internalType": "address",
          "name": "_frc20",
          "type": "address"
        },
        {
          "indexed": false,
          "internalType": "bytes32",
          "name": "_from",
          "type": "bytes32"
        },
        {
          "indexed": false,
          "internalType": "address",
          "name": "_to",
          "type": "address"
        },
        {
          "indexed": false,
          "internalType": "uint256",
          "name": "_id",
          "type": "uint256"
        },
        {
          "indexed": false,
          "internalType": "uint256",
          "name": "_amount",
          "type": "uint256"
        }
      ],
      "name": "WithdrawFRC1155",
      "type": "event"
    },
    {
      "anonymous": false,
      "inputs": [
        {
          "indexed": false,
          "internalType": "address",
          "name": "_frc20",
          "type": "address"
        },
        {
          "indexed": false,
          "internalType": "bytes32",
          "name": "_from",
          "type": "bytes32"
        },
        {
          "indexed": false,
          "internalType": "address",
          "name": "_to",
          "type": "address"
        },
        {
          "indexed": false,
          "internalType": "uint256",
          "name": "_amount",
          "type": "uint256"
        }
      ],
      "name": "WithdrawFRC20",
      "type": "event"
    },
    {
      "anonymous": false,
      "inputs": [
        {
          "indexed": false,
          "internalType": "address",
          "name": "_frc20",
          "type": "address"
        },
        {
          "indexed": false,
          "internalType": "bytes32",
          "name": "_from",
          "type": "bytes32"
        },
        {
          "indexed": false,
          "internalType": "address",
          "name": "_to",
          "type": "address"
        },
        {
          "indexed": false,
          "internalType": "uint256",
          "name": "_id",
          "type": "uint256"
        }
      ],
      "name": "WithdrawFRC721",
      "type": "event"
    },
    {
      "inputs": [],
      "name": "_consumeMint",
      "outputs": [
        {
          "components": [
            {
              "internalType": "bytes32",
              "name": "asset",
              "type": "bytes32"
            },
            {
              "internalType": "bytes32",
              "name": "receiver",
              "type": "bytes32"
            },
            {
              "internalType": "uint256",
              "name": "amount",
              "type": "uint256"
            },
            {
              "internalType": "uint8",
              "name": "decimal",
              "type": "uint8"
            },
            {
              "internalType": "uint256",
              "name": "max_supply",
              "type": "uint256"
            }
          ],
          "internalType": "struct PrismXXBridge.MintOp[]",
          "name": "",
          "type": "tuple[]"
        }
      ],
      "stateMutability": "nonpayable",
      "type": "function"
    },
    {
      "inputs": [
        {
          "internalType": "bytes32",
          "name": "_asset",
          "type": "bytes32"
        },
        {
          "internalType": "bytes32",
          "name": "_from",
          "type": "bytes32"
        },
        {
          "internalType": "address",
          "name": "_to",
          "type": "address"
        },
        {
          "internalType": "uint256",
          "name": "_value",
          "type": "uint256"
        },
        {
          "internalType": "bytes",
          "name": "_data",
          "type": "bytes"
        }
      ],
      "name": "_withdrawAsset",
      "outputs": [],
      "stateMutability": "nonpayable",
      "type": "function"
    },
    {
      "inputs": [
        {
          "internalType": "address payable",
          "name": "_to",
          "type": "address"
        },
        {
          "internalType": "uint256",
          "name": "_value",
          "type": "uint256"
        },
        {
          "internalType": "bytes",
          "name": "_data",
          "type": "bytes"
        }
      ],
      "name": "_withdrawFRA",
      "outputs": [],
      "stateMutability": "nonpayable",
      "type": "function"
    },
    {
      "inputs": [
        {
          "internalType": "address",
          "name": "_asset_contract",
          "type": "address"
        }
      ],
      "name": "adminSetAsset",
      "outputs": [],
      "stateMutability": "nonpayable",
      "type": "function"
    },
    {
      "inputs": [
        {
          "internalType": "address",
          "name": "_ledger_contract",
          "type": "address"
        }
      ],
      "name": "adminSetLedger",
      "outputs": [],
      "stateMutability": "nonpayable",
      "type": "function"
    },
    {
      "inputs": [],
      "name": "asset_contract",
      "outputs": [
        {
          "internalType": "address",
          "name": "",
          "type": "address"
        }
      ],
      "stateMutability": "view",
      "type": "function"
    },
    {
      "inputs": [
        {
          "internalType": "address",
          "name": "addr",
          "type": "address"
        }
      ],
      "name": "computeERC20AssetType",
      "outputs": [
        {
          "internalType": "bytes32",
          "name": "",
          "type": "bytes32"
        }
      ],
      "stateMutability": "pure",
      "type": "function"
    },
    {
      "inputs": [
        {
          "internalType": "address",
          "name": "addr",
          "type": "address"
        },
        {
          "internalType": "uint256",
          "name": "tokenId",
          "type": "uint256"
        }
      ],
      "name": "computeNFTAssetType",
      "outputs": [
        {
          "internalType": "bytes32",
          "name": "",
          "type": "bytes32"
        }
      ],
      "stateMutability": "pure",
      "type": "function"
    },
    {
      "inputs": [],
      "name": "consumeMint",
      "outputs": [
        {
          "components": [
            {
              "internalType": "bytes32",
              "name": "asset",
              "type": "bytes32"
            },
            {
              "internalType": "bytes32",
              "name": "receiver",
              "type": "bytes32"
            },
            {
              "internalType": "uint256",
              "name": "amount",
              "type": "uint256"
            },
            {
              "internalType": "uint8",
              "name": "decimal",
              "type": "uint8"
            },
            {
              "internalType": "uint256",
              "name": "max_supply",
              "type": "uint256"
            }
          ],
          "internalType": "struct PrismXXBridge.MintOp[]",
          "name": "",
          "type": "tuple[]"
        }
      ],
      "stateMutability": "nonpayable",
      "type": "function"
    },
    {
      "inputs": [
        {
          "internalType": "bytes32",
          "name": "_to",
          "type": "bytes32"
        }
      ],
      "name": "depositFRA",
      "outputs": [],
      "stateMutability": "payable",
      "type": "function"
    },
    {
      "inputs": [
        {
          "internalType": "address",
          "name": "_addr",
          "type": "address"
        },
        {
          "internalType": "bytes32",
          "name": "_to",
          "type": "bytes32"
        },
        {
          "internalType": "uint256",
          "name": "_id",
          "type": "uint256"
        },
        {
          "internalType": "uint256",
          "name": "_amount",
          "type": "uint256"
        }
      ],
      "name": "depositFRC1155",
      "outputs": [],
      "stateMutability": "nonpayable",
      "type": "function"
    },
    {
      "inputs": [
        {
          "internalType": "address",
          "name": "_frc20",
          "type": "address"
        },
        {
          "internalType": "bytes32",
          "name": "_to",
          "type": "bytes32"
        },
        {
          "internalType": "uint256",
          "name": "_value",
          "type": "uint256"
        }
      ],
      "name": "depositFRC20",
      "outputs": [],
      "stateMutability": "nonpayable",
      "type": "function"
    },
    {
      "inputs": [
        {
          "internalType": "address",
          "name": "_addr",
          "type": "address"
        },
        {
          "internalType": "bytes32",
          "name": "_to",
          "type": "bytes32"
        },
        {
          "internalType": "uint256",
          "name": "_id",
          "type": "uint256"
        }
      ],
      "name": "depositFRC721",
      "outputs": [],
      "stateMutability": "nonpayable",
      "type": "function"
    },
    {
      "inputs": [],
      "name": "ledger_contract",
      "outputs": [
        {
          "internalType": "address",
          "name": "",
          "type": "address"
        }
      ],
      "stateMutability": "view",
      "type": "function"
    },
    {
      "inputs": [
        {
          "internalType": "uint256",
          "name": "",
          "type": "uint256"
        }
      ],
      "name": "ops",
      "outputs": [
        {
          "internalType": "bytes32",
          "name": "asset",
          "type": "bytes32"
        },
        {
          "internalType": "bytes32",
          "name": "receiver",
          "type": "bytes32"
        },
        {
          "internalType": "uint256",
          "name": "amount",
          "type": "uint256"
        },
        {
          "internalType": "uint8",
          "name": "decimal",
          "type": "uint8"
        },
        {
          "internalType": "uint256",
          "name": "max_supply",
          "type": "uint256"
        }
      ],
      "stateMutability": "view",
      "type": "function"
    },
    {
      "inputs": [],
      "name": "owner",
      "outputs": [
        {
          "internalType": "address",
          "name": "",
          "type": "address"
        }
      ],
      "stateMutability": "view",
      "type": "function"
    },
    {
      "inputs": [],
      "name": "proxy_contract",
      "outputs": [
        {
          "internalType": "address",
          "name": "",
          "type": "address"
        }
      ],
      "stateMutability": "view",
      "type": "function"
    },
    {
      "inputs": [],
      "name": "renounceOwnership",
      "outputs": [],
      "stateMutability": "nonpayable",
      "type": "function"
    },
    {
      "inputs": [
        {
          "internalType": "address",
          "name": "newOwner",
          "type": "address"
        }
      ],
      "name": "transferOwnership",
      "outputs": [],
      "stateMutability": "nonpayable",
      "type": "function"
    },
    {
      "inputs": [
        {
          "internalType": "bytes32",
          "name": "_asset",
          "type": "bytes32"
        },
        {
          "internalType": "bytes32",
          "name": "_from",
          "type": "bytes32"
        },
        {
          "internalType": "address",
          "name": "_to",
          "type": "address"
        },
        {
          "internalType": "uint256",
          "name": "_value",
          "type": "uint256"
        },
        {
          "internalType": "bytes",
          "name": "_data",
          "type": "bytes"
        }
      ],
      "name": "withdrawAsset",
      "outputs": [],
      "stateMutability": "nonpayable",
      "type": "function"
    },
    {
      "inputs": [
        {
          "internalType": "bytes32",
          "name": "_from",
          "type": "bytes32"
        },
        {
          "internalType": "address payable",
          "name": "_to",
          "type": "address"
        },
        {
          "internalType": "uint256",
          "name": "_value",
          "type": "uint256"
        },
        {
          "internalType": "bytes",
          "name": "_data",
          "type": "bytes"
        }
      ],
      "name": "withdrawFRA",
      "outputs": [],
      "stateMutability": "nonpayable",
      "type": "function"
    },
    {
      "stateMutability": "payable",
      "type": "receive"
    }
  ],
  "bytecode": "0x608060405230600160006101000a81548173ffffffffffffffffffffffffffffffffffffffff021916908373ffffffffffffffffffffffffffffffffffffffff1602179055503480156200005257600080fd5b5060405162003e6b38038062003e6b8339818101604052810190620000789190620001c3565b620000986200008c620000e060201b60201c565b620000e860201b60201c565b80600260006101000a81548173ffffffffffffffffffffffffffffffffffffffff021916908373ffffffffffffffffffffffffffffffffffffffff160217905550506200023d565b600033905090565b60008060009054906101000a900473ffffffffffffffffffffffffffffffffffffffff169050816000806101000a81548173ffffffffffffffffffffffffffffffffffffffff021916908373ffffffffffffffffffffffffffffffffffffffff1602179055508173ffffffffffffffffffffffffffffffffffffffff168173ffffffffffffffffffffffffffffffffffffffff167f8be0079c531659141344cd1fd0a4f28419497f9722a3daafe3b4186f6b6457e060405160405180910390a35050565b600081519050620001bd8162000223565b92915050565b600060208284031215620001d657600080fd5b6000620001e684828501620001ac565b91505092915050565b6000620001fc8262000203565b9050919050565b600073ffffffffffffffffffffffffffffffffffffffff82169050919050565b6200022e81620001ef565b81146200023a57600080fd5b50565b613c1e806200024d6000396000f3fe60806040526004361061012e5760003560e01c8063a9052776116100ab578063de93811c1161006f578063de93811c146103c1578063e6f2706d146103dd578063f2fde38b14610406578063f8fbccc21461042f578063fabeb1581461045a578063fdfd5d4c1461048357610135565b8063a9052776146102de578063aa02ce8e14610307578063b9322ce114610330578063d84e803814610359578063d905b0091461038457610135565b8063524f3198116100f2578063524f31981461021f578063715018a61461024a5780637c7c9d2f146102615780638da5cb5b1461028a5780639b5e757b146102b557610135565b8063044edb6f1461013a5780630505dce01461016557806318bc9de6146101905780633eb0edcf146101b95780633fefa1b7146101f657610135565b3661013557005b600080fd5b34801561014657600080fd5b5061014f6104c4565b60405161015c9190612e15565b60405180910390f35b34801561017157600080fd5b5061017a6104ea565b6040516101879190612e15565b60405180910390f35b34801561019c57600080fd5b506101b760048036038101906101b291906128bc565b610510565b005b3480156101c557600080fd5b506101e060048036038101906101db919061266a565b610686565b6040516101ed919061311f565b60405180910390f35b34801561020257600080fd5b5061021d60048036038101906102189190612777565b6106bc565b005b34801561022b57600080fd5b506102346108ee565b60405161024191906130fd565b60405180910390f35b34801561025657600080fd5b5061025f610a11565b005b34801561026d57600080fd5b506102886004803603810190610283919061293c565b610a99565b005b34801561029657600080fd5b5061029f611237565b6040516102ac9190612e15565b60405180910390f35b3480156102c157600080fd5b506102dc60048036038101906102d791906126bc565b611260565b005b3480156102ea57600080fd5b506103056004803603810190610300919061293c565b611364565b005b34801561031357600080fd5b5061032e60048036038101906103299190612728565b611478565b005b34801561033c57600080fd5b506103576004803603810190610352919061266a565b6116a6565b005b34801561036557600080fd5b5061036e611766565b60405161037b9190612e15565b60405180910390f35b34801561039057600080fd5b506103ab60048036038101906103a691906127da565b61178c565b6040516103b8919061311f565b60405180910390f35b6103db60048036038101906103d69190612893565b6117c5565b005b3480156103e957600080fd5b5061040460048036038101906103ff9190612728565b61192c565b005b34801561041257600080fd5b5061042d6004803603810190610428919061266a565b611c6a565b005b34801561043b57600080fd5b50610444611d62565b60405161045191906130fd565b60405180910390f35b34801561046657600080fd5b50610481600480360381019061047c919061266a565b611eaa565b005b34801561048f57600080fd5b506104aa60048036038101906104a591906129f7565b611f6a565b6040516104bb95949392919061322d565b60405180910390f35b600360009054906101000a900473ffffffffffffffffffffffffffffffffffffffff1681565b600460009054906101000a900473ffffffffffffffffffffffffffffffffffffffff1681565b600073ffffffffffffffffffffffffffffffffffffffff163373ffffffffffffffffffffffffffffffffffffffff161461057f576040517f08c379a0000000000000000000000000000000000000000000000000000000008152600401610576906132c2565b60405180910390fd5b6105ab600160009054906101000a900473ffffffffffffffffffffffffffffffffffffffff1684611fbd565b6000600160009054906101000a900473ffffffffffffffffffffffffffffffffffffffff1690508073ffffffffffffffffffffffffffffffffffffffff16639b5e757b868686866040518563ffffffff1660e01b81526004016106119493929190612e30565b600060405180830381600087803b15801561062b57600080fd5b505af115801561063f573d6000803e3d6000fd5b505050507f6d67d0cde55eeae43dc9ea393402b7cf8249a8c18c2ee7f1d62a541f6104be1d86868660405161067693929190613163565b60405180910390a1505050505050565b6000607760001b8260405160200161069f92919061313a565b604051602081830303815290604052805190602001209050919050565b60006106c8858461178c565b90506000600460009054906101000a900473ffffffffffffffffffffffffffffffffffffffff1690508073ffffffffffffffffffffffffffffffffffffffff1663d0e5390d8388876040518463ffffffff1660e01b815260040161072e9392919061319a565b600060405180830381600087803b15801561074857600080fd5b505af115801561075c573d6000803e3d6000fd5b50505050600033905060006040518060a00160405280858152602001888152602001868152602001600160ff16815260200160008152509050600581908060018154018082558091505060019003906000526020600020906005020160009091909190915060008201518160000155602082015181600101556040820151816002015560608201518160030160006101000a81548160ff021916908360ff1602179055506080820151816004015550506000600360009054906101000a900473ffffffffffffffffffffffffffffffffffffffff1690508073ffffffffffffffffffffffffffffffffffffffff166303b5b1e78a858a8a6040518563ffffffff1660e01b81526004016108729493929190612f8d565b600060405180830381600087803b15801561088c57600080fd5b505af11580156108a0573d6000803e3d6000fd5b505050507f5f5598dde166bdcc0176002e98e317989e40d9fb5bc71de64757bfa6aad4ed7889848a8a8a6040516108db959493929190612eb5565b60405180910390a1505050505050505050565b6060600073ffffffffffffffffffffffffffffffffffffffff163373ffffffffffffffffffffffffffffffffffffffff161461095f576040517f08c379a0000000000000000000000000000000000000000000000000000000008152600401610956906132c2565b60405180910390fd5b6000600160009054906101000a900473ffffffffffffffffffffffffffffffffffffffff1690508073ffffffffffffffffffffffffffffffffffffffff1663f8fbccc26040518163ffffffff1660e01b8152600401600060405180830381600087803b1580156109ce57600080fd5b505af11580156109e2573d6000803e3d6000fd5b505050506040513d6000823e3d601f19601f82011682018060405250810190610a0b9190612852565b91505090565b610a196120b1565b73ffffffffffffffffffffffffffffffffffffffff16610a37611237565b73ffffffffffffffffffffffffffffffffffffffff1614610a8d576040517f08c379a0000000000000000000000000000000000000000000000000000000008152600401610a8490613362565b60405180910390fd5b610a9760006120b9565b565b600260009054906101000a900473ffffffffffffffffffffffffffffffffffffffff1673ffffffffffffffffffffffffffffffffffffffff163373ffffffffffffffffffffffffffffffffffffffff1614610b29576040517f08c379a0000000000000000000000000000000000000000000000000000000008152600401610b2090613342565b60405180910390fd5b6000600360009054906101000a900473ffffffffffffffffffffffffffffffffffffffff1690506000600460009054906101000a900473ffffffffffffffffffffffffffffffffffffffff16905060008173ffffffffffffffffffffffffffffffffffffffff1663979a9b5e8a6040518263ffffffff1660e01b8152600401610bb2919061311f565b60206040518083038186803b158015610bca57600080fd5b505afa158015610bde573d6000803e3d6000fd5b505050506040513d601f19601f82011682018060405250810190610c0291906129ce565b905060016002811115610c3e577f4e487b7100000000000000000000000000000000000000000000000000000000600052602160045260246000fd5b816002811115610c77577f4e487b7100000000000000000000000000000000000000000000000000000000600052602160045260246000fd5b1415610e06576000808373ffffffffffffffffffffffffffffffffffffffff1663d87e0e328c6040518263ffffffff1660e01b8152600401610cb9919061311f565b604080518083038186803b158015610cd057600080fd5b505afa158015610ce4573d6000803e3d6000fd5b505050506040513d601f19601f82011682018060405250810190610d089190612816565b9150915060018814610d4f576040517f08c379a0000000000000000000000000000000000000000000000000000000008152600401610d4690613382565b60405180910390fd5b8473ffffffffffffffffffffffffffffffffffffffff166365321187838b848b8b6040518663ffffffff1660e01b8152600401610d90959493929190612f3f565b600060405180830381600087803b158015610daa57600080fd5b505af1158015610dbe573d6000803e3d6000fd5b505050507fa6ad222c5a86c95e71e0707382c7594bb0a886e373d0ccd79e9fd30077a52ae2828b8b84604051610df7949392919061302e565b60405180910390a1505061122c565b600280811115610e3f577f4e487b7100000000000000000000000000000000000000000000000000000000600052602160045260246000fd5b816002811115610e78577f4e487b7100000000000000000000000000000000000000000000000000000000600052602160045260246000fd5b1415610fc8576000808373ffffffffffffffffffffffffffffffffffffffff1663c04fd06c8c6040518263ffffffff1660e01b8152600401610eba919061311f565b604080518083038186803b158015610ed157600080fd5b505afa158015610ee5573d6000803e3d6000fd5b505050506040513d601f19601f82011682018060405250810190610f099190612816565b915091508473ffffffffffffffffffffffffffffffffffffffff166319a18ca0838b848c8c8c6040518763ffffffff1660e01b8152600401610f5096959493929190612fd2565b600060405180830381600087803b158015610f6a57600080fd5b505af1158015610f7e573d6000803e3d6000fd5b505050507f9a72e3d1038afeae6d6353bc4d7ed99f30ada530f1a2c354088b2cb8dbf90124828b8b848c604051610fb9959493929190613073565b60405180910390a1505061122b565b60008273ffffffffffffffffffffffffffffffffffffffff16631996e4f48b6040518263ffffffff1660e01b8152600401611003919061311f565b60206040518083038186803b15801561101b57600080fd5b505afa15801561102f573d6000803e3d6000fd5b505050506040513d601f19601f820116820180604052508101906110539190612693565b90506000819050600073ffffffffffffffffffffffffffffffffffffffff168273ffffffffffffffffffffffffffffffffffffffff1614156110ca576040517f08c379a00000000000000000000000000000000000000000000000000000000081526004016110c1906133c2565b60405180910390fd5b60008173ffffffffffffffffffffffffffffffffffffffff1663313ce5676040518163ffffffff1660e01b815260040160206040518083038186803b15801561111257600080fd5b505afa158015611126573d6000803e3d6000fd5b505050506040513d601f19601f8201168201806040525081019061114a9190612a20565b9050600089905060068260ff161115611176576111738a60068461116e91906136cb565b61217d565b90505b8673ffffffffffffffffffffffffffffffffffffffff16633d2b0e0d858d848d8d6040518663ffffffff1660e01b81526004016111b7959493929190612f3f565b600060405180830381600087803b1580156111d157600080fd5b505af11580156111e5573d6000803e3d6000fd5b505050507f3acb6d2ec29bf57d0f8b428409bebef6fd9fd916ceca8acba8ee2b14844edf4d848d8d8460405161121e949392919061302e565b60405180910390a1505050505b5b505050505050505050565b60008060009054906101000a900473ffffffffffffffffffffffffffffffffffffffff16905090565b600260009054906101000a900473ffffffffffffffffffffffffffffffffffffffff1673ffffffffffffffffffffffffffffffffffffffff163373ffffffffffffffffffffffffffffffffffffffff16146112f0576040517f08c379a00000000000000000000000000000000000000000000000000000000081526004016112e790613342565b60405180910390fd5b6112f9846121a4565b156113535761134d8483838080601f016020809104026020016040519081016040528093929190818152602001838380828437600081840152601f19601f82011690508083019250505050505050856121c7565b5061135e565b61135d8484611fbd565b5b50505050565b600073ffffffffffffffffffffffffffffffffffffffff163373ffffffffffffffffffffffffffffffffffffffff16146113d3576040517f08c379a00000000000000000000000000000000000000000000000000000000081526004016113ca906132c2565b60405180910390fd5b6000600160009054906101000a900473ffffffffffffffffffffffffffffffffffffffff1690508073ffffffffffffffffffffffffffffffffffffffff16637c7c9d2f8888888888886040518763ffffffff1660e01b815260040161143d969594939291906131d1565b600060405180830381600087803b15801561145757600080fd5b505af115801561146b573d6000803e3d6000fd5b5050505050505050505050565b6000611484848361178c565b90506000600460009054906101000a900473ffffffffffffffffffffffffffffffffffffffff1690508073ffffffffffffffffffffffffffffffffffffffff166305c62fe38387866040518463ffffffff1660e01b81526004016114ea9392919061319a565b600060405180830381600087803b15801561150457600080fd5b505af1158015611518573d6000803e3d6000fd5b50505050600033905060006040518060a0016040528085815260200187815260200160018152602001600160ff16815260200160018152509050600581908060018154018082558091505060019003906000526020600020906005020160009091909190915060008201518160000155602082015181600101556040820151816002015560608201518160030160006101000a81548160ff021916908360ff1602179055506080820151816004015550506000600360009054906101000a900473ffffffffffffffffffffffffffffffffffffffff1690508073ffffffffffffffffffffffffffffffffffffffff1663554f103b8985896040518463ffffffff1660e01b815260040161162d93929190612f08565b600060405180830381600087803b15801561164757600080fd5b505af115801561165b573d6000803e3d6000fd5b505050507f28230f8f4600241abe66187a8e94728710dadacebf5572a56618b0f85d499293888489896040516116949493929190612e70565b60405180910390a15050505050505050565b6116ae6120b1565b73ffffffffffffffffffffffffffffffffffffffff166116cc611237565b73ffffffffffffffffffffffffffffffffffffffff1614611722576040517f08c379a000000000000000000000000000000000000000000000000000000000815260040161171990613362565b60405180910390fd5b80600360006101000a81548173ffffffffffffffffffffffffffffffffffffffff021916908373ffffffffffffffffffffffffffffffffffffffff16021790555050565b600260009054906101000a900473ffffffffffffffffffffffffffffffffffffffff1681565b6000600260001b83836040516020016117a79392919061319a565b60405160208183030381529060405280519060200120905092915050565b6000349050806117d682600c6121f6565b14611816576040517f08c379a000000000000000000000000000000000000000000000000000000000815260040161180d906133e2565b60405180910390fd5b60006040518060a001604052806000801b8152602001848152602001838152602001600660ff16815260200160008152509050600581908060018154018082558091505060019003906000526020600020906005020160009091909190915060008201518160000155602082015181600101556040820151816002015560608201518160030160006101000a81548160ff021916908360ff1602179055506080820151816004015550506118ec600260009054906101000a900473ffffffffffffffffffffffffffffffffffffffff1683611fbd565b7f0d17de7ac88dca43fadf31da6f1a0170219e3b6e4a4565e43bdf62d8e3ca1beb33848460405161191f939291906130c6565b60405180910390a1505050565b600083905060008173ffffffffffffffffffffffffffffffffffffffff1663313ce5676040518163ffffffff1660e01b815260040160206040518083038186803b15801561197957600080fd5b505afa15801561198d573d6000803e3d6000fd5b505050506040513d601f19601f820116820180604052508101906119b19190612a20565b90506000819050600084905060068360ff161115611a3d57846119e0866006866119db91906136cb565b6121f6565b14611a20576040517f08c379a0000000000000000000000000000000000000000000000000000000008152600401611a17906133e2565b60405180910390fd5b60069150611a3a85600685611a3591906136cb565b61222e565b90505b6000611a4888610686565b90506000600460009054906101000a900473ffffffffffffffffffffffffffffffffffffffff1690508073ffffffffffffffffffffffffffffffffffffffff1663ed7e205b838b6040518363ffffffff1660e01b8152600401611aac92919061313a565b600060405180830381600087803b158015611ac657600080fd5b505af1158015611ada573d6000803e3d6000fd5b50505050600033905060006040518060a001604052808581526020018b81526020018681526020018760ff16815260200160008152509050600581908060018154018082558091505060019003906000526020600020906005020160009091909190915060008201518160000155602082015181600101556040820151816002015560608201518160030160006101000a81548160ff021916908360ff1602179055506080820151816004015550506000600360009054906101000a900473ffffffffffffffffffffffffffffffffffffffff1690508073ffffffffffffffffffffffffffffffffffffffff1663025993488d858d6040518463ffffffff1660e01b8152600401611bed93929190612f08565b600060405180830381600087803b158015611c0757600080fd5b505af1158015611c1b573d6000803e3d6000fd5b505050507fc5c9c87ff65b88f4ac2e13898a4e26f85b9f8c9f4921913a704574a38a349e568c848d8d604051611c549493929190612e70565b60405180910390a1505050505050505050505050565b611c726120b1565b73ffffffffffffffffffffffffffffffffffffffff16611c90611237565b73ffffffffffffffffffffffffffffffffffffffff1614611ce6576040517f08c379a0000000000000000000000000000000000000000000000000000000008152600401611cdd90613362565b60405180910390fd5b600073ffffffffffffffffffffffffffffffffffffffff168173ffffffffffffffffffffffffffffffffffffffff161415611d56576040517f08c379a0000000000000000000000000000000000000000000000000000000008152600401611d4d906132a2565b60405180910390fd5b611d5f816120b9565b50565b6060600260009054906101000a900473ffffffffffffffffffffffffffffffffffffffff1673ffffffffffffffffffffffffffffffffffffffff163373ffffffffffffffffffffffffffffffffffffffff1614611df4576040517f08c379a0000000000000000000000000000000000000000000000000000000008152600401611deb90613342565b60405180910390fd5b60006005805480602002602001604051908101604052809291908181526020016000905b82821015611e8f57838290600052602060002090600502016040518060a00160405290816000820154815260200160018201548152602001600282015481526020016003820160009054906101000a900460ff1660ff1660ff16815260200160048201548152505081526020019060010190611e18565b50505050905060056000611ea391906123d6565b8091505090565b611eb26120b1565b73ffffffffffffffffffffffffffffffffffffffff16611ed0611237565b73ffffffffffffffffffffffffffffffffffffffff1614611f26576040517f08c379a0000000000000000000000000000000000000000000000000000000008152600401611f1d90613362565b60405180910390fd5b80600460006101000a81548173ffffffffffffffffffffffffffffffffffffffff021916908373ffffffffffffffffffffffffffffffffffffffff16021790555050565b60058181548110611f7a57600080fd5b90600052602060002090600502016000915090508060000154908060010154908060020154908060030160009054906101000a900460ff16908060040154905085565b80471015612000576040517f08c379a0000000000000000000000000000000000000000000000000000000008152600401611ff790613302565b60405180910390fd5b60008273ffffffffffffffffffffffffffffffffffffffff168260405161202690612e00565b60006040518083038185875af1925050503d8060008114612063576040519150601f19603f3d011682016040523d82523d6000602084013e612068565b606091505b50509050806120ac576040517f08c379a00000000000000000000000000000000000000000000000000000000081526004016120a3906132e2565b60405180910390fd5b505050565b600033905090565b60008060009054906101000a900473ffffffffffffffffffffffffffffffffffffffff169050816000806101000a81548173ffffffffffffffffffffffffffffffffffffffff021916908373ffffffffffffffffffffffffffffffffffffffff1602179055508173ffffffffffffffffffffffffffffffffffffffff168173ffffffffffffffffffffffffffffffffffffffff167f8be0079c531659141344cd1fd0a4f28419497f9722a3daafe3b4186f6b6457e060405160405180910390a35050565b60008082600a61218d9190613553565b9050808461219b9190613671565b91505092915050565b6000808273ffffffffffffffffffffffffffffffffffffffff163b119050919050565b60606121ed848484604051806060016040528060298152602001613bc06029913961225b565b90509392505050565b60008082600a6122069190613553565b90506000818561221691906134cf565b905081816122249190613671565b9250505092915050565b60008082600a61223e9190613553565b90506000818561224e91906134cf565b9050809250505092915050565b6060824710156122a0576040517f08c379a000000000000000000000000000000000000000000000000000000000815260040161229790613322565b60405180910390fd5b6122a9856121a4565b6122e8576040517f08c379a00000000000000000000000000000000000000000000000000000000081526004016122df906133a2565b60405180910390fd5b6000808673ffffffffffffffffffffffffffffffffffffffff1685876040516123119190612de9565b60006040518083038185875af1925050503d806000811461234e576040519150601f19603f3d011682016040523d82523d6000602084013e612353565b606091505b509150915061236382828661236f565b92505050949350505050565b6060831561237f578290506123cf565b6000835111156123925782518084602001fd5b816040517f08c379a00000000000000000000000000000000000000000000000000000000081526004016123c69190613280565b60405180910390fd5b9392505050565b50805460008255600502906000526020600020908101906123f791906123fa565b50565b5b8082111561244157600080820160009055600182016000905560028201600090556003820160006101000a81549060ff02191690556004820160009055506005016123fb565b5090565b600061245861245384613427565b613402565b905080838252602082019050828560a086028201111561247757600080fd5b60005b858110156124a7578161248d88826125a3565b845260208401935060a0830192505060018101905061247a565b5050509392505050565b6000813590506124c081613b3c565b92915050565b6000815190506124d581613b3c565b92915050565b6000813590506124ea81613b53565b92915050565b600082601f83011261250157600080fd5b8151612511848260208601612445565b91505092915050565b60008135905061252981613b6a565b92915050565b60008151905061253e81613b6a565b92915050565b60008083601f84011261255657600080fd5b8235905067ffffffffffffffff81111561256f57600080fd5b60208301915083600182028301111561258757600080fd5b9250929050565b60008151905061259d81613b81565b92915050565b600060a082840312156125b557600080fd5b6125bf60a0613402565b905060006125cf8482850161252f565b60008301525060206125e38482850161252f565b60208301525060406125f784828501612640565b604083015250606061260b84828501612655565b606083015250608061261f84828501612640565b60808301525092915050565b60008135905061263a81613b91565b92915050565b60008151905061264f81613b91565b92915050565b60008151905061266481613ba8565b92915050565b60006020828403121561267c57600080fd5b600061268a848285016124b1565b91505092915050565b6000602082840312156126a557600080fd5b60006126b3848285016124c6565b91505092915050565b600080600080606085870312156126d257600080fd5b60006126e0878288016124db565b94505060206126f18782880161262b565b935050604085013567ffffffffffffffff81111561270e57600080fd5b61271a87828801612544565b925092505092959194509250565b60008060006060848603121561273d57600080fd5b600061274b868287016124b1565b935050602061275c8682870161251a565b925050604061276d8682870161262b565b9150509250925092565b6000806000806080858703121561278d57600080fd5b600061279b878288016124b1565b94505060206127ac8782880161251a565b93505060406127bd8782880161262b565b92505060606127ce8782880161262b565b91505092959194509250565b600080604083850312156127ed57600080fd5b60006127fb858286016124b1565b925050602061280c8582860161262b565b9150509250929050565b6000806040838503121561282957600080fd5b6000612837858286016124c6565b925050602061284885828601612640565b9150509250929050565b60006020828403121561286457600080fd5b600082015167ffffffffffffffff81111561287e57600080fd5b61288a848285016124f0565b91505092915050565b6000602082840312156128a557600080fd5b60006128b38482850161251a565b91505092915050565b6000806000806000608086880312156128d457600080fd5b60006128e28882890161251a565b95505060206128f3888289016124db565b94505060406129048882890161262b565b935050606086013567ffffffffffffffff81111561292157600080fd5b61292d88828901612544565b92509250509295509295909350565b60008060008060008060a0878903121561295557600080fd5b600061296389828a0161251a565b965050602061297489828a0161251a565b955050604061298589828a016124b1565b945050606061299689828a0161262b565b935050608087013567ffffffffffffffff8111156129b357600080fd5b6129bf89828a01612544565b92509250509295509295509295565b6000602082840312156129e057600080fd5b60006129ee8482850161258e565b91505092915050565b600060208284031215612a0957600080fd5b6000612a178482850161262b565b91505092915050565b600060208284031215612a3257600080fd5b6000612a4084828501612655565b91505092915050565b6000612a558383612d45565b60a08301905092915050565b612a6a81613764565b82525050565b612a7981613711565b82525050565b612a88816136ff565b82525050565b6000612a9982613463565b612aa38185613491565b9350612aae83613453565b8060005b83811015612adf578151612ac68882612a49565b9750612ad183613484565b925050600181019050612ab2565b5085935050505092915050565b612af581613723565b82525050565b612b0481613723565b82525050565b6000612b1683856134a2565b9350612b2383858461379a565b612b2c8361389a565b840190509392505050565b6000612b428261346e565b612b4c81856134b3565b9350612b5c8185602086016137a9565b80840191505092915050565b6000612b7382613479565b612b7d81856134be565b9350612b8d8185602086016137a9565b612b968161389a565b840191505092915050565b6000612bae6026836134be565b9150612bb9826138b8565b604082019050919050565b6000612bd16022836134be565b9150612bdc82613907565b604082019050919050565b6000612bf4603a836134be565b9150612bff82613956565b604082019050919050565b6000612c17601d836134be565b9150612c22826139a5565b602082019050919050565b6000612c3a6026836134be565b9150612c45826139ce565b604082019050919050565b6000612c5d6021836134be565b9150612c6882613a1d565b604082019050919050565b6000612c806020836134be565b9150612c8b82613a6c565b602082019050919050565b6000612ca3601f836134be565b9150612cae82613a95565b602082019050919050565b6000612cc66000836134b3565b9150612cd182613abe565b600082019050919050565b6000612ce9601d836134be565b9150612cf482613ac1565b602082019050919050565b6000612d0c6018836134be565b9150612d1782613aea565b602082019050919050565b6000612d2f6011836134be565b9150612d3a82613b13565b602082019050919050565b60a082016000820151612d5b6000850182612aec565b506020820151612d6e6020850182612aec565b506040820151612d816040850182612dad565b506060820151612d946060850182612dcb565b506080820151612da76080850182612dad565b50505050565b612db68161374d565b82525050565b612dc58161374d565b82525050565b612dd481613757565b82525050565b612de381613757565b82525050565b6000612df58284612b37565b915081905092915050565b6000612e0b82612cb9565b9150819050919050565b6000602082019050612e2a6000830184612a7f565b92915050565b6000606082019050612e456000830187612a70565b612e526020830186612dbc565b8181036040830152612e65818486612b0a565b905095945050505050565b6000608082019050612e856000830187612a7f565b612e926020830186612a7f565b612e9f6040830185612afb565b612eac6060830184612dbc565b95945050505050565b600060a082019050612eca6000830188612a7f565b612ed76020830187612a7f565b612ee46040830186612afb565b612ef16060830185612dbc565b612efe6080830184612dbc565b9695505050505050565b6000606082019050612f1d6000830186612a7f565b612f2a6020830185612a7f565b612f376040830184612dbc565b949350505050565b6000608082019050612f546000830188612a7f565b612f616020830187612a7f565b612f6e6040830186612dbc565b8181036060830152612f81818486612b0a565b90509695505050505050565b6000608082019050612fa26000830187612a7f565b612faf6020830186612a7f565b612fbc6040830185612dbc565b612fc96060830184612dbc565b95945050505050565b600060a082019050612fe76000830189612a7f565b612ff46020830188612a7f565b6130016040830187612dbc565b61300e6060830186612dbc565b8181036080830152613021818486612b0a565b9050979650505050505050565b60006080820190506130436000830187612a7f565b6130506020830186612afb565b61305d6040830185612a7f565b61306a6060830184612dbc565b95945050505050565b600060a0820190506130886000830188612a7f565b6130956020830187612afb565b6130a26040830186612a7f565b6130af6060830185612dbc565b6130bc6080830184612dbc565b9695505050505050565b60006060820190506130db6000830186612a7f565b6130e86020830185612afb565b6130f56040830184612dbc565b949350505050565b600060208201905081810360008301526131178184612a8e565b905092915050565b60006020820190506131346000830184612afb565b92915050565b600060408201905061314f6000830185612afb565b61315c6020830184612a7f565b9392505050565b60006060820190506131786000830186612afb565b6131856020830185612a61565b6131926040830184612dbc565b949350505050565b60006060820190506131af6000830186612afb565b6131bc6020830185612a7f565b6131c96040830184612dbc565b949350505050565b600060a0820190506131e66000830189612afb565b6131f36020830188612afb565b6132006040830187612a7f565b61320d6060830186612dbc565b8181036080830152613220818486612b0a565b9050979650505050505050565b600060a0820190506132426000830188612afb565b61324f6020830187612afb565b61325c6040830186612dbc565b6132696060830185612dda565b6132766080830184612dbc565b9695505050505050565b6000602082019050818103600083015261329a8184612b68565b905092915050565b600060208201905081810360008301526132bb81612ba1565b9050919050565b600060208201905081810360008301526132db81612bc4565b9050919050565b600060208201905081810360008301526132fb81612be7565b9050919050565b6000602082019050818103600083015261331b81612c0a565b9050919050565b6000602082019050818103600083015261333b81612c2d565b9050919050565b6000602082019050818103600083015261335b81612c50565b9050919050565b6000602082019050818103600083015261337b81612c73565b9050919050565b6000602082019050818103600083015261339b81612c96565b9050919050565b600060208201905081810360008301526133bb81612cdc565b9050919050565b600060208201905081810360008301526133db81612cff565b9050919050565b600060208201905081810360008301526133fb81612d22565b9050919050565b600061340c61341d565b905061341882826137dc565b919050565b6000604051905090565b600067ffffffffffffffff8211156134425761344161386b565b5b602082029050602081019050919050565b6000819050602082019050919050565b600081519050919050565b600081519050919050565b600081519050919050565b6000602082019050919050565b600082825260208201905092915050565b600082825260208201905092915050565b600081905092915050565b600082825260208201905092915050565b60006134da8261374d565b91506134e58361374d565b9250826134f5576134f461383c565b5b828204905092915050565b6000808291508390505b600185111561354a578086048111156135265761352561380d565b5b60018516156135355780820291505b8081029050613543856138ab565b945061350a565b94509492505050565b600061355e8261374d565b915061356983613757565b92506135967fffffffffffffffffffffffffffffffffffffffffffffffffffffffffffffffff848461359e565b905092915050565b6000826135ae576001905061366a565b816135bc576000905061366a565b81600181146135d257600281146135dc5761360b565b600191505061366a565b60ff8411156135ee576135ed61380d565b5b8360020a9150848211156136055761360461380d565b5b5061366a565b5060208310610133831016604e8410600b84101617156136405782820a90508381111561363b5761363a61380d565b5b61366a565b61364d8484846001613500565b925090508184048111156136645761366361380d565b5b81810290505b9392505050565b600061367c8261374d565b91506136878361374d565b9250817fffffffffffffffffffffffffffffffffffffffffffffffffffffffffffffffff04831182151516156136c0576136bf61380d565b5b828202905092915050565b60006136d682613757565b91506136e183613757565b9250828210156136f4576136f361380d565b5b828203905092915050565b600061370a8261372d565b9050919050565b600061371c8261372d565b9050919050565b6000819050919050565b600073ffffffffffffffffffffffffffffffffffffffff82169050919050565b6000819050919050565b600060ff82169050919050565b600061376f82613776565b9050919050565b600061378182613788565b9050919050565b60006137938261372d565b9050919050565b82818337600083830152505050565b60005b838110156137c75780820151818401526020810190506137ac565b838111156137d6576000848401525b50505050565b6137e58261389a565b810181811067ffffffffffffffff821117156138045761380361386b565b5b80604052505050565b7f4e487b7100000000000000000000000000000000000000000000000000000000600052601160045260246000fd5b7f4e487b7100000000000000000000000000000000000000000000000000000000600052601260045260246000fd5b7f4e487b7100000000000000000000000000000000000000000000000000000000600052604160045260246000fd5b6000601f19601f8301169050919050565b60008160011c9050919050565b7f4f776e61626c653a206e6577206f776e657220697320746865207a65726f206160008201527f6464726573730000000000000000000000000000000000000000000000000000602082015250565b7f4f6e6c792073797374656d2063616e2063616c6c20746869732066756e63746960008201527f6f6e000000000000000000000000000000000000000000000000000000000000602082015250565b7f416464726573733a20756e61626c6520746f2073656e642076616c75652c207260008201527f6563697069656e74206d61792068617665207265766572746564000000000000602082015250565b7f416464726573733a20696e73756666696369656e742062616c616e6365000000600082015250565b7f416464726573733a20696e73756666696369656e742062616c616e636520666f60008201527f722063616c6c0000000000000000000000000000000000000000000000000000602082015250565b7f4f6e6c792070726f78792063616e2063616c6c20746869732066756e6374696f60008201527f6e00000000000000000000000000000000000000000000000000000000000000602082015250565b7f4f776e61626c653a2063616c6c6572206973206e6f7420746865206f776e6572600082015250565b7f4572726f723a2041737365742074797065206973206e6f742045524337323100600082015250565b50565b7f416464726573733a2063616c6c20746f206e6f6e2d636f6e7472616374000000600082015250565b7f41737365742074797065206d7573742072656769737465640000000000000000600082015250565b7f6c6f77203132206d75737420626520302e000000000000000000000000000000600082015250565b613b45816136ff565b8114613b5057600080fd5b50565b613b5c81613711565b8114613b6757600080fd5b50565b613b7381613723565b8114613b7e57600080fd5b50565b60038110613b8e57600080fd5b50565b613b9a8161374d565b8114613ba557600080fd5b50565b613bb181613757565b8114613bbc57600080fd5b5056fe416464726573733a206c6f772d6c6576656c2063616c6c20776974682076616c7565206661696c6564a2646970667358221220317378d83b7d1a2ef27023abd82a6a7d1eba52d6e875b78d4350ba2df1f8679864736f6c63430008040033",
  "linkReferences": {},
  "deployedLinkReferences": {}
}