{
  "_format": "hh-sol-artifact-1",
  "contractName": "PrismXXAsset",
  "sourceName": "contracts/examples/PrismXXAsset.sol",
  "abi": [
    {
      "anonymous": false,
      "inputs": [
        {
          "indexed": false,
          "internalType": "uint8",
          "name": "version",
          "type": "uint8"
        }
      ],
      "name": "Initialized",
      "type": "event"
    },
    {
      "anonymous": false,
      "inputs": [
        {
          "indexed": true,
          "internalType": "address",
          "name": "previousOwner",
          "type": "address"
        },
        {
          "indexed": true,
          "internalType": "address",
          "name": "newOwner",
          "type": "address"
        }
      ],
      "name": "OwnershipTransferred",
      "type": "event"
    },
    {
      "inputs": [
        {
          "internalType": "bytes32",
          "name": "",
          "type": "bytes32"
        }
      ],
      "name": "assets",
      "outputs": [
        {
          "internalType": "address",
          "name": "addr",
          "type": "address"
        },
        {
          "internalType": "uint256",
          "name": "tokenId",
          "type": "uint256"
        },
        {
          "internalType": "enum IPrismXXAsset.TokenType",
          "name": "ty",
          "type": "uint8"
        },
        {
          "internalType": "bool",
          "name": "isBurn",
          "type": "bool"
        },
        {
          "internalType": "uint8",
          "name": "decimal",
          "type": "uint8"
        }
      ],
      "stateMutability": "view",
      "type": "function"
    },
    {
      "inputs": [],
      "name": "bridge",
      "outputs": [
        {
          "internalType": "address",
          "name": "",
          "type": "address"
        }
      ],
      "stateMutability": "view",
      "type": "function"
    },
    {
      "inputs": [
        {
          "internalType": "bytes32",
          "name": "_asset",
          "type": "bytes32"
        }
      ],
      "name": "getERC1155Info",
      "outputs": [
        {
          "internalType": "address",
          "name": "",
          "type": "address"
        },
        {
          "internalType": "uint256",
          "name": "",
          "type": "uint256"
        }
      ],
      "stateMutability": "view",
      "type": "function"
    },
    {
      "inputs": [
        {
          "internalType": "bytes32",
          "name": "_asset",
          "type": "bytes32"
        }
      ],
      "name": "getERC20Info",
      "outputs": [
        {
          "internalType": "address",
          "name": "",
          "type": "address"
        }
      ],
      "stateMutability": "view",
      "type": "function"
    },
    {
      "inputs": [
        {
          "internalType": "bytes32",
          "name": "_asset",
          "type": "bytes32"
        }
      ],
      "name": "getERC721Info",
      "outputs": [
        {
          "internalType": "address",
          "name": "",
          "type": "address"
        },
        {
          "internalType": "uint256",
          "name": "",
          "type": "uint256"
        }
      ],
      "stateMutability": "view",
      "type": "function"
    },
    {
      "inputs": [
        {
          "internalType": "bytes32",
          "name": "_asset",
          "type": "bytes32"
        }
      ],
      "name": "getTokenType",
      "outputs": [
        {
          "internalType": "enum IPrismXXAsset.TokenType",
          "name": "",
          "type": "uint8"
        }
      ],
      "stateMutability": "view",
      "type": "function"
    },
    {
      "inputs": [
        {
          "internalType": "address",
          "name": "_bridge",
          "type": "address"
        }
      ],
      "name": "initialize",
      "outputs": [],
      "stateMutability": "nonpayable",
      "type": "function"
    },
    {
      "inputs": [
        {
          "internalType": "bytes32",
          "name": "_asset",
          "type": "bytes32"
        }
      ],
      "name": "isBurn",
      "outputs": [
        {
          "internalType": "bool",
          "name": "",
          "type": "bool"
        }
      ],
      "stateMutability": "view",
      "type": "function"
    },
    {
      "inputs": [],
      "name": "owner",
      "outputs": [
        {
          "internalType": "address",
          "name": "",
          "type": "address"
        }
      ],
      "stateMutability": "view",
      "type": "function"
    },
    {
      "inputs": [],
      "name": "renounceOwnership",
      "outputs": [],
      "stateMutability": "nonpayable",
      "type": "function"
    },
    {
      "inputs": [
        {
          "internalType": "bytes32",
          "name": "_asset",
          "type": "bytes32"
        }
      ],
      "name": "setBurn",
      "outputs": [],
      "stateMutability": "nonpayable",
      "type": "function"
    },
    {
      "inputs": [
        {
          "internalType": "bytes32",
          "name": "_asset",
          "type": "bytes32"
        },
        {
          "internalType": "address",
          "name": "_addr",
          "type": "address"
        },
        {
          "internalType": "uint256",
          "name": "tokenId",
          "type": "uint256"
        }
      ],
      "name": "setERC1155Info",
      "outputs": [],
      "stateMutability": "nonpayable",
      "type": "function"
    },
    {
      "inputs": [
        {
          "internalType": "bytes32",
          "name": "_asset",
          "type": "bytes32"
        },
        {
          "internalType": "address",
          "name": "_addr",
          "type": "address"
        }
      ],
      "name": "setERC20Info",
      "outputs": [],
      "stateMutability": "nonpayable",
      "type": "function"
    },
    {
      "inputs": [
        {
          "internalType": "bytes32",
          "name": "_asset",
          "type": "bytes32"
        },
        {
          "internalType": "address",
          "name": "_addr",
          "type": "address"
        },
        {
          "internalType": "uint256",
          "name": "tokenId",
          "type": "uint256"
        }
      ],
      "name": "setERC721Info",
      "outputs": [],
      "stateMutability": "nonpayable",
      "type": "function"
    },
    {
      "inputs": [
        {
          "internalType": "address",
          "name": "newOwner",
          "type": "address"
        }
      ],
      "name": "transferOwnership",
      "outputs": [],
      "stateMutability": "nonpayable",
      "type": "function"
    }
  ],
  "bytecode": "0x608060405234801561001057600080fd5b5061134b806100206000396000f3fe608060405234801561001057600080fd5b50600436106100f55760003560e01c8063a8b7cc1611610097578063d87e0e3211610066578063d87e0e3214610287578063e78cea92146102b8578063ed7e205b146102d6578063f2fde38b146102f2576100f5565b8063a8b7cc1614610202578063c04fd06c1461021e578063c4d66de81461024f578063d0e5390d1461026b576100f5565b8063715018a6116100d3578063715018a6146101765780638da5cb5b14610180578063979a9b5e1461019e5780639fda5b66146101ce576100f5565b80630404e3c5146100fa57806305c62fe31461012a5780631996e4f414610146575b600080fd5b610114600480360381019061010f9190610d8e565b61030e565b6040516101219190610fe8565b60405180910390f35b610144600480360381019061013f9190610df3565b61033b565b005b610160600480360381019061015b9190610d8e565b610451565b60405161016d9190610f51565b60405180910390f35b61017e610491565b005b6101886104a5565b6040516101959190610f51565b60405180910390f35b6101b860048036038101906101b39190610d8e565b6104cf565b6040516101c59190611003565b60405180910390f35b6101e860048036038101906101e39190610d8e565b6104fc565b6040516101f9959493929190610f95565b60405180910390f35b61021c60048036038101906102179190610d8e565b610579565b005b61023860048036038101906102339190610d8e565b6105b3565b604051610246929190610f6c565b60405180910390f35b61026960048036038101906102649190610d65565b610601565b005b61028560048036038101906102809190610df3565b610789565b005b6102a1600480360381019061029c9190610d8e565b61089f565b6040516102af929190610f6c565b60405180910390f35b6102c06108ed565b6040516102cd9190610f51565b60405180910390f35b6102f060048036038101906102eb9190610db7565b610913565b005b61030c60048036038101906103079190610d65565b610a6c565b005b60006066600083815260200190815260200160002060020160019054906101000a900460ff169050919050565b606560009054906101000a900473ffffffffffffffffffffffffffffffffffffffff1673ffffffffffffffffffffffffffffffffffffffff163373ffffffffffffffffffffffffffffffffffffffff161461039557600080fd5b6000606660008581526020019081526020016000209050828160000160006101000a81548173ffffffffffffffffffffffffffffffffffffffff021916908373ffffffffffffffffffffffffffffffffffffffff16021790555081816001018190555060018160020160006101000a81548160ff02191690836002811115610446577f4e487b7100000000000000000000000000000000000000000000000000000000600052602160045260246000fd5b021790555050505050565b60006066600083815260200190815260200160002060000160009054906101000a900473ffffffffffffffffffffffffffffffffffffffff169050919050565b610499610af0565b6104a36000610b6e565b565b6000603360009054906101000a900473ffffffffffffffffffffffffffffffffffffffff16905090565b60006066600083815260200190815260200160002060020160009054906101000a900460ff169050919050565b60666020528060005260406000206000915090508060000160009054906101000a900473ffffffffffffffffffffffffffffffffffffffff16908060010154908060020160009054906101000a900460ff16908060020160019054906101000a900460ff16908060020160029054906101000a900460ff16905085565b610581610af0565b60016066600083815260200190815260200160002060020160016101000a81548160ff02191690831515021790555050565b60008060006066600085815260200190815260200160002090508060000160009054906101000a900473ffffffffffffffffffffffffffffffffffffffff1681600101549250925050915091565b60008060019054906101000a900460ff161590508080156106325750600160008054906101000a900460ff1660ff16105b8061065f575061064130610c34565b15801561065e5750600160008054906101000a900460ff1660ff16145b5b61069e576040517f08c379a000000000000000000000000000000000000000000000000000000000815260040161069590611059565b60405180910390fd5b60016000806101000a81548160ff021916908360ff16021790555080156106db576001600060016101000a81548160ff0219169083151502179055505b81606560006101000a81548173ffffffffffffffffffffffffffffffffffffffff021916908373ffffffffffffffffffffffffffffffffffffffff160217905550610724610c57565b61072c610ca8565b80156107855760008060016101000a81548160ff0219169083151502179055507f7f26b83ff96e1f2b6a682f133852f6798a09c465da95921460cefb3847402498600160405161077c919061101e565b60405180910390a15b5050565b606560009054906101000a900473ffffffffffffffffffffffffffffffffffffffff1673ffffffffffffffffffffffffffffffffffffffff163373ffffffffffffffffffffffffffffffffffffffff16146107e357600080fd5b6000606660008581526020019081526020016000209050828160000160006101000a81548173ffffffffffffffffffffffffffffffffffffffff021916908373ffffffffffffffffffffffffffffffffffffffff16021790555081816001018190555060028160020160006101000a81548160ff02191690836002811115610894577f4e487b7100000000000000000000000000000000000000000000000000000000600052602160045260246000fd5b021790555050505050565b60008060006066600085815260200190815260200160002090508060000160009054906101000a900473ffffffffffffffffffffffffffffffffffffffff1681600101549250925050915091565b606560009054906101000a900473ffffffffffffffffffffffffffffffffffffffff1681565b606560009054906101000a900473ffffffffffffffffffffffffffffffffffffffff1673ffffffffffffffffffffffffffffffffffffffff163373ffffffffffffffffffffffffffffffffffffffff161461096d57600080fd5b600060666000848152602001908152602001600020905060008290508073ffffffffffffffffffffffffffffffffffffffff1663313ce5676040518163ffffffff1660e01b815260040160206040518083038186803b1580156109cf57600080fd5b505afa1580156109e3573d6000803e3d6000fd5b505050506040513d601f19601f82011682018060405250810190610a079190610e42565b8260020160026101000a81548160ff021916908360ff160217905550828260000160006101000a81548173ffffffffffffffffffffffffffffffffffffffff021916908373ffffffffffffffffffffffffffffffffffffffff16021790555050505050565b610a74610af0565b600073ffffffffffffffffffffffffffffffffffffffff168173ffffffffffffffffffffffffffffffffffffffff161415610ae4576040517f08c379a0000000000000000000000000000000000000000000000000000000008152600401610adb90611039565b60405180910390fd5b610aed81610b6e565b50565b610af8610d09565b73ffffffffffffffffffffffffffffffffffffffff16610b166104a5565b73ffffffffffffffffffffffffffffffffffffffff1614610b6c576040517f08c379a0000000000000000000000000000000000000000000000000000000008152600401610b6390611079565b60405180910390fd5b565b6000603360009054906101000a900473ffffffffffffffffffffffffffffffffffffffff16905081603360006101000a81548173ffffffffffffffffffffffffffffffffffffffff021916908373ffffffffffffffffffffffffffffffffffffffff1602179055508173ffffffffffffffffffffffffffffffffffffffff168173ffffffffffffffffffffffffffffffffffffffff167f8be0079c531659141344cd1fd0a4f28419497f9722a3daafe3b4186f6b6457e060405160405180910390a35050565b6000808273ffffffffffffffffffffffffffffffffffffffff163b119050919050565b600060019054906101000a900460ff16610ca6576040517f08c379a0000000000000000000000000000000000000000000000000000000008152600401610c9d90611099565b60405180910390fd5b565b600060019054906101000a900460ff16610cf7576040517f08c379a0000000000000000000000000000000000000000000000000000000008152600401610cee90611099565b60405180910390fd5b610d07610d02610d09565b610b6e565b565b600033905090565b600081359050610d20816112b9565b92915050565b600081359050610d35816112d0565b92915050565b600081359050610d4a816112e7565b92915050565b600081519050610d5f816112fe565b92915050565b600060208284031215610d7757600080fd5b6000610d8584828501610d11565b91505092915050565b600060208284031215610da057600080fd5b6000610dae84828501610d26565b91505092915050565b60008060408385031215610dca57600080fd5b6000610dd885828601610d26565b9250506020610de985828601610d11565b9150509250929050565b600080600060608486031215610e0857600080fd5b6000610e1686828701610d26565b9350506020610e2786828701610d11565b9250506040610e3886828701610d3b565b9150509250925092565b600060208284031215610e5457600080fd5b6000610e6284828501610d50565b91505092915050565b610e74816110ca565b82525050565b610e83816110dc565b82525050565b610e928161113c565b82525050565b610ea18161114e565b82525050565b6000610eb46026836110b9565b9150610ebf8261118f565b604082019050919050565b6000610ed7602e836110b9565b9150610ee2826111de565b604082019050919050565b6000610efa6020836110b9565b9150610f058261122d565b602082019050919050565b6000610f1d602b836110b9565b9150610f2882611256565b604082019050919050565b610f3c81611125565b82525050565b610f4b8161112f565b82525050565b6000602082019050610f666000830184610e6b565b92915050565b6000604082019050610f816000830185610e6b565b610f8e6020830184610f33565b9392505050565b600060a082019050610faa6000830188610e6b565b610fb76020830187610f33565b610fc46040830186610e89565b610fd16060830185610e7a565b610fde6080830184610f42565b9695505050505050565b6000602082019050610ffd6000830184610e7a565b92915050565b60006020820190506110186000830184610e89565b92915050565b60006020820190506110336000830184610e98565b92915050565b6000602082019050818103600083015261105281610ea7565b9050919050565b6000602082019050818103600083015261107281610eca565b9050919050565b6000602082019050818103600083015261109281610eed565b9050919050565b600060208201905081810360008301526110b281610f10565b9050919050565b600082825260208201905092915050565b60006110d582611105565b9050919050565b60008115159050919050565b6000819050919050565b6000819050611100826112a5565b919050565b600073ffffffffffffffffffffffffffffffffffffffff82169050919050565b6000819050919050565b600060ff82169050919050565b6000611147826110f2565b9050919050565b60006111598261112f565b9050919050565b7f4e487b7100000000000000000000000000000000000000000000000000000000600052602160045260246000fd5b7f4f776e61626c653a206e6577206f776e657220697320746865207a65726f206160008201527f6464726573730000000000000000000000000000000000000000000000000000602082015250565b7f496e697469616c697a61626c653a20636f6e747261637420697320616c72656160008201527f647920696e697469616c697a6564000000000000000000000000000000000000602082015250565b7f4f776e61626c653a2063616c6c6572206973206e6f7420746865206f776e6572600082015250565b7f496e697469616c697a61626c653a20636f6e7472616374206973206e6f74206960008201527f6e697469616c697a696e67000000000000000000000000000000000000000000602082015250565b600381106112b6576112b5611160565b5b50565b6112c2816110ca565b81146112cd57600080fd5b50565b6112d9816110e8565b81146112e457600080fd5b50565b6112f081611125565b81146112fb57600080fd5b50565b6113078161112f565b811461131257600080fd5b5056fea2646970667358221220db600aa3e952b4ee0d947dde04bacf2373a4e8a800703e5f2adf8d37b547d63964736f6c63430008040033",
  "linkReferences": {},
  "deployedLinkReferences": {}
}