{
  "_format": "hh-sol-artifact-1",
  "contractName": "PrismXXAsset",
  "sourceName": "contracts/examples/PrismXXAsset.sol",
  "abi": [
    {
      "anonymous": false,
      "inputs": [
        {
          "indexed": true,
          "internalType": "address",
          "name": "previousOwner",
          "type": "address"
        },
        {
          "indexed": true,
          "internalType": "address",
          "name": "newOwner",
          "type": "address"
        }
      ],
      "name": "OwnershipTransferred",
      "type": "event"
    },
    {
      "inputs": [
        {
          "internalType": "address",
          "name": "_frc20",
          "type": "address"
        }
      ],
      "name": "adminResetAssetMappingByAddress",
      "outputs": [],
      "stateMutability": "nonpayable",
      "type": "function"
    },
    {
      "inputs": [
        {
          "internalType": "address",
          "name": "_frc20",
          "type": "address"
        },
        {
          "internalType": "bytes32",
          "name": "_asset",
          "type": "bytes32"
        },
        {
          "internalType": "bool",
          "name": "_isBurn",
          "type": "bool"
        },
        {
          "internalType": "uint8",
          "name": "_decimal",
          "type": "uint8"
        }
      ],
      "name": "adminSetAssetMaping",
      "outputs": [],
      "stateMutability": "nonpayable",
      "type": "function"
    },
    {
      "inputs": [
        {
          "internalType": "address",
          "name": "",
          "type": "address"
        }
      ],
      "name": "assetInfos",
      "outputs": [
        {
          "internalType": "bytes32",
          "name": "asset",
          "type": "bytes32"
        },
        {
          "internalType": "bool",
          "name": "isBurn",
          "type": "bool"
        },
        {
          "internalType": "uint8",
          "name": "decimal",
          "type": "uint8"
        }
      ],
      "stateMutability": "view",
      "type": "function"
    },
    {
      "inputs": [
        {
          "internalType": "bytes32",
          "name": "",
          "type": "bytes32"
        }
      ],
      "name": "assetToAddress",
      "outputs": [
        {
          "internalType": "address",
          "name": "",
          "type": "address"
        }
      ],
      "stateMutability": "view",
      "type": "function"
    },
    {
      "inputs": [
        {
          "internalType": "address",
          "name": "_frc20",
          "type": "address"
        },
        {
          "internalType": "uint256",
          "name": "amount",
          "type": "uint256"
        }
      ],
      "name": "depositDecimal",
      "outputs": [
        {
          "internalType": "uint256",
          "name": "",
          "type": "uint256"
        }
      ],
      "stateMutability": "view",
      "type": "function"
    },
    {
      "inputs": [
        {
          "internalType": "bytes32",
          "name": "_asset",
          "type": "bytes32"
        }
      ],
      "name": "getAddressByAsset",
      "outputs": [
        {
          "internalType": "address",
          "name": "",
          "type": "address"
        }
      ],
      "stateMutability": "view",
      "type": "function"
    },
    {
      "inputs": [
        {
          "internalType": "address",
          "name": "_frc20",
          "type": "address"
        }
      ],
      "name": "getAssetByAddress",
      "outputs": [
        {
          "internalType": "bytes32",
          "name": "",
          "type": "bytes32"
        }
      ],
      "stateMutability": "view",
      "type": "function"
    },
    {
      "inputs": [
        {
          "internalType": "address",
          "name": "_frc20",
          "type": "address"
        }
      ],
      "name": "isBurn",
      "outputs": [
        {
          "internalType": "bool",
          "name": "",
          "type": "bool"
        }
      ],
      "stateMutability": "view",
      "type": "function"
    },
    {
      "inputs": [],
      "name": "owner",
      "outputs": [
        {
          "internalType": "address",
          "name": "",
          "type": "address"
        }
      ],
      "stateMutability": "view",
      "type": "function"
    },
    {
      "inputs": [],
      "name": "renounceOwnership",
      "outputs": [],
      "stateMutability": "nonpayable",
      "type": "function"
    },
    {
      "inputs": [
        {
          "internalType": "address",
          "name": "newOwner",
          "type": "address"
        }
      ],
      "name": "transferOwnership",
      "outputs": [],
      "stateMutability": "nonpayable",
      "type": "function"
    },
    {
      "inputs": [
        {
          "internalType": "address",
          "name": "_frc20",
          "type": "address"
        },
        {
          "internalType": "uint256",
          "name": "amount",
          "type": "uint256"
        }
      ],
      "name": "withdrawDecimal",
      "outputs": [
        {
          "internalType": "uint256",
          "name": "",
          "type": "uint256"
        }
      ],
      "stateMutability": "view",
      "type": "function"
    }
  ],
  "bytecode": "0x608060405234801561001057600080fd5b5061002d61002261003260201b60201c565b61003a60201b60201c565b6100fe565b600033905090565b60008060009054906101000a900473ffffffffffffffffffffffffffffffffffffffff169050816000806101000a81548173ffffffffffffffffffffffffffffffffffffffff021916908373ffffffffffffffffffffffffffffffffffffffff1602179055508173ffffffffffffffffffffffffffffffffffffffff168173ffffffffffffffffffffffffffffffffffffffff167f8be0079c531659141344cd1fd0a4f28419497f9722a3daafe3b4186f6b6457e060405160405180910390a35050565b6114838061010d6000396000f3fe608060405234801561001057600080fd5b50600436106100b45760003560e01c806379e392f81161007157806379e392f8146101b35780638da5cb5b146101cf578063b19fa6ee146101ed578063cade13f81461021d578063cc03a5e314610239578063f2fde38b1461026b576100b4565b80630cba53ea146100b95780632a9b4a93146100e957806352492479146101195780635ddd786a14610149578063715018a61461017957806377cbb3ff14610183575b600080fd5b6100d360048036038101906100ce9190610d5d565b610287565b6040516100e09190610f61565b60405180910390f35b61010360048036038101906100fe9190610e25565b6102d3565b6040516101109190610f2b565b60405180910390f35b610133600480360381019061012e9190610e25565b610306565b6040516101409190610f2b565b60405180910390f35b610163600480360381019061015e9190610de9565b610343565b6040516101709190611013565b60405180910390f35b61018161050d565b005b61019d60048036038101906101989190610d5d565b610595565b6040516101aa9190610f46565b60405180910390f35b6101cd60048036038101906101c89190610d86565b6105ee565b005b6101d7610775565b6040516101e49190610f2b565b60405180910390f35b61020760048036038101906102029190610de9565b61079e565b6040516102149190611013565b60405180910390f35b61023760048036038101906102329190610d5d565b610968565b005b610253600480360381019061024e9190610d5d565b610ad7565b60405161026293929190610f7c565b60405180910390f35b61028560048036038101906102809190610d5d565b610b1b565b005b6000600160008373ffffffffffffffffffffffffffffffffffffffff1673ffffffffffffffffffffffffffffffffffffffff168152602001908152602001600020600001549050919050565b60026020528060005260406000206000915054906101000a900473ffffffffffffffffffffffffffffffffffffffff1681565b60006002600083815260200190815260200160002060009054906101000a900473ffffffffffffffffffffffffffffffffffffffff169050919050565b6000808390506000600160008673ffffffffffffffffffffffffffffffffffffffff1673ffffffffffffffffffffffffffffffffffffffff16815260200190815260200160002060010160019054906101000a900460ff16905060008273ffffffffffffffffffffffffffffffffffffffff1663313ce5676040518163ffffffff1660e01b815260040160206040518083038186803b1580156103e557600080fd5b505afa1580156103f9573d6000803e3d6000fd5b505050506040513d601f19601f8201168201806040525081019061041d9190610e4e565b90508060ff168260ff1611156104bf576000818361043b919061123b565b9050600081600a61044c91906110c3565b87610457919061103f565b90508682600a61046791906110c3565b8261047291906111e1565b146104b2576040517f08c379a00000000000000000000000000000000000000000000000000000000081526004016104a990610fb3565b60405180910390fd5b8095505050505050610507565b8160ff168160ff16111561050057600082826104db919061123b565b905080600a6104ea91906110c3565b866104f591906111e1565b945050505050610507565b8493505050505b92915050565b610515610c13565b73ffffffffffffffffffffffffffffffffffffffff16610533610775565b73ffffffffffffffffffffffffffffffffffffffff1614610589576040517f08c379a000000000000000000000000000000000000000000000000000000000815260040161058090610ff3565b60405180910390fd5b6105936000610c1b565b565b6000600160008373ffffffffffffffffffffffffffffffffffffffff1673ffffffffffffffffffffffffffffffffffffffff16815260200190815260200160002060010160009054906101000a900460ff169050919050565b6105f6610c13565b73ffffffffffffffffffffffffffffffffffffffff16610614610775565b73ffffffffffffffffffffffffffffffffffffffff161461066a576040517f08c379a000000000000000000000000000000000000000000000000000000000815260040161066190610ff3565b60405180910390fd5b6000604051806060016040528085815260200184151581526020018360ff16815250905080600160008773ffffffffffffffffffffffffffffffffffffffff1673ffffffffffffffffffffffffffffffffffffffff1681526020019081526020016000206000820151816000015560208201518160010160006101000a81548160ff02191690831515021790555060408201518160010160016101000a81548160ff021916908360ff160217905550905050846002600086815260200190815260200160002060006101000a81548173ffffffffffffffffffffffffffffffffffffffff021916908373ffffffffffffffffffffffffffffffffffffffff1602179055505050505050565b60008060009054906101000a900473ffffffffffffffffffffffffffffffffffffffff16905090565b6000808390506000600160008673ffffffffffffffffffffffffffffffffffffffff1673ffffffffffffffffffffffffffffffffffffffff16815260200190815260200160002060010160019054906101000a900460ff16905060008273ffffffffffffffffffffffffffffffffffffffff1663313ce5676040518163ffffffff1660e01b815260040160206040518083038186803b15801561084057600080fd5b505afa158015610854573d6000803e3d6000fd5b505050506040513d601f19601f820116820180604052508101906108789190610e4e565b90508160ff168160ff16111561091a5760008282610896919061123b565b9050600081600a6108a791906110c3565b876108b2919061103f565b90508682600a6108c291906110c3565b826108cd91906111e1565b1461090d576040517f08c379a000000000000000000000000000000000000000000000000000000000815260040161090490610fb3565b60405180910390fd5b8095505050505050610962565b8060ff168260ff16111561095b5760008183610936919061123b565b905080600a61094591906110c3565b8661095091906111e1565b945050505050610962565b8493505050505b92915050565b610970610c13565b73ffffffffffffffffffffffffffffffffffffffff1661098e610775565b73ffffffffffffffffffffffffffffffffffffffff16146109e4576040517f08c379a00000000000000000000000000000000000000000000000000000000081526004016109db90610ff3565b60405180910390fd5b6000600160008373ffffffffffffffffffffffffffffffffffffffff1673ffffffffffffffffffffffffffffffffffffffff168152602001908152602001600020600001549050600160008373ffffffffffffffffffffffffffffffffffffffff1673ffffffffffffffffffffffffffffffffffffffff1681526020019081526020016000206000808201600090556001820160006101000a81549060ff02191690556001820160016101000a81549060ff021916905550506002600082815260200190815260200160002060006101000a81549073ffffffffffffffffffffffffffffffffffffffff02191690555050565b60016020528060005260406000206000915090508060000154908060010160009054906101000a900460ff16908060010160019054906101000a900460ff16905083565b610b23610c13565b73ffffffffffffffffffffffffffffffffffffffff16610b41610775565b73ffffffffffffffffffffffffffffffffffffffff1614610b97576040517f08c379a0000000000000000000000000000000000000000000000000000000008152600401610b8e90610ff3565b60405180910390fd5b600073ffffffffffffffffffffffffffffffffffffffff168173ffffffffffffffffffffffffffffffffffffffff161415610c07576040517f08c379a0000000000000000000000000000000000000000000000000000000008152600401610bfe90610fd3565b60405180910390fd5b610c1081610c1b565b50565b600033905090565b60008060009054906101000a900473ffffffffffffffffffffffffffffffffffffffff169050816000806101000a81548173ffffffffffffffffffffffffffffffffffffffff021916908373ffffffffffffffffffffffffffffffffffffffff1602179055508173ffffffffffffffffffffffffffffffffffffffff168173ffffffffffffffffffffffffffffffffffffffff167f8be0079c531659141344cd1fd0a4f28419497f9722a3daafe3b4186f6b6457e060405160405180910390a35050565b600081359050610cee816113da565b92915050565b600081359050610d03816113f1565b92915050565b600081359050610d1881611408565b92915050565b600081359050610d2d8161141f565b92915050565b600081359050610d4281611436565b92915050565b600081519050610d5781611436565b92915050565b600060208284031215610d6f57600080fd5b6000610d7d84828501610cdf565b91505092915050565b60008060008060808587031215610d9c57600080fd5b6000610daa87828801610cdf565b9450506020610dbb87828801610d09565b9350506040610dcc87828801610cf4565b9250506060610ddd87828801610d33565b91505092959194509250565b60008060408385031215610dfc57600080fd5b6000610e0a85828601610cdf565b9250506020610e1b85828601610d1e565b9150509250929050565b600060208284031215610e3757600080fd5b6000610e4584828501610d09565b91505092915050565b600060208284031215610e6057600080fd5b6000610e6e84828501610d48565b91505092915050565b610e808161126f565b82525050565b610e8f81611281565b82525050565b610e9e8161128d565b82525050565b6000610eb160168361102e565b9150610ebc82611339565b602082019050919050565b6000610ed460268361102e565b9150610edf82611362565b604082019050919050565b6000610ef760208361102e565b9150610f02826113b1565b602082019050919050565b610f16816112b7565b82525050565b610f25816112c1565b82525050565b6000602082019050610f406000830184610e77565b92915050565b6000602082019050610f5b6000830184610e86565b92915050565b6000602082019050610f766000830184610e95565b92915050565b6000606082019050610f916000830186610e95565b610f9e6020830185610e86565b610fab6040830184610f1c565b949350505050565b60006020820190508181036000830152610fcc81610ea4565b9050919050565b60006020820190508181036000830152610fec81610ec7565b9050919050565b6000602082019050818103600083015261100c81610eea565b9050919050565b60006020820190506110286000830184610f0d565b92915050565b600082825260208201905092915050565b600061104a826112b7565b9150611055836112b7565b925082611065576110646112fd565b5b828204905092915050565b6000808291508390505b60018511156110ba57808604811115611096576110956112ce565b5b60018516156110a55780820291505b80810290506110b38561132c565b945061107a565b94509492505050565b60006110ce826112b7565b91506110d9836112c1565b92506111067fffffffffffffffffffffffffffffffffffffffffffffffffffffffffffffffff848461110e565b905092915050565b60008261111e57600190506111da565b8161112c57600090506111da565b8160018114611142576002811461114c5761117b565b60019150506111da565b60ff84111561115e5761115d6112ce565b5b8360020a915084821115611175576111746112ce565b5b506111da565b5060208310610133831016604e8410600b84101617156111b05782820a9050838111156111ab576111aa6112ce565b5b6111da565b6111bd8484846001611070565b925090508184048111156111d4576111d36112ce565b5b81810290505b9392505050565b60006111ec826112b7565b91506111f7836112b7565b9250817fffffffffffffffffffffffffffffffffffffffffffffffffffffffffffffffff04831182151516156112305761122f6112ce565b5b828202905092915050565b6000611246826112c1565b9150611251836112c1565b925082821015611264576112636112ce565b5b828203905092915050565b600061127a82611297565b9050919050565b60008115159050919050565b6000819050919050565b600073ffffffffffffffffffffffffffffffffffffffff82169050919050565b6000819050919050565b600060ff82169050919050565b7f4e487b7100000000000000000000000000000000000000000000000000000000600052601160045260246000fd5b7f4e487b7100000000000000000000000000000000000000000000000000000000600052601260045260246000fd5b60008160011c9050919050565b7f4c6f77206469676974616c206d75737420626520302e00000000000000000000600082015250565b7f4f776e61626c653a206e6577206f776e657220697320746865207a65726f206160008201527f6464726573730000000000000000000000000000000000000000000000000000602082015250565b7f4f776e61626c653a2063616c6c6572206973206e6f7420746865206f776e6572600082015250565b6113e38161126f565b81146113ee57600080fd5b50565b6113fa81611281565b811461140557600080fd5b50565b6114118161128d565b811461141c57600080fd5b50565b611428816112b7565b811461143357600080fd5b50565b61143f816112c1565b811461144a57600080fd5b5056fea2646970667358221220a39b6a4a3a38980e789fdef262302c5e0f4977ddb3903decb42ebcb4568d5a2064736f6c63430008040033",
  "linkReferences": {},
  "deployedLinkReferences": {}
}