{
  "_format": "hh-sol-artifact-1",
  "contractName": "PrismXXLedger",
  "sourceName": "contracts/examples/PrismXXLedger.sol",
  "abi": [
    {
      "inputs": [
        {
          "internalType": "address",
          "name": "_bridge",
          "type": "address"
        },
        {
          "internalType": "address",
          "name": "_asset",
          "type": "address"
        }
      ],
      "stateMutability": "nonpayable",
      "type": "constructor"
    },
    {
      "anonymous": false,
      "inputs": [
        {
          "indexed": true,
          "internalType": "address",
          "name": "previousOwner",
          "type": "address"
        },
        {
          "indexed": true,
          "internalType": "address",
          "name": "newOwner",
          "type": "address"
        }
      ],
      "name": "OwnershipTransferred",
      "type": "event"
    },
    {
      "inputs": [
        {
          "internalType": "address",
          "name": "_asset",
          "type": "address"
        }
      ],
      "name": "adminSetAsset",
      "outputs": [],
      "stateMutability": "nonpayable",
      "type": "function"
    },
    {
      "inputs": [
        {
          "internalType": "address",
          "name": "_bridge",
          "type": "address"
        }
      ],
      "name": "adminSetBridge",
      "outputs": [],
      "stateMutability": "nonpayable",
      "type": "function"
    },
    {
      "inputs": [],
      "name": "asset",
      "outputs": [
        {
          "internalType": "address",
          "name": "",
          "type": "address"
        }
      ],
      "stateMutability": "view",
      "type": "function"
    },
    {
      "inputs": [],
      "name": "bridge",
      "outputs": [
        {
          "internalType": "address",
          "name": "",
          "type": "address"
        }
      ],
      "stateMutability": "view",
      "type": "function"
    },
    {
      "inputs": [
        {
          "internalType": "address",
          "name": "addr",
          "type": "address"
        }
      ],
      "name": "computeERC20AssetType",
      "outputs": [
        {
          "internalType": "bytes32",
          "name": "",
          "type": "bytes32"
        }
      ],
      "stateMutability": "pure",
      "type": "function"
    },
    {
      "inputs": [
        {
          "internalType": "address",
          "name": "addr",
          "type": "address"
        },
        {
          "internalType": "uint256",
          "name": "tokenId",
          "type": "uint256"
        }
      ],
      "name": "computeNFTAssetType",
      "outputs": [
        {
          "internalType": "bytes32",
          "name": "",
          "type": "bytes32"
        }
      ],
      "stateMutability": "pure",
      "type": "function"
    },
    {
      "inputs": [
        {
          "internalType": "address",
          "name": "_addr",
          "type": "address"
        },
        {
          "internalType": "address",
          "name": "_target",
          "type": "address"
        },
        {
          "internalType": "uint256",
          "name": "_id",
          "type": "uint256"
        },
        {
          "internalType": "uint256",
          "name": "_amount",
          "type": "uint256"
        }
      ],
      "name": "depositFRC1155",
      "outputs": [],
      "stateMutability": "nonpayable",
      "type": "function"
    },
    {
      "inputs": [
        {
          "internalType": "address",
          "name": "_frc20",
          "type": "address"
        },
        {
          "internalType": "address",
          "name": "_target",
          "type": "address"
        },
        {
          "internalType": "uint256",
          "name": "_amount",
          "type": "uint256"
        }
      ],
      "name": "depositFRC20",
      "outputs": [],
      "stateMutability": "nonpayable",
      "type": "function"
    },
    {
      "inputs": [
        {
          "internalType": "address",
          "name": "_frc721",
          "type": "address"
        },
        {
          "internalType": "address",
          "name": "_target",
          "type": "address"
        },
        {
          "internalType": "uint256",
          "name": "tokenId",
          "type": "uint256"
        }
      ],
      "name": "depositFRC721",
      "outputs": [],
      "stateMutability": "nonpayable",
      "type": "function"
    },
    {
      "inputs": [
        {
          "internalType": "address",
          "name": "",
          "type": "address"
        },
        {
          "internalType": "address",
          "name": "",
          "type": "address"
        },
        {
          "internalType": "uint256[]",
          "name": "",
          "type": "uint256[]"
        },
        {
          "internalType": "uint256[]",
          "name": "",
          "type": "uint256[]"
        },
        {
          "internalType": "bytes",
          "name": "",
          "type": "bytes"
        }
      ],
      "name": "onERC1155BatchReceived",
      "outputs": [
        {
          "internalType": "bytes4",
          "name": "",
          "type": "bytes4"
        }
      ],
      "stateMutability": "nonpayable",
      "type": "function"
    },
    {
      "inputs": [
        {
          "internalType": "address",
          "name": "",
          "type": "address"
        },
        {
          "internalType": "address",
          "name": "",
          "type": "address"
        },
        {
          "internalType": "uint256",
          "name": "",
          "type": "uint256"
        },
        {
          "internalType": "uint256",
          "name": "",
          "type": "uint256"
        },
        {
          "internalType": "bytes",
          "name": "",
          "type": "bytes"
        }
      ],
      "name": "onERC1155Received",
      "outputs": [
        {
          "internalType": "bytes4",
          "name": "",
          "type": "bytes4"
        }
      ],
      "stateMutability": "nonpayable",
      "type": "function"
    },
    {
      "inputs": [
        {
          "internalType": "address",
          "name": "",
          "type": "address"
        },
        {
          "internalType": "address",
          "name": "",
          "type": "address"
        },
        {
          "internalType": "uint256",
          "name": "",
          "type": "uint256"
        },
        {
          "internalType": "bytes",
          "name": "",
          "type": "bytes"
        }
      ],
      "name": "onERC721Received",
      "outputs": [
        {
          "internalType": "bytes4",
          "name": "",
          "type": "bytes4"
        }
      ],
      "stateMutability": "nonpayable",
      "type": "function"
    },
    {
      "inputs": [],
      "name": "owner",
      "outputs": [
        {
          "internalType": "address",
          "name": "",
          "type": "address"
        }
      ],
      "stateMutability": "view",
      "type": "function"
    },
    {
      "inputs": [],
      "name": "renounceOwnership",
      "outputs": [],
      "stateMutability": "nonpayable",
      "type": "function"
    },
    {
      "inputs": [
        {
          "internalType": "bytes4",
          "name": "interfaceId",
          "type": "bytes4"
        }
      ],
      "name": "supportsInterface",
      "outputs": [
        {
          "internalType": "bool",
          "name": "",
          "type": "bool"
        }
      ],
      "stateMutability": "view",
      "type": "function"
    },
    {
      "inputs": [
        {
          "internalType": "address",
          "name": "newOwner",
          "type": "address"
        }
      ],
      "name": "transferOwnership",
      "outputs": [],
      "stateMutability": "nonpayable",
      "type": "function"
    },
    {
      "inputs": [
        {
          "internalType": "address",
          "name": "_addr",
          "type": "address"
        },
        {
          "internalType": "address",
          "name": "_target",
          "type": "address"
        },
        {
          "internalType": "uint256",
          "name": "_id",
          "type": "uint256"
        },
        {
          "internalType": "uint256",
          "name": "_amount",
          "type": "uint256"
        },
        {
          "internalType": "bytes",
          "name": "_data",
          "type": "bytes"
        }
      ],
      "name": "withdrawFRC1155",
      "outputs": [],
      "stateMutability": "nonpayable",
      "type": "function"
    },
    {
      "inputs": [
        {
          "internalType": "address",
          "name": "_frc20",
          "type": "address"
        },
        {
          "internalType": "address",
          "name": "_target",
          "type": "address"
        },
        {
          "internalType": "uint256",
          "name": "_amount",
          "type": "uint256"
        },
        {
          "internalType": "bytes",
          "name": "_data",
          "type": "bytes"
        }
      ],
      "name": "withdrawFRC20",
      "outputs": [],
      "stateMutability": "nonpayable",
      "type": "function"
    },
    {
      "inputs": [
        {
          "internalType": "address",
          "name": "_addr",
          "type": "address"
        },
        {
          "internalType": "address",
          "name": "_target",
          "type": "address"
        },
        {
          "internalType": "uint256",
          "name": "_id",
          "type": "uint256"
        },
        {
          "internalType": "bytes",
          "name": "_data",
          "type": "bytes"
        }
      ],
      "name": "withdrawFRC721",
      "outputs": [],
      "stateMutability": "nonpayable",
      "type": "function"
    }
  ],
  "bytecode": "0x60806040523480156200001157600080fd5b5060405162002574380380620025748339818101604052810190620000379190620001c4565b620000576200004b620000e160201b60201c565b620000e960201b60201c565b81600160006101000a81548173ffffffffffffffffffffffffffffffffffffffff021916908373ffffffffffffffffffffffffffffffffffffffff16021790555080600260006101000a81548173ffffffffffffffffffffffffffffffffffffffff021916908373ffffffffffffffffffffffffffffffffffffffff160217905550505062000253565b600033905090565b60008060009054906101000a900473ffffffffffffffffffffffffffffffffffffffff169050816000806101000a81548173ffffffffffffffffffffffffffffffffffffffff021916908373ffffffffffffffffffffffffffffffffffffffff1602179055508173ffffffffffffffffffffffffffffffffffffffff168173ffffffffffffffffffffffffffffffffffffffff167f8be0079c531659141344cd1fd0a4f28419497f9722a3daafe3b4186f6b6457e060405160405180910390a35050565b600081519050620001be8162000239565b92915050565b60008060408385031215620001d857600080fd5b6000620001e885828601620001ad565b9250506020620001fb85828601620001ad565b9150509250929050565b6000620002128262000219565b9050919050565b600073ffffffffffffffffffffffffffffffffffffffff82169050919050565b620002448162000205565b81146200025057600080fd5b50565b61231180620002636000396000f3fe608060405234801561001057600080fd5b50600436106101215760003560e01c8063554f103b116100ad578063d905b00911610071578063d905b009146102f0578063e78cea9214610320578063f23a6e611461033e578063f2fde38b1461036e578063fabeb1581461038a57610121565b8063554f103b14610260578063653211871461027c578063715018a6146102985780638da5cb5b146102a2578063bc197c81146102c057610121565b806319a18ca0116100f457806319a18ca0146101be5780631a5a143e146101da57806338d52e0f146101f65780633d2b0e0d146102145780633eb0edcf1461023057610121565b806301ffc9a714610126578063025993481461015657806303b5b1e714610172578063150b7a021461018e575b600080fd5b610140600480360381019061013b9190611a63565b6103a6565b60405161014d9190611dd4565b60405180910390f35b610170600480360381019061016b9190611730565b610420565b005b61018c6004803603810190610187919061187a565b6105ef565b005b6101a860048036038101906101a391906117ff565b6106c6565b6040516101b59190611e6a565b60405180910390f35b6101d860048036038101906101d391906118dd565b6106da565b005b6101f460048036038101906101ef9190611648565b6107b7565b005b6101fe610877565b60405161020b9190611c57565b60405180910390f35b61022e6004803603810190610229919061177f565b61089d565b005b61024a60048036038101906102459190611648565b610aca565b6040516102579190611def565b60405180910390f35b61027a60048036038101906102759190611730565b610b00565b005b6102966004803603810190610291919061177f565b610bd4565b005b6102a0610cae565b005b6102aa610d36565b6040516102b79190611c57565b60405180910390f35b6102da60048036038101906102d59190611671565b610d5f565b6040516102e79190611e6a565b60405180910390f35b61030a600480360381019061030591906119fe565b610d74565b6040516103179190611def565b60405180910390f35b610328610dad565b6040516103359190611c57565b60405180910390f35b6103586004803603810190610353919061196f565b610dd3565b6040516103659190611e6a565b60405180910390f35b61038860048036038101906103839190611648565b610de8565b005b6103a4600480360381019061039f9190611648565b610ee0565b005b60007f4e2312e0000000000000000000000000000000000000000000000000000000007bffffffffffffffffffffffffffffffffffffffffffffffffffffffff1916827bffffffffffffffffffffffffffffffffffffffffffffffffffffffff19161480610419575061041882610fa0565b5b9050919050565b600160009054906101000a900473ffffffffffffffffffffffffffffffffffffffff1673ffffffffffffffffffffffffffffffffffffffff163373ffffffffffffffffffffffffffffffffffffffff161461047a57600080fd5b6000600260009054906101000a900473ffffffffffffffffffffffffffffffffffffffff16905060006104ac85610aca565b90508173ffffffffffffffffffffffffffffffffffffffff16630404e3c5826040518263ffffffff1660e01b81526004016104e79190611def565b60206040518083038186803b1580156104ff57600080fd5b505afa158015610513573d6000803e3d6000fd5b505050506040513d601f19601f820116820180604052508101906105379190611a3a565b156105b45760008590508073ffffffffffffffffffffffffffffffffffffffff166379cc679086866040518363ffffffff1660e01b815260040161057c929190611dab565b600060405180830381600087803b15801561059657600080fd5b505af11580156105aa573d6000803e3d6000fd5b50505050506105e8565b60008590506105e68530868473ffffffffffffffffffffffffffffffffffffffff1661100a909392919063ffffffff16565b505b5050505050565b600160009054906101000a900473ffffffffffffffffffffffffffffffffffffffff1673ffffffffffffffffffffffffffffffffffffffff163373ffffffffffffffffffffffffffffffffffffffff161461064957600080fd5b60008490508073ffffffffffffffffffffffffffffffffffffffff1663f242432a853086866040518563ffffffff1660e01b815260040161068d9493929190611d53565b600060405180830381600087803b1580156106a757600080fd5b505af11580156106bb573d6000803e3d6000fd5b505050505050505050565b600063150b7a0260e01b9050949350505050565b600160009054906101000a900473ffffffffffffffffffffffffffffffffffffffff1673ffffffffffffffffffffffffffffffffffffffff163373ffffffffffffffffffffffffffffffffffffffff161461073457600080fd5b60008690508073ffffffffffffffffffffffffffffffffffffffff1663f242432a3088888888886040518763ffffffff1660e01b815260040161077c96959493929190611cf7565b600060405180830381600087803b15801561079657600080fd5b505af11580156107aa573d6000803e3d6000fd5b5050505050505050505050565b6107bf611093565b73ffffffffffffffffffffffffffffffffffffffff166107dd610d36565b73ffffffffffffffffffffffffffffffffffffffff1614610833576040517f08c379a000000000000000000000000000000000000000000000000000000000815260040161082a90611ee7565b60405180910390fd5b80600160006101000a81548173ffffffffffffffffffffffffffffffffffffffff021916908373ffffffffffffffffffffffffffffffffffffffff16021790555050565b600260009054906101000a900473ffffffffffffffffffffffffffffffffffffffff1681565b600160009054906101000a900473ffffffffffffffffffffffffffffffffffffffff1673ffffffffffffffffffffffffffffffffffffffff163373ffffffffffffffffffffffffffffffffffffffff16146108f757600080fd5b6000600260009054906101000a900473ffffffffffffffffffffffffffffffffffffffff169050600061092987610aca565b90508173ffffffffffffffffffffffffffffffffffffffff16630404e3c5826040518263ffffffff1660e01b81526004016109649190611def565b60206040518083038186803b15801561097c57600080fd5b505afa158015610990573d6000803e3d6000fd5b505050506040513d601f19601f820116820180604052508101906109b49190611a3a565b15610a315760008790508073ffffffffffffffffffffffffffffffffffffffff166340c10f1988886040518363ffffffff1660e01b81526004016109f9929190611dab565b600060405180830381600087803b158015610a1357600080fd5b505af1158015610a27573d6000803e3d6000fd5b5050505050610a63565b6000879050610a6187878373ffffffffffffffffffffffffffffffffffffffff1661109b9092919063ffffffff16565b505b610a6c86611121565b15610ac157610abf8685858080601f016020809104026020016040519081016040528093929190818152602001838380828437600081840152601f19601f82011690508083019250505050505050611144565b505b50505050505050565b6000607760001b82604051602001610ae3929190611e0a565b604051602081830303815290604052805190602001209050919050565b600160009054906101000a900473ffffffffffffffffffffffffffffffffffffffff1673ffffffffffffffffffffffffffffffffffffffff163373ffffffffffffffffffffffffffffffffffffffff1614610b5a57600080fd5b60008390508073ffffffffffffffffffffffffffffffffffffffff166342842e0e8430856040518463ffffffff1660e01b8152600401610b9c93929190611c72565b600060405180830381600087803b158015610bb657600080fd5b505af1158015610bca573d6000803e3d6000fd5b5050505050505050565b600160009054906101000a900473ffffffffffffffffffffffffffffffffffffffff1673ffffffffffffffffffffffffffffffffffffffff163373ffffffffffffffffffffffffffffffffffffffff1614610c2e57600080fd5b60008590508073ffffffffffffffffffffffffffffffffffffffff1663b88d4fde30878787876040518663ffffffff1660e01b8152600401610c74959493929190611ca9565b600060405180830381600087803b158015610c8e57600080fd5b505af1158015610ca2573d6000803e3d6000fd5b50505050505050505050565b610cb6611093565b73ffffffffffffffffffffffffffffffffffffffff16610cd4610d36565b73ffffffffffffffffffffffffffffffffffffffff1614610d2a576040517f08c379a0000000000000000000000000000000000000000000000000000000008152600401610d2190611ee7565b60405180910390fd5b610d34600061118e565b565b60008060009054906101000a900473ffffffffffffffffffffffffffffffffffffffff16905090565b600063bc197c8160e01b905095945050505050565b6000600260001b8383604051602001610d8f93929190611e33565b60405160208183030381529060405280519060200120905092915050565b600160009054906101000a900473ffffffffffffffffffffffffffffffffffffffff1681565b600063f23a6e6160e01b905095945050505050565b610df0611093565b73ffffffffffffffffffffffffffffffffffffffff16610e0e610d36565b73ffffffffffffffffffffffffffffffffffffffff1614610e64576040517f08c379a0000000000000000000000000000000000000000000000000000000008152600401610e5b90611ee7565b60405180910390fd5b600073ffffffffffffffffffffffffffffffffffffffff168173ffffffffffffffffffffffffffffffffffffffff161415610ed4576040517f08c379a0000000000000000000000000000000000000000000000000000000008152600401610ecb90611ea7565b60405180910390fd5b610edd8161118e565b50565b610ee8611093565b73ffffffffffffffffffffffffffffffffffffffff16610f06610d36565b73ffffffffffffffffffffffffffffffffffffffff1614610f5c576040517f08c379a0000000000000000000000000000000000000000000000000000000008152600401610f5390611ee7565b60405180910390fd5b80600260006101000a81548173ffffffffffffffffffffffffffffffffffffffff021916908373ffffffffffffffffffffffffffffffffffffffff16021790555050565b60007f01ffc9a7000000000000000000000000000000000000000000000000000000007bffffffffffffffffffffffffffffffffffffffffffffffffffffffff1916827bffffffffffffffffffffffffffffffffffffffffffffffffffffffff1916149050919050565b61108d846323b872dd60e01b85858560405160240161102b93929190611c72565b604051602081830303815290604052907bffffffffffffffffffffffffffffffffffffffffffffffffffffffff19166020820180517bffffffffffffffffffffffffffffffffffffffffffffffffffffffff8381831617835250505050611252565b50505050565b600033905090565b61111c8363a9059cbb60e01b84846040516024016110ba929190611dab565b604051602081830303815290604052907bffffffffffffffffffffffffffffffffffffffffffffffffffffffff19166020820180517bffffffffffffffffffffffffffffffffffffffffffffffffffffffff8381831617835250505050611252565b505050565b6000808273ffffffffffffffffffffffffffffffffffffffff163b119050919050565b606061118683836040518060400160405280601e81526020017f416464726573733a206c6f772d6c6576656c2063616c6c206661696c65640000815250611319565b905092915050565b60008060009054906101000a900473ffffffffffffffffffffffffffffffffffffffff169050816000806101000a81548173ffffffffffffffffffffffffffffffffffffffff021916908373ffffffffffffffffffffffffffffffffffffffff1602179055508173ffffffffffffffffffffffffffffffffffffffff168173ffffffffffffffffffffffffffffffffffffffff167f8be0079c531659141344cd1fd0a4f28419497f9722a3daafe3b4186f6b6457e060405160405180910390a35050565b60006112b4826040518060400160405280602081526020017f5361666545524332303a206c6f772d6c6576656c2063616c6c206661696c65648152508573ffffffffffffffffffffffffffffffffffffffff166113199092919063ffffffff16565b905060008151111561131457808060200190518101906112d49190611a3a565b611313576040517f08c379a000000000000000000000000000000000000000000000000000000000815260040161130a90611f27565b60405180910390fd5b5b505050565b60606113288484600085611331565b90509392505050565b606082471015611376576040517f08c379a000000000000000000000000000000000000000000000000000000000815260040161136d90611ec7565b60405180910390fd5b61137f85611121565b6113be576040517f08c379a00000000000000000000000000000000000000000000000000000000081526004016113b590611f07565b60405180910390fd5b6000808673ffffffffffffffffffffffffffffffffffffffff1685876040516113e79190611c40565b60006040518083038185875af1925050503d8060008114611424576040519150601f19603f3d011682016040523d82523d6000602084013e611429565b606091505b5091509150611439828286611445565b92505050949350505050565b60608315611455578290506114a5565b6000835111156114685782518084602001fd5b816040517f08c379a000000000000000000000000000000000000000000000000000000000815260040161149c9190611e85565b60405180910390fd5b9392505050565b60006114bf6114ba84611f6c565b611f47565b905080838252602082019050828560208602820111156114de57600080fd5b60005b8581101561150e57816114f48882611633565b8452602084019350602083019250506001810190506114e1565b5050509392505050565b600061152b61152684611f98565b611f47565b90508281526020810184848401111561154357600080fd5b61154e84828561208a565b509392505050565b6000813590506115658161227f565b92915050565b600082601f83011261157c57600080fd5b813561158c8482602086016114ac565b91505092915050565b6000815190506115a481612296565b92915050565b6000813590506115b9816122ad565b92915050565b60008083601f8401126115d157600080fd5b8235905067ffffffffffffffff8111156115ea57600080fd5b60208301915083600182028301111561160257600080fd5b9250929050565b600082601f83011261161a57600080fd5b813561162a848260208601611518565b91505092915050565b600081359050611642816122c4565b92915050565b60006020828403121561165a57600080fd5b600061166884828501611556565b91505092915050565b600080600080600060a0868803121561168957600080fd5b600061169788828901611556565b95505060206116a888828901611556565b945050604086013567ffffffffffffffff8111156116c557600080fd5b6116d18882890161156b565b935050606086013567ffffffffffffffff8111156116ee57600080fd5b6116fa8882890161156b565b925050608086013567ffffffffffffffff81111561171757600080fd5b61172388828901611609565b9150509295509295909350565b60008060006060848603121561174557600080fd5b600061175386828701611556565b935050602061176486828701611556565b925050604061177586828701611633565b9150509250925092565b60008060008060006080868803121561179757600080fd5b60006117a588828901611556565b95505060206117b688828901611556565b94505060406117c788828901611633565b935050606086013567ffffffffffffffff8111156117e457600080fd5b6117f0888289016115bf565b92509250509295509295909350565b6000806000806080858703121561181557600080fd5b600061182387828801611556565b945050602061183487828801611556565b935050604061184587828801611633565b925050606085013567ffffffffffffffff81111561186257600080fd5b61186e87828801611609565b91505092959194509250565b6000806000806080858703121561189057600080fd5b600061189e87828801611556565b94505060206118af87828801611556565b93505060406118c087828801611633565b92505060606118d187828801611633565b91505092959194509250565b60008060008060008060a087890312156118f657600080fd5b600061190489828a01611556565b965050602061191589828a01611556565b955050604061192689828a01611633565b945050606061193789828a01611633565b935050608087013567ffffffffffffffff81111561195457600080fd5b61196089828a016115bf565b92509250509295509295509295565b600080600080600060a0868803121561198757600080fd5b600061199588828901611556565b95505060206119a688828901611556565b94505060406119b788828901611633565b93505060606119c888828901611633565b925050608086013567ffffffffffffffff8111156119e557600080fd5b6119f188828901611609565b9150509295509295909350565b60008060408385031215611a1157600080fd5b6000611a1f85828601611556565b9250506020611a3085828601611633565b9150509250929050565b600060208284031215611a4c57600080fd5b6000611a5a84828501611595565b91505092915050565b600060208284031215611a7557600080fd5b6000611a83848285016115aa565b91505092915050565b611a958161200c565b82525050565b611aa48161201e565b82525050565b611ab38161202a565b82525050565b611ac281612034565b82525050565b6000611ad48385611fdf565b9350611ae183858461208a565b611aea8361212c565b840190509392505050565b6000611b0082611fc9565b611b0a8185611ff0565b9350611b1a818560208601612099565b80840191505092915050565b6000611b3182611fd4565b611b3b8185611ffb565b9350611b4b818560208601612099565b611b548161212c565b840191505092915050565b6000611b6c602683611ffb565b9150611b778261213d565b604082019050919050565b6000611b8f602683611ffb565b9150611b9a8261218c565b604082019050919050565b6000611bb2602083611ffb565b9150611bbd826121db565b602082019050919050565b6000611bd5600083611fdf565b9150611be082612204565b600082019050919050565b6000611bf8601d83611ffb565b9150611c0382612207565b602082019050919050565b6000611c1b602a83611ffb565b9150611c2682612230565b604082019050919050565b611c3a81612080565b82525050565b6000611c4c8284611af5565b915081905092915050565b6000602082019050611c6c6000830184611a8c565b92915050565b6000606082019050611c876000830186611a8c565b611c946020830185611a8c565b611ca16040830184611c31565b949350505050565b6000608082019050611cbe6000830188611a8c565b611ccb6020830187611a8c565b611cd86040830186611c31565b8181036060830152611ceb818486611ac8565b90509695505050505050565b600060a082019050611d0c6000830189611a8c565b611d196020830188611a8c565b611d266040830187611c31565b611d336060830186611c31565b8181036080830152611d46818486611ac8565b9050979650505050505050565b600060a082019050611d686000830187611a8c565b611d756020830186611a8c565b611d826040830185611c31565b611d8f6060830184611c31565b8181036080830152611da081611bc8565b905095945050505050565b6000604082019050611dc06000830185611a8c565b611dcd6020830184611c31565b9392505050565b6000602082019050611de96000830184611a9b565b92915050565b6000602082019050611e046000830184611aaa565b92915050565b6000604082019050611e1f6000830185611aaa565b611e2c6020830184611a8c565b9392505050565b6000606082019050611e486000830186611aaa565b611e556020830185611a8c565b611e626040830184611c31565b949350505050565b6000602082019050611e7f6000830184611ab9565b92915050565b60006020820190508181036000830152611e9f8184611b26565b905092915050565b60006020820190508181036000830152611ec081611b5f565b9050919050565b60006020820190508181036000830152611ee081611b82565b9050919050565b60006020820190508181036000830152611f0081611ba5565b9050919050565b60006020820190508181036000830152611f2081611beb565b9050919050565b60006020820190508181036000830152611f4081611c0e565b9050919050565b6000611f51611f62565b9050611f5d82826120cc565b919050565b6000604051905090565b600067ffffffffffffffff821115611f8757611f866120fd565b5b602082029050602081019050919050565b600067ffffffffffffffff821115611fb357611fb26120fd565b5b611fbc8261212c565b9050602081019050919050565b600081519050919050565b600081519050919050565b600082825260208201905092915050565b600081905092915050565b600082825260208201905092915050565b600061201782612060565b9050919050565b60008115159050919050565b6000819050919050565b60007fffffffff0000000000000000000000000000000000000000000000000000000082169050919050565b600073ffffffffffffffffffffffffffffffffffffffff82169050919050565b6000819050919050565b82818337600083830152505050565b60005b838110156120b757808201518184015260208101905061209c565b838111156120c6576000848401525b50505050565b6120d58261212c565b810181811067ffffffffffffffff821117156120f4576120f36120fd565b5b80604052505050565b7f4e487b7100000000000000000000000000000000000000000000000000000000600052604160045260246000fd5b6000601f19601f8301169050919050565b7f4f776e61626c653a206e6577206f776e657220697320746865207a65726f206160008201527f6464726573730000000000000000000000000000000000000000000000000000602082015250565b7f416464726573733a20696e73756666696369656e742062616c616e636520666f60008201527f722063616c6c0000000000000000000000000000000000000000000000000000602082015250565b7f4f776e61626c653a2063616c6c6572206973206e6f7420746865206f776e6572600082015250565b50565b7f416464726573733a2063616c6c20746f206e6f6e2d636f6e7472616374000000600082015250565b7f5361666545524332303a204552433230206f7065726174696f6e20646964206e60008201527f6f74207375636365656400000000000000000000000000000000000000000000602082015250565b6122888161200c565b811461229357600080fd5b50565b61229f8161201e565b81146122aa57600080fd5b50565b6122b681612034565b81146122c157600080fd5b50565b6122cd81612080565b81146122d857600080fd5b5056fea26469706673582212200a921c440c7ef1fe60a003e8332514f4664b6da8012ef111d7e7db6803effa1e64736f6c63430008040033",
  "linkReferences": {},
  "deployedLinkReferences": {}
}