{
  "_format": "hh-sol-artifact-1",
  "contractName": "PrismXXLedger",
  "sourceName": "contracts/examples/PrismXXLedger.sol",
  "abi": [
    {
      "inputs": [
        {
          "internalType": "address",
          "name": "_bridge",
          "type": "address"
        },
        {
          "internalType": "address",
          "name": "_asset",
          "type": "address"
        }
      ],
      "stateMutability": "nonpayable",
      "type": "constructor"
    },
    {
      "anonymous": false,
      "inputs": [
        {
          "indexed": true,
          "internalType": "address",
          "name": "previousOwner",
          "type": "address"
        },
        {
          "indexed": true,
          "internalType": "address",
          "name": "newOwner",
          "type": "address"
        }
      ],
      "name": "OwnershipTransferred",
      "type": "event"
    },
    {
      "inputs": [
        {
          "internalType": "address",
          "name": "_asset",
          "type": "address"
        }
      ],
      "name": "adminSetAsset",
      "outputs": [],
      "stateMutability": "nonpayable",
      "type": "function"
    },
    {
      "inputs": [
        {
          "internalType": "address",
          "name": "_bridge",
          "type": "address"
        }
      ],
      "name": "adminSetBridge",
      "outputs": [],
      "stateMutability": "nonpayable",
      "type": "function"
    },
    {
      "inputs": [],
      "name": "asset",
      "outputs": [
        {
          "internalType": "address",
          "name": "",
          "type": "address"
        }
      ],
      "stateMutability": "view",
      "type": "function"
    },
    {
      "inputs": [],
      "name": "bridge",
      "outputs": [
        {
          "internalType": "address",
          "name": "",
          "type": "address"
        }
      ],
      "stateMutability": "view",
      "type": "function"
    },
    {
      "inputs": [
        {
          "internalType": "address",
          "name": "_frc20",
          "type": "address"
        },
        {
          "internalType": "address",
          "name": "_target",
          "type": "address"
        },
        {
          "internalType": "uint256",
          "name": "_amount",
          "type": "uint256"
        }
      ],
      "name": "depositFRC20",
      "outputs": [],
      "stateMutability": "nonpayable",
      "type": "function"
    },
    {
      "inputs": [],
      "name": "owner",
      "outputs": [
        {
          "internalType": "address",
          "name": "",
          "type": "address"
        }
      ],
      "stateMutability": "view",
      "type": "function"
    },
    {
      "inputs": [],
      "name": "renounceOwnership",
      "outputs": [],
      "stateMutability": "nonpayable",
      "type": "function"
    },
    {
      "inputs": [
        {
          "internalType": "address",
          "name": "newOwner",
          "type": "address"
        }
      ],
      "name": "transferOwnership",
      "outputs": [],
      "stateMutability": "nonpayable",
      "type": "function"
    },
    {
      "inputs": [
        {
          "internalType": "address",
          "name": "_frc20",
          "type": "address"
        },
        {
          "internalType": "address",
          "name": "_target",
          "type": "address"
        },
        {
          "internalType": "uint256",
          "name": "_amount",
          "type": "uint256"
        },
        {
          "internalType": "bytes",
          "name": "_data",
          "type": "bytes"
        }
      ],
      "name": "withdrawFRC20",
      "outputs": [],
      "stateMutability": "nonpayable",
      "type": "function"
    }
  ],
  "bytecode": "0x60806040523480156200001157600080fd5b50604051620016cc380380620016cc8339818101604052810190620000379190620001c4565b620000576200004b620000e160201b60201c565b620000e960201b60201c565b81600160006101000a81548173ffffffffffffffffffffffffffffffffffffffff021916908373ffffffffffffffffffffffffffffffffffffffff16021790555080600260006101000a81548173ffffffffffffffffffffffffffffffffffffffff021916908373ffffffffffffffffffffffffffffffffffffffff160217905550505062000253565b600033905090565b60008060009054906101000a900473ffffffffffffffffffffffffffffffffffffffff169050816000806101000a81548173ffffffffffffffffffffffffffffffffffffffff021916908373ffffffffffffffffffffffffffffffffffffffff1602179055508173ffffffffffffffffffffffffffffffffffffffff168173ffffffffffffffffffffffffffffffffffffffff167f8be0079c531659141344cd1fd0a4f28419497f9722a3daafe3b4186f6b6457e060405160405180910390a35050565b600081519050620001be8162000239565b92915050565b60008060408385031215620001d857600080fd5b6000620001e885828601620001ad565b9250506020620001fb85828601620001ad565b9150509250929050565b6000620002128262000219565b9050919050565b600073ffffffffffffffffffffffffffffffffffffffff82169050919050565b620002448162000205565b81146200025057600080fd5b50565b61146980620002636000396000f3fe608060405234801561001057600080fd5b50600436106100935760003560e01c8063715018a611610066578063715018a61461010a5780638da5cb5b14610114578063e78cea9214610132578063f2fde38b14610150578063fabeb1581461016c57610093565b806302599348146100985780631a5a143e146100b457806338d52e0f146100d05780633d2b0e0d146100ee575b600080fd5b6100b260048036038101906100ad9190610e6e565b610188565b005b6100ce60048036038101906100c99190610e45565b6102bf565b005b6100d861037f565b6040516100e591906110b4565b60405180910390f35b61010860048036038101906101039190610ebd565b6103a5565b005b61011261052d565b005b61011c6105b5565b60405161012991906110b4565b60405180910390f35b61013a6105de565b60405161014791906110b4565b60405180910390f35b61016a60048036038101906101659190610e45565b610604565b005b61018660048036038101906101819190610e45565b6106fc565b005b600160009054906101000a900473ffffffffffffffffffffffffffffffffffffffff1673ffffffffffffffffffffffffffffffffffffffff163373ffffffffffffffffffffffffffffffffffffffff16146101e257600080fd5b6000600260009054906101000a900473ffffffffffffffffffffffffffffffffffffffff16905060008173ffffffffffffffffffffffffffffffffffffffff166377cbb3ff866040518263ffffffff1660e01b815260040161024491906110b4565b60206040518083038186803b15801561025c57600080fd5b505afa158015610270573d6000803e3d6000fd5b505050506040513d601f19601f820116820180604052508101906102949190610f3d565b905080156102ac576102a78585856107bc565b6102b8565b6102b7858585610834565b5b5050505050565b6102c761086c565b73ffffffffffffffffffffffffffffffffffffffff166102e56105b5565b73ffffffffffffffffffffffffffffffffffffffff161461033b576040517f08c379a000000000000000000000000000000000000000000000000000000000815260040161033290611191565b60405180910390fd5b80600160006101000a81548173ffffffffffffffffffffffffffffffffffffffff021916908373ffffffffffffffffffffffffffffffffffffffff16021790555050565b600260009054906101000a900473ffffffffffffffffffffffffffffffffffffffff1681565b600160009054906101000a900473ffffffffffffffffffffffffffffffffffffffff1673ffffffffffffffffffffffffffffffffffffffff163373ffffffffffffffffffffffffffffffffffffffff16146103ff57600080fd5b6000600260009054906101000a900473ffffffffffffffffffffffffffffffffffffffff16905060008173ffffffffffffffffffffffffffffffffffffffff166377cbb3ff886040518263ffffffff1660e01b815260040161046191906110b4565b60206040518083038186803b15801561047957600080fd5b505afa15801561048d573d6000803e3d6000fd5b505050506040513d601f19601f820116820180604052508101906104b19190610f3d565b905080156104c9576104c4878787610874565b6104d5565b6104d48787876108ec565b5b6105238685858080601f016020809104026020016040519081016040528093929190818152602001838380828437600081840152601f19601f82011690508083019250505050505050610922565b5050505050505050565b61053561086c565b73ffffffffffffffffffffffffffffffffffffffff166105536105b5565b73ffffffffffffffffffffffffffffffffffffffff16146105a9576040517f08c379a00000000000000000000000000000000000000000000000000000000081526004016105a090611191565b60405180910390fd5b6105b3600061096c565b565b60008060009054906101000a900473ffffffffffffffffffffffffffffffffffffffff16905090565b600160009054906101000a900473ffffffffffffffffffffffffffffffffffffffff1681565b61060c61086c565b73ffffffffffffffffffffffffffffffffffffffff1661062a6105b5565b73ffffffffffffffffffffffffffffffffffffffff1614610680576040517f08c379a000000000000000000000000000000000000000000000000000000000815260040161067790611191565b60405180910390fd5b600073ffffffffffffffffffffffffffffffffffffffff168173ffffffffffffffffffffffffffffffffffffffff1614156106f0576040517f08c379a00000000000000000000000000000000000000000000000000000000081526004016106e790611151565b60405180910390fd5b6106f98161096c565b50565b61070461086c565b73ffffffffffffffffffffffffffffffffffffffff166107226105b5565b73ffffffffffffffffffffffffffffffffffffffff1614610778576040517f08c379a000000000000000000000000000000000000000000000000000000000815260040161076f90611191565b60405180910390fd5b80600260006101000a81548173ffffffffffffffffffffffffffffffffffffffff021916908373ffffffffffffffffffffffffffffffffffffffff16021790555050565b60008390508073ffffffffffffffffffffffffffffffffffffffff166379cc679084846040518363ffffffff1660e01b81526004016107fc929190611106565b600060405180830381600087803b15801561081657600080fd5b505af115801561082a573d6000803e3d6000fd5b5050505050505050565b60008390506108668330848473ffffffffffffffffffffffffffffffffffffffff16610a30909392919063ffffffff16565b50505050565b600033905090565b60008390508073ffffffffffffffffffffffffffffffffffffffff166340c10f1984846040518363ffffffff1660e01b81526004016108b4929190611106565b600060405180830381600087803b1580156108ce57600080fd5b505af11580156108e2573d6000803e3d6000fd5b5050505050505050565b600083905061091c83838373ffffffffffffffffffffffffffffffffffffffff16610ab99092919063ffffffff16565b50505050565b606061096483836040518060400160405280601e81526020017f416464726573733a206c6f772d6c6576656c2063616c6c206661696c65640000815250610b3f565b905092915050565b60008060009054906101000a900473ffffffffffffffffffffffffffffffffffffffff169050816000806101000a81548173ffffffffffffffffffffffffffffffffffffffff021916908373ffffffffffffffffffffffffffffffffffffffff1602179055508173ffffffffffffffffffffffffffffffffffffffff168173ffffffffffffffffffffffffffffffffffffffff167f8be0079c531659141344cd1fd0a4f28419497f9722a3daafe3b4186f6b6457e060405160405180910390a35050565b610ab3846323b872dd60e01b858585604051602401610a51939291906110cf565b604051602081830303815290604052907bffffffffffffffffffffffffffffffffffffffffffffffffffffffff19166020820180517bffffffffffffffffffffffffffffffffffffffffffffffffffffffff8381831617835250505050610b57565b50505050565b610b3a8363a9059cbb60e01b8484604051602401610ad8929190611106565b604051602081830303815290604052907bffffffffffffffffffffffffffffffffffffffffffffffffffffffff19166020820180517bffffffffffffffffffffffffffffffffffffffffffffffffffffffff8381831617835250505050610b57565b505050565b6060610b4e8484600085610c1e565b90509392505050565b6000610bb9826040518060400160405280602081526020017f5361666545524332303a206c6f772d6c6576656c2063616c6c206661696c65648152508573ffffffffffffffffffffffffffffffffffffffff16610b3f9092919063ffffffff16565b9050600081511115610c195780806020019051810190610bd99190610f3d565b610c18576040517f08c379a0000000000000000000000000000000000000000000000000000000008152600401610c0f906111d1565b60405180910390fd5b5b505050565b606082471015610c63576040517f08c379a0000000000000000000000000000000000000000000000000000000008152600401610c5a90611171565b60405180910390fd5b610c6c85610d32565b610cab576040517f08c379a0000000000000000000000000000000000000000000000000000000008152600401610ca2906111b1565b60405180910390fd5b6000808673ffffffffffffffffffffffffffffffffffffffff168587604051610cd4919061109d565b60006040518083038185875af1925050503d8060008114610d11576040519150601f19603f3d011682016040523d82523d6000602084013e610d16565b606091505b5091509150610d26828286610d55565b92505050949350505050565b6000808273ffffffffffffffffffffffffffffffffffffffff163b119050919050565b60608315610d6557829050610db5565b600083511115610d785782518084602001fd5b816040517f08c379a0000000000000000000000000000000000000000000000000000000008152600401610dac919061112f565b60405180910390fd5b9392505050565b600081359050610dcb816113ee565b92915050565b600081519050610de081611405565b92915050565b60008083601f840112610df857600080fd5b8235905067ffffffffffffffff811115610e1157600080fd5b602083019150836001820283011115610e2957600080fd5b9250929050565b600081359050610e3f8161141c565b92915050565b600060208284031215610e5757600080fd5b6000610e6584828501610dbc565b91505092915050565b600080600060608486031215610e8357600080fd5b6000610e9186828701610dbc565b9350506020610ea286828701610dbc565b9250506040610eb386828701610e30565b9150509250925092565b600080600080600060808688031215610ed557600080fd5b6000610ee388828901610dbc565b9550506020610ef488828901610dbc565b9450506040610f0588828901610e30565b935050606086013567ffffffffffffffff811115610f2257600080fd5b610f2e88828901610de6565b92509250509295509295909350565b600060208284031215610f4f57600080fd5b6000610f5d84828501610dd1565b91505092915050565b610f6f81611223565b82525050565b6000610f80826111f1565b610f8a8185611207565b9350610f9a81856020860161126b565b80840191505092915050565b6000610fb1826111fc565b610fbb8185611212565b9350610fcb81856020860161126b565b610fd48161129e565b840191505092915050565b6000610fec602683611212565b9150610ff7826112af565b604082019050919050565b600061100f602683611212565b915061101a826112fe565b604082019050919050565b6000611032602083611212565b915061103d8261134d565b602082019050919050565b6000611055601d83611212565b915061106082611376565b602082019050919050565b6000611078602a83611212565b91506110838261139f565b604082019050919050565b61109781611261565b82525050565b60006110a98284610f75565b915081905092915050565b60006020820190506110c96000830184610f66565b92915050565b60006060820190506110e46000830186610f66565b6110f16020830185610f66565b6110fe604083018461108e565b949350505050565b600060408201905061111b6000830185610f66565b611128602083018461108e565b9392505050565b600060208201905081810360008301526111498184610fa6565b905092915050565b6000602082019050818103600083015261116a81610fdf565b9050919050565b6000602082019050818103600083015261118a81611002565b9050919050565b600060208201905081810360008301526111aa81611025565b9050919050565b600060208201905081810360008301526111ca81611048565b9050919050565b600060208201905081810360008301526111ea8161106b565b9050919050565b600081519050919050565b600081519050919050565b600081905092915050565b600082825260208201905092915050565b600061122e82611241565b9050919050565b60008115159050919050565b600073ffffffffffffffffffffffffffffffffffffffff82169050919050565b6000819050919050565b60005b8381101561128957808201518184015260208101905061126e565b83811115611298576000848401525b50505050565b6000601f19601f8301169050919050565b7f4f776e61626c653a206e6577206f776e657220697320746865207a65726f206160008201527f6464726573730000000000000000000000000000000000000000000000000000602082015250565b7f416464726573733a20696e73756666696369656e742062616c616e636520666f60008201527f722063616c6c0000000000000000000000000000000000000000000000000000602082015250565b7f4f776e61626c653a2063616c6c6572206973206e6f7420746865206f776e6572600082015250565b7f416464726573733a2063616c6c20746f206e6f6e2d636f6e7472616374000000600082015250565b7f5361666545524332303a204552433230206f7065726174696f6e20646964206e60008201527f6f74207375636365656400000000000000000000000000000000000000000000602082015250565b6113f781611223565b811461140257600080fd5b50565b61140e81611235565b811461141957600080fd5b50565b61142581611261565b811461143057600080fd5b5056fea26469706673582212209ff36782794e298bcb241f34084702992ceb4668c9f6e04dcde76e27d539f3bb64736f6c63430008040033",
  "linkReferences": {},
  "deployedLinkReferences": {}
}