{
  "_format": "hh-sol-artifact-1",
  "contractName": "PrismXXAsset",
  "sourceName": "contracts/examples/PrismXXAsset.sol",
  "abi": [
    {
      "anonymous": false,
      "inputs": [
        {
          "indexed": false,
          "internalType": "uint8",
          "name": "version",
          "type": "uint8"
        }
      ],
      "name": "Initialized",
      "type": "event"
    },
    {
      "anonymous": false,
      "inputs": [
        {
          "indexed": true,
          "internalType": "address",
          "name": "previousOwner",
          "type": "address"
        },
        {
          "indexed": true,
          "internalType": "address",
          "name": "newOwner",
          "type": "address"
        }
      ],
      "name": "OwnershipTransferred",
      "type": "event"
    },
    {
      "inputs": [
        {
          "internalType": "address",
          "name": "_addr",
          "type": "address"
        }
      ],
      "name": "adminSetBridge",
      "outputs": [],
      "stateMutability": "nonpayable",
      "type": "function"
    },
    {
      "inputs": [
        {
          "internalType": "bytes32",
          "name": "",
          "type": "bytes32"
        }
      ],
      "name": "assets",
      "outputs": [
        {
          "internalType": "address",
          "name": "addr",
          "type": "address"
        },
        {
          "internalType": "uint256",
          "name": "tokenId",
          "type": "uint256"
        },
        {
          "internalType": "enum IPrismXXAsset.TokenType",
          "name": "ty",
          "type": "uint8"
        },
        {
          "internalType": "bool",
          "name": "isBurn",
          "type": "bool"
        },
        {
          "internalType": "uint8",
          "name": "decimal",
          "type": "uint8"
        }
      ],
      "stateMutability": "view",
      "type": "function"
    },
    {
      "inputs": [],
      "name": "bridge",
      "outputs": [
        {
          "internalType": "address",
          "name": "",
          "type": "address"
        }
      ],
      "stateMutability": "view",
      "type": "function"
    },
    {
      "inputs": [
        {
          "internalType": "bytes32",
          "name": "_asset",
          "type": "bytes32"
        }
      ],
      "name": "getERC1155Info",
      "outputs": [
        {
          "internalType": "address",
          "name": "",
          "type": "address"
        },
        {
          "internalType": "uint256",
          "name": "",
          "type": "uint256"
        }
      ],
      "stateMutability": "view",
      "type": "function"
    },
    {
      "inputs": [
        {
          "internalType": "bytes32",
          "name": "_asset",
          "type": "bytes32"
        }
      ],
      "name": "getERC20Info",
      "outputs": [
        {
          "internalType": "address",
          "name": "",
          "type": "address"
        }
      ],
      "stateMutability": "view",
      "type": "function"
    },
    {
      "inputs": [
        {
          "internalType": "bytes32",
          "name": "_asset",
          "type": "bytes32"
        }
      ],
      "name": "getERC721Info",
      "outputs": [
        {
          "internalType": "address",
          "name": "",
          "type": "address"
        },
        {
          "internalType": "uint256",
          "name": "",
          "type": "uint256"
        }
      ],
      "stateMutability": "view",
      "type": "function"
    },
    {
      "inputs": [
        {
          "internalType": "bytes32",
          "name": "_asset",
          "type": "bytes32"
        }
      ],
      "name": "getTokenType",
      "outputs": [
        {
          "internalType": "enum IPrismXXAsset.TokenType",
          "name": "",
          "type": "uint8"
        }
      ],
      "stateMutability": "view",
      "type": "function"
    },
    {
      "inputs": [
        {
          "internalType": "address",
          "name": "_bridge",
          "type": "address"
        }
      ],
      "name": "initialize",
      "outputs": [],
      "stateMutability": "nonpayable",
      "type": "function"
    },
    {
      "inputs": [
        {
          "internalType": "bytes32",
          "name": "_asset",
          "type": "bytes32"
        }
      ],
      "name": "isBurn",
      "outputs": [
        {
          "internalType": "bool",
          "name": "",
          "type": "bool"
        }
      ],
      "stateMutability": "view",
      "type": "function"
    },
    {
      "inputs": [],
      "name": "owner",
      "outputs": [
        {
          "internalType": "address",
          "name": "",
          "type": "address"
        }
      ],
      "stateMutability": "view",
      "type": "function"
    },
    {
      "inputs": [],
      "name": "renounceOwnership",
      "outputs": [],
      "stateMutability": "nonpayable",
      "type": "function"
    },
    {
      "inputs": [
        {
          "internalType": "bytes32",
          "name": "_asset",
          "type": "bytes32"
        }
      ],
      "name": "setBurn",
      "outputs": [],
      "stateMutability": "nonpayable",
      "type": "function"
    },
    {
      "inputs": [
        {
          "internalType": "bytes32",
          "name": "_asset",
          "type": "bytes32"
        },
        {
          "internalType": "address",
          "name": "_addr",
          "type": "address"
        },
        {
          "internalType": "uint256",
          "name": "tokenId",
          "type": "uint256"
        }
      ],
      "name": "setERC1155Info",
      "outputs": [],
      "stateMutability": "nonpayable",
      "type": "function"
    },
    {
      "inputs": [
        {
          "internalType": "bytes32",
          "name": "_asset",
          "type": "bytes32"
        },
        {
          "internalType": "address",
          "name": "_addr",
          "type": "address"
        }
      ],
      "name": "setERC20Info",
      "outputs": [],
      "stateMutability": "nonpayable",
      "type": "function"
    },
    {
      "inputs": [
        {
          "internalType": "bytes32",
          "name": "_asset",
          "type": "bytes32"
        },
        {
          "internalType": "address",
          "name": "_addr",
          "type": "address"
        },
        {
          "internalType": "uint256",
          "name": "tokenId",
          "type": "uint256"
        }
      ],
      "name": "setERC721Info",
      "outputs": [],
      "stateMutability": "nonpayable",
      "type": "function"
    },
    {
      "inputs": [
        {
          "internalType": "address",
          "name": "newOwner",
          "type": "address"
        }
      ],
      "name": "transferOwnership",
      "outputs": [],
      "stateMutability": "nonpayable",
      "type": "function"
    }
  ],
  "bytecode": "0x608060405234801561001057600080fd5b506113be806100206000396000f3fe608060405234801561001057600080fd5b50600436106101005760003560e01c8063a8b7cc1611610097578063d87e0e3211610066578063d87e0e32146102ae578063e78cea92146102df578063ed7e205b146102fd578063f2fde38b1461031957610100565b8063a8b7cc1614610229578063c04fd06c14610245578063c4d66de814610276578063d0e5390d1461029257610100565b8063715018a6116100d3578063715018a61461019d5780638da5cb5b146101a7578063979a9b5e146101c55780639fda5b66146101f557610100565b80630404e3c51461010557806305c62fe3146101355780631996e4f4146101515780631a5a143e14610181575b600080fd5b61011f600480360381019061011a9190610e01565b610335565b60405161012c919061105b565b60405180910390f35b61014f600480360381019061014a9190610e66565b610362565b005b61016b60048036038101906101669190610e01565b610478565b6040516101789190610fc4565b60405180910390f35b61019b60048036038101906101969190610dd8565b6104b8565b005b6101a5610504565b005b6101af610518565b6040516101bc9190610fc4565b60405180910390f35b6101df60048036038101906101da9190610e01565b610542565b6040516101ec9190611076565b60405180910390f35b61020f600480360381019061020a9190610e01565b61056f565b604051610220959493929190611008565b60405180910390f35b610243600480360381019061023e9190610e01565b6105ec565b005b61025f600480360381019061025a9190610e01565b610626565b60405161026d929190610fdf565b60405180910390f35b610290600480360381019061028b9190610dd8565b610674565b005b6102ac60048036038101906102a79190610e66565b6107fc565b005b6102c860048036038101906102c39190610e01565b610912565b6040516102d6929190610fdf565b60405180910390f35b6102e7610960565b6040516102f49190610fc4565b60405180910390f35b61031760048036038101906103129190610e2a565b610986565b005b610333600480360381019061032e9190610dd8565b610adf565b005b60006066600083815260200190815260200160002060020160019054906101000a900460ff169050919050565b606560009054906101000a900473ffffffffffffffffffffffffffffffffffffffff1673ffffffffffffffffffffffffffffffffffffffff163373ffffffffffffffffffffffffffffffffffffffff16146103bc57600080fd5b6000606660008581526020019081526020016000209050828160000160006101000a81548173ffffffffffffffffffffffffffffffffffffffff021916908373ffffffffffffffffffffffffffffffffffffffff16021790555081816001018190555060018160020160006101000a81548160ff0219169083600281111561046d577f4e487b7100000000000000000000000000000000000000000000000000000000600052602160045260246000fd5b021790555050505050565b60006066600083815260200190815260200160002060000160009054906101000a900473ffffffffffffffffffffffffffffffffffffffff169050919050565b6104c0610b63565b80606560006101000a81548173ffffffffffffffffffffffffffffffffffffffff021916908373ffffffffffffffffffffffffffffffffffffffff16021790555050565b61050c610b63565b6105166000610be1565b565b6000603360009054906101000a900473ffffffffffffffffffffffffffffffffffffffff16905090565b60006066600083815260200190815260200160002060020160009054906101000a900460ff169050919050565b60666020528060005260406000206000915090508060000160009054906101000a900473ffffffffffffffffffffffffffffffffffffffff16908060010154908060020160009054906101000a900460ff16908060020160019054906101000a900460ff16908060020160029054906101000a900460ff16905085565b6105f4610b63565b60016066600083815260200190815260200160002060020160016101000a81548160ff02191690831515021790555050565b60008060006066600085815260200190815260200160002090508060000160009054906101000a900473ffffffffffffffffffffffffffffffffffffffff1681600101549250925050915091565b60008060019054906101000a900460ff161590508080156106a55750600160008054906101000a900460ff1660ff16105b806106d257506106b430610ca7565b1580156106d15750600160008054906101000a900460ff1660ff16145b5b610711576040517f08c379a0000000000000000000000000000000000000000000000000000000008152600401610708906110cc565b60405180910390fd5b60016000806101000a81548160ff021916908360ff160217905550801561074e576001600060016101000a81548160ff0219169083151502179055505b81606560006101000a81548173ffffffffffffffffffffffffffffffffffffffff021916908373ffffffffffffffffffffffffffffffffffffffff160217905550610797610cca565b61079f610d1b565b80156107f85760008060016101000a81548160ff0219169083151502179055507f7f26b83ff96e1f2b6a682f133852f6798a09c465da95921460cefb384740249860016040516107ef9190611091565b60405180910390a15b5050565b606560009054906101000a900473ffffffffffffffffffffffffffffffffffffffff1673ffffffffffffffffffffffffffffffffffffffff163373ffffffffffffffffffffffffffffffffffffffff161461085657600080fd5b6000606660008581526020019081526020016000209050828160000160006101000a81548173ffffffffffffffffffffffffffffffffffffffff021916908373ffffffffffffffffffffffffffffffffffffffff16021790555081816001018190555060028160020160006101000a81548160ff02191690836002811115610907577f4e487b7100000000000000000000000000000000000000000000000000000000600052602160045260246000fd5b021790555050505050565b60008060006066600085815260200190815260200160002090508060000160009054906101000a900473ffffffffffffffffffffffffffffffffffffffff1681600101549250925050915091565b606560009054906101000a900473ffffffffffffffffffffffffffffffffffffffff1681565b606560009054906101000a900473ffffffffffffffffffffffffffffffffffffffff1673ffffffffffffffffffffffffffffffffffffffff163373ffffffffffffffffffffffffffffffffffffffff16146109e057600080fd5b600060666000848152602001908152602001600020905060008290508073ffffffffffffffffffffffffffffffffffffffff1663313ce5676040518163ffffffff1660e01b815260040160206040518083038186803b158015610a4257600080fd5b505afa158015610a56573d6000803e3d6000fd5b505050506040513d601f19601f82011682018060405250810190610a7a9190610eb5565b8260020160026101000a81548160ff021916908360ff160217905550828260000160006101000a81548173ffffffffffffffffffffffffffffffffffffffff021916908373ffffffffffffffffffffffffffffffffffffffff16021790555050505050565b610ae7610b63565b600073ffffffffffffffffffffffffffffffffffffffff168173ffffffffffffffffffffffffffffffffffffffff161415610b57576040517f08c379a0000000000000000000000000000000000000000000000000000000008152600401610b4e906110ac565b60405180910390fd5b610b6081610be1565b50565b610b6b610d7c565b73ffffffffffffffffffffffffffffffffffffffff16610b89610518565b73ffffffffffffffffffffffffffffffffffffffff1614610bdf576040517f08c379a0000000000000000000000000000000000000000000000000000000008152600401610bd6906110ec565b60405180910390fd5b565b6000603360009054906101000a900473ffffffffffffffffffffffffffffffffffffffff16905081603360006101000a81548173ffffffffffffffffffffffffffffffffffffffff021916908373ffffffffffffffffffffffffffffffffffffffff1602179055508173ffffffffffffffffffffffffffffffffffffffff168173ffffffffffffffffffffffffffffffffffffffff167f8be0079c531659141344cd1fd0a4f28419497f9722a3daafe3b4186f6b6457e060405160405180910390a35050565b6000808273ffffffffffffffffffffffffffffffffffffffff163b119050919050565b600060019054906101000a900460ff16610d19576040517f08c379a0000000000000000000000000000000000000000000000000000000008152600401610d109061110c565b60405180910390fd5b565b600060019054906101000a900460ff16610d6a576040517f08c379a0000000000000000000000000000000000000000000000000000000008152600401610d619061110c565b60405180910390fd5b610d7a610d75610d7c565b610be1565b565b600033905090565b600081359050610d938161132c565b92915050565b600081359050610da881611343565b92915050565b600081359050610dbd8161135a565b92915050565b600081519050610dd281611371565b92915050565b600060208284031215610dea57600080fd5b6000610df884828501610d84565b91505092915050565b600060208284031215610e1357600080fd5b6000610e2184828501610d99565b91505092915050565b60008060408385031215610e3d57600080fd5b6000610e4b85828601610d99565b9250506020610e5c85828601610d84565b9150509250929050565b600080600060608486031215610e7b57600080fd5b6000610e8986828701610d99565b9350506020610e9a86828701610d84565b9250506040610eab86828701610dae565b9150509250925092565b600060208284031215610ec757600080fd5b6000610ed584828501610dc3565b91505092915050565b610ee78161113d565b82525050565b610ef68161114f565b82525050565b610f05816111af565b82525050565b610f14816111c1565b82525050565b6000610f2760268361112c565b9150610f3282611202565b604082019050919050565b6000610f4a602e8361112c565b9150610f5582611251565b604082019050919050565b6000610f6d60208361112c565b9150610f78826112a0565b602082019050919050565b6000610f90602b8361112c565b9150610f9b826112c9565b604082019050919050565b610faf81611198565b82525050565b610fbe816111a2565b82525050565b6000602082019050610fd96000830184610ede565b92915050565b6000604082019050610ff46000830185610ede565b6110016020830184610fa6565b9392505050565b600060a08201905061101d6000830188610ede565b61102a6020830187610fa6565b6110376040830186610efc565b6110446060830185610eed565b6110516080830184610fb5565b9695505050505050565b60006020820190506110706000830184610eed565b92915050565b600060208201905061108b6000830184610efc565b92915050565b60006020820190506110a66000830184610f0b565b92915050565b600060208201905081810360008301526110c581610f1a565b9050919050565b600060208201905081810360008301526110e581610f3d565b9050919050565b6000602082019050818103600083015261110581610f60565b9050919050565b6000602082019050818103600083015261112581610f83565b9050919050565b600082825260208201905092915050565b600061114882611178565b9050919050565b60008115159050919050565b6000819050919050565b600081905061117382611318565b919050565b600073ffffffffffffffffffffffffffffffffffffffff82169050919050565b6000819050919050565b600060ff82169050919050565b60006111ba82611165565b9050919050565b60006111cc826111a2565b9050919050565b7f4e487b7100000000000000000000000000000000000000000000000000000000600052602160045260246000fd5b7f4f776e61626c653a206e6577206f776e657220697320746865207a65726f206160008201527f6464726573730000000000000000000000000000000000000000000000000000602082015250565b7f496e697469616c697a61626c653a20636f6e747261637420697320616c72656160008201527f647920696e697469616c697a6564000000000000000000000000000000000000602082015250565b7f4f776e61626c653a2063616c6c6572206973206e6f7420746865206f776e6572600082015250565b7f496e697469616c697a61626c653a20636f6e7472616374206973206e6f74206960008201527f6e697469616c697a696e67000000000000000000000000000000000000000000602082015250565b60038110611329576113286111d3565b5b50565b6113358161113d565b811461134057600080fd5b50565b61134c8161115b565b811461135757600080fd5b50565b61136381611198565b811461136e57600080fd5b50565b61137a816111a2565b811461138557600080fd5b5056fea26469706673582212208afa08e950eafd045177cf3294086c9dd041927df269324e4348ace24b9071be64736f6c63430008040033",
  "linkReferences": {},
  "deployedLinkReferences": {}
}