{
  "_format": "hh-sol-artifact-1",
  "contractName": "PrismXXLedger",
  "sourceName": "contracts/examples/PrismXXLedger.sol",
  "abi": [
    {
      "inputs": [
        {
          "internalType": "address",
          "name": "_bridge",
          "type": "address"
        },
        {
          "internalType": "address",
          "name": "_asset",
          "type": "address"
        }
      ],
      "stateMutability": "nonpayable",
      "type": "constructor"
    },
    {
      "anonymous": false,
      "inputs": [
        {
          "indexed": true,
          "internalType": "address",
          "name": "previousOwner",
          "type": "address"
        },
        {
          "indexed": true,
          "internalType": "address",
          "name": "newOwner",
          "type": "address"
        }
      ],
      "name": "OwnershipTransferred",
      "type": "event"
    },
    {
      "inputs": [
        {
          "internalType": "address",
          "name": "_asset",
          "type": "address"
        }
      ],
      "name": "adminSetAsset",
      "outputs": [],
      "stateMutability": "nonpayable",
      "type": "function"
    },
    {
      "inputs": [
        {
          "internalType": "address",
          "name": "_bridge",
          "type": "address"
        }
      ],
      "name": "adminSetBridge",
      "outputs": [],
      "stateMutability": "nonpayable",
      "type": "function"
    },
    {
      "inputs": [],
      "name": "asset",
      "outputs": [
        {
          "internalType": "address",
          "name": "",
          "type": "address"
        }
      ],
      "stateMutability": "view",
      "type": "function"
    },
    {
      "inputs": [],
      "name": "bridge",
      "outputs": [
        {
          "internalType": "address",
          "name": "",
          "type": "address"
        }
      ],
      "stateMutability": "view",
      "type": "function"
    },
    {
      "inputs": [
        {
          "internalType": "address",
          "name": "_frc20",
          "type": "address"
        },
        {
          "internalType": "address",
          "name": "_target",
          "type": "address"
        },
        {
          "internalType": "uint256",
          "name": "_amount",
          "type": "uint256"
        }
      ],
      "name": "depositFRC20",
      "outputs": [],
      "stateMutability": "nonpayable",
      "type": "function"
    },
    {
      "inputs": [],
      "name": "owner",
      "outputs": [
        {
          "internalType": "address",
          "name": "",
          "type": "address"
        }
      ],
      "stateMutability": "view",
      "type": "function"
    },
    {
      "inputs": [],
      "name": "renounceOwnership",
      "outputs": [],
      "stateMutability": "nonpayable",
      "type": "function"
    },
    {
      "inputs": [
        {
          "internalType": "address",
          "name": "newOwner",
          "type": "address"
        }
      ],
      "name": "transferOwnership",
      "outputs": [],
      "stateMutability": "nonpayable",
      "type": "function"
    },
    {
      "inputs": [
        {
          "internalType": "address",
          "name": "_frc20",
          "type": "address"
        },
        {
          "internalType": "address",
          "name": "_target",
          "type": "address"
        },
        {
          "internalType": "uint256",
          "name": "_amount",
          "type": "uint256"
        },
        {
          "internalType": "bytes",
          "name": "_data",
          "type": "bytes"
        }
      ],
      "name": "withdrawFRC20",
      "outputs": [],
      "stateMutability": "nonpayable",
      "type": "function"
    }
  ],
  "bytecode": "0x60806040523480156200001157600080fd5b50604051620016db380380620016db8339818101604052810190620000379190620001c4565b620000576200004b620000e160201b60201c565b620000e960201b60201c565b81600160006101000a81548173ffffffffffffffffffffffffffffffffffffffff021916908373ffffffffffffffffffffffffffffffffffffffff16021790555080600260006101000a81548173ffffffffffffffffffffffffffffffffffffffff021916908373ffffffffffffffffffffffffffffffffffffffff160217905550505062000253565b600033905090565b60008060009054906101000a900473ffffffffffffffffffffffffffffffffffffffff169050816000806101000a81548173ffffffffffffffffffffffffffffffffffffffff021916908373ffffffffffffffffffffffffffffffffffffffff1602179055508173ffffffffffffffffffffffffffffffffffffffff168173ffffffffffffffffffffffffffffffffffffffff167f8be0079c531659141344cd1fd0a4f28419497f9722a3daafe3b4186f6b6457e060405160405180910390a35050565b600081519050620001be8162000239565b92915050565b60008060408385031215620001d857600080fd5b6000620001e885828601620001ad565b9250506020620001fb85828601620001ad565b9150509250929050565b6000620002128262000219565b9050919050565b600073ffffffffffffffffffffffffffffffffffffffff82169050919050565b620002448162000205565b81146200025057600080fd5b50565b61147880620002636000396000f3fe608060405234801561001057600080fd5b50600436106100935760003560e01c8063715018a611610066578063715018a61461010a5780638da5cb5b14610114578063e78cea9214610132578063f2fde38b14610150578063fabeb1581461016c57610093565b806302599348146100985780631a5a143e146100b457806338d52e0f146100d05780633d2b0e0d146100ee575b600080fd5b6100b260048036038101906100ad9190610e7d565b610188565b005b6100ce60048036038101906100c99190610e54565b6102bf565b005b6100d861037f565b6040516100e591906110c3565b60405180910390f35b61010860048036038101906101039190610ecc565b6103a5565b005b61011261053c565b005b61011c6105c4565b60405161012991906110c3565b60405180910390f35b61013a6105ed565b60405161014791906110c3565b60405180910390f35b61016a60048036038101906101659190610e54565b610613565b005b61018660048036038101906101819190610e54565b61070b565b005b600160009054906101000a900473ffffffffffffffffffffffffffffffffffffffff1673ffffffffffffffffffffffffffffffffffffffff163373ffffffffffffffffffffffffffffffffffffffff16146101e257600080fd5b6000600260009054906101000a900473ffffffffffffffffffffffffffffffffffffffff16905060008173ffffffffffffffffffffffffffffffffffffffff166377cbb3ff866040518263ffffffff1660e01b815260040161024491906110c3565b60206040518083038186803b15801561025c57600080fd5b505afa158015610270573d6000803e3d6000fd5b505050506040513d601f19601f820116820180604052508101906102949190610f4c565b905080156102ac576102a78585856107cb565b6102b8565b6102b7858585610843565b5b5050505050565b6102c761087b565b73ffffffffffffffffffffffffffffffffffffffff166102e56105c4565b73ffffffffffffffffffffffffffffffffffffffff161461033b576040517f08c379a0000000000000000000000000000000000000000000000000000000008152600401610332906111a0565b60405180910390fd5b80600160006101000a81548173ffffffffffffffffffffffffffffffffffffffff021916908373ffffffffffffffffffffffffffffffffffffffff16021790555050565b600260009054906101000a900473ffffffffffffffffffffffffffffffffffffffff1681565b600160009054906101000a900473ffffffffffffffffffffffffffffffffffffffff1673ffffffffffffffffffffffffffffffffffffffff163373ffffffffffffffffffffffffffffffffffffffff16146103ff57600080fd5b6000600260009054906101000a900473ffffffffffffffffffffffffffffffffffffffff16905060008173ffffffffffffffffffffffffffffffffffffffff166377cbb3ff886040518263ffffffff1660e01b815260040161046191906110c3565b60206040518083038186803b15801561047957600080fd5b505afa15801561048d573d6000803e3d6000fd5b505050506040513d601f19601f820116820180604052508101906104b19190610f4c565b905080156104c9576104c4878787610883565b6104d5565b6104d48787876108fb565b5b6104de86610931565b15610533576105318685858080601f016020809104026020016040519081016040528093929190818152602001838380828437600081840152601f19601f82011690508083019250505050505050610954565b505b50505050505050565b61054461087b565b73ffffffffffffffffffffffffffffffffffffffff166105626105c4565b73ffffffffffffffffffffffffffffffffffffffff16146105b8576040517f08c379a00000000000000000000000000000000000000000000000000000000081526004016105af906111a0565b60405180910390fd5b6105c2600061099e565b565b60008060009054906101000a900473ffffffffffffffffffffffffffffffffffffffff16905090565b600160009054906101000a900473ffffffffffffffffffffffffffffffffffffffff1681565b61061b61087b565b73ffffffffffffffffffffffffffffffffffffffff166106396105c4565b73ffffffffffffffffffffffffffffffffffffffff161461068f576040517f08c379a0000000000000000000000000000000000000000000000000000000008152600401610686906111a0565b60405180910390fd5b600073ffffffffffffffffffffffffffffffffffffffff168173ffffffffffffffffffffffffffffffffffffffff1614156106ff576040517f08c379a00000000000000000000000000000000000000000000000000000000081526004016106f690611160565b60405180910390fd5b6107088161099e565b50565b61071361087b565b73ffffffffffffffffffffffffffffffffffffffff166107316105c4565b73ffffffffffffffffffffffffffffffffffffffff1614610787576040517f08c379a000000000000000000000000000000000000000000000000000000000815260040161077e906111a0565b60405180910390fd5b80600260006101000a81548173ffffffffffffffffffffffffffffffffffffffff021916908373ffffffffffffffffffffffffffffffffffffffff16021790555050565b60008390508073ffffffffffffffffffffffffffffffffffffffff166379cc679084846040518363ffffffff1660e01b815260040161080b929190611115565b600060405180830381600087803b15801561082557600080fd5b505af1158015610839573d6000803e3d6000fd5b5050505050505050565b60008390506108758330848473ffffffffffffffffffffffffffffffffffffffff16610a62909392919063ffffffff16565b50505050565b600033905090565b60008390508073ffffffffffffffffffffffffffffffffffffffff166340c10f1984846040518363ffffffff1660e01b81526004016108c3929190611115565b600060405180830381600087803b1580156108dd57600080fd5b505af11580156108f1573d6000803e3d6000fd5b5050505050505050565b600083905061092b83838373ffffffffffffffffffffffffffffffffffffffff16610aeb9092919063ffffffff16565b50505050565b6000808273ffffffffffffffffffffffffffffffffffffffff163b119050919050565b606061099683836040518060400160405280601e81526020017f416464726573733a206c6f772d6c6576656c2063616c6c206661696c65640000815250610b71565b905092915050565b60008060009054906101000a900473ffffffffffffffffffffffffffffffffffffffff169050816000806101000a81548173ffffffffffffffffffffffffffffffffffffffff021916908373ffffffffffffffffffffffffffffffffffffffff1602179055508173ffffffffffffffffffffffffffffffffffffffff168173ffffffffffffffffffffffffffffffffffffffff167f8be0079c531659141344cd1fd0a4f28419497f9722a3daafe3b4186f6b6457e060405160405180910390a35050565b610ae5846323b872dd60e01b858585604051602401610a83939291906110de565b604051602081830303815290604052907bffffffffffffffffffffffffffffffffffffffffffffffffffffffff19166020820180517bffffffffffffffffffffffffffffffffffffffffffffffffffffffff8381831617835250505050610b89565b50505050565b610b6c8363a9059cbb60e01b8484604051602401610b0a929190611115565b604051602081830303815290604052907bffffffffffffffffffffffffffffffffffffffffffffffffffffffff19166020820180517bffffffffffffffffffffffffffffffffffffffffffffffffffffffff8381831617835250505050610b89565b505050565b6060610b808484600085610c50565b90509392505050565b6000610beb826040518060400160405280602081526020017f5361666545524332303a206c6f772d6c6576656c2063616c6c206661696c65648152508573ffffffffffffffffffffffffffffffffffffffff16610b719092919063ffffffff16565b9050600081511115610c4b5780806020019051810190610c0b9190610f4c565b610c4a576040517f08c379a0000000000000000000000000000000000000000000000000000000008152600401610c41906111e0565b60405180910390fd5b5b505050565b606082471015610c95576040517f08c379a0000000000000000000000000000000000000000000000000000000008152600401610c8c90611180565b60405180910390fd5b610c9e85610931565b610cdd576040517f08c379a0000000000000000000000000000000000000000000000000000000008152600401610cd4906111c0565b60405180910390fd5b6000808673ffffffffffffffffffffffffffffffffffffffff168587604051610d0691906110ac565b60006040518083038185875af1925050503d8060008114610d43576040519150601f19603f3d011682016040523d82523d6000602084013e610d48565b606091505b5091509150610d58828286610d64565b92505050949350505050565b60608315610d7457829050610dc4565b600083511115610d875782518084602001fd5b816040517f08c379a0000000000000000000000000000000000000000000000000000000008152600401610dbb919061113e565b60405180910390fd5b9392505050565b600081359050610dda816113fd565b92915050565b600081519050610def81611414565b92915050565b60008083601f840112610e0757600080fd5b8235905067ffffffffffffffff811115610e2057600080fd5b602083019150836001820283011115610e3857600080fd5b9250929050565b600081359050610e4e8161142b565b92915050565b600060208284031215610e6657600080fd5b6000610e7484828501610dcb565b91505092915050565b600080600060608486031215610e9257600080fd5b6000610ea086828701610dcb565b9350506020610eb186828701610dcb565b9250506040610ec286828701610e3f565b9150509250925092565b600080600080600060808688031215610ee457600080fd5b6000610ef288828901610dcb565b9550506020610f0388828901610dcb565b9450506040610f1488828901610e3f565b935050606086013567ffffffffffffffff811115610f3157600080fd5b610f3d88828901610df5565b92509250509295509295909350565b600060208284031215610f5e57600080fd5b6000610f6c84828501610de0565b91505092915050565b610f7e81611232565b82525050565b6000610f8f82611200565b610f998185611216565b9350610fa981856020860161127a565b80840191505092915050565b6000610fc08261120b565b610fca8185611221565b9350610fda81856020860161127a565b610fe3816112ad565b840191505092915050565b6000610ffb602683611221565b9150611006826112be565b604082019050919050565b600061101e602683611221565b91506110298261130d565b604082019050919050565b6000611041602083611221565b915061104c8261135c565b602082019050919050565b6000611064601d83611221565b915061106f82611385565b602082019050919050565b6000611087602a83611221565b9150611092826113ae565b604082019050919050565b6110a681611270565b82525050565b60006110b88284610f84565b915081905092915050565b60006020820190506110d86000830184610f75565b92915050565b60006060820190506110f36000830186610f75565b6111006020830185610f75565b61110d604083018461109d565b949350505050565b600060408201905061112a6000830185610f75565b611137602083018461109d565b9392505050565b600060208201905081810360008301526111588184610fb5565b905092915050565b6000602082019050818103600083015261117981610fee565b9050919050565b6000602082019050818103600083015261119981611011565b9050919050565b600060208201905081810360008301526111b981611034565b9050919050565b600060208201905081810360008301526111d981611057565b9050919050565b600060208201905081810360008301526111f98161107a565b9050919050565b600081519050919050565b600081519050919050565b600081905092915050565b600082825260208201905092915050565b600061123d82611250565b9050919050565b60008115159050919050565b600073ffffffffffffffffffffffffffffffffffffffff82169050919050565b6000819050919050565b60005b8381101561129857808201518184015260208101905061127d565b838111156112a7576000848401525b50505050565b6000601f19601f8301169050919050565b7f4f776e61626c653a206e6577206f776e657220697320746865207a65726f206160008201527f6464726573730000000000000000000000000000000000000000000000000000602082015250565b7f416464726573733a20696e73756666696369656e742062616c616e636520666f60008201527f722063616c6c0000000000000000000000000000000000000000000000000000602082015250565b7f4f776e61626c653a2063616c6c6572206973206e6f7420746865206f776e6572600082015250565b7f416464726573733a2063616c6c20746f206e6f6e2d636f6e7472616374000000600082015250565b7f5361666545524332303a204552433230206f7065726174696f6e20646964206e60008201527f6f74207375636365656400000000000000000000000000000000000000000000602082015250565b61140681611232565b811461141157600080fd5b50565b61141d81611244565b811461142857600080fd5b50565b61143481611270565b811461143f57600080fd5b5056fea26469706673582212209a65a4a6a1fc3e7b0363a5c4552cc43f254a6a082067d97ffd664e8d2c0d97a564736f6c63430008040033",
  "linkReferences": {},
  "deployedLinkReferences": {}
}