{
  "_format": "hh-sol-artifact-1",
  "contractName": "PrismXXBridge",
  "sourceName": "contracts/PrismXXBridge.sol",
  "abi": [
    {
      "anonymous": false,
      "inputs": [
        {
          "indexed": false,
          "internalType": "address",
          "name": "_from",
          "type": "address"
        },
        {
          "indexed": false,
          "internalType": "bytes32",
          "name": "_to",
          "type": "bytes32"
        },
        {
          "indexed": false,
          "internalType": "uint256",
          "name": "_amount",
          "type": "uint256"
        }
      ],
      "name": "DepositFRA",
      "type": "event"
    },
    {
      "anonymous": false,
      "inputs": [
        {
          "indexed": false,
          "internalType": "address",
          "name": "_frc20",
          "type": "address"
        },
        {
          "indexed": false,
          "internalType": "address",
          "name": "_from",
          "type": "address"
        },
        {
          "indexed": false,
          "internalType": "bytes32",
          "name": "_to",
          "type": "bytes32"
        },
        {
          "indexed": false,
          "internalType": "uint256",
          "name": "_amount",
          "type": "uint256"
        }
      ],
      "name": "DepositFRC20",
      "type": "event"
    },
    {
      "anonymous": false,
      "inputs": [
        {
          "indexed": true,
          "internalType": "address",
          "name": "previousOwner",
          "type": "address"
        },
        {
          "indexed": true,
          "internalType": "address",
          "name": "newOwner",
          "type": "address"
        }
      ],
      "name": "OwnershipTransferred",
      "type": "event"
    },
    {
      "anonymous": false,
      "inputs": [
        {
          "indexed": false,
          "internalType": "bytes32",
          "name": "_from",
          "type": "bytes32"
        },
        {
          "indexed": false,
          "internalType": "address",
          "name": "_to",
          "type": "address"
        },
        {
          "indexed": false,
          "internalType": "uint256",
          "name": "_amount",
          "type": "uint256"
        }
      ],
      "name": "WithdrawFRA",
      "type": "event"
    },
    {
      "anonymous": false,
      "inputs": [
        {
          "indexed": false,
          "internalType": "address",
          "name": "_frc20",
          "type": "address"
        },
        {
          "indexed": false,
          "internalType": "bytes32",
          "name": "_from",
          "type": "bytes32"
        },
        {
          "indexed": false,
          "internalType": "address",
          "name": "_to",
          "type": "address"
        },
        {
          "indexed": false,
          "internalType": "uint256",
          "name": "_amount",
          "type": "uint256"
        }
      ],
      "name": "WithdrawFRC20",
      "type": "event"
    },
    {
      "inputs": [
        {
          "internalType": "address",
          "name": "_asset_contract",
          "type": "address"
        }
      ],
      "name": "adminSetAsset",
      "outputs": [],
      "stateMutability": "nonpayable",
      "type": "function"
    },
    {
      "inputs": [
        {
          "internalType": "address",
          "name": "_ledger_contract",
          "type": "address"
        }
      ],
      "name": "adminSetLedger",
      "outputs": [],
      "stateMutability": "nonpayable",
      "type": "function"
    },
    {
      "inputs": [],
      "name": "asset_contract",
      "outputs": [
        {
          "internalType": "address",
          "name": "",
          "type": "address"
        }
      ],
      "stateMutability": "view",
      "type": "function"
    },
    {
      "inputs": [],
      "name": "consumeMint",
      "outputs": [
        {
          "components": [
            {
              "internalType": "bytes32",
              "name": "asset",
              "type": "bytes32"
            },
            {
              "internalType": "bytes32",
              "name": "receiver",
              "type": "bytes32"
            },
            {
              "internalType": "uint256",
              "name": "amount",
              "type": "uint256"
            }
          ],
          "internalType": "struct PrismXXBridge.MintOp[]",
          "name": "",
          "type": "tuple[]"
        }
      ],
      "stateMutability": "nonpayable",
      "type": "function"
    },
    {
      "inputs": [
        {
          "internalType": "bytes32",
          "name": "_to",
          "type": "bytes32"
        }
      ],
      "name": "depositFRA",
      "outputs": [],
      "stateMutability": "payable",
      "type": "function"
    },
    {
      "inputs": [
        {
          "internalType": "address",
          "name": "_frc20",
          "type": "address"
        },
        {
          "internalType": "bytes32",
          "name": "_to",
          "type": "bytes32"
        },
        {
          "internalType": "uint256",
          "name": "_value",
          "type": "uint256"
        }
      ],
      "name": "depositFRC20",
      "outputs": [],
      "stateMutability": "nonpayable",
      "type": "function"
    },
    {
      "inputs": [],
      "name": "ledger_contract",
      "outputs": [
        {
          "internalType": "address",
          "name": "",
          "type": "address"
        }
      ],
      "stateMutability": "view",
      "type": "function"
    },
    {
      "inputs": [
        {
          "internalType": "uint256",
          "name": "",
          "type": "uint256"
        }
      ],
      "name": "ops",
      "outputs": [
        {
          "internalType": "bytes32",
          "name": "asset",
          "type": "bytes32"
        },
        {
          "internalType": "bytes32",
          "name": "receiver",
          "type": "bytes32"
        },
        {
          "internalType": "uint256",
          "name": "amount",
          "type": "uint256"
        }
      ],
      "stateMutability": "view",
      "type": "function"
    },
    {
      "inputs": [],
      "name": "owner",
      "outputs": [
        {
          "internalType": "address",
          "name": "",
          "type": "address"
        }
      ],
      "stateMutability": "view",
      "type": "function"
    },
    {
      "inputs": [],
      "name": "renounceOwnership",
      "outputs": [],
      "stateMutability": "nonpayable",
      "type": "function"
    },
    {
      "inputs": [
        {
          "internalType": "address",
          "name": "newOwner",
          "type": "address"
        }
      ],
      "name": "transferOwnership",
      "outputs": [],
      "stateMutability": "nonpayable",
      "type": "function"
    },
    {
      "inputs": [
        {
          "internalType": "bytes32",
          "name": "_from",
          "type": "bytes32"
        },
        {
          "internalType": "address payable",
          "name": "_to",
          "type": "address"
        },
        {
          "internalType": "uint256",
          "name": "_value",
          "type": "uint256"
        },
        {
          "internalType": "bytes",
          "name": "_data",
          "type": "bytes"
        }
      ],
      "name": "withdrawFRA",
      "outputs": [],
      "stateMutability": "nonpayable",
      "type": "function"
    },
    {
      "inputs": [
        {
          "internalType": "bytes32",
          "name": "_asset",
          "type": "bytes32"
        },
        {
          "internalType": "bytes32",
          "name": "_from",
          "type": "bytes32"
        },
        {
          "internalType": "address",
          "name": "_to",
          "type": "address"
        },
        {
          "internalType": "uint256",
          "name": "_value",
          "type": "uint256"
        },
        {
          "internalType": "bytes",
          "name": "_data",
          "type": "bytes"
        }
      ],
      "name": "withdrawFRC20",
      "outputs": [],
      "stateMutability": "nonpayable",
      "type": "function"
    }
  ],
  "bytecode": "0x608060405234801561001057600080fd5b5061002d61002261003260201b60201c565b61003a60201b60201c565b6100fe565b600033905090565b60008060009054906101000a900473ffffffffffffffffffffffffffffffffffffffff169050816000806101000a81548173ffffffffffffffffffffffffffffffffffffffff021916908373ffffffffffffffffffffffffffffffffffffffff1602179055508173ffffffffffffffffffffffffffffffffffffffff168173ffffffffffffffffffffffffffffffffffffffff167f8be0079c531659141344cd1fd0a4f28419497f9722a3daafe3b4186f6b6457e060405160405180910390a35050565b6124c3806200010e6000396000f3fe6080604052600436106100c25760003560e01c80638da5cb5b1161007f578063e6f2706d11610059578063e6f2706d14610221578063f2fde38b1461024a578063fabeb15814610273578063fdfd5d4c1461029c576100c2565b80638da5cb5b146101b1578063b9322ce1146101dc578063de93811c14610205576100c2565b8063044edb6f146100c75780630505dce0146100f257806318bc9de61461011d578063524f319814610146578063527799b014610171578063715018a61461019a575b600080fd5b3480156100d357600080fd5b506100dc6102db565b6040516100e99190611ab4565b60405180910390f35b3480156100fe57600080fd5b50610107610301565b6040516101149190611ab4565b60405180910390f35b34801561012957600080fd5b50610144600480360381019061013f919061161d565b610327565b005b34801561015257600080fd5b5061015b610446565b6040516101689190611c3e565b60405180910390f35b34801561017d57600080fd5b506101986004803603810190610193919061169d565b610546565b005b3480156101a657600080fd5b506101af61089a565b005b3480156101bd57600080fd5b506101c6610922565b6040516101d39190611ab4565b60405180910390f35b3480156101e857600080fd5b5061020360048036038101906101fe919061152a565b61094b565b005b61021f600480360381019061021a91906115cb565b610a0b565b005b34801561022d57600080fd5b506102486004803603810190610243919061157c565b610b0a565b005b34801561025657600080fd5b50610271600480360381019061026c919061152a565b610de1565b005b34801561027f57600080fd5b5061029a6004803603810190610295919061152a565b610ed9565b005b3480156102a857600080fd5b506102c360048036038101906102be919061172f565b610f99565b6040516102d293929190611cb2565b60405180910390f35b600160009054906101000a900473ffffffffffffffffffffffffffffffffffffffff1681565b600260009054906101000a900473ffffffffffffffffffffffffffffffffffffffff1681565b600073ffffffffffffffffffffffffffffffffffffffff163373ffffffffffffffffffffffffffffffffffffffff1614610396576040517f08c379a000000000000000000000000000000000000000000000000000000000815260040161038d90611d2b565b60405180910390fd5b61039f84610fd3565b156103f9576103f38483838080601f016020809104026020016040519081016040528093929190818152602001838380828437600081840152601f19601f8201169050808301925050505050505085610ff6565b50610404565b6104038484611025565b5b7f6d67d0cde55eeae43dc9ea393402b7cf8249a8c18c2ee7f1d62a541f6104be1d85858560405161043793929190611c7b565b60405180910390a15050505050565b6060600073ffffffffffffffffffffffffffffffffffffffff163373ffffffffffffffffffffffffffffffffffffffff16146104b7576040517f08c379a00000000000000000000000000000000000000000000000000000000081526004016104ae90611d2b565b60405180910390fd5b60006003805480602002602001604051908101604052809291908181526020016000905b8282101561052b57838290600052602060002090600302016040518060600160405290816000820154815260200160018201548152602001600282015481525050815260200190600101906104db565b5050505090506003600061053f91906113fa565b8091505090565b600073ffffffffffffffffffffffffffffffffffffffff163373ffffffffffffffffffffffffffffffffffffffff16146105b5576040517f08c379a00000000000000000000000000000000000000000000000000000000081526004016105ac90611d2b565b60405180910390fd5b6000600160009054906101000a900473ffffffffffffffffffffffffffffffffffffffff1690506000600260009054906101000a900473ffffffffffffffffffffffffffffffffffffffff16905060008173ffffffffffffffffffffffffffffffffffffffff1663524924798a6040518263ffffffff1660e01b815260040161063e9190611c60565b60206040518083038186803b15801561065657600080fd5b505afa15801561066a573d6000803e3d6000fd5b505050506040513d601f19601f8201168201806040525081019061068e9190611553565b9050600073ffffffffffffffffffffffffffffffffffffffff168173ffffffffffffffffffffffffffffffffffffffff161415610700576040517f08c379a00000000000000000000000000000000000000000000000000000000081526004016106f790611deb565b60405180910390fd5b60008273ffffffffffffffffffffffffffffffffffffffff16635ddd786a83896040518363ffffffff1660e01b815260040161073d929190611c15565b60206040518083038186803b15801561075557600080fd5b505afa158015610769573d6000803e3d6000fd5b505050506040513d601f19601f8201168201806040525081019061078d9190611758565b90508373ffffffffffffffffffffffffffffffffffffffff16633d2b0e0d838a848a8a6040518663ffffffff1660e01b81526004016107d0959493929190611b4b565b600060405180830381600087803b1580156107ea57600080fd5b505af11580156107fe573d6000803e3d6000fd5b505050506108508887878080601f016020809104026020016040519081016040528093929190818152602001838380828437600081840152601f19601f82011690508083019250505050505050611119565b507f3acb6d2ec29bf57d0f8b428409bebef6fd9fd916ceca8acba8ee2b14844edf4d828a8a846040516108869493929190611b99565b60405180910390a150505050505050505050565b6108a2611163565b73ffffffffffffffffffffffffffffffffffffffff166108c0610922565b73ffffffffffffffffffffffffffffffffffffffff1614610916576040517f08c379a000000000000000000000000000000000000000000000000000000000815260040161090d90611dab565b60405180910390fd5b610920600061116b565b565b60008060009054906101000a900473ffffffffffffffffffffffffffffffffffffffff16905090565b610953611163565b73ffffffffffffffffffffffffffffffffffffffff16610971610922565b73ffffffffffffffffffffffffffffffffffffffff16146109c7576040517f08c379a00000000000000000000000000000000000000000000000000000000081526004016109be90611dab565b60405180910390fd5b80600160006101000a81548173ffffffffffffffffffffffffffffffffffffffff021916908373ffffffffffffffffffffffffffffffffffffffff16021790555050565b600034905080610a1c82600c61122f565b14610a5c576040517f08c379a0000000000000000000000000000000000000000000000000000000008152600401610a5390611e0b565b60405180910390fd5b600060405180606001604052806000801b8152602001848152602001838152509050600381908060018154018082558091505060019003906000526020600020906003020160009091909190915060008201518160000155602082015181600101556040820151816002015550507f0d17de7ac88dca43fadf31da6f1a0170219e3b6e4a4565e43bdf62d8e3ca1beb338484604051610afd93929190611bde565b60405180910390a1505050565b6000600260009054906101000a900473ffffffffffffffffffffffffffffffffffffffff16905060008173ffffffffffffffffffffffffffffffffffffffff16630cba53ea866040518263ffffffff1660e01b8152600401610b6c9190611ab4565b60206040518083038186803b158015610b8457600080fd5b505afa158015610b98573d6000803e3d6000fd5b505050506040513d601f19601f82011682018060405250810190610bbc91906115f4565b90506000801b811415610c04576040517f08c379a0000000000000000000000000000000000000000000000000000000008152600401610bfb90611deb565b60405180910390fd5b600033905060008373ffffffffffffffffffffffffffffffffffffffff1663b19fa6ee88876040518363ffffffff1660e01b8152600401610c46929190611c15565b60206040518083038186803b158015610c5e57600080fd5b505afa158015610c72573d6000803e3d6000fd5b505050506040513d601f19601f82011682018060405250810190610c969190611758565b905060006040518060600160405280858152602001888152602001838152509050600381908060018154018082558091505060019003906000526020600020906003020160009091909190915060008201518160000155602082015181600101556040820151816002015550506000600160009054906101000a900473ffffffffffffffffffffffffffffffffffffffff1690508073ffffffffffffffffffffffffffffffffffffffff1663025993488a868a6040518463ffffffff1660e01b8152600401610d6793929190611b14565b600060405180830381600087803b158015610d8157600080fd5b505af1158015610d95573d6000803e3d6000fd5b505050507fc5c9c87ff65b88f4ac2e13898a4e26f85b9f8c9f4921913a704574a38a349e5689858a8a604051610dce9493929190611acf565b60405180910390a1505050505050505050565b610de9611163565b73ffffffffffffffffffffffffffffffffffffffff16610e07610922565b73ffffffffffffffffffffffffffffffffffffffff1614610e5d576040517f08c379a0000000000000000000000000000000000000000000000000000000008152600401610e5490611dab565b60405180910390fd5b600073ffffffffffffffffffffffffffffffffffffffff168173ffffffffffffffffffffffffffffffffffffffff161415610ecd576040517f08c379a0000000000000000000000000000000000000000000000000000000008152600401610ec490611d0b565b60405180910390fd5b610ed68161116b565b50565b610ee1611163565b73ffffffffffffffffffffffffffffffffffffffff16610eff610922565b73ffffffffffffffffffffffffffffffffffffffff1614610f55576040517f08c379a0000000000000000000000000000000000000000000000000000000008152600401610f4c90611dab565b60405180910390fd5b80600260006101000a81548173ffffffffffffffffffffffffffffffffffffffff021916908373ffffffffffffffffffffffffffffffffffffffff16021790555050565b60038181548110610fa957600080fd5b90600052602060002090600302016000915090508060000154908060010154908060020154905083565b6000808273ffffffffffffffffffffffffffffffffffffffff163b119050919050565b606061101c84848460405180606001604052806029815260200161246560299139611267565b90509392505050565b80471015611068576040517f08c379a000000000000000000000000000000000000000000000000000000000815260040161105f90611d6b565b60405180910390fd5b60008273ffffffffffffffffffffffffffffffffffffffff168260405161108e90611a9f565b60006040518083038185875af1925050503d80600081146110cb576040519150601f19603f3d011682016040523d82523d6000602084013e6110d0565b606091505b5050905080611114576040517f08c379a000000000000000000000000000000000000000000000000000000000815260040161110b90611d4b565b60405180910390fd5b505050565b606061115b83836040518060400160405280601e81526020017f416464726573733a206c6f772d6c6576656c2063616c6c206661696c6564000081525061137b565b905092915050565b600033905090565b60008060009054906101000a900473ffffffffffffffffffffffffffffffffffffffff169050816000806101000a81548173ffffffffffffffffffffffffffffffffffffffff021916908373ffffffffffffffffffffffffffffffffffffffff1602179055508173ffffffffffffffffffffffffffffffffffffffff168173ffffffffffffffffffffffffffffffffffffffff167f8be0079c531659141344cd1fd0a4f28419497f9722a3daafe3b4186f6b6457e060405160405180910390a35050565b60008082600a61123f9190611f2b565b90506000818561124f9190611ea7565b9050818161125d9190612049565b9250505092915050565b6060824710156112ac576040517f08c379a00000000000000000000000000000000000000000000000000000000081526004016112a390611d8b565b60405180910390fd5b6112b585610fd3565b6112f4576040517f08c379a00000000000000000000000000000000000000000000000000000000081526004016112eb90611dcb565b60405180910390fd5b6000808673ffffffffffffffffffffffffffffffffffffffff16858760405161131d9190611a88565b60006040518083038185875af1925050503d806000811461135a576040519150601f19603f3d011682016040523d82523d6000602084013e61135f565b606091505b509150915061136f828286611393565b92505050949350505050565b606061138a8484600085611267565b90509392505050565b606083156113a3578290506113f3565b6000835111156113b65782518084602001fd5b816040517f08c379a00000000000000000000000000000000000000000000000000000000081526004016113ea9190611ce9565b60405180910390fd5b9392505050565b508054600082556003029060005260206000209081019061141b919061141e565b50565b5b8082111561144957600080820160009055600182016000905560028201600090555060030161141f565b5090565b60008135905061145c81612408565b92915050565b60008151905061147181612408565b92915050565b6000813590506114868161241f565b92915050565b60008135905061149b81612436565b92915050565b6000815190506114b081612436565b92915050565b60008083601f8401126114c857600080fd5b8235905067ffffffffffffffff8111156114e157600080fd5b6020830191508360018202830111156114f957600080fd5b9250929050565b60008135905061150f8161244d565b92915050565b6000815190506115248161244d565b92915050565b60006020828403121561153c57600080fd5b600061154a8482850161144d565b91505092915050565b60006020828403121561156557600080fd5b600061157384828501611462565b91505092915050565b60008060006060848603121561159157600080fd5b600061159f8682870161144d565b93505060206115b08682870161148c565b92505060406115c186828701611500565b9150509250925092565b6000602082840312156115dd57600080fd5b60006115eb8482850161148c565b91505092915050565b60006020828403121561160657600080fd5b6000611614848285016114a1565b91505092915050565b60008060008060006080868803121561163557600080fd5b60006116438882890161148c565b955050602061165488828901611477565b945050604061166588828901611500565b935050606086013567ffffffffffffffff81111561168257600080fd5b61168e888289016114b6565b92509250509295509295909350565b60008060008060008060a087890312156116b657600080fd5b60006116c489828a0161148c565b96505060206116d589828a0161148c565b95505060406116e689828a0161144d565b94505060606116f789828a01611500565b935050608087013567ffffffffffffffff81111561171457600080fd5b61172089828a016114b6565b92509250509295509295509295565b60006020828403121561174157600080fd5b600061174f84828501611500565b91505092915050565b60006020828403121561176a57600080fd5b600061177884828501611515565b91505092915050565b600061178d8383611a28565b60608301905092915050565b6117a281612108565b82525050565b6117b1816120a3565b82525050565b60006117c282611e3b565b6117cc8185611e69565b93506117d783611e2b565b8060005b838110156118085781516117ef8882611781565b97506117fa83611e5c565b9250506001810190506117db565b5085935050505092915050565b61181e816120c7565b82525050565b61182d816120c7565b82525050565b600061183f8385611e7a565b935061184c83858461213e565b611855836121de565b840190509392505050565b600061186b82611e46565b6118758185611e8b565b935061188581856020860161214d565b80840191505092915050565b600061189c82611e51565b6118a68185611e96565b93506118b681856020860161214d565b6118bf816121de565b840191505092915050565b60006118d7602683611e96565b91506118e2826121fc565b604082019050919050565b60006118fa602283611e96565b91506119058261224b565b604082019050919050565b600061191d603a83611e96565b91506119288261229a565b604082019050919050565b6000611940601d83611e96565b915061194b826122e9565b602082019050919050565b6000611963602683611e96565b915061196e82612312565b604082019050919050565b6000611986602083611e96565b915061199182612361565b602082019050919050565b60006119a9600083611e8b565b91506119b48261238a565b600082019050919050565b60006119cc601d83611e96565b91506119d78261238d565b602082019050919050565b60006119ef601883611e96565b91506119fa826123b6565b602082019050919050565b6000611a12601183611e96565b9150611a1d826123df565b602082019050919050565b606082016000820151611a3e6000850182611815565b506020820151611a516020850182611815565b506040820151611a646040850182611a6a565b50505050565b611a73816120f1565b82525050565b611a82816120f1565b82525050565b6000611a948284611860565b915081905092915050565b6000611aaa8261199c565b9150819050919050565b6000602082019050611ac960008301846117a8565b92915050565b6000608082019050611ae460008301876117a8565b611af160208301866117a8565b611afe6040830185611824565b611b0b6060830184611a79565b95945050505050565b6000606082019050611b2960008301866117a8565b611b3660208301856117a8565b611b436040830184611a79565b949350505050565b6000608082019050611b6060008301886117a8565b611b6d60208301876117a8565b611b7a6040830186611a79565b8181036060830152611b8d818486611833565b90509695505050505050565b6000608082019050611bae60008301876117a8565b611bbb6020830186611824565b611bc860408301856117a8565b611bd56060830184611a79565b95945050505050565b6000606082019050611bf360008301866117a8565b611c006020830185611824565b611c0d6040830184611a79565b949350505050565b6000604082019050611c2a60008301856117a8565b611c376020830184611a79565b9392505050565b60006020820190508181036000830152611c5881846117b7565b905092915050565b6000602082019050611c756000830184611824565b92915050565b6000606082019050611c906000830186611824565b611c9d6020830185611799565b611caa6040830184611a79565b949350505050565b6000606082019050611cc76000830186611824565b611cd46020830185611824565b611ce16040830184611a79565b949350505050565b60006020820190508181036000830152611d038184611891565b905092915050565b60006020820190508181036000830152611d24816118ca565b9050919050565b60006020820190508181036000830152611d44816118ed565b9050919050565b60006020820190508181036000830152611d6481611910565b9050919050565b60006020820190508181036000830152611d8481611933565b9050919050565b60006020820190508181036000830152611da481611956565b9050919050565b60006020820190508181036000830152611dc481611979565b9050919050565b60006020820190508181036000830152611de4816119bf565b9050919050565b60006020820190508181036000830152611e04816119e2565b9050919050565b60006020820190508181036000830152611e2481611a05565b9050919050565b6000819050602082019050919050565b600081519050919050565b600081519050919050565b600081519050919050565b6000602082019050919050565b600082825260208201905092915050565b600082825260208201905092915050565b600081905092915050565b600082825260208201905092915050565b6000611eb2826120f1565b9150611ebd836120f1565b925082611ecd57611ecc6121af565b5b828204905092915050565b6000808291508390505b6001851115611f2257808604811115611efe57611efd612180565b5b6001851615611f0d5780820291505b8081029050611f1b856121ef565b9450611ee2565b94509492505050565b6000611f36826120f1565b9150611f41836120fb565b9250611f6e7fffffffffffffffffffffffffffffffffffffffffffffffffffffffffffffffff8484611f76565b905092915050565b600082611f865760019050612042565b81611f945760009050612042565b8160018114611faa5760028114611fb457611fe3565b6001915050612042565b60ff841115611fc657611fc5612180565b5b8360020a915084821115611fdd57611fdc612180565b5b50612042565b5060208310610133831016604e8410600b84101617156120185782820a90508381111561201357612012612180565b5b612042565b6120258484846001611ed8565b9250905081840481111561203c5761203b612180565b5b81810290505b9392505050565b6000612054826120f1565b915061205f836120f1565b9250817fffffffffffffffffffffffffffffffffffffffffffffffffffffffffffffffff048311821515161561209857612097612180565b5b828202905092915050565b60006120ae826120d1565b9050919050565b60006120c0826120d1565b9050919050565b6000819050919050565b600073ffffffffffffffffffffffffffffffffffffffff82169050919050565b6000819050919050565b600060ff82169050919050565b60006121138261211a565b9050919050565b60006121258261212c565b9050919050565b6000612137826120d1565b9050919050565b82818337600083830152505050565b60005b8381101561216b578082015181840152602081019050612150565b8381111561217a576000848401525b50505050565b7f4e487b7100000000000000000000000000000000000000000000000000000000600052601160045260246000fd5b7f4e487b7100000000000000000000000000000000000000000000000000000000600052601260045260246000fd5b6000601f19601f8301169050919050565b60008160011c9050919050565b7f4f776e61626c653a206e6577206f776e657220697320746865207a65726f206160008201527f6464726573730000000000000000000000000000000000000000000000000000602082015250565b7f4f6e6c792073797374656d2063616e2063616c6c20746869732066756e63746960008201527f6f6e000000000000000000000000000000000000000000000000000000000000602082015250565b7f416464726573733a20756e61626c6520746f2073656e642076616c75652c207260008201527f6563697069656e74206d61792068617665207265766572746564000000000000602082015250565b7f416464726573733a20696e73756666696369656e742062616c616e6365000000600082015250565b7f416464726573733a20696e73756666696369656e742062616c616e636520666f60008201527f722063616c6c0000000000000000000000000000000000000000000000000000602082015250565b7f4f776e61626c653a2063616c6c6572206973206e6f7420746865206f776e6572600082015250565b50565b7f416464726573733a2063616c6c20746f206e6f6e2d636f6e7472616374000000600082015250565b7f41737365742074797065206d7573742072656769737465640000000000000000600082015250565b7f6c6f77203132206d75737420626520302e000000000000000000000000000000600082015250565b612411816120a3565b811461241c57600080fd5b50565b612428816120b5565b811461243357600080fd5b50565b61243f816120c7565b811461244a57600080fd5b50565b612456816120f1565b811461246157600080fd5b5056fe416464726573733a206c6f772d6c6576656c2063616c6c20776974682076616c7565206661696c6564a26469706673582212202537c1353073fd6ddaada8a3e318504445fe195970498ca8b426effb2f6efa1064736f6c63430008040033",
  "linkReferences": {},
  "deployedLinkReferences": {}
}