{
  "_format": "hh-sol-artifact-1",
  "contractName": "PrismProxy",
  "sourceName": "contracts/PrismProxy.sol",
  "abi": [
    {
      "inputs": [],
      "stateMutability": "nonpayable",
      "type": "constructor"
    },
    {
      "anonymous": false,
      "inputs": [
        {
          "indexed": true,
          "internalType": "address",
          "name": "previousOwner",
          "type": "address"
        },
        {
          "indexed": true,
          "internalType": "address",
          "name": "newOwner",
          "type": "address"
        }
      ],
      "name": "OwnershipTransferred",
      "type": "event"
    },
    {
      "stateMutability": "payable",
      "type": "fallback"
    },
    {
      "inputs": [
        {
          "internalType": "address",
          "name": "_prismBridgeAddress",
          "type": "address"
        }
      ],
      "name": "adminSetPrismBridgeAddress",
      "outputs": [],
      "stateMutability": "nonpayable",
      "type": "function"
    },
    {
      "inputs": [],
      "name": "owner",
      "outputs": [
        {
          "internalType": "address",
          "name": "",
          "type": "address"
        }
      ],
      "stateMutability": "view",
      "type": "function"
    },
    {
      "inputs": [],
      "name": "prismBridgeAddress",
      "outputs": [
        {
          "internalType": "address",
          "name": "",
          "type": "address"
        }
      ],
      "stateMutability": "view",
      "type": "function"
    },
    {
      "inputs": [],
      "name": "renounceOwnership",
      "outputs": [],
      "stateMutability": "nonpayable",
      "type": "function"
    },
    {
      "inputs": [
        {
          "internalType": "address",
          "name": "newOwner",
          "type": "address"
        }
      ],
      "name": "transferOwnership",
      "outputs": [],
      "stateMutability": "nonpayable",
      "type": "function"
    },
    {
      "stateMutability": "payable",
      "type": "receive"
    }
  ],
  "bytecode": "0x608060405234801561001057600080fd5b5061002d6100226100ac60201b60201c565b6100b460201b60201c565b60003060405161003c90610178565b6100469190610194565b604051809103906000f080158015610062573d6000803e3d6000fd5b50905080600160006101000a81548173ffffffffffffffffffffffffffffffffffffffff021916908373ffffffffffffffffffffffffffffffffffffffff160217905550506101e1565b600033905090565b60008060009054906101000a900473ffffffffffffffffffffffffffffffffffffffff169050816000806101000a81548173ffffffffffffffffffffffffffffffffffffffff021916908373ffffffffffffffffffffffffffffffffffffffff1602179055508173ffffffffffffffffffffffffffffffffffffffff168173ffffffffffffffffffffffffffffffffffffffff167f8be0079c531659141344cd1fd0a4f28419497f9722a3daafe3b4186f6b6457e060405160405180910390a35050565b613e20806108d383390190565b61018e816101af565b82525050565b60006020820190506101a96000830184610185565b92915050565b60006101ba826101c1565b9050919050565b600073ffffffffffffffffffffffffffffffffffffffff82169050919050565b6106e3806101f06000396000f3fe60806040526004361061004e5760003560e01c8063715018a6146100675780638da5cb5b1461007e578063c16216ea146100a9578063f2fde38b146100d2578063f92f1201146100fb5761005d565b3661005d5761005b610126565b005b610065610126565b005b34801561007357600080fd5b5061007c610140565b005b34801561008a57600080fd5b506100936101c8565b6040516100a09190610580565b60405180910390f35b3480156100b557600080fd5b506100d060048036038101906100cb9190610502565b6101f1565b005b3480156100de57600080fd5b506100f960048036038101906100f49190610502565b6102b1565b005b34801561010757600080fd5b506101106103a9565b60405161011d9190610580565b60405180910390f35b61012e6103cf565b61013e6101396103d1565b6103fb565b565b610148610421565b73ffffffffffffffffffffffffffffffffffffffff166101666101c8565b73ffffffffffffffffffffffffffffffffffffffff16146101bc576040517f08c379a00000000000000000000000000000000000000000000000000000000081526004016101b3906105bb565b60405180910390fd5b6101c66000610429565b565b60008060009054906101000a900473ffffffffffffffffffffffffffffffffffffffff16905090565b6101f9610421565b73ffffffffffffffffffffffffffffffffffffffff166102176101c8565b73ffffffffffffffffffffffffffffffffffffffff161461026d576040517f08c379a0000000000000000000000000000000000000000000000000000000008152600401610264906105bb565b60405180910390fd5b80600160006101000a81548173ffffffffffffffffffffffffffffffffffffffff021916908373ffffffffffffffffffffffffffffffffffffffff16021790555050565b6102b9610421565b73ffffffffffffffffffffffffffffffffffffffff166102d76101c8565b73ffffffffffffffffffffffffffffffffffffffff161461032d576040517f08c379a0000000000000000000000000000000000000000000000000000000008152600401610324906105bb565b60405180910390fd5b600073ffffffffffffffffffffffffffffffffffffffff168173ffffffffffffffffffffffffffffffffffffffff16141561039d576040517f08c379a00000000000000000000000000000000000000000000000000000000081526004016103949061059b565b60405180910390fd5b6103a681610429565b50565b600160009054906101000a900473ffffffffffffffffffffffffffffffffffffffff1681565b565b6000600160009054906101000a900473ffffffffffffffffffffffffffffffffffffffff16905090565b3660008037600080366000845af43d6000803e806000811461041c573d6000f35b3d6000fd5b600033905090565b60008060009054906101000a900473ffffffffffffffffffffffffffffffffffffffff169050816000806101000a81548173ffffffffffffffffffffffffffffffffffffffff021916908373ffffffffffffffffffffffffffffffffffffffff1602179055508173ffffffffffffffffffffffffffffffffffffffff168173ffffffffffffffffffffffffffffffffffffffff167f8be0079c531659141344cd1fd0a4f28419497f9722a3daafe3b4186f6b6457e060405160405180910390a35050565b6000813590506104fc81610696565b92915050565b60006020828403121561051457600080fd5b6000610522848285016104ed565b91505092915050565b610534816105ec565b82525050565b60006105476026836105db565b91506105528261061e565b604082019050919050565b600061056a6020836105db565b91506105758261066d565b602082019050919050565b6000602082019050610595600083018461052b565b92915050565b600060208201905081810360008301526105b48161053a565b9050919050565b600060208201905081810360008301526105d48161055d565b9050919050565b600082825260208201905092915050565b60006105f7826105fe565b9050919050565b600073ffffffffffffffffffffffffffffffffffffffff82169050919050565b7f4f776e61626c653a206e6577206f776e657220697320746865207a65726f206160008201527f6464726573730000000000000000000000000000000000000000000000000000602082015250565b7f4f776e61626c653a2063616c6c6572206973206e6f7420746865206f776e6572600082015250565b61069f816105ec565b81146106aa57600080fd5b5056fea264697066735822122099d78e82f0657e1b9424d960c92c75f44b4988e8507d18907a5f49e6581c351c64736f6c63430008040033608060405230600160006101000a81548173ffffffffffffffffffffffffffffffffffffffff021916908373ffffffffffffffffffffffffffffffffffffffff1602179055503480156200005257600080fd5b5060405162003e2038038062003e208339818101604052810190620000789190620001c3565b620000986200008c620000e060201b60201c565b620000e860201b60201c565b80600260006101000a81548173ffffffffffffffffffffffffffffffffffffffff021916908373ffffffffffffffffffffffffffffffffffffffff160217905550506200023d565b600033905090565b60008060009054906101000a900473ffffffffffffffffffffffffffffffffffffffff169050816000806101000a81548173ffffffffffffffffffffffffffffffffffffffff021916908373ffffffffffffffffffffffffffffffffffffffff1602179055508173ffffffffffffffffffffffffffffffffffffffff168173ffffffffffffffffffffffffffffffffffffffff167f8be0079c531659141344cd1fd0a4f28419497f9722a3daafe3b4186f6b6457e060405160405180910390a35050565b600081519050620001bd8162000223565b92915050565b600060208284031215620001d657600080fd5b6000620001e684828501620001ac565b91505092915050565b6000620001fc8262000203565b9050919050565b600073ffffffffffffffffffffffffffffffffffffffff82169050919050565b6200022e81620001ef565b81146200023a57600080fd5b50565b613bd3806200024d6000396000f3fe60806040526004361061012e5760003560e01c8063a9052776116100ab578063de93811c1161006f578063de93811c146103c1578063e6f2706d146103dd578063f2fde38b14610406578063f8fbccc21461042f578063fabeb1581461045a578063fdfd5d4c1461048357610135565b8063a9052776146102de578063aa02ce8e14610307578063b9322ce114610330578063d84e803814610359578063d905b0091461038457610135565b8063524f3198116100f2578063524f31981461021f578063715018a61461024a5780637c7c9d2f146102615780638da5cb5b1461028a5780639b5e757b146102b557610135565b8063044edb6f1461013a5780630505dce01461016557806318bc9de6146101905780633eb0edcf146101b95780633fefa1b7146101f657610135565b3661013557005b600080fd5b34801561014657600080fd5b5061014f6104c4565b60405161015c9190612dca565b60405180910390f35b34801561017157600080fd5b5061017a6104ea565b6040516101879190612dca565b60405180910390f35b34801561019c57600080fd5b506101b760048036038101906101b29190612871565b610510565b005b3480156101c557600080fd5b506101e060048036038101906101db919061261f565b610686565b6040516101ed91906130d4565b60405180910390f35b34801561020257600080fd5b5061021d6004803603810190610218919061272c565b6106bc565b005b34801561022b57600080fd5b506102346108ee565b60405161024191906130b2565b60405180910390f35b34801561025657600080fd5b5061025f610a11565b005b34801561026d57600080fd5b50610288600480360381019061028391906128f1565b610a99565b005b34801561029657600080fd5b5061029f611237565b6040516102ac9190612dca565b60405180910390f35b3480156102c157600080fd5b506102dc60048036038101906102d79190612671565b611260565b005b3480156102ea57600080fd5b50610305600480360381019061030091906128f1565b611364565b005b34801561031357600080fd5b5061032e600480360381019061032991906126dd565b611478565b005b34801561033c57600080fd5b506103576004803603810190610352919061261f565b6116a6565b005b34801561036557600080fd5b5061036e611766565b60405161037b9190612dca565b60405180910390f35b34801561039057600080fd5b506103ab60048036038101906103a6919061278f565b61178c565b6040516103b891906130d4565b60405180910390f35b6103db60048036038101906103d69190612848565b6117c5565b005b3480156103e957600080fd5b5061040460048036038101906103ff91906126dd565b61192c565b005b34801561041257600080fd5b5061042d6004803603810190610428919061261f565b611c4c565b005b34801561043b57600080fd5b50610444611d44565b60405161045191906130b2565b60405180910390f35b34801561046657600080fd5b50610481600480360381019061047c919061261f565b611e8c565b005b34801561048f57600080fd5b506104aa60048036038101906104a591906129ac565b611f4c565b6040516104bb9594939291906131e2565b60405180910390f35b600360009054906101000a900473ffffffffffffffffffffffffffffffffffffffff1681565b600460009054906101000a900473ffffffffffffffffffffffffffffffffffffffff1681565b600073ffffffffffffffffffffffffffffffffffffffff163373ffffffffffffffffffffffffffffffffffffffff161461057f576040517f08c379a000000000000000000000000000000000000000000000000000000000815260040161057690613277565b60405180910390fd5b6105ab600160009054906101000a900473ffffffffffffffffffffffffffffffffffffffff1684611f9f565b6000600160009054906101000a900473ffffffffffffffffffffffffffffffffffffffff1690508073ffffffffffffffffffffffffffffffffffffffff16639b5e757b868686866040518563ffffffff1660e01b81526004016106119493929190612de5565b600060405180830381600087803b15801561062b57600080fd5b505af115801561063f573d6000803e3d6000fd5b505050507f6d67d0cde55eeae43dc9ea393402b7cf8249a8c18c2ee7f1d62a541f6104be1d86868660405161067693929190613118565b60405180910390a1505050505050565b6000607760001b8260405160200161069f9291906130ef565b604051602081830303815290604052805190602001209050919050565b60006106c8858461178c565b90506000600460009054906101000a900473ffffffffffffffffffffffffffffffffffffffff1690508073ffffffffffffffffffffffffffffffffffffffff1663d0e5390d8388876040518463ffffffff1660e01b815260040161072e9392919061314f565b600060405180830381600087803b15801561074857600080fd5b505af115801561075c573d6000803e3d6000fd5b50505050600033905060006040518060a00160405280858152602001888152602001868152602001600160ff16815260200160008152509050600581908060018154018082558091505060019003906000526020600020906005020160009091909190915060008201518160000155602082015181600101556040820151816002015560608201518160030160006101000a81548160ff021916908360ff1602179055506080820151816004015550506000600360009054906101000a900473ffffffffffffffffffffffffffffffffffffffff1690508073ffffffffffffffffffffffffffffffffffffffff166303b5b1e78a858a8a6040518563ffffffff1660e01b81526004016108729493929190612f42565b600060405180830381600087803b15801561088c57600080fd5b505af11580156108a0573d6000803e3d6000fd5b505050507f5f5598dde166bdcc0176002e98e317989e40d9fb5bc71de64757bfa6aad4ed7889848a8a8a6040516108db959493929190612e6a565b60405180910390a1505050505050505050565b6060600073ffffffffffffffffffffffffffffffffffffffff163373ffffffffffffffffffffffffffffffffffffffff161461095f576040517f08c379a000000000000000000000000000000000000000000000000000000000815260040161095690613277565b60405180910390fd5b6000600160009054906101000a900473ffffffffffffffffffffffffffffffffffffffff1690508073ffffffffffffffffffffffffffffffffffffffff1663f8fbccc26040518163ffffffff1660e01b8152600401600060405180830381600087803b1580156109ce57600080fd5b505af11580156109e2573d6000803e3d6000fd5b505050506040513d6000823e3d601f19601f82011682018060405250810190610a0b9190612807565b91505090565b610a19612093565b73ffffffffffffffffffffffffffffffffffffffff16610a37611237565b73ffffffffffffffffffffffffffffffffffffffff1614610a8d576040517f08c379a0000000000000000000000000000000000000000000000000000000008152600401610a8490613317565b60405180910390fd5b610a97600061209b565b565b600260009054906101000a900473ffffffffffffffffffffffffffffffffffffffff1673ffffffffffffffffffffffffffffffffffffffff163373ffffffffffffffffffffffffffffffffffffffff1614610b29576040517f08c379a0000000000000000000000000000000000000000000000000000000008152600401610b20906132f7565b60405180910390fd5b6000600360009054906101000a900473ffffffffffffffffffffffffffffffffffffffff1690506000600460009054906101000a900473ffffffffffffffffffffffffffffffffffffffff16905060008173ffffffffffffffffffffffffffffffffffffffff1663979a9b5e8a6040518263ffffffff1660e01b8152600401610bb291906130d4565b60206040518083038186803b158015610bca57600080fd5b505afa158015610bde573d6000803e3d6000fd5b505050506040513d601f19601f82011682018060405250810190610c029190612983565b905060016002811115610c3e577f4e487b7100000000000000000000000000000000000000000000000000000000600052602160045260246000fd5b816002811115610c77577f4e487b7100000000000000000000000000000000000000000000000000000000600052602160045260246000fd5b1415610e06576000808373ffffffffffffffffffffffffffffffffffffffff1663d87e0e328c6040518263ffffffff1660e01b8152600401610cb991906130d4565b604080518083038186803b158015610cd057600080fd5b505afa158015610ce4573d6000803e3d6000fd5b505050506040513d601f19601f82011682018060405250810190610d0891906127cb565b9150915060018814610d4f576040517f08c379a0000000000000000000000000000000000000000000000000000000008152600401610d4690613337565b60405180910390fd5b8473ffffffffffffffffffffffffffffffffffffffff166365321187838b848b8b6040518663ffffffff1660e01b8152600401610d90959493929190612ef4565b600060405180830381600087803b158015610daa57600080fd5b505af1158015610dbe573d6000803e3d6000fd5b505050507fa6ad222c5a86c95e71e0707382c7594bb0a886e373d0ccd79e9fd30077a52ae2828b8b84604051610df79493929190612fe3565b60405180910390a1505061122c565b600280811115610e3f577f4e487b7100000000000000000000000000000000000000000000000000000000600052602160045260246000fd5b816002811115610e78577f4e487b7100000000000000000000000000000000000000000000000000000000600052602160045260246000fd5b1415610fc8576000808373ffffffffffffffffffffffffffffffffffffffff1663c04fd06c8c6040518263ffffffff1660e01b8152600401610eba91906130d4565b604080518083038186803b158015610ed157600080fd5b505afa158015610ee5573d6000803e3d6000fd5b505050506040513d601f19601f82011682018060405250810190610f0991906127cb565b915091508473ffffffffffffffffffffffffffffffffffffffff166319a18ca0838b848c8c8c6040518763ffffffff1660e01b8152600401610f5096959493929190612f87565b600060405180830381600087803b158015610f6a57600080fd5b505af1158015610f7e573d6000803e3d6000fd5b505050507f9a72e3d1038afeae6d6353bc4d7ed99f30ada530f1a2c354088b2cb8dbf90124828b8b848c604051610fb9959493929190613028565b60405180910390a1505061122b565b60008273ffffffffffffffffffffffffffffffffffffffff16631996e4f48b6040518263ffffffff1660e01b815260040161100391906130d4565b60206040518083038186803b15801561101b57600080fd5b505afa15801561102f573d6000803e3d6000fd5b505050506040513d601f19601f820116820180604052508101906110539190612648565b90506000819050600073ffffffffffffffffffffffffffffffffffffffff168273ffffffffffffffffffffffffffffffffffffffff1614156110ca576040517f08c379a00000000000000000000000000000000000000000000000000000000081526004016110c190613377565b60405180910390fd5b60008173ffffffffffffffffffffffffffffffffffffffff1663313ce5676040518163ffffffff1660e01b815260040160206040518083038186803b15801561111257600080fd5b505afa158015611126573d6000803e3d6000fd5b505050506040513d601f19601f8201168201806040525081019061114a91906129d5565b9050600089905060068260ff161115611176576111738a60068461116e9190613680565b61215f565b90505b8673ffffffffffffffffffffffffffffffffffffffff16633d2b0e0d858d848d8d6040518663ffffffff1660e01b81526004016111b7959493929190612ef4565b600060405180830381600087803b1580156111d157600080fd5b505af11580156111e5573d6000803e3d6000fd5b505050507f3acb6d2ec29bf57d0f8b428409bebef6fd9fd916ceca8acba8ee2b14844edf4d848d8d8460405161121e9493929190612fe3565b60405180910390a1505050505b5b505050505050505050565b60008060009054906101000a900473ffffffffffffffffffffffffffffffffffffffff16905090565b600260009054906101000a900473ffffffffffffffffffffffffffffffffffffffff1673ffffffffffffffffffffffffffffffffffffffff163373ffffffffffffffffffffffffffffffffffffffff16146112f0576040517f08c379a00000000000000000000000000000000000000000000000000000000081526004016112e7906132f7565b60405180910390fd5b6112f984612186565b156113535761134d8483838080601f016020809104026020016040519081016040528093929190818152602001838380828437600081840152601f19601f82011690508083019250505050505050856121a9565b5061135e565b61135d8484611f9f565b5b50505050565b600073ffffffffffffffffffffffffffffffffffffffff163373ffffffffffffffffffffffffffffffffffffffff16146113d3576040517f08c379a00000000000000000000000000000000000000000000000000000000081526004016113ca90613277565b60405180910390fd5b6000600160009054906101000a900473ffffffffffffffffffffffffffffffffffffffff1690508073ffffffffffffffffffffffffffffffffffffffff16637c7c9d2f8888888888886040518763ffffffff1660e01b815260040161143d96959493929190613186565b600060405180830381600087803b15801561145757600080fd5b505af115801561146b573d6000803e3d6000fd5b5050505050505050505050565b6000611484848361178c565b90506000600460009054906101000a900473ffffffffffffffffffffffffffffffffffffffff1690508073ffffffffffffffffffffffffffffffffffffffff166305c62fe38387866040518463ffffffff1660e01b81526004016114ea9392919061314f565b600060405180830381600087803b15801561150457600080fd5b505af1158015611518573d6000803e3d6000fd5b50505050600033905060006040518060a0016040528085815260200187815260200160018152602001600160ff16815260200160018152509050600581908060018154018082558091505060019003906000526020600020906005020160009091909190915060008201518160000155602082015181600101556040820151816002015560608201518160030160006101000a81548160ff021916908360ff1602179055506080820151816004015550506000600360009054906101000a900473ffffffffffffffffffffffffffffffffffffffff1690508073ffffffffffffffffffffffffffffffffffffffff1663554f103b8985896040518463ffffffff1660e01b815260040161162d93929190612ebd565b600060405180830381600087803b15801561164757600080fd5b505af115801561165b573d6000803e3d6000fd5b505050507f28230f8f4600241abe66187a8e94728710dadacebf5572a56618b0f85d499293888489896040516116949493929190612e25565b60405180910390a15050505050505050565b6116ae612093565b73ffffffffffffffffffffffffffffffffffffffff166116cc611237565b73ffffffffffffffffffffffffffffffffffffffff1614611722576040517f08c379a000000000000000000000000000000000000000000000000000000000815260040161171990613317565b60405180910390fd5b80600360006101000a81548173ffffffffffffffffffffffffffffffffffffffff021916908373ffffffffffffffffffffffffffffffffffffffff16021790555050565b600260009054906101000a900473ffffffffffffffffffffffffffffffffffffffff1681565b6000600260001b83836040516020016117a79392919061314f565b60405160208183030381529060405280519060200120905092915050565b6000349050806117d682600c6121d8565b14611816576040517f08c379a000000000000000000000000000000000000000000000000000000000815260040161180d90613397565b60405180910390fd5b60006040518060a001604052806000801b8152602001848152602001838152602001600660ff16815260200160008152509050600581908060018154018082558091505060019003906000526020600020906005020160009091909190915060008201518160000155602082015181600101556040820151816002015560608201518160030160006101000a81548160ff021916908360ff1602179055506080820151816004015550506118ec600260009054906101000a900473ffffffffffffffffffffffffffffffffffffffff1683611f9f565b7f0d17de7ac88dca43fadf31da6f1a0170219e3b6e4a4565e43bdf62d8e3ca1beb33848460405161191f9392919061307b565b60405180910390a1505050565b600083905060008173ffffffffffffffffffffffffffffffffffffffff1663313ce5676040518163ffffffff1660e01b815260040160206040518083038186803b15801561197957600080fd5b505afa15801561198d573d6000803e3d6000fd5b505050506040513d601f19601f820116820180604052508101906119b191906129d5565b9050600081905060068260ff161115611a2057836119db856006856119d69190613680565b6121d8565b14611a1b576040517f08c379a0000000000000000000000000000000000000000000000000000000008152600401611a1290613397565b60405180910390fd5b600690505b6000611a2b87610686565b90506000600460009054906101000a900473ffffffffffffffffffffffffffffffffffffffff1690508073ffffffffffffffffffffffffffffffffffffffff1663ed7e205b838a6040518363ffffffff1660e01b8152600401611a8f9291906130ef565b600060405180830381600087803b158015611aa957600080fd5b505af1158015611abd573d6000803e3d6000fd5b50505050600033905060006040518060a001604052808581526020018a81526020018981526020018660ff16815260200160008152509050600581908060018154018082558091505060019003906000526020600020906005020160009091909190915060008201518160000155602082015181600101556040820151816002015560608201518160030160006101000a81548160ff021916908360ff1602179055506080820151816004015550506000600360009054906101000a900473ffffffffffffffffffffffffffffffffffffffff1690508073ffffffffffffffffffffffffffffffffffffffff1663025993488c858c6040518463ffffffff1660e01b8152600401611bd093929190612ebd565b600060405180830381600087803b158015611bea57600080fd5b505af1158015611bfe573d6000803e3d6000fd5b505050507fc5c9c87ff65b88f4ac2e13898a4e26f85b9f8c9f4921913a704574a38a349e568b848c8c604051611c379493929190612e25565b60405180910390a15050505050505050505050565b611c54612093565b73ffffffffffffffffffffffffffffffffffffffff16611c72611237565b73ffffffffffffffffffffffffffffffffffffffff1614611cc8576040517f08c379a0000000000000000000000000000000000000000000000000000000008152600401611cbf90613317565b60405180910390fd5b600073ffffffffffffffffffffffffffffffffffffffff168173ffffffffffffffffffffffffffffffffffffffff161415611d38576040517f08c379a0000000000000000000000000000000000000000000000000000000008152600401611d2f90613257565b60405180910390fd5b611d418161209b565b50565b6060600260009054906101000a900473ffffffffffffffffffffffffffffffffffffffff1673ffffffffffffffffffffffffffffffffffffffff163373ffffffffffffffffffffffffffffffffffffffff1614611dd6576040517f08c379a0000000000000000000000000000000000000000000000000000000008152600401611dcd906132f7565b60405180910390fd5b60006005805480602002602001604051908101604052809291908181526020016000905b82821015611e7157838290600052602060002090600502016040518060a00160405290816000820154815260200160018201548152602001600282015481526020016003820160009054906101000a900460ff1660ff1660ff16815260200160048201548152505081526020019060010190611dfa565b50505050905060056000611e85919061238b565b8091505090565b611e94612093565b73ffffffffffffffffffffffffffffffffffffffff16611eb2611237565b73ffffffffffffffffffffffffffffffffffffffff1614611f08576040517f08c379a0000000000000000000000000000000000000000000000000000000008152600401611eff90613317565b60405180910390fd5b80600460006101000a81548173ffffffffffffffffffffffffffffffffffffffff021916908373ffffffffffffffffffffffffffffffffffffffff16021790555050565b60058181548110611f5c57600080fd5b90600052602060002090600502016000915090508060000154908060010154908060020154908060030160009054906101000a900460ff16908060040154905085565b80471015611fe2576040517f08c379a0000000000000000000000000000000000000000000000000000000008152600401611fd9906132b7565b60405180910390fd5b60008273ffffffffffffffffffffffffffffffffffffffff168260405161200890612db5565b60006040518083038185875af1925050503d8060008114612045576040519150601f19603f3d011682016040523d82523d6000602084013e61204a565b606091505b505090508061208e576040517f08c379a000000000000000000000000000000000000000000000000000000000815260040161208590613297565b60405180910390fd5b505050565b600033905090565b60008060009054906101000a900473ffffffffffffffffffffffffffffffffffffffff169050816000806101000a81548173ffffffffffffffffffffffffffffffffffffffff021916908373ffffffffffffffffffffffffffffffffffffffff1602179055508173ffffffffffffffffffffffffffffffffffffffff168173ffffffffffffffffffffffffffffffffffffffff167f8be0079c531659141344cd1fd0a4f28419497f9722a3daafe3b4186f6b6457e060405160405180910390a35050565b60008082600a61216f9190613508565b9050808461217d9190613626565b91505092915050565b6000808273ffffffffffffffffffffffffffffffffffffffff163b119050919050565b60606121cf848484604051806060016040528060298152602001613b7560299139612210565b90509392505050565b60008082600a6121e89190613508565b9050600081856121f89190613484565b905081816122069190613626565b9250505092915050565b606082471015612255576040517f08c379a000000000000000000000000000000000000000000000000000000000815260040161224c906132d7565b60405180910390fd5b61225e85612186565b61229d576040517f08c379a000000000000000000000000000000000000000000000000000000000815260040161229490613357565b60405180910390fd5b6000808673ffffffffffffffffffffffffffffffffffffffff1685876040516122c69190612d9e565b60006040518083038185875af1925050503d8060008114612303576040519150601f19603f3d011682016040523d82523d6000602084013e612308565b606091505b5091509150612318828286612324565b92505050949350505050565b6060831561233457829050612384565b6000835111156123475782518084602001fd5b816040517f08c379a000000000000000000000000000000000000000000000000000000000815260040161237b9190613235565b60405180910390fd5b9392505050565b50805460008255600502906000526020600020908101906123ac91906123af565b50565b5b808211156123f657600080820160009055600182016000905560028201600090556003820160006101000a81549060ff02191690556004820160009055506005016123b0565b5090565b600061240d612408846133dc565b6133b7565b905080838252602082019050828560a086028201111561242c57600080fd5b60005b8581101561245c57816124428882612558565b845260208401935060a0830192505060018101905061242f565b5050509392505050565b60008135905061247581613af1565b92915050565b60008151905061248a81613af1565b92915050565b60008135905061249f81613b08565b92915050565b600082601f8301126124b657600080fd5b81516124c68482602086016123fa565b91505092915050565b6000813590506124de81613b1f565b92915050565b6000815190506124f381613b1f565b92915050565b60008083601f84011261250b57600080fd5b8235905067ffffffffffffffff81111561252457600080fd5b60208301915083600182028301111561253c57600080fd5b9250929050565b60008151905061255281613b36565b92915050565b600060a0828403121561256a57600080fd5b61257460a06133b7565b90506000612584848285016124e4565b6000830152506020612598848285016124e4565b60208301525060406125ac848285016125f5565b60408301525060606125c08482850161260a565b60608301525060806125d4848285016125f5565b60808301525092915050565b6000813590506125ef81613b46565b92915050565b60008151905061260481613b46565b92915050565b60008151905061261981613b5d565b92915050565b60006020828403121561263157600080fd5b600061263f84828501612466565b91505092915050565b60006020828403121561265a57600080fd5b60006126688482850161247b565b91505092915050565b6000806000806060858703121561268757600080fd5b600061269587828801612490565b94505060206126a6878288016125e0565b935050604085013567ffffffffffffffff8111156126c357600080fd5b6126cf878288016124f9565b925092505092959194509250565b6000806000606084860312156126f257600080fd5b600061270086828701612466565b9350506020612711868287016124cf565b9250506040612722868287016125e0565b9150509250925092565b6000806000806080858703121561274257600080fd5b600061275087828801612466565b9450506020612761878288016124cf565b9350506040612772878288016125e0565b9250506060612783878288016125e0565b91505092959194509250565b600080604083850312156127a257600080fd5b60006127b085828601612466565b92505060206127c1858286016125e0565b9150509250929050565b600080604083850312156127de57600080fd5b60006127ec8582860161247b565b92505060206127fd858286016125f5565b9150509250929050565b60006020828403121561281957600080fd5b600082015167ffffffffffffffff81111561283357600080fd5b61283f848285016124a5565b91505092915050565b60006020828403121561285a57600080fd5b6000612868848285016124cf565b91505092915050565b60008060008060006080868803121561288957600080fd5b6000612897888289016124cf565b95505060206128a888828901612490565b94505060406128b9888289016125e0565b935050606086013567ffffffffffffffff8111156128d657600080fd5b6128e2888289016124f9565b92509250509295509295909350565b60008060008060008060a0878903121561290a57600080fd5b600061291889828a016124cf565b965050602061292989828a016124cf565b955050604061293a89828a01612466565b945050606061294b89828a016125e0565b935050608087013567ffffffffffffffff81111561296857600080fd5b61297489828a016124f9565b92509250509295509295509295565b60006020828403121561299557600080fd5b60006129a384828501612543565b91505092915050565b6000602082840312156129be57600080fd5b60006129cc848285016125e0565b91505092915050565b6000602082840312156129e757600080fd5b60006129f58482850161260a565b91505092915050565b6000612a0a8383612cfa565b60a08301905092915050565b612a1f81613719565b82525050565b612a2e816136c6565b82525050565b612a3d816136b4565b82525050565b6000612a4e82613418565b612a588185613446565b9350612a6383613408565b8060005b83811015612a94578151612a7b88826129fe565b9750612a8683613439565b925050600181019050612a67565b5085935050505092915050565b612aaa816136d8565b82525050565b612ab9816136d8565b82525050565b6000612acb8385613457565b9350612ad883858461374f565b612ae18361384f565b840190509392505050565b6000612af782613423565b612b018185613468565b9350612b1181856020860161375e565b80840191505092915050565b6000612b288261342e565b612b328185613473565b9350612b4281856020860161375e565b612b4b8161384f565b840191505092915050565b6000612b63602683613473565b9150612b6e8261386d565b604082019050919050565b6000612b86602283613473565b9150612b91826138bc565b604082019050919050565b6000612ba9603a83613473565b9150612bb48261390b565b604082019050919050565b6000612bcc601d83613473565b9150612bd78261395a565b602082019050919050565b6000612bef602683613473565b9150612bfa82613983565b604082019050919050565b6000612c12602183613473565b9150612c1d826139d2565b604082019050919050565b6000612c35602083613473565b9150612c4082613a21565b602082019050919050565b6000612c58601f83613473565b9150612c6382613a4a565b602082019050919050565b6000612c7b600083613468565b9150612c8682613a73565b600082019050919050565b6000612c9e601d83613473565b9150612ca982613a76565b602082019050919050565b6000612cc1601883613473565b9150612ccc82613a9f565b602082019050919050565b6000612ce4601183613473565b9150612cef82613ac8565b602082019050919050565b60a082016000820151612d106000850182612aa1565b506020820151612d236020850182612aa1565b506040820151612d366040850182612d62565b506060820151612d496060850182612d80565b506080820151612d5c6080850182612d62565b50505050565b612d6b81613702565b82525050565b612d7a81613702565b82525050565b612d898161370c565b82525050565b612d988161370c565b82525050565b6000612daa8284612aec565b915081905092915050565b6000612dc082612c6e565b9150819050919050565b6000602082019050612ddf6000830184612a34565b92915050565b6000606082019050612dfa6000830187612a25565b612e076020830186612d71565b8181036040830152612e1a818486612abf565b905095945050505050565b6000608082019050612e3a6000830187612a34565b612e476020830186612a34565b612e546040830185612ab0565b612e616060830184612d71565b95945050505050565b600060a082019050612e7f6000830188612a34565b612e8c6020830187612a34565b612e996040830186612ab0565b612ea66060830185612d71565b612eb36080830184612d71565b9695505050505050565b6000606082019050612ed26000830186612a34565b612edf6020830185612a34565b612eec6040830184612d71565b949350505050565b6000608082019050612f096000830188612a34565b612f166020830187612a34565b612f236040830186612d71565b8181036060830152612f36818486612abf565b90509695505050505050565b6000608082019050612f576000830187612a34565b612f646020830186612a34565b612f716040830185612d71565b612f7e6060830184612d71565b95945050505050565b600060a082019050612f9c6000830189612a34565b612fa96020830188612a34565b612fb66040830187612d71565b612fc36060830186612d71565b8181036080830152612fd6818486612abf565b9050979650505050505050565b6000608082019050612ff86000830187612a34565b6130056020830186612ab0565b6130126040830185612a34565b61301f6060830184612d71565b95945050505050565b600060a08201905061303d6000830188612a34565b61304a6020830187612ab0565b6130576040830186612a34565b6130646060830185612d71565b6130716080830184612d71565b9695505050505050565b60006060820190506130906000830186612a34565b61309d6020830185612ab0565b6130aa6040830184612d71565b949350505050565b600060208201905081810360008301526130cc8184612a43565b905092915050565b60006020820190506130e96000830184612ab0565b92915050565b60006040820190506131046000830185612ab0565b6131116020830184612a34565b9392505050565b600060608201905061312d6000830186612ab0565b61313a6020830185612a16565b6131476040830184612d71565b949350505050565b60006060820190506131646000830186612ab0565b6131716020830185612a34565b61317e6040830184612d71565b949350505050565b600060a08201905061319b6000830189612ab0565b6131a86020830188612ab0565b6131b56040830187612a34565b6131c26060830186612d71565b81810360808301526131d5818486612abf565b9050979650505050505050565b600060a0820190506131f76000830188612ab0565b6132046020830187612ab0565b6132116040830186612d71565b61321e6060830185612d8f565b61322b6080830184612d71565b9695505050505050565b6000602082019050818103600083015261324f8184612b1d565b905092915050565b6000602082019050818103600083015261327081612b56565b9050919050565b6000602082019050818103600083015261329081612b79565b9050919050565b600060208201905081810360008301526132b081612b9c565b9050919050565b600060208201905081810360008301526132d081612bbf565b9050919050565b600060208201905081810360008301526132f081612be2565b9050919050565b6000602082019050818103600083015261331081612c05565b9050919050565b6000602082019050818103600083015261333081612c28565b9050919050565b6000602082019050818103600083015261335081612c4b565b9050919050565b6000602082019050818103600083015261337081612c91565b9050919050565b6000602082019050818103600083015261339081612cb4565b9050919050565b600060208201905081810360008301526133b081612cd7565b9050919050565b60006133c16133d2565b90506133cd8282613791565b919050565b6000604051905090565b600067ffffffffffffffff8211156133f7576133f6613820565b5b602082029050602081019050919050565b6000819050602082019050919050565b600081519050919050565b600081519050919050565b600081519050919050565b6000602082019050919050565b600082825260208201905092915050565b600082825260208201905092915050565b600081905092915050565b600082825260208201905092915050565b600061348f82613702565b915061349a83613702565b9250826134aa576134a96137f1565b5b828204905092915050565b6000808291508390505b60018511156134ff578086048111156134db576134da6137c2565b5b60018516156134ea5780820291505b80810290506134f885613860565b94506134bf565b94509492505050565b600061351382613702565b915061351e8361370c565b925061354b7fffffffffffffffffffffffffffffffffffffffffffffffffffffffffffffffff8484613553565b905092915050565b600082613563576001905061361f565b81613571576000905061361f565b81600181146135875760028114613591576135c0565b600191505061361f565b60ff8411156135a3576135a26137c2565b5b8360020a9150848211156135ba576135b96137c2565b5b5061361f565b5060208310610133831016604e8410600b84101617156135f55782820a9050838111156135f0576135ef6137c2565b5b61361f565b61360284848460016134b5565b92509050818404811115613619576136186137c2565b5b81810290505b9392505050565b600061363182613702565b915061363c83613702565b9250817fffffffffffffffffffffffffffffffffffffffffffffffffffffffffffffffff0483118215151615613675576136746137c2565b5b828202905092915050565b600061368b8261370c565b91506136968361370c565b9250828210156136a9576136a86137c2565b5b828203905092915050565b60006136bf826136e2565b9050919050565b60006136d1826136e2565b9050919050565b6000819050919050565b600073ffffffffffffffffffffffffffffffffffffffff82169050919050565b6000819050919050565b600060ff82169050919050565b60006137248261372b565b9050919050565b60006137368261373d565b9050919050565b6000613748826136e2565b9050919050565b82818337600083830152505050565b60005b8381101561377c578082015181840152602081019050613761565b8381111561378b576000848401525b50505050565b61379a8261384f565b810181811067ffffffffffffffff821117156137b9576137b8613820565b5b80604052505050565b7f4e487b7100000000000000000000000000000000000000000000000000000000600052601160045260246000fd5b7f4e487b7100000000000000000000000000000000000000000000000000000000600052601260045260246000fd5b7f4e487b7100000000000000000000000000000000000000000000000000000000600052604160045260246000fd5b6000601f19601f8301169050919050565b60008160011c9050919050565b7f4f776e61626c653a206e6577206f776e657220697320746865207a65726f206160008201527f6464726573730000000000000000000000000000000000000000000000000000602082015250565b7f4f6e6c792073797374656d2063616e2063616c6c20746869732066756e63746960008201527f6f6e000000000000000000000000000000000000000000000000000000000000602082015250565b7f416464726573733a20756e61626c6520746f2073656e642076616c75652c207260008201527f6563697069656e74206d61792068617665207265766572746564000000000000602082015250565b7f416464726573733a20696e73756666696369656e742062616c616e6365000000600082015250565b7f416464726573733a20696e73756666696369656e742062616c616e636520666f60008201527f722063616c6c0000000000000000000000000000000000000000000000000000602082015250565b7f4f6e6c792070726f78792063616e2063616c6c20746869732066756e6374696f60008201527f6e00000000000000000000000000000000000000000000000000000000000000602082015250565b7f4f776e61626c653a2063616c6c6572206973206e6f7420746865206f776e6572600082015250565b7f4572726f723a2041737365742074797065206973206e6f742045524337323100600082015250565b50565b7f416464726573733a2063616c6c20746f206e6f6e2d636f6e7472616374000000600082015250565b7f41737365742074797065206d7573742072656769737465640000000000000000600082015250565b7f6c6f77203132206d75737420626520302e000000000000000000000000000000600082015250565b613afa816136b4565b8114613b0557600080fd5b50565b613b11816136c6565b8114613b1c57600080fd5b50565b613b28816136d8565b8114613b3357600080fd5b50565b60038110613b4357600080fd5b50565b613b4f81613702565b8114613b5a57600080fd5b50565b613b668161370c565b8114613b7157600080fd5b5056fe416464726573733a206c6f772d6c6576656c2063616c6c20776974682076616c7565206661696c6564a2646970667358221220b21bf9a022409273e16cf1b6f758f23948003c01a65a72fa84f54d3e1e75563e64736f6c63430008040033",
  "linkReferences": {},
  "deployedLinkReferences": {}
}