{
  "_format": "hh-sol-artifact-1",
  "contractName": "PrismXXAsset",
  "sourceName": "contracts/examples/PrismXXAsset.sol",
  "abi": [
    {
      "inputs": [
        {
          "internalType": "address",
          "name": "_bridge",
          "type": "address"
        }
      ],
      "stateMutability": "nonpayable",
      "type": "constructor"
    },
    {
      "anonymous": false,
      "inputs": [
        {
          "indexed": true,
          "internalType": "address",
          "name": "previousOwner",
          "type": "address"
        },
        {
          "indexed": true,
          "internalType": "address",
          "name": "newOwner",
          "type": "address"
        }
      ],
      "name": "OwnershipTransferred",
      "type": "event"
    },
    {
      "inputs": [
        {
          "internalType": "bytes32",
          "name": "",
          "type": "bytes32"
        }
      ],
      "name": "assets",
      "outputs": [
        {
          "internalType": "address",
          "name": "addr",
          "type": "address"
        },
        {
          "internalType": "uint256",
          "name": "tokenId",
          "type": "uint256"
        },
        {
          "internalType": "enum IPrismXXAsset.TokenType",
          "name": "ty",
          "type": "uint8"
        },
        {
          "internalType": "bool",
          "name": "isBurn",
          "type": "bool"
        },
        {
          "internalType": "uint8",
          "name": "decimal",
          "type": "uint8"
        }
      ],
      "stateMutability": "view",
      "type": "function"
    },
    {
      "inputs": [],
      "name": "bridge",
      "outputs": [
        {
          "internalType": "address",
          "name": "",
          "type": "address"
        }
      ],
      "stateMutability": "view",
      "type": "function"
    },
    {
      "inputs": [
        {
          "internalType": "bytes32",
          "name": "_asset",
          "type": "bytes32"
        }
      ],
      "name": "getERC1155Info",
      "outputs": [
        {
          "internalType": "address",
          "name": "",
          "type": "address"
        },
        {
          "internalType": "uint256",
          "name": "",
          "type": "uint256"
        }
      ],
      "stateMutability": "view",
      "type": "function"
    },
    {
      "inputs": [
        {
          "internalType": "bytes32",
          "name": "_asset",
          "type": "bytes32"
        }
      ],
      "name": "getERC20Info",
      "outputs": [
        {
          "internalType": "address",
          "name": "",
          "type": "address"
        }
      ],
      "stateMutability": "view",
      "type": "function"
    },
    {
      "inputs": [
        {
          "internalType": "bytes32",
          "name": "_asset",
          "type": "bytes32"
        }
      ],
      "name": "getERC721Info",
      "outputs": [
        {
          "internalType": "address",
          "name": "",
          "type": "address"
        },
        {
          "internalType": "uint256",
          "name": "",
          "type": "uint256"
        }
      ],
      "stateMutability": "view",
      "type": "function"
    },
    {
      "inputs": [
        {
          "internalType": "bytes32",
          "name": "_asset",
          "type": "bytes32"
        }
      ],
      "name": "getTokenType",
      "outputs": [
        {
          "internalType": "enum IPrismXXAsset.TokenType",
          "name": "",
          "type": "uint8"
        }
      ],
      "stateMutability": "view",
      "type": "function"
    },
    {
      "inputs": [
        {
          "internalType": "bytes32",
          "name": "_asset",
          "type": "bytes32"
        }
      ],
      "name": "isBurn",
      "outputs": [
        {
          "internalType": "bool",
          "name": "",
          "type": "bool"
        }
      ],
      "stateMutability": "view",
      "type": "function"
    },
    {
      "inputs": [],
      "name": "owner",
      "outputs": [
        {
          "internalType": "address",
          "name": "",
          "type": "address"
        }
      ],
      "stateMutability": "view",
      "type": "function"
    },
    {
      "inputs": [],
      "name": "renounceOwnership",
      "outputs": [],
      "stateMutability": "nonpayable",
      "type": "function"
    },
    {
      "inputs": [
        {
          "internalType": "bytes32",
          "name": "_asset",
          "type": "bytes32"
        }
      ],
      "name": "setBurn",
      "outputs": [],
      "stateMutability": "nonpayable",
      "type": "function"
    },
    {
      "inputs": [
        {
          "internalType": "bytes32",
          "name": "_asset",
          "type": "bytes32"
        },
        {
          "internalType": "address",
          "name": "_addr",
          "type": "address"
        },
        {
          "internalType": "uint256",
          "name": "tokenId",
          "type": "uint256"
        }
      ],
      "name": "setERC1155Info",
      "outputs": [],
      "stateMutability": "nonpayable",
      "type": "function"
    },
    {
      "inputs": [
        {
          "internalType": "bytes32",
          "name": "_asset",
          "type": "bytes32"
        },
        {
          "internalType": "address",
          "name": "_addr",
          "type": "address"
        }
      ],
      "name": "setERC20Info",
      "outputs": [],
      "stateMutability": "nonpayable",
      "type": "function"
    },
    {
      "inputs": [
        {
          "internalType": "bytes32",
          "name": "_asset",
          "type": "bytes32"
        },
        {
          "internalType": "address",
          "name": "_addr",
          "type": "address"
        },
        {
          "internalType": "uint256",
          "name": "tokenId",
          "type": "uint256"
        }
      ],
      "name": "setERC721Info",
      "outputs": [],
      "stateMutability": "nonpayable",
      "type": "function"
    },
    {
      "inputs": [
        {
          "internalType": "address",
          "name": "newOwner",
          "type": "address"
        }
      ],
      "name": "transferOwnership",
      "outputs": [],
      "stateMutability": "nonpayable",
      "type": "function"
    }
  ],
  "bytecode": "0x60806040523480156200001157600080fd5b506040516200124e3803806200124e833981810160405281019062000037919062000182565b620000576200004b6200009f60201b60201c565b620000a760201b60201c565b80600160006101000a81548173ffffffffffffffffffffffffffffffffffffffff021916908373ffffffffffffffffffffffffffffffffffffffff16021790555050620001fc565b600033905090565b60008060009054906101000a900473ffffffffffffffffffffffffffffffffffffffff169050816000806101000a81548173ffffffffffffffffffffffffffffffffffffffff021916908373ffffffffffffffffffffffffffffffffffffffff1602179055508173ffffffffffffffffffffffffffffffffffffffff168173ffffffffffffffffffffffffffffffffffffffff167f8be0079c531659141344cd1fd0a4f28419497f9722a3daafe3b4186f6b6457e060405160405180910390a35050565b6000815190506200017c81620001e2565b92915050565b6000602082840312156200019557600080fd5b6000620001a5848285016200016b565b91505092915050565b6000620001bb82620001c2565b9050919050565b600073ffffffffffffffffffffffffffffffffffffffff82169050919050565b620001ed81620001ae565b8114620001f957600080fd5b50565b611042806200020c6000396000f3fe608060405234801561001057600080fd5b50600436106100ea5760003560e01c8063a8b7cc161161008c578063d87e0e3211610066578063d87e0e3214610260578063e78cea9214610291578063ed7e205b146102af578063f2fde38b146102cb576100ea565b8063a8b7cc16146101f7578063c04fd06c14610213578063d0e5390d14610244576100ea565b8063715018a6116100c8578063715018a61461016b5780638da5cb5b14610175578063979a9b5e146101935780639fda5b66146101c3576100ea565b80630404e3c5146100ef57806305c62fe31461011f5780631996e4f41461013b575b600080fd5b61010960048036038101906101049190610be5565b6102e7565b6040516101169190610dea565b60405180910390f35b61013960048036038101906101349190610c4a565b610314565b005b61015560048036038101906101509190610be5565b61042a565b6040516101629190610d53565b60405180910390f35b61017361046a565b005b61017d6104f2565b60405161018a9190610d53565b60405180910390f35b6101ad60048036038101906101a89190610be5565b61051b565b6040516101ba9190610e05565b60405180910390f35b6101dd60048036038101906101d89190610be5565b610548565b6040516101ee959493929190610d97565b60405180910390f35b610211600480360381019061020c9190610be5565b6105c5565b005b61022d60048036038101906102289190610be5565b610673565b60405161023b929190610d6e565b60405180910390f35b61025e60048036038101906102599190610c4a565b6106c1565b005b61027a60048036038101906102759190610be5565b6107d7565b604051610288929190610d6e565b60405180910390f35b610299610825565b6040516102a69190610d53565b60405180910390f35b6102c960048036038101906102c49190610c0e565b61084b565b005b6102e560048036038101906102e09190610bbc565b6109a4565b005b60006002600083815260200190815260200160002060020160019054906101000a900460ff169050919050565b600160009054906101000a900473ffffffffffffffffffffffffffffffffffffffff1673ffffffffffffffffffffffffffffffffffffffff163373ffffffffffffffffffffffffffffffffffffffff161461036e57600080fd5b6000600260008581526020019081526020016000209050828160000160006101000a81548173ffffffffffffffffffffffffffffffffffffffff021916908373ffffffffffffffffffffffffffffffffffffffff16021790555081816001018190555060018160020160006101000a81548160ff0219169083600281111561041f577f4e487b7100000000000000000000000000000000000000000000000000000000600052602160045260246000fd5b021790555050505050565b60006002600083815260200190815260200160002060000160009054906101000a900473ffffffffffffffffffffffffffffffffffffffff169050919050565b610472610a9c565b73ffffffffffffffffffffffffffffffffffffffff166104906104f2565b73ffffffffffffffffffffffffffffffffffffffff16146104e6576040517f08c379a00000000000000000000000000000000000000000000000000000000081526004016104dd90610e40565b60405180910390fd5b6104f06000610aa4565b565b60008060009054906101000a900473ffffffffffffffffffffffffffffffffffffffff16905090565b60006002600083815260200190815260200160002060020160009054906101000a900460ff169050919050565b60026020528060005260406000206000915090508060000160009054906101000a900473ffffffffffffffffffffffffffffffffffffffff16908060010154908060020160009054906101000a900460ff16908060020160019054906101000a900460ff16908060020160029054906101000a900460ff16905085565b6105cd610a9c565b73ffffffffffffffffffffffffffffffffffffffff166105eb6104f2565b73ffffffffffffffffffffffffffffffffffffffff1614610641576040517f08c379a000000000000000000000000000000000000000000000000000000000815260040161063890610e40565b60405180910390fd5b60016002600083815260200190815260200160002060020160016101000a81548160ff02191690831515021790555050565b60008060006002600085815260200190815260200160002090508060000160009054906101000a900473ffffffffffffffffffffffffffffffffffffffff1681600101549250925050915091565b600160009054906101000a900473ffffffffffffffffffffffffffffffffffffffff1673ffffffffffffffffffffffffffffffffffffffff163373ffffffffffffffffffffffffffffffffffffffff161461071b57600080fd5b6000600260008581526020019081526020016000209050828160000160006101000a81548173ffffffffffffffffffffffffffffffffffffffff021916908373ffffffffffffffffffffffffffffffffffffffff16021790555081816001018190555060028160020160006101000a81548160ff021916908360028111156107cc577f4e487b7100000000000000000000000000000000000000000000000000000000600052602160045260246000fd5b021790555050505050565b60008060006002600085815260200190815260200160002090508060000160009054906101000a900473ffffffffffffffffffffffffffffffffffffffff1681600101549250925050915091565b600160009054906101000a900473ffffffffffffffffffffffffffffffffffffffff1681565b600160009054906101000a900473ffffffffffffffffffffffffffffffffffffffff1673ffffffffffffffffffffffffffffffffffffffff163373ffffffffffffffffffffffffffffffffffffffff16146108a557600080fd5b600060026000848152602001908152602001600020905060008290508073ffffffffffffffffffffffffffffffffffffffff1663313ce5676040518163ffffffff1660e01b815260040160206040518083038186803b15801561090757600080fd5b505afa15801561091b573d6000803e3d6000fd5b505050506040513d601f19601f8201168201806040525081019061093f9190610c99565b8260020160026101000a81548160ff021916908360ff160217905550828260000160006101000a81548173ffffffffffffffffffffffffffffffffffffffff021916908373ffffffffffffffffffffffffffffffffffffffff16021790555050505050565b6109ac610a9c565b73ffffffffffffffffffffffffffffffffffffffff166109ca6104f2565b73ffffffffffffffffffffffffffffffffffffffff1614610a20576040517f08c379a0000000000000000000000000000000000000000000000000000000008152600401610a1790610e40565b60405180910390fd5b600073ffffffffffffffffffffffffffffffffffffffff168173ffffffffffffffffffffffffffffffffffffffff161415610a90576040517f08c379a0000000000000000000000000000000000000000000000000000000008152600401610a8790610e20565b60405180910390fd5b610a9981610aa4565b50565b600033905090565b60008060009054906101000a900473ffffffffffffffffffffffffffffffffffffffff169050816000806101000a81548173ffffffffffffffffffffffffffffffffffffffff021916908373ffffffffffffffffffffffffffffffffffffffff1602179055508173ffffffffffffffffffffffffffffffffffffffff168173ffffffffffffffffffffffffffffffffffffffff167f8be0079c531659141344cd1fd0a4f28419497f9722a3daafe3b4186f6b6457e060405160405180910390a35050565b600081359050610b7781610fb0565b92915050565b600081359050610b8c81610fc7565b92915050565b600081359050610ba181610fde565b92915050565b600081519050610bb681610ff5565b92915050565b600060208284031215610bce57600080fd5b6000610bdc84828501610b68565b91505092915050565b600060208284031215610bf757600080fd5b6000610c0584828501610b7d565b91505092915050565b60008060408385031215610c2157600080fd5b6000610c2f85828601610b7d565b9250506020610c4085828601610b68565b9150509250929050565b600080600060608486031215610c5f57600080fd5b6000610c6d86828701610b7d565b9350506020610c7e86828701610b68565b9250506040610c8f86828701610b92565b9150509250925092565b600060208284031215610cab57600080fd5b6000610cb984828501610ba7565b91505092915050565b610ccb81610e71565b82525050565b610cda81610e83565b82525050565b610ce981610ee3565b82525050565b6000610cfc602683610e60565b9150610d0782610f24565b604082019050919050565b6000610d1f602083610e60565b9150610d2a82610f73565b602082019050919050565b610d3e81610ecc565b82525050565b610d4d81610ed6565b82525050565b6000602082019050610d686000830184610cc2565b92915050565b6000604082019050610d836000830185610cc2565b610d906020830184610d35565b9392505050565b600060a082019050610dac6000830188610cc2565b610db96020830187610d35565b610dc66040830186610ce0565b610dd36060830185610cd1565b610de06080830184610d44565b9695505050505050565b6000602082019050610dff6000830184610cd1565b92915050565b6000602082019050610e1a6000830184610ce0565b92915050565b60006020820190508181036000830152610e3981610cef565b9050919050565b60006020820190508181036000830152610e5981610d12565b9050919050565b600082825260208201905092915050565b6000610e7c82610eac565b9050919050565b60008115159050919050565b6000819050919050565b6000819050610ea782610f9c565b919050565b600073ffffffffffffffffffffffffffffffffffffffff82169050919050565b6000819050919050565b600060ff82169050919050565b6000610eee82610e99565b9050919050565b7f4e487b7100000000000000000000000000000000000000000000000000000000600052602160045260246000fd5b7f4f776e61626c653a206e6577206f776e657220697320746865207a65726f206160008201527f6464726573730000000000000000000000000000000000000000000000000000602082015250565b7f4f776e61626c653a2063616c6c6572206973206e6f7420746865206f776e6572600082015250565b60038110610fad57610fac610ef5565b5b50565b610fb981610e71565b8114610fc457600080fd5b50565b610fd081610e8f565b8114610fdb57600080fd5b50565b610fe781610ecc565b8114610ff257600080fd5b50565b610ffe81610ed6565b811461100957600080fd5b5056fea2646970667358221220ef7afc8e1b2051392514d226e34152451ffdd445b43acd5dda0b35037a8297d764736f6c63430008040033",
  "linkReferences": {},
  "deployedLinkReferences": {}
}