{
  "_format": "hh-sol-artifact-1",
  "contractName": "PrismXXProxy",
  "sourceName": "contracts/examples/Proxy.sol",
  "abi": [
    {
      "inputs": [
        {
          "internalType": "address",
          "name": "_logic",
          "type": "address"
        },
        {
          "internalType": "address",
          "name": "_admin",
          "type": "address"
        },
        {
          "internalType": "bytes",
          "name": "_data",
          "type": "bytes"
        }
      ],
      "stateMutability": "nonpayable",
      "type": "constructor"
    },
    {
      "anonymous": false,
      "inputs": [
        {
          "indexed": false,
          "internalType": "address",
          "name": "previousAdmin",
          "type": "address"
        },
        {
          "indexed": false,
          "internalType": "address",
          "name": "newAdmin",
          "type": "address"
        }
      ],
      "name": "AdminChanged",
      "type": "event"
    },
    {
      "anonymous": false,
      "inputs": [
        {
          "indexed": true,
          "internalType": "address",
          "name": "beacon",
          "type": "address"
        }
      ],
      "name": "BeaconUpgraded",
      "type": "event"
    },
    {
      "anonymous": false,
      "inputs": [
        {
          "indexed": true,
          "internalType": "address",
          "name": "implementation",
          "type": "address"
        }
      ],
      "name": "Upgraded",
      "type": "event"
    },
    {
      "stateMutability": "payable",
      "type": "fallback"
    },
    {
      "inputs": [],
      "name": "admin",
      "outputs": [
        {
          "internalType": "address",
          "name": "admin_",
          "type": "address"
        }
      ],
      "stateMutability": "nonpayable",
      "type": "function"
    },
    {
      "inputs": [
        {
          "internalType": "address",
          "name": "newAdmin",
          "type": "address"
        }
      ],
      "name": "changeAdmin",
      "outputs": [],
      "stateMutability": "nonpayable",
      "type": "function"
    },
    {
      "inputs": [],
      "name": "implementation",
      "outputs": [
        {
          "internalType": "address",
          "name": "implementation_",
          "type": "address"
        }
      ],
      "stateMutability": "nonpayable",
      "type": "function"
    },
    {
      "inputs": [],
      "name": "proxyAdmin",
      "outputs": [
        {
          "internalType": "address",
          "name": "",
          "type": "address"
        }
      ],
      "stateMutability": "view",
      "type": "function"
    },
    {
      "inputs": [
        {
          "internalType": "address",
          "name": "newImplementation",
          "type": "address"
        }
      ],
      "name": "upgradeTo",
      "outputs": [],
      "stateMutability": "nonpayable",
      "type": "function"
    },
    {
      "inputs": [
        {
          "internalType": "address",
          "name": "newImplementation",
          "type": "address"
        },
        {
          "internalType": "bytes",
          "name": "data",
          "type": "bytes"
        }
      ],
      "name": "upgradeToAndCall",
      "outputs": [],
      "stateMutability": "payable",
      "type": "function"
    },
    {
      "stateMutability": "payable",
      "type": "receive"
    }
  ],
  "bytecode": "0x60806040523480156200001157600080fd5b5060405162001ae738038062001ae783398181016040528101906200003791906200072a565b828282828160017f360894a13ba1a3210667c828492db98dca3e2076cc3735a920a3ca505d382bbd60001c6200006e9190620009f8565b60001b7f360894a13ba1a3210667c828492db98dca3e2076cc3735a920a3ca505d382bbc60001b14620000ca577f4e487b7100000000000000000000000000000000000000000000000000000000600052600160045260246000fd5b620000de82826000620001cb60201b60201c565b505060017fb53127684a568b3173ae13b9f8a6016e243e63b6e8ee1178d6a717850b5d610460001c620001129190620009f8565b60001b7fb53127684a568b3173ae13b9f8a6016e243e63b6e8ee1178d6a717850b5d610360001b146200016e577f4e487b7100000000000000000000000000000000000000000000000000000000600052600160045260246000fd5b6200017f826200020e60201b60201c565b505050816000806101000a81548173ffffffffffffffffffffffffffffffffffffffff021916908373ffffffffffffffffffffffffffffffffffffffff16021790555050505062000c53565b620001dc836200026c60201b60201c565b600082511180620001ea5750805b156200020957620002078383620002c360201b620003a91760201c565b505b505050565b7f7e644d79422f17c01e4894b5f4f588d331ebfa28653d42ae832dc59e38c9798f6200023f620002f960201b60201c565b8260405162000250929190620008b0565b60405180910390a162000269816200035d60201b60201c565b50565b6200027d816200044e60201b60201c565b8073ffffffffffffffffffffffffffffffffffffffff167fbc7cd75a20ee27fd9adebab32041f755214dbc6bffa90cc0225b39da2e5c2d3b60405160405180910390a250565b6060620002f1838360405180606001604052806027815260200162001ac0602791396200052460201b60201c565b905092915050565b6000620003347fb53127684a568b3173ae13b9f8a6016e243e63b6e8ee1178d6a717850b5d610360001b6200060860201b620003d61760201c565b60000160009054906101000a900473ffffffffffffffffffffffffffffffffffffffff16905090565b600073ffffffffffffffffffffffffffffffffffffffff168173ffffffffffffffffffffffffffffffffffffffff161415620003d0576040517f08c379a0000000000000000000000000000000000000000000000000000000008152600401620003c79062000901565b60405180910390fd5b806200040a7fb53127684a568b3173ae13b9f8a6016e243e63b6e8ee1178d6a717850b5d610360001b6200060860201b620003d61760201c565b60000160006101000a81548173ffffffffffffffffffffffffffffffffffffffff021916908373ffffffffffffffffffffffffffffffffffffffff16021790555050565b62000464816200061260201b620003e01760201c565b620004a6576040517f08c379a00000000000000000000000000000000000000000000000000000000081526004016200049d9062000923565b60405180910390fd5b80620004e07f360894a13ba1a3210667c828492db98dca3e2076cc3735a920a3ca505d382bbc60001b6200060860201b620003d61760201c565b60000160006101000a81548173ffffffffffffffffffffffffffffffffffffffff021916908373ffffffffffffffffffffffffffffffffffffffff16021790555050565b606062000537846200061260201b60201c565b62000579576040517f08c379a0000000000000000000000000000000000000000000000000000000008152600401620005709062000945565b60405180910390fd5b6000808573ffffffffffffffffffffffffffffffffffffffff1685604051620005a3919062000897565b600060405180830381855af49150503d8060008114620005e0576040519150601f19603f3d011682016040523d82523d6000602084013e620005e5565b606091505b5091509150620005fd8282866200063560201b60201c565b925050509392505050565b6000819050919050565b6000808273ffffffffffffffffffffffffffffffffffffffff163b119050919050565b6060831562000647578290506200069a565b6000835111156200065b5782518084602001fd5b816040517f08c379a0000000000000000000000000000000000000000000000000000000008152600401620006919190620008dd565b60405180910390fd5b9392505050565b6000620006b8620006b28462000990565b62000967565b905082815260208101848484011115620006d157600080fd5b620006de84828562000a71565b509392505050565b600081519050620006f78162000c39565b92915050565b600082601f8301126200070f57600080fd5b815162000721848260208601620006a1565b91505092915050565b6000806000606084860312156200074057600080fd5b60006200075086828701620006e6565b93505060206200076386828701620006e6565b925050604084015167ffffffffffffffff8111156200078157600080fd5b6200078f86828701620006fd565b9150509250925092565b620007a48162000a33565b82525050565b6000620007b782620009c6565b620007c38185620009dc565b9350620007d581856020860162000a71565b80840191505092915050565b6000620007ee82620009d1565b620007fa8185620009e7565b93506200080c81856020860162000a71565b620008178162000b3b565b840191505092915050565b600062000831602683620009e7565b91506200083e8262000b4c565b604082019050919050565b600062000858602d83620009e7565b9150620008658262000b9b565b604082019050919050565b60006200087f602683620009e7565b91506200088c8262000bea565b604082019050919050565b6000620008a58284620007aa565b915081905092915050565b6000604082019050620008c7600083018562000799565b620008d6602083018462000799565b9392505050565b60006020820190508181036000830152620008f98184620007e1565b905092915050565b600060208201905081810360008301526200091c8162000822565b9050919050565b600060208201905081810360008301526200093e8162000849565b9050919050565b60006020820190508181036000830152620009608162000870565b9050919050565b60006200097362000986565b905062000981828262000aa7565b919050565b6000604051905090565b600067ffffffffffffffff821115620009ae57620009ad62000b0c565b5b620009b98262000b3b565b9050602081019050919050565b600081519050919050565b600081519050919050565b600081905092915050565b600082825260208201905092915050565b600062000a058262000a67565b915062000a128362000a67565b92508282101562000a285762000a2762000add565b5b828203905092915050565b600062000a408262000a47565b9050919050565b600073ffffffffffffffffffffffffffffffffffffffff82169050919050565b6000819050919050565b60005b8381101562000a9157808201518184015260208101905062000a74565b8381111562000aa1576000848401525b50505050565b62000ab28262000b3b565b810181811067ffffffffffffffff8211171562000ad45762000ad362000b0c565b5b80604052505050565b7f4e487b7100000000000000000000000000000000000000000000000000000000600052601160045260246000fd5b7f4e487b7100000000000000000000000000000000000000000000000000000000600052604160045260246000fd5b6000601f19601f8301169050919050565b7f455243313936373a206e65772061646d696e20697320746865207a65726f206160008201527f6464726573730000000000000000000000000000000000000000000000000000602082015250565b7f455243313936373a206e657720696d706c656d656e746174696f6e206973206e60008201527f6f74206120636f6e747261637400000000000000000000000000000000000000602082015250565b7f416464726573733a2064656c65676174652063616c6c20746f206e6f6e2d636f60008201527f6e74726163740000000000000000000000000000000000000000000000000000602082015250565b62000c448162000a33565b811462000c5057600080fd5b50565b610e5d8062000c636000396000f3fe6080604052600436106100595760003560e01c80633659cfe6146100725780633e47158c1461009b5780634f1ef286146100c65780635c60da1b146100e25780638f2839701461010d578063f851a4401461013657610068565b3661006857610066610161565b005b610070610161565b005b34801561007e57600080fd5b506100996004803603810190610094919061095c565b61017b565b005b3480156100a757600080fd5b506100b06101e2565b6040516100bd9190610af9565b60405180910390f35b6100e060048036038101906100db9190610985565b610206565b005b3480156100ee57600080fd5b506100f76102a4565b6040516101049190610af9565b60405180910390f35b34801561011957600080fd5b50610134600480360381019061012f919061095c565b6102fc565b005b34801561014257600080fd5b5061014b610351565b6040516101589190610af9565b60405180910390f35b610169610403565b610179610174610483565b610492565b565b6101836104b8565b73ffffffffffffffffffffffffffffffffffffffff163373ffffffffffffffffffffffffffffffffffffffff1614156101d6576101d18160405180602001604052806000815250600061050f565b6101df565b6101de610161565b5b50565b60008054906101000a900473ffffffffffffffffffffffffffffffffffffffff1681565b61020e6104b8565b73ffffffffffffffffffffffffffffffffffffffff163373ffffffffffffffffffffffffffffffffffffffff161415610296576102918383838080601f016020809104026020016040519081016040528093929190818152602001838380828437600081840152601f19601f82011690508083019250505050505050600161050f565b61029f565b61029e610161565b5b505050565b60006102ae6104b8565b73ffffffffffffffffffffffffffffffffffffffff163373ffffffffffffffffffffffffffffffffffffffff1614156102f0576102e9610483565b90506102f9565b6102f8610161565b5b90565b6103046104b8565b73ffffffffffffffffffffffffffffffffffffffff163373ffffffffffffffffffffffffffffffffffffffff161415610345576103408161053b565b61034e565b61034d610161565b5b50565b600061035b6104b8565b73ffffffffffffffffffffffffffffffffffffffff163373ffffffffffffffffffffffffffffffffffffffff16141561039d576103966104b8565b90506103a6565b6103a5610161565b5b90565b60606103ce8383604051806060016040528060278152602001610e0160279139610587565b905092915050565b6000819050919050565b6000808273ffffffffffffffffffffffffffffffffffffffff163b119050919050565b61040b6104b8565b73ffffffffffffffffffffffffffffffffffffffff163373ffffffffffffffffffffffffffffffffffffffff161415610479576040517f08c379a000000000000000000000000000000000000000000000000000000000815260040161047090610bbf565b60405180910390fd5b610481610654565b565b600061048d610656565b905090565b3660008037600080366000845af43d6000803e80600081146104b3573d6000f35b3d6000fd5b60006104e67fb53127684a568b3173ae13b9f8a6016e243e63b6e8ee1178d6a717850b5d610360001b6103d6565b60000160009054906101000a900473ffffffffffffffffffffffffffffffffffffffff16905090565b610518836106ad565b6000825111806105255750805b156105365761053483836103a9565b505b505050565b7f7e644d79422f17c01e4894b5f4f588d331ebfa28653d42ae832dc59e38c9798f6105646104b8565b82604051610573929190610b14565b60405180910390a1610584816106fc565b50565b6060610592846103e0565b6105d1576040517f08c379a00000000000000000000000000000000000000000000000000000000081526004016105c890610b9f565b60405180910390fd5b6000808573ffffffffffffffffffffffffffffffffffffffff16856040516105f99190610ae2565b600060405180830381855af49150503d8060008114610634576040519150601f19603f3d011682016040523d82523d6000602084013e610639565b606091505b50915091506106498282866107dd565b925050509392505050565b565b60006106847f360894a13ba1a3210667c828492db98dca3e2076cc3735a920a3ca505d382bbc60001b6103d6565b60000160009054906101000a900473ffffffffffffffffffffffffffffffffffffffff16905090565b6106b681610844565b8073ffffffffffffffffffffffffffffffffffffffff167fbc7cd75a20ee27fd9adebab32041f755214dbc6bffa90cc0225b39da2e5c2d3b60405160405180910390a250565b600073ffffffffffffffffffffffffffffffffffffffff168173ffffffffffffffffffffffffffffffffffffffff16141561076c576040517f08c379a000000000000000000000000000000000000000000000000000000000815260040161076390610b5f565b60405180910390fd5b806107997fb53127684a568b3173ae13b9f8a6016e243e63b6e8ee1178d6a717850b5d610360001b6103d6565b60000160006101000a81548173ffffffffffffffffffffffffffffffffffffffff021916908373ffffffffffffffffffffffffffffffffffffffff16021790555050565b606083156107ed5782905061083d565b6000835111156108005782518084602001fd5b816040517f08c379a00000000000000000000000000000000000000000000000000000000081526004016108349190610b3d565b60405180910390fd5b9392505050565b61084d816103e0565b61088c576040517f08c379a000000000000000000000000000000000000000000000000000000000815260040161088390610b7f565b60405180910390fd5b806108b97f360894a13ba1a3210667c828492db98dca3e2076cc3735a920a3ca505d382bbc60001b6103d6565b60000160006101000a81548173ffffffffffffffffffffffffffffffffffffffff021916908373ffffffffffffffffffffffffffffffffffffffff16021790555050565b60008135905061090c81610de9565b92915050565b60008083601f84011261092457600080fd5b8235905067ffffffffffffffff81111561093d57600080fd5b60208301915083600182028301111561095557600080fd5b9250929050565b60006020828403121561096e57600080fd5b600061097c848285016108fd565b91505092915050565b60008060006040848603121561099a57600080fd5b60006109a8868287016108fd565b935050602084013567ffffffffffffffff8111156109c557600080fd5b6109d186828701610912565b92509250509250925092565b6109e681610c11565b82525050565b60006109f782610bdf565b610a018185610bf5565b9350610a11818560208601610c43565b80840191505092915050565b6000610a2882610bea565b610a328185610c00565b9350610a42818560208601610c43565b610a4b81610c76565b840191505092915050565b6000610a63602683610c00565b9150610a6e82610c87565b604082019050919050565b6000610a86602d83610c00565b9150610a9182610cd6565b604082019050919050565b6000610aa9602683610c00565b9150610ab482610d25565b604082019050919050565b6000610acc604283610c00565b9150610ad782610d74565b606082019050919050565b6000610aee82846109ec565b915081905092915050565b6000602082019050610b0e60008301846109dd565b92915050565b6000604082019050610b2960008301856109dd565b610b3660208301846109dd565b9392505050565b60006020820190508181036000830152610b578184610a1d565b905092915050565b60006020820190508181036000830152610b7881610a56565b9050919050565b60006020820190508181036000830152610b9881610a79565b9050919050565b60006020820190508181036000830152610bb881610a9c565b9050919050565b60006020820190508181036000830152610bd881610abf565b9050919050565b600081519050919050565b600081519050919050565b600081905092915050565b600082825260208201905092915050565b6000610c1c82610c23565b9050919050565b600073ffffffffffffffffffffffffffffffffffffffff82169050919050565b60005b83811015610c61578082015181840152602081019050610c46565b83811115610c70576000848401525b50505050565b6000601f19601f8301169050919050565b7f455243313936373a206e65772061646d696e20697320746865207a65726f206160008201527f6464726573730000000000000000000000000000000000000000000000000000602082015250565b7f455243313936373a206e657720696d706c656d656e746174696f6e206973206e60008201527f6f74206120636f6e747261637400000000000000000000000000000000000000602082015250565b7f416464726573733a2064656c65676174652063616c6c20746f206e6f6e2d636f60008201527f6e74726163740000000000000000000000000000000000000000000000000000602082015250565b7f5472616e73706172656e745570677261646561626c6550726f78793a2061646d60008201527f696e2063616e6e6f742066616c6c6261636b20746f2070726f7879207461726760208201527f6574000000000000000000000000000000000000000000000000000000000000604082015250565b610df281610c11565b8114610dfd57600080fd5b5056fe416464726573733a206c6f772d6c6576656c2064656c65676174652063616c6c206661696c6564a2646970667358221220fa148ed181bb351ae491fb7183ac490a8adb347f3e6de08d6ebc069771eb0b8564736f6c63430008040033416464726573733a206c6f772d6c6576656c2064656c65676174652063616c6c206661696c6564",
  "linkReferences": {},
  "deployedLinkReferences": {}
}