{
  "_format": "hh-sol-artifact-1",
  "contractName": "PrismXXAsset",
  "sourceName": "contracts/examples/PrismXXAsset.sol",
  "abi": [
    {
      "anonymous": false,
      "inputs": [
        {
          "indexed": false,
          "internalType": "uint8",
          "name": "version",
          "type": "uint8"
        }
      ],
      "name": "Initialized",
      "type": "event"
    },
    {
      "anonymous": false,
      "inputs": [
        {
          "indexed": true,
          "internalType": "address",
          "name": "previousOwner",
          "type": "address"
        },
        {
          "indexed": true,
          "internalType": "address",
          "name": "newOwner",
          "type": "address"
        }
      ],
      "name": "OwnershipTransferred",
      "type": "event"
    },
    {
      "inputs": [
        {
          "internalType": "address",
          "name": "_addr",
          "type": "address"
        }
      ],
      "name": "adminSetBridge",
      "outputs": [],
      "stateMutability": "nonpayable",
      "type": "function"
    },
    {
      "inputs": [
        {
          "internalType": "bytes32",
          "name": "",
          "type": "bytes32"
        }
      ],
      "name": "assets",
      "outputs": [
        {
          "internalType": "address",
          "name": "addr",
          "type": "address"
        },
        {
          "internalType": "uint256",
          "name": "tokenId",
          "type": "uint256"
        },
        {
          "internalType": "enum IPrismXXAsset.TokenType",
          "name": "ty",
          "type": "uint8"
        },
        {
          "internalType": "bool",
          "name": "isBurn",
          "type": "bool"
        },
        {
          "internalType": "uint8",
          "name": "decimal",
          "type": "uint8"
        }
      ],
      "stateMutability": "view",
      "type": "function"
    },
    {
      "inputs": [],
      "name": "bridge",
      "outputs": [
        {
          "internalType": "address",
          "name": "",
          "type": "address"
        }
      ],
      "stateMutability": "view",
      "type": "function"
    },
    {
      "inputs": [
        {
          "internalType": "bytes32",
          "name": "_asset",
          "type": "bytes32"
        }
      ],
      "name": "getERC1155Info",
      "outputs": [
        {
          "internalType": "address",
          "name": "",
          "type": "address"
        },
        {
          "internalType": "uint256",
          "name": "",
          "type": "uint256"
        }
      ],
      "stateMutability": "view",
      "type": "function"
    },
    {
      "inputs": [
        {
          "internalType": "bytes32",
          "name": "_asset",
          "type": "bytes32"
        }
      ],
      "name": "getERC20Info",
      "outputs": [
        {
          "internalType": "address",
          "name": "",
          "type": "address"
        }
      ],
      "stateMutability": "view",
      "type": "function"
    },
    {
      "inputs": [
        {
          "internalType": "bytes32",
          "name": "_asset",
          "type": "bytes32"
        }
      ],
      "name": "getERC721Info",
      "outputs": [
        {
          "internalType": "address",
          "name": "",
          "type": "address"
        },
        {
          "internalType": "uint256",
          "name": "",
          "type": "uint256"
        }
      ],
      "stateMutability": "view",
      "type": "function"
    },
    {
      "inputs": [
        {
          "internalType": "bytes32",
          "name": "_asset",
          "type": "bytes32"
        }
      ],
      "name": "getTokenType",
      "outputs": [
        {
          "internalType": "enum IPrismXXAsset.TokenType",
          "name": "",
          "type": "uint8"
        }
      ],
      "stateMutability": "view",
      "type": "function"
    },
    {
      "inputs": [
        {
          "internalType": "address",
          "name": "_bridge",
          "type": "address"
        }
      ],
      "name": "initialize",
      "outputs": [],
      "stateMutability": "nonpayable",
      "type": "function"
    },
    {
      "inputs": [
        {
          "internalType": "bytes32",
          "name": "_asset",
          "type": "bytes32"
        }
      ],
      "name": "isBurn",
      "outputs": [
        {
          "internalType": "bool",
          "name": "",
          "type": "bool"
        }
      ],
      "stateMutability": "view",
      "type": "function"
    },
    {
      "inputs": [],
      "name": "owner",
      "outputs": [
        {
          "internalType": "address",
          "name": "",
          "type": "address"
        }
      ],
      "stateMutability": "view",
      "type": "function"
    },
    {
      "inputs": [],
      "name": "renounceOwnership",
      "outputs": [],
      "stateMutability": "nonpayable",
      "type": "function"
    },
    {
      "inputs": [
        {
          "internalType": "bytes32",
          "name": "_asset",
          "type": "bytes32"
        }
      ],
      "name": "setBurn",
      "outputs": [],
      "stateMutability": "nonpayable",
      "type": "function"
    },
    {
      "inputs": [
        {
          "internalType": "bytes32",
          "name": "_asset",
          "type": "bytes32"
        },
        {
          "internalType": "address",
          "name": "_addr",
          "type": "address"
        },
        {
          "internalType": "uint256",
          "name": "tokenId",
          "type": "uint256"
        }
      ],
      "name": "setERC1155Info",
      "outputs": [],
      "stateMutability": "nonpayable",
      "type": "function"
    },
    {
      "inputs": [
        {
          "internalType": "bytes32",
          "name": "_asset",
          "type": "bytes32"
        },
        {
          "internalType": "address",
          "name": "_addr",
          "type": "address"
        }
      ],
      "name": "setERC20Info",
      "outputs": [],
      "stateMutability": "nonpayable",
      "type": "function"
    },
    {
      "inputs": [
        {
          "internalType": "bytes32",
          "name": "_asset",
          "type": "bytes32"
        },
        {
          "internalType": "address",
          "name": "_addr",
          "type": "address"
        },
        {
          "internalType": "uint256",
          "name": "tokenId",
          "type": "uint256"
        }
      ],
      "name": "setERC721Info",
      "outputs": [],
      "stateMutability": "nonpayable",
      "type": "function"
    },
    {
      "inputs": [
        {
          "internalType": "address",
          "name": "newOwner",
          "type": "address"
        }
      ],
      "name": "transferOwnership",
      "outputs": [],
      "stateMutability": "nonpayable",
      "type": "function"
    }
  ],
  "bytecode": "0x608060405234801561001057600080fd5b5061126a806100206000396000f3fe608060405234801561001057600080fd5b50600436106101005760003560e01c8063a8b7cc1611610097578063d87e0e3211610066578063d87e0e32146102ae578063e78cea92146102df578063ed7e205b146102fd578063f2fde38b1461031957610100565b8063a8b7cc1614610229578063c04fd06c14610245578063c4d66de814610276578063d0e5390d1461029257610100565b8063715018a6116100d3578063715018a61461019d5780638da5cb5b146101a7578063979a9b5e146101c55780639fda5b66146101f557610100565b80630404e3c51461010557806305c62fe3146101355780631996e4f4146101515780631a5a143e14610181575b600080fd5b61011f600480360381019061011a9190610d3f565b610335565b60405161012c9190610f76565b60405180910390f35b61014f600480360381019061014a9190610da4565b610362565b005b61016b60048036038101906101669190610d3f565b610478565b6040516101789190610edf565b60405180910390f35b61019b60048036038101906101969190610d16565b6104b8565b005b6101a5610504565b005b6101af610518565b6040516101bc9190610edf565b60405180910390f35b6101df60048036038101906101da9190610d3f565b610542565b6040516101ec9190610f91565b60405180910390f35b61020f600480360381019061020a9190610d3f565b61056f565b604051610220959493929190610f23565b60405180910390f35b610243600480360381019061023e9190610d3f565b6105ec565b005b61025f600480360381019061025a9190610d3f565b610626565b60405161026d929190610efa565b60405180910390f35b610290600480360381019061028b9190610d16565b610674565b005b6102ac60048036038101906102a79190610da4565b6107ec565b005b6102c860048036038101906102c39190610d3f565b610902565b6040516102d6929190610efa565b60405180910390f35b6102e7610950565b6040516102f49190610edf565b60405180910390f35b61031760048036038101906103129190610d68565b610976565b005b610333600480360381019061032e9190610d16565b610acf565b005b60006066600083815260200190815260200160002060020160019054906101000a900460ff169050919050565b606560009054906101000a900473ffffffffffffffffffffffffffffffffffffffff1673ffffffffffffffffffffffffffffffffffffffff163373ffffffffffffffffffffffffffffffffffffffff16146103bc57600080fd5b6000606660008581526020019081526020016000209050828160000160006101000a81548173ffffffffffffffffffffffffffffffffffffffff021916908373ffffffffffffffffffffffffffffffffffffffff16021790555081816001018190555060018160020160006101000a81548160ff0219169083600281111561046d577f4e487b7100000000000000000000000000000000000000000000000000000000600052602160045260246000fd5b021790555050505050565b60006066600083815260200190815260200160002060000160009054906101000a900473ffffffffffffffffffffffffffffffffffffffff169050919050565b6104c0610b53565b80606560006101000a81548173ffffffffffffffffffffffffffffffffffffffff021916908373ffffffffffffffffffffffffffffffffffffffff16021790555050565b61050c610b53565b6105166000610bd1565b565b6000603360009054906101000a900473ffffffffffffffffffffffffffffffffffffffff16905090565b60006066600083815260200190815260200160002060020160009054906101000a900460ff169050919050565b60666020528060005260406000206000915090508060000160009054906101000a900473ffffffffffffffffffffffffffffffffffffffff16908060010154908060020160009054906101000a900460ff16908060020160019054906101000a900460ff16908060020160029054906101000a900460ff16905085565b6105f4610b53565b60016066600083815260200190815260200160002060020160016101000a81548160ff02191690831515021790555050565b60008060006066600085815260200190815260200160002090508060000160009054906101000a900473ffffffffffffffffffffffffffffffffffffffff1681600101549250925050915091565b60008060019054906101000a900460ff161590508080156106a55750600160008054906101000a900460ff1660ff16105b806106d257506106b430610c97565b1580156106d15750600160008054906101000a900460ff1660ff16145b5b610711576040517f08c379a000000000000000000000000000000000000000000000000000000000815260040161070890610fe7565b60405180910390fd5b60016000806101000a81548160ff021916908360ff160217905550801561074e576001600060016101000a81548160ff0219169083151502179055505b81606560006101000a81548173ffffffffffffffffffffffffffffffffffffffff021916908373ffffffffffffffffffffffffffffffffffffffff16021790555080156107e85760008060016101000a81548160ff0219169083151502179055507f7f26b83ff96e1f2b6a682f133852f6798a09c465da95921460cefb384740249860016040516107df9190610fac565b60405180910390a15b5050565b606560009054906101000a900473ffffffffffffffffffffffffffffffffffffffff1673ffffffffffffffffffffffffffffffffffffffff163373ffffffffffffffffffffffffffffffffffffffff161461084657600080fd5b6000606660008581526020019081526020016000209050828160000160006101000a81548173ffffffffffffffffffffffffffffffffffffffff021916908373ffffffffffffffffffffffffffffffffffffffff16021790555081816001018190555060028160020160006101000a81548160ff021916908360028111156108f7577f4e487b7100000000000000000000000000000000000000000000000000000000600052602160045260246000fd5b021790555050505050565b60008060006066600085815260200190815260200160002090508060000160009054906101000a900473ffffffffffffffffffffffffffffffffffffffff1681600101549250925050915091565b606560009054906101000a900473ffffffffffffffffffffffffffffffffffffffff1681565b606560009054906101000a900473ffffffffffffffffffffffffffffffffffffffff1673ffffffffffffffffffffffffffffffffffffffff163373ffffffffffffffffffffffffffffffffffffffff16146109d057600080fd5b600060666000848152602001908152602001600020905060008290508073ffffffffffffffffffffffffffffffffffffffff1663313ce5676040518163ffffffff1660e01b815260040160206040518083038186803b158015610a3257600080fd5b505afa158015610a46573d6000803e3d6000fd5b505050506040513d601f19601f82011682018060405250810190610a6a9190610df3565b8260020160026101000a81548160ff021916908360ff160217905550828260000160006101000a81548173ffffffffffffffffffffffffffffffffffffffff021916908373ffffffffffffffffffffffffffffffffffffffff16021790555050505050565b610ad7610b53565b600073ffffffffffffffffffffffffffffffffffffffff168173ffffffffffffffffffffffffffffffffffffffff161415610b47576040517f08c379a0000000000000000000000000000000000000000000000000000000008152600401610b3e90610fc7565b60405180910390fd5b610b5081610bd1565b50565b610b5b610cba565b73ffffffffffffffffffffffffffffffffffffffff16610b79610518565b73ffffffffffffffffffffffffffffffffffffffff1614610bcf576040517f08c379a0000000000000000000000000000000000000000000000000000000008152600401610bc690611007565b60405180910390fd5b565b6000603360009054906101000a900473ffffffffffffffffffffffffffffffffffffffff16905081603360006101000a81548173ffffffffffffffffffffffffffffffffffffffff021916908373ffffffffffffffffffffffffffffffffffffffff1602179055508173ffffffffffffffffffffffffffffffffffffffff168173ffffffffffffffffffffffffffffffffffffffff167f8be0079c531659141344cd1fd0a4f28419497f9722a3daafe3b4186f6b6457e060405160405180910390a35050565b6000808273ffffffffffffffffffffffffffffffffffffffff163b119050919050565b600033905090565b600081359050610cd1816111d8565b92915050565b600081359050610ce6816111ef565b92915050565b600081359050610cfb81611206565b92915050565b600081519050610d108161121d565b92915050565b600060208284031215610d2857600080fd5b6000610d3684828501610cc2565b91505092915050565b600060208284031215610d5157600080fd5b6000610d5f84828501610cd7565b91505092915050565b60008060408385031215610d7b57600080fd5b6000610d8985828601610cd7565b9250506020610d9a85828601610cc2565b9150509250929050565b600080600060608486031215610db957600080fd5b6000610dc786828701610cd7565b9350506020610dd886828701610cc2565b9250506040610de986828701610cec565b9150509250925092565b600060208284031215610e0557600080fd5b6000610e1384828501610d01565b91505092915050565b610e2581611038565b82525050565b610e348161104a565b82525050565b610e43816110aa565b82525050565b610e52816110bc565b82525050565b6000610e65602683611027565b9150610e70826110fd565b604082019050919050565b6000610e88602e83611027565b9150610e938261114c565b604082019050919050565b6000610eab602083611027565b9150610eb68261119b565b602082019050919050565b610eca81611093565b82525050565b610ed98161109d565b82525050565b6000602082019050610ef46000830184610e1c565b92915050565b6000604082019050610f0f6000830185610e1c565b610f1c6020830184610ec1565b9392505050565b600060a082019050610f386000830188610e1c565b610f456020830187610ec1565b610f526040830186610e3a565b610f5f6060830185610e2b565b610f6c6080830184610ed0565b9695505050505050565b6000602082019050610f8b6000830184610e2b565b92915050565b6000602082019050610fa66000830184610e3a565b92915050565b6000602082019050610fc16000830184610e49565b92915050565b60006020820190508181036000830152610fe081610e58565b9050919050565b6000602082019050818103600083015261100081610e7b565b9050919050565b6000602082019050818103600083015261102081610e9e565b9050919050565b600082825260208201905092915050565b600061104382611073565b9050919050565b60008115159050919050565b6000819050919050565b600081905061106e826111c4565b919050565b600073ffffffffffffffffffffffffffffffffffffffff82169050919050565b6000819050919050565b600060ff82169050919050565b60006110b582611060565b9050919050565b60006110c78261109d565b9050919050565b7f4e487b7100000000000000000000000000000000000000000000000000000000600052602160045260246000fd5b7f4f776e61626c653a206e6577206f776e657220697320746865207a65726f206160008201527f6464726573730000000000000000000000000000000000000000000000000000602082015250565b7f496e697469616c697a61626c653a20636f6e747261637420697320616c72656160008201527f647920696e697469616c697a6564000000000000000000000000000000000000602082015250565b7f4f776e61626c653a2063616c6c6572206973206e6f7420746865206f776e6572600082015250565b600381106111d5576111d46110ce565b5b50565b6111e181611038565b81146111ec57600080fd5b50565b6111f881611056565b811461120357600080fd5b50565b61120f81611093565b811461121a57600080fd5b50565b6112268161109d565b811461123157600080fd5b5056fea2646970667358221220181ba6630b9ff8f8861d424db9c25aa65503244d453a878f07f5cc7627f439cf64736f6c63430008040033",
  "linkReferences": {},
  "deployedLinkReferences": {}
}